{
	"contract-bed87a3bb7.sol": {
		"WITS": {
			"abi": [
				{
					"inputs": [],
					"stateMutability": "nonpayable",
					"type": "constructor"
				},
				{
					"anonymous": false,
					"inputs": [
						{
							"indexed": false,
							"internalType": "address",
							"name": "previousAdmin",
							"type": "address"
						},
						{
							"indexed": false,
							"internalType": "address",
							"name": "newAdmin",
							"type": "address"
						}
					],
					"name": "AdminChanged",
					"type": "event"
				},
				{
					"anonymous": false,
					"inputs": [
						{
							"indexed": true,
							"internalType": "address",
							"name": "owner",
							"type": "address"
						},
						{
							"indexed": true,
							"internalType": "address",
							"name": "spender",
							"type": "address"
						},
						{
							"indexed": false,
							"internalType": "uint256",
							"name": "value",
							"type": "uint256"
						}
					],
					"name": "Approval",
					"type": "event"
				},
				{
					"anonymous": false,
					"inputs": [
						{
							"indexed": true,
							"internalType": "address",
							"name": "beacon",
							"type": "address"
						}
					],
					"name": "BeaconUpgraded",
					"type": "event"
				},
				{
					"anonymous": false,
					"inputs": [
						{
							"indexed": false,
							"internalType": "uint8",
							"name": "version",
							"type": "uint8"
						}
					],
					"name": "Initialized",
					"type": "event"
				},
				{
					"anonymous": false,
					"inputs": [
						{
							"indexed": true,
							"internalType": "address",
							"name": "previousOwner",
							"type": "address"
						},
						{
							"indexed": true,
							"internalType": "address",
							"name": "newOwner",
							"type": "address"
						}
					],
					"name": "OwnershipTransferred",
					"type": "event"
				},
				{
					"anonymous": false,
					"inputs": [
						{
							"indexed": false,
							"internalType": "address",
							"name": "account",
							"type": "address"
						}
					],
					"name": "Paused",
					"type": "event"
				},
				{
					"anonymous": false,
					"inputs": [
						{
							"indexed": true,
							"internalType": "address",
							"name": "from",
							"type": "address"
						},
						{
							"indexed": true,
							"internalType": "address",
							"name": "to",
							"type": "address"
						},
						{
							"indexed": false,
							"internalType": "uint256",
							"name": "value",
							"type": "uint256"
						}
					],
					"name": "Transfer",
					"type": "event"
				},
				{
					"anonymous": false,
					"inputs": [
						{
							"indexed": false,
							"internalType": "address",
							"name": "account",
							"type": "address"
						}
					],
					"name": "Unpaused",
					"type": "event"
				},
				{
					"anonymous": false,
					"inputs": [
						{
							"indexed": true,
							"internalType": "address",
							"name": "implementation",
							"type": "address"
						}
					],
					"name": "Upgraded",
					"type": "event"
				},
				{
					"inputs": [
						{
							"internalType": "address",
							"name": "owner",
							"type": "address"
						},
						{
							"internalType": "address",
							"name": "spender",
							"type": "address"
						}
					],
					"name": "allowance",
					"outputs": [
						{
							"internalType": "uint256",
							"name": "",
							"type": "uint256"
						}
					],
					"stateMutability": "view",
					"type": "function"
				},
				{
					"inputs": [
						{
							"internalType": "address",
							"name": "spender",
							"type": "address"
						},
						{
							"internalType": "uint256",
							"name": "amount",
							"type": "uint256"
						}
					],
					"name": "approve",
					"outputs": [
						{
							"internalType": "bool",
							"name": "",
							"type": "bool"
						}
					],
					"stateMutability": "nonpayable",
					"type": "function"
				},
				{
					"inputs": [
						{
							"internalType": "address",
							"name": "account",
							"type": "address"
						}
					],
					"name": "balanceOf",
					"outputs": [
						{
							"internalType": "uint256",
							"name": "",
							"type": "uint256"
						}
					],
					"stateMutability": "view",
					"type": "function"
				},
				{
					"inputs": [],
					"name": "decimals",
					"outputs": [
						{
							"internalType": "uint8",
							"name": "",
							"type": "uint8"
						}
					],
					"stateMutability": "view",
					"type": "function"
				},
				{
					"inputs": [
						{
							"internalType": "address",
							"name": "spender",
							"type": "address"
						},
						{
							"internalType": "uint256",
							"name": "subtractedValue",
							"type": "uint256"
						}
					],
					"name": "decreaseAllowance",
					"outputs": [
						{
							"internalType": "bool",
							"name": "",
							"type": "bool"
						}
					],
					"stateMutability": "nonpayable",
					"type": "function"
				},
				{
					"inputs": [
						{
							"internalType": "address",
							"name": "spender",
							"type": "address"
						},
						{
							"internalType": "uint256",
							"name": "addedValue",
							"type": "uint256"
						}
					],
					"name": "increaseAllowance",
					"outputs": [
						{
							"internalType": "bool",
							"name": "",
							"type": "bool"
						}
					],
					"stateMutability": "nonpayable",
					"type": "function"
				},
				{
					"inputs": [],
					"name": "initialize",
					"outputs": [],
					"stateMutability": "nonpayable",
					"type": "function"
				},
				{
					"inputs": [
						{
							"internalType": "address",
							"name": "to",
							"type": "address"
						},
						{
							"internalType": "uint256",
							"name": "amount",
							"type": "uint256"
						}
					],
					"name": "mint",
					"outputs": [],
					"stateMutability": "nonpayable",
					"type": "function"
				},
				{
					"inputs": [],
					"name": "name",
					"outputs": [
						{
							"internalType": "string",
							"name": "",
							"type": "string"
						}
					],
					"stateMutability": "view",
					"type": "function"
				},
				{
					"inputs": [],
					"name": "owner",
					"outputs": [
						{
							"internalType": "address",
							"name": "",
							"type": "address"
						}
					],
					"stateMutability": "view",
					"type": "function"
				},
				{
					"inputs": [],
					"name": "pause",
					"outputs": [],
					"stateMutability": "nonpayable",
					"type": "function"
				},
				{
					"inputs": [],
					"name": "paused",
					"outputs": [
						{
							"internalType": "bool",
							"name": "",
							"type": "bool"
						}
					],
					"stateMutability": "view",
					"type": "function"
				},
				{
					"inputs": [],
					"name": "proxiableUUID",
					"outputs": [
						{
							"internalType": "bytes32",
							"name": "",
							"type": "bytes32"
						}
					],
					"stateMutability": "view",
					"type": "function"
				},
				{
					"inputs": [],
					"name": "renounceOwnership",
					"outputs": [],
					"stateMutability": "nonpayable",
					"type": "function"
				},
				{
					"inputs": [],
					"name": "symbol",
					"outputs": [
						{
							"internalType": "string",
							"name": "",
							"type": "string"
						}
					],
					"stateMutability": "view",
					"type": "function"
				},
				{
					"inputs": [],
					"name": "totalSupply",
					"outputs": [
						{
							"internalType": "uint256",
							"name": "",
							"type": "uint256"
						}
					],
					"stateMutability": "view",
					"type": "function"
				},
				{
					"inputs": [
						{
							"internalType": "address",
							"name": "to",
							"type": "address"
						},
						{
							"internalType": "uint256",
							"name": "amount",
							"type": "uint256"
						}
					],
					"name": "transfer",
					"outputs": [
						{
							"internalType": "bool",
							"name": "",
							"type": "bool"
						}
					],
					"stateMutability": "nonpayable",
					"type": "function"
				},
				{
					"inputs": [
						{
							"internalType": "address",
							"name": "from",
							"type": "address"
						},
						{
							"internalType": "address",
							"name": "to",
							"type": "address"
						},
						{
							"internalType": "uint256",
							"name": "amount",
							"type": "uint256"
						}
					],
					"name": "transferFrom",
					"outputs": [
						{
							"internalType": "bool",
							"name": "",
							"type": "bool"
						}
					],
					"stateMutability": "nonpayable",
					"type": "function"
				},
				{
					"inputs": [
						{
							"internalType": "address",
							"name": "newOwner",
							"type": "address"
						}
					],
					"name": "transferOwnership",
					"outputs": [],
					"stateMutability": "nonpayable",
					"type": "function"
				},
				{
					"inputs": [],
					"name": "unpause",
					"outputs": [],
					"stateMutability": "nonpayable",
					"type": "function"
				},
				{
					"inputs": [
						{
							"internalType": "address",
							"name": "newImplementation",
							"type": "address"
						}
					],
					"name": "upgradeTo",
					"outputs": [],
					"stateMutability": "nonpayable",
					"type": "function"
				},
				{
					"inputs": [
						{
							"internalType": "address",
							"name": "newImplementation",
							"type": "address"
						},
						{
							"internalType": "bytes",
							"name": "data",
							"type": "bytes"
						}
					],
					"name": "upgradeToAndCall",
					"outputs": [],
					"stateMutability": "payable",
					"type": "function"
				}
			],
			"devdoc": {
				"custom:security-contact": "elnowehy@yahoo.com",
				"events": {
					"AdminChanged(address,address)": {
						"details": "Emitted when the admin account has changed."
					},
					"Approval(address,address,uint256)": {
						"details": "Emitted when the allowance of a `spender` for an `owner` is set by a call to {approve}. `value` is the new allowance."
					},
					"BeaconUpgraded(address)": {
						"details": "Emitted when the beacon is changed."
					},
					"Initialized(uint8)": {
						"details": "Triggered when the contract has been initialized or reinitialized."
					},
					"Paused(address)": {
						"details": "Emitted when the pause is triggered by `account`."
					},
					"Transfer(address,address,uint256)": {
						"details": "Emitted when `value` tokens are moved from one account (`from`) to another (`to`). Note that `value` may be zero."
					},
					"Unpaused(address)": {
						"details": "Emitted when the pause is lifted by `account`."
					},
					"Upgraded(address)": {
						"details": "Emitted when the implementation is upgraded."
					}
				},
				"kind": "dev",
				"methods": {
					"allowance(address,address)": {
						"details": "See {IERC20-allowance}."
					},
					"approve(address,uint256)": {
						"details": "See {IERC20-approve}. NOTE: If `amount` is the maximum `uint256`, the allowance is not updated on `transferFrom`. This is semantically equivalent to an infinite approval. Requirements: - `spender` cannot be the zero address."
					},
					"balanceOf(address)": {
						"details": "See {IERC20-balanceOf}."
					},
					"constructor": {
						"custom:oz-upgrades-unsafe-allow": "constructor"
					},
					"decimals()": {
						"details": "Returns the number of decimals used to get its user representation. For example, if `decimals` equals `2`, a balance of `505` tokens should be displayed to a user as `5.05` (`505 / 10 ** 2`). Tokens usually opt for a value of 18, imitating the relationship between Ether and Wei. This is the default value returned by this function, unless it's overridden. NOTE: This information is only used for _display_ purposes: it in no way affects any of the arithmetic of the contract, including {IERC20-balanceOf} and {IERC20-transfer}."
					},
					"decreaseAllowance(address,uint256)": {
						"details": "Atomically decreases the allowance granted to `spender` by the caller. This is an alternative to {approve} that can be used as a mitigation for problems described in {IERC20-approve}. Emits an {Approval} event indicating the updated allowance. Requirements: - `spender` cannot be the zero address. - `spender` must have allowance for the caller of at least `subtractedValue`."
					},
					"increaseAllowance(address,uint256)": {
						"details": "Atomically increases the allowance granted to `spender` by the caller. This is an alternative to {approve} that can be used as a mitigation for problems described in {IERC20-approve}. Emits an {Approval} event indicating the updated allowance. Requirements: - `spender` cannot be the zero address."
					},
					"name()": {
						"details": "Returns the name of the token."
					},
					"owner()": {
						"details": "Returns the address of the current owner."
					},
					"paused()": {
						"details": "Returns true if the contract is paused, and false otherwise."
					},
					"proxiableUUID()": {
						"details": "Implementation of the ERC1822 {proxiableUUID} function. This returns the storage slot used by the implementation. It is used to validate the implementation's compatibility when performing an upgrade. IMPORTANT: A proxy pointing at a proxiable contract should not be considered proxiable itself, because this risks bricking a proxy that upgrades to it, by delegating to itself until out of gas. Thus it is critical that this function revert if invoked through a proxy. This is guaranteed by the `notDelegated` modifier."
					},
					"renounceOwnership()": {
						"details": "Leaves the contract without owner. It will not be possible to call `onlyOwner` functions. Can only be called by the current owner. NOTE: Renouncing ownership will leave the contract without an owner, thereby disabling any functionality that is only available to the owner."
					},
					"symbol()": {
						"details": "Returns the symbol of the token, usually a shorter version of the name."
					},
					"totalSupply()": {
						"details": "See {IERC20-totalSupply}."
					},
					"transfer(address,uint256)": {
						"details": "See {IERC20-transfer}. Requirements: - `to` cannot be the zero address. - the caller must have a balance of at least `amount`."
					},
					"transferFrom(address,address,uint256)": {
						"details": "See {IERC20-transferFrom}. Emits an {Approval} event indicating the updated allowance. This is not required by the EIP. See the note at the beginning of {ERC20}. NOTE: Does not update the allowance if the current allowance is the maximum `uint256`. Requirements: - `from` and `to` cannot be the zero address. - `from` must have a balance of at least `amount`. - the caller must have allowance for ``from``'s tokens of at least `amount`."
					},
					"transferOwnership(address)": {
						"details": "Transfers ownership of the contract to a new account (`newOwner`). Can only be called by the current owner."
					},
					"upgradeTo(address)": {
						"custom:oz-upgrades-unsafe-allow-reachable": "delegatecall",
						"details": "Upgrade the implementation of the proxy to `newImplementation`. Calls {_authorizeUpgrade}. Emits an {Upgraded} event."
					},
					"upgradeToAndCall(address,bytes)": {
						"custom:oz-upgrades-unsafe-allow-reachable": "delegatecall",
						"details": "Upgrade the implementation of the proxy to `newImplementation`, and subsequently execute the function call encoded in `data`. Calls {_authorizeUpgrade}. Emits an {Upgraded} event."
					}
				},
				"version": 1
			},
			"evm": {
				"assembly": "    /* \"contract-bed87a3bb7.sol\":524:1474  contract WITS is Initializable, ERC20Upgradeable, PausableUpgradeable, OwnableUpgradeable, UUPSUpgradeable {... */\n  mstore(0x40, 0xa0)\n    /* \"@openzeppelin/contracts-upgradeable@4.9.3/proxy/utils/UUPSUpgradeable.sol\":1332:1336  this */\n  address\n    /* \"@openzeppelin/contracts-upgradeable@4.9.3/proxy/utils/UUPSUpgradeable.sol\":1289:1337  address private immutable __self = address(this) */\n  0xffffffffffffffffffffffffffffffffffffffff\n  and\n  0x80\n  swap1\n  0xffffffffffffffffffffffffffffffffffffffff\n  and\n  dup2\n  mstore\n  pop\n    /* \"contract-bed87a3bb7.sol\":690:743  constructor() {... */\n  callvalue\n  dup1\n  iszero\n  tag_1\n  jumpi\n  0x00\n  dup1\n  revert\ntag_1:\n  pop\n    /* \"contract-bed87a3bb7.sol\":714:736  _disableInitializers() */\n  tag_4\n    /* \"contract-bed87a3bb7.sol\":714:734  _disableInitializers */\n  shl(0x20, tag_5)\n    /* \"contract-bed87a3bb7.sol\":714:736  _disableInitializers() */\n  0x20\n  shr\n  jump\t// in\ntag_4:\n    /* \"contract-bed87a3bb7.sol\":524:1474  contract WITS is Initializable, ERC20Upgradeable, PausableUpgradeable, OwnableUpgradeable, UUPSUpgradeable {... */\n  jump(tag_6)\n    /* \"@openzeppelin/contracts-upgradeable@4.9.3/proxy/utils/Initializable.sol\":5939:6219  function _disableInitializers() internal virtual {... */\ntag_5:\n    /* \"@openzeppelin/contracts-upgradeable@4.9.3/proxy/utils/Initializable.sol\":6007:6020  _initializing */\n  0x00\n  0x01\n  swap1\n  sload\n  swap1\n  0x0100\n  exp\n  swap1\n  div\n  0xff\n  and\n    /* \"@openzeppelin/contracts-upgradeable@4.9.3/proxy/utils/Initializable.sol\":6006:6020  !_initializing */\n  iszero\n    /* \"@openzeppelin/contracts-upgradeable@4.9.3/proxy/utils/Initializable.sol\":5998:6064  require(!_initializing, \"Initializable: contract is initializing\") */\n  tag_8\n  jumpi\n  mload(0x40)\n  0x08c379a000000000000000000000000000000000000000000000000000000000\n  dup2\n  mstore\n  0x04\n  add\n  tag_9\n  swap1\n  tag_10\n  jump\t// in\ntag_9:\n  mload(0x40)\n  dup1\n  swap2\n  sub\n  swap1\n  revert\ntag_8:\n    /* \"@openzeppelin/contracts-upgradeable@4.9.3/proxy/utils/Initializable.sol\":6094:6109  type(uint8).max */\n  0xff\n    /* \"@openzeppelin/contracts-upgradeable@4.9.3/proxy/utils/Initializable.sol\":6078:6109  _initialized != type(uint8).max */\n  dup1\n  and\n    /* \"@openzeppelin/contracts-upgradeable@4.9.3/proxy/utils/Initializable.sol\":6078:6090  _initialized */\n  0x00\n  dup1\n  sload\n  swap1\n  0x0100\n  exp\n  swap1\n  div\n  0xff\n  and\n    /* \"@openzeppelin/contracts-upgradeable@4.9.3/proxy/utils/Initializable.sol\":6078:6109  _initialized != type(uint8).max */\n  0xff\n  and\n  eq\n    /* \"@openzeppelin/contracts-upgradeable@4.9.3/proxy/utils/Initializable.sol\":6074:6213  if (_initialized != type(uint8).max) {... */\n  tag_11\n  jumpi\n    /* \"@openzeppelin/contracts-upgradeable@4.9.3/proxy/utils/Initializable.sol\":6140:6155  type(uint8).max */\n  0xff\n    /* \"@openzeppelin/contracts-upgradeable@4.9.3/proxy/utils/Initializable.sol\":6125:6137  _initialized */\n  0x00\n  dup1\n    /* \"@openzeppelin/contracts-upgradeable@4.9.3/proxy/utils/Initializable.sol\":6125:6155  _initialized = type(uint8).max */\n  0x0100\n  exp\n  dup2\n  sload\n  dup2\n  0xff\n  mul\n  not\n  and\n  swap1\n  dup4\n  0xff\n  and\n  mul\n  or\n  swap1\n  sstore\n  pop\n    /* \"@openzeppelin/contracts-upgradeable@4.9.3/proxy/utils/Initializable.sol\":6174:6202  Initialized(type(uint8).max) */\n  0x7f26b83ff96e1f2b6a682f133852f6798a09c465da95921460cefb3847402498\n    /* \"@openzeppelin/contracts-upgradeable@4.9.3/proxy/utils/Initializable.sol\":6186:6201  type(uint8).max */\n  0xff\n    /* \"@openzeppelin/contracts-upgradeable@4.9.3/proxy/utils/Initializable.sol\":6174:6202  Initialized(type(uint8).max) */\n  mload(0x40)\n  tag_12\n  swap2\n  swap1\n  tag_13\n  jump\t// in\ntag_12:\n  mload(0x40)\n  dup1\n  swap2\n  sub\n  swap1\n  log1\n    /* \"@openzeppelin/contracts-upgradeable@4.9.3/proxy/utils/Initializable.sol\":6074:6213  if (_initialized != type(uint8).max) {... */\ntag_11:\n    /* \"@openzeppelin/contracts-upgradeable@4.9.3/proxy/utils/Initializable.sol\":5939:6219  function _disableInitializers() internal virtual {... */\n  jump\t// out\n    /* \"#utility.yul\":7:176   */\ntag_14:\n    /* \"#utility.yul\":91:102   */\n  0x00\n    /* \"#utility.yul\":125:131   */\n  dup3\n    /* \"#utility.yul\":120:123   */\n  dup3\n    /* \"#utility.yul\":113:132   */\n  mstore\n    /* \"#utility.yul\":165:169   */\n  0x20\n    /* \"#utility.yul\":160:163   */\n  dup3\n    /* \"#utility.yul\":156:170   */\n  add\n    /* \"#utility.yul\":141:170   */\n  swap1\n  pop\n    /* \"#utility.yul\":7:176   */\n  swap3\n  swap2\n  pop\n  pop\n  jump\t// out\n    /* \"#utility.yul\":182:408   */\ntag_15:\n    /* \"#utility.yul\":322:356   */\n  0x496e697469616c697a61626c653a20636f6e747261637420697320696e697469\n    /* \"#utility.yul\":318:319   */\n  0x00\n    /* \"#utility.yul\":310:316   */\n  dup3\n    /* \"#utility.yul\":306:320   */\n  add\n    /* \"#utility.yul\":299:357   */\n  mstore\n    /* \"#utility.yul\":391:400   */\n  0x616c697a696e6700000000000000000000000000000000000000000000000000\n    /* \"#utility.yul\":386:388   */\n  0x20\n    /* \"#utility.yul\":378:384   */\n  dup3\n    /* \"#utility.yul\":374:389   */\n  add\n    /* \"#utility.yul\":367:401   */\n  mstore\n    /* \"#utility.yul\":182:408   */\n  pop\n  jump\t// out\n    /* \"#utility.yul\":414:780   */\ntag_16:\n    /* \"#utility.yul\":556:559   */\n  0x00\n    /* \"#utility.yul\":577:644   */\n  tag_23\n    /* \"#utility.yul\":641:643   */\n  0x27\n    /* \"#utility.yul\":636:639   */\n  dup4\n    /* \"#utility.yul\":577:644   */\n  tag_14\n  jump\t// in\ntag_23:\n    /* \"#utility.yul\":570:644   */\n  swap2\n  pop\n    /* \"#utility.yul\":653:746   */\n  tag_24\n    /* \"#utility.yul\":742:745   */\n  dup3\n    /* \"#utility.yul\":653:746   */\n  tag_15\n  jump\t// in\ntag_24:\n    /* \"#utility.yul\":771:773   */\n  0x40\n    /* \"#utility.yul\":766:769   */\n  dup3\n    /* \"#utility.yul\":762:774   */\n  add\n    /* \"#utility.yul\":755:774   */\n  swap1\n  pop\n    /* \"#utility.yul\":414:780   */\n  swap2\n  swap1\n  pop\n  jump\t// out\n    /* \"#utility.yul\":786:1205   */\ntag_10:\n    /* \"#utility.yul\":952:956   */\n  0x00\n    /* \"#utility.yul\":990:992   */\n  0x20\n    /* \"#utility.yul\":979:988   */\n  dup3\n    /* \"#utility.yul\":975:993   */\n  add\n    /* \"#utility.yul\":967:993   */\n  swap1\n  pop\n    /* \"#utility.yul\":1039:1048   */\n  dup2\n    /* \"#utility.yul\":1033:1037   */\n  dup2\n    /* \"#utility.yul\":1029:1049   */\n  sub\n    /* \"#utility.yul\":1025:1026   */\n  0x00\n    /* \"#utility.yul\":1014:1023   */\n  dup4\n    /* \"#utility.yul\":1010:1027   */\n  add\n    /* \"#utility.yul\":1003:1050   */\n  mstore\n    /* \"#utility.yul\":1067:1198   */\n  tag_26\n    /* \"#utility.yul\":1193:1197   */\n  dup2\n    /* \"#utility.yul\":1067:1198   */\n  tag_16\n  jump\t// in\ntag_26:\n    /* \"#utility.yul\":1059:1198   */\n  swap1\n  pop\n    /* \"#utility.yul\":786:1205   */\n  swap2\n  swap1\n  pop\n  jump\t// out\n    /* \"#utility.yul\":1211:1297   */\ntag_17:\n    /* \"#utility.yul\":1246:1253   */\n  0x00\n    /* \"#utility.yul\":1286:1290   */\n  0xff\n    /* \"#utility.yul\":1279:1284   */\n  dup3\n    /* \"#utility.yul\":1275:1291   */\n  and\n    /* \"#utility.yul\":1264:1291   */\n  swap1\n  pop\n    /* \"#utility.yul\":1211:1297   */\n  swap2\n  swap1\n  pop\n  jump\t// out\n    /* \"#utility.yul\":1303:1415   */\ntag_18:\n    /* \"#utility.yul\":1386:1408   */\n  tag_29\n    /* \"#utility.yul\":1402:1407   */\n  dup2\n    /* \"#utility.yul\":1386:1408   */\n  tag_17\n  jump\t// in\ntag_29:\n    /* \"#utility.yul\":1381:1384   */\n  dup3\n    /* \"#utility.yul\":1374:1409   */\n  mstore\n    /* \"#utility.yul\":1303:1415   */\n  pop\n  pop\n  jump\t// out\n    /* \"#utility.yul\":1421:1635   */\ntag_13:\n    /* \"#utility.yul\":1510:1514   */\n  0x00\n    /* \"#utility.yul\":1548:1550   */\n  0x20\n    /* \"#utility.yul\":1537:1546   */\n  dup3\n    /* \"#utility.yul\":1533:1551   */\n  add\n    /* \"#utility.yul\":1525:1551   */\n  swap1\n  pop\n    /* \"#utility.yul\":1561:1628   */\n  tag_31\n    /* \"#utility.yul\":1625:1626   */\n  0x00\n    /* \"#utility.yul\":1614:1623   */\n  dup4\n    /* \"#utility.yul\":1610:1627   */\n  add\n    /* \"#utility.yul\":1601:1607   */\n  dup5\n    /* \"#utility.yul\":1561:1628   */\n  tag_18\n  jump\t// in\ntag_31:\n    /* \"#utility.yul\":1421:1635   */\n  swap3\n  swap2\n  pop\n  pop\n  jump\t// out\n    /* \"contract-bed87a3bb7.sol\":524:1474  contract WITS is Initializable, ERC20Upgradeable, PausableUpgradeable, OwnableUpgradeable, UUPSUpgradeable {... */\ntag_6:\n  mload(0x80)\n  codecopy(0x00, dataOffset(sub_0), dataSize(sub_0))\n  0x00\n  assignImmutable(\"0x04858cf527bbe93978e168f56532450d1459771814ce695a45178f6b6b92373a\")\n  return(0x00, dataSize(sub_0))\nstop\n\nsub_0: assembly {\n        /* \"contract-bed87a3bb7.sol\":524:1474  contract WITS is Initializable, ERC20Upgradeable, PausableUpgradeable, OwnableUpgradeable, UUPSUpgradeable {... */\n      mstore(0x40, 0x80)\n      jumpi(tag_1, lt(calldatasize, 0x04))\n      shr(0xe0, calldataload(0x00))\n      dup1\n      0x5c975abb\n      gt\n      tag_24\n      jumpi\n      dup1\n      0x8da5cb5b\n      gt\n      tag_25\n      jumpi\n      dup1\n      0x8da5cb5b\n      eq\n      tag_18\n      jumpi\n      dup1\n      0x95d89b41\n      eq\n      tag_19\n      jumpi\n      dup1\n      0xa457c2d7\n      eq\n      tag_20\n      jumpi\n      dup1\n      0xa9059cbb\n      eq\n      tag_21\n      jumpi\n      dup1\n      0xdd62ed3e\n      eq\n      tag_22\n      jumpi\n      dup1\n      0xf2fde38b\n      eq\n      tag_23\n      jumpi\n      jump(tag_1)\n    tag_25:\n      dup1\n      0x5c975abb\n      eq\n      tag_13\n      jumpi\n      dup1\n      0x70a08231\n      eq\n      tag_14\n      jumpi\n      dup1\n      0x715018a6\n      eq\n      tag_15\n      jumpi\n      dup1\n      0x8129fc1c\n      eq\n      tag_16\n      jumpi\n      dup1\n      0x8456cb59\n      eq\n      tag_17\n      jumpi\n      jump(tag_1)\n    tag_24:\n      dup1\n      0x3659cfe6\n      gt\n      tag_26\n      jumpi\n      dup1\n      0x3659cfe6\n      eq\n      tag_7\n      jumpi\n      dup1\n      0x39509351\n      eq\n      tag_8\n      jumpi\n      dup1\n      0x3f4ba83a\n      eq\n      tag_9\n      jumpi\n      dup1\n      0x40c10f19\n      eq\n      tag_10\n      jumpi\n      dup1\n      0x4f1ef286\n      eq\n      tag_11\n      jumpi\n      dup1\n      0x52d1902d\n      eq\n      tag_12\n      jumpi\n      jump(tag_1)\n    tag_26:\n      dup1\n      0x06fdde03\n      eq\n      tag_2\n      jumpi\n      dup1\n      0x095ea7b3\n      eq\n      tag_3\n      jumpi\n      dup1\n      0x18160ddd\n      eq\n      tag_4\n      jumpi\n      dup1\n      0x23b872dd\n      eq\n      tag_5\n      jumpi\n      dup1\n      0x313ce567\n      eq\n      tag_6\n      jumpi\n    tag_1:\n      0x00\n      dup1\n      revert\n        /* \"@openzeppelin/contracts-upgradeable@4.9.3/token/ERC20/ERC20Upgradeable.sol\":2495:2593  function name() public view virtual override returns (string memory) {... */\n    tag_2:\n      callvalue\n      dup1\n      iszero\n      tag_27\n      jumpi\n      0x00\n      dup1\n      revert\n    tag_27:\n      pop\n      tag_28\n      tag_29\n      jump\t// in\n    tag_28:\n      mload(0x40)\n      tag_30\n      swap2\n      swap1\n      tag_31\n      jump\t// in\n    tag_30:\n      mload(0x40)\n      dup1\n      swap2\n      sub\n      swap1\n      return\n        /* \"@openzeppelin/contracts-upgradeable@4.9.3/token/ERC20/ERC20Upgradeable.sol\":4781:4978  function approve(address spender, uint256 amount) public virtual override returns (bool) {... */\n    tag_3:\n      callvalue\n      dup1\n      iszero\n      tag_32\n      jumpi\n      0x00\n      dup1\n      revert\n    tag_32:\n      pop\n      tag_33\n      0x04\n      dup1\n      calldatasize\n      sub\n      dup2\n      add\n      swap1\n      tag_34\n      swap2\n      swap1\n      tag_35\n      jump\t// in\n    tag_34:\n      tag_36\n      jump\t// in\n    tag_33:\n      mload(0x40)\n      tag_37\n      swap2\n      swap1\n      tag_38\n      jump\t// in\n    tag_37:\n      mload(0x40)\n      dup1\n      swap2\n      sub\n      swap1\n      return\n        /* \"@openzeppelin/contracts-upgradeable@4.9.3/token/ERC20/ERC20Upgradeable.sol\":3592:3698  function totalSupply() public view virtual override returns (uint256) {... */\n    tag_4:\n      callvalue\n      dup1\n      iszero\n      tag_39\n      jumpi\n      0x00\n      dup1\n      revert\n    tag_39:\n      pop\n      tag_40\n      tag_41\n      jump\t// in\n    tag_40:\n      mload(0x40)\n      tag_42\n      swap2\n      swap1\n      tag_43\n      jump\t// in\n    tag_42:\n      mload(0x40)\n      dup1\n      swap2\n      sub\n      swap1\n      return\n        /* \"@openzeppelin/contracts-upgradeable@4.9.3/token/ERC20/ERC20Upgradeable.sol\":5540:5796  function transferFrom(address from, address to, uint256 amount) public virtual override returns (bool) {... */\n    tag_5:\n      callvalue\n      dup1\n      iszero\n      tag_44\n      jumpi\n      0x00\n      dup1\n      revert\n    tag_44:\n      pop\n      tag_45\n      0x04\n      dup1\n      calldatasize\n      sub\n      dup2\n      add\n      swap1\n      tag_46\n      swap2\n      swap1\n      tag_47\n      jump\t// in\n    tag_46:\n      tag_48\n      jump\t// in\n    tag_45:\n      mload(0x40)\n      tag_49\n      swap2\n      swap1\n      tag_38\n      jump\t// in\n    tag_49:\n      mload(0x40)\n      dup1\n      swap2\n      sub\n      swap1\n      return\n        /* \"@openzeppelin/contracts-upgradeable@4.9.3/token/ERC20/ERC20Upgradeable.sol\":3441:3532  function decimals() public view virtual override returns (uint8) {... */\n    tag_6:\n      callvalue\n      dup1\n      iszero\n      tag_50\n      jumpi\n      0x00\n      dup1\n      revert\n    tag_50:\n      pop\n      tag_51\n      tag_52\n      jump\t// in\n    tag_51:\n      mload(0x40)\n      tag_53\n      swap2\n      swap1\n      tag_54\n      jump\t// in\n    tag_53:\n      mload(0x40)\n      dup1\n      swap2\n      sub\n      swap1\n      return\n        /* \"@openzeppelin/contracts-upgradeable@4.9.3/proxy/utils/UUPSUpgradeable.sol\":3387:3582  function upgradeTo(address newImplementation) public virtual onlyProxy {... */\n    tag_7:\n      callvalue\n      dup1\n      iszero\n      tag_55\n      jumpi\n      0x00\n      dup1\n      revert\n    tag_55:\n      pop\n      tag_56\n      0x04\n      dup1\n      calldatasize\n      sub\n      dup2\n      add\n      swap1\n      tag_57\n      swap2\n      swap1\n      tag_58\n      jump\t// in\n    tag_57:\n      tag_59\n      jump\t// in\n    tag_56:\n      stop\n        /* \"@openzeppelin/contracts-upgradeable@4.9.3/token/ERC20/ERC20Upgradeable.sol\":6191:6425  function increaseAllowance(address spender, uint256 addedValue) public virtual returns (bool) {... */\n    tag_8:\n      callvalue\n      dup1\n      iszero\n      tag_60\n      jumpi\n      0x00\n      dup1\n      revert\n    tag_60:\n      pop\n      tag_61\n      0x04\n      dup1\n      calldatasize\n      sub\n      dup2\n      add\n      swap1\n      tag_62\n      swap2\n      swap1\n      tag_35\n      jump\t// in\n    tag_62:\n      tag_63\n      jump\t// in\n    tag_61:\n      mload(0x40)\n      tag_64\n      swap2\n      swap1\n      tag_38\n      jump\t// in\n    tag_64:\n      mload(0x40)\n      dup1\n      swap2\n      sub\n      swap1\n      return\n        /* \"contract-bed87a3bb7.sol\":993:1056  function unpause() public onlyOwner {... */\n    tag_9:\n      callvalue\n      dup1\n      iszero\n      tag_65\n      jumpi\n      0x00\n      dup1\n      revert\n    tag_65:\n      pop\n      tag_66\n      tag_67\n      jump\t// in\n    tag_66:\n      stop\n        /* \"contract-bed87a3bb7.sol\":1062:1155  function mint(address to, uint256 amount) public onlyOwner {... */\n    tag_10:\n      callvalue\n      dup1\n      iszero\n      tag_68\n      jumpi\n      0x00\n      dup1\n      revert\n    tag_68:\n      pop\n      tag_69\n      0x04\n      dup1\n      calldatasize\n      sub\n      dup2\n      add\n      swap1\n      tag_70\n      swap2\n      swap1\n      tag_35\n      jump\t// in\n    tag_70:\n      tag_71\n      jump\t// in\n    tag_69:\n      stop\n        /* \"@openzeppelin/contracts-upgradeable@4.9.3/proxy/utils/UUPSUpgradeable.sol\":3901:4121  function upgradeToAndCall(address newImplementation, bytes memory data) public payable virtual onlyProxy {... */\n    tag_11:\n      tag_72\n      0x04\n      dup1\n      calldatasize\n      sub\n      dup2\n      add\n      swap1\n      tag_73\n      swap2\n      swap1\n      tag_74\n      jump\t// in\n    tag_73:\n      tag_75\n      jump\t// in\n    tag_72:\n      stop\n        /* \"@openzeppelin/contracts-upgradeable@4.9.3/proxy/utils/UUPSUpgradeable.sol\":3006:3137  function proxiableUUID() external view virtual override notDelegated returns (bytes32) {... */\n    tag_12:\n      callvalue\n      dup1\n      iszero\n      tag_76\n      jumpi\n      0x00\n      dup1\n      revert\n    tag_76:\n      pop\n      tag_77\n      tag_78\n      jump\t// in\n    tag_77:\n      mload(0x40)\n      tag_79\n      swap2\n      swap1\n      tag_80\n      jump\t// in\n    tag_79:\n      mload(0x40)\n      dup1\n      swap2\n      sub\n      swap1\n      return\n        /* \"@openzeppelin/contracts-upgradeable@4.9.3/security/PausableUpgradeable.sol\":1858:1942  function paused() public view virtual returns (bool) {... */\n    tag_13:\n      callvalue\n      dup1\n      iszero\n      tag_81\n      jumpi\n      0x00\n      dup1\n      revert\n    tag_81:\n      pop\n      tag_82\n      tag_83\n      jump\t// in\n    tag_82:\n      mload(0x40)\n      tag_84\n      swap2\n      swap1\n      tag_38\n      jump\t// in\n    tag_84:\n      mload(0x40)\n      dup1\n      swap2\n      sub\n      swap1\n      return\n        /* \"@openzeppelin/contracts-upgradeable@4.9.3/token/ERC20/ERC20Upgradeable.sol\":3756:3881  function balanceOf(address account) public view virtual override returns (uint256) {... */\n    tag_14:\n      callvalue\n      dup1\n      iszero\n      tag_85\n      jumpi\n      0x00\n      dup1\n      revert\n    tag_85:\n      pop\n      tag_86\n      0x04\n      dup1\n      calldatasize\n      sub\n      dup2\n      add\n      swap1\n      tag_87\n      swap2\n      swap1\n      tag_58\n      jump\t// in\n    tag_87:\n      tag_88\n      jump\t// in\n    tag_86:\n      mload(0x40)\n      tag_89\n      swap2\n      swap1\n      tag_43\n      jump\t// in\n    tag_89:\n      mload(0x40)\n      dup1\n      swap2\n      sub\n      swap1\n      return\n        /* \"@openzeppelin/contracts-upgradeable@4.9.3/access/OwnableUpgradeable.sol\":2064:2165  function renounceOwnership() public virtual onlyOwner {... */\n    tag_15:\n      callvalue\n      dup1\n      iszero\n      tag_90\n      jumpi\n      0x00\n      dup1\n      revert\n    tag_90:\n      pop\n      tag_91\n      tag_92\n      jump\t// in\n    tag_91:\n      stop\n        /* \"contract-bed87a3bb7.sol\":749:922  function initialize() initializer public {... */\n    tag_16:\n      callvalue\n      dup1\n      iszero\n      tag_93\n      jumpi\n      0x00\n      dup1\n      revert\n    tag_93:\n      pop\n      tag_94\n      tag_95\n      jump\t// in\n    tag_94:\n      stop\n        /* \"contract-bed87a3bb7.sol\":928:987  function pause() public onlyOwner {... */\n    tag_17:\n      callvalue\n      dup1\n      iszero\n      tag_96\n      jumpi\n      0x00\n      dup1\n      revert\n    tag_96:\n      pop\n      tag_97\n      tag_98\n      jump\t// in\n    tag_97:\n      stop\n        /* \"@openzeppelin/contracts-upgradeable@4.9.3/access/OwnableUpgradeable.sol\":1441:1526  function owner() public view virtual returns (address) {... */\n    tag_18:\n      callvalue\n      dup1\n      iszero\n      tag_99\n      jumpi\n      0x00\n      dup1\n      revert\n    tag_99:\n      pop\n      tag_100\n      tag_101\n      jump\t// in\n    tag_100:\n      mload(0x40)\n      tag_102\n      swap2\n      swap1\n      tag_103\n      jump\t// in\n    tag_102:\n      mload(0x40)\n      dup1\n      swap2\n      sub\n      swap1\n      return\n        /* \"@openzeppelin/contracts-upgradeable@4.9.3/token/ERC20/ERC20Upgradeable.sol\":2706:2808  function symbol() public view virtual override returns (string memory) {... */\n    tag_19:\n      callvalue\n      dup1\n      iszero\n      tag_104\n      jumpi\n      0x00\n      dup1\n      revert\n    tag_104:\n      pop\n      tag_105\n      tag_106\n      jump\t// in\n    tag_105:\n      mload(0x40)\n      tag_107\n      swap2\n      swap1\n      tag_31\n      jump\t// in\n    tag_107:\n      mload(0x40)\n      dup1\n      swap2\n      sub\n      swap1\n      return\n        /* \"@openzeppelin/contracts-upgradeable@4.9.3/token/ERC20/ERC20Upgradeable.sol\":6912:7339  function decreaseAllowance(address spender, uint256 subtractedValue) public virtual returns (bool) {... */\n    tag_20:\n      callvalue\n      dup1\n      iszero\n      tag_108\n      jumpi\n      0x00\n      dup1\n      revert\n    tag_108:\n      pop\n      tag_109\n      0x04\n      dup1\n      calldatasize\n      sub\n      dup2\n      add\n      swap1\n      tag_110\n      swap2\n      swap1\n      tag_35\n      jump\t// in\n    tag_110:\n      tag_111\n      jump\t// in\n    tag_109:\n      mload(0x40)\n      tag_112\n      swap2\n      swap1\n      tag_38\n      jump\t// in\n    tag_112:\n      mload(0x40)\n      dup1\n      swap2\n      sub\n      swap1\n      return\n        /* \"@openzeppelin/contracts-upgradeable@4.9.3/token/ERC20/ERC20Upgradeable.sol\":4077:4266  function transfer(address to, uint256 amount) public virtual override returns (bool) {... */\n    tag_21:\n      callvalue\n      dup1\n      iszero\n      tag_113\n      jumpi\n      0x00\n      dup1\n      revert\n    tag_113:\n      pop\n      tag_114\n      0x04\n      dup1\n      calldatasize\n      sub\n      dup2\n      add\n      swap1\n      tag_115\n      swap2\n      swap1\n      tag_35\n      jump\t// in\n    tag_115:\n      tag_116\n      jump\t// in\n    tag_114:\n      mload(0x40)\n      tag_117\n      swap2\n      swap1\n      tag_38\n      jump\t// in\n    tag_117:\n      mload(0x40)\n      dup1\n      swap2\n      sub\n      swap1\n      return\n        /* \"@openzeppelin/contracts-upgradeable@4.9.3/token/ERC20/ERC20Upgradeable.sol\":4324:4473  function allowance(address owner, address spender) public view virtual override returns (uint256) {... */\n    tag_22:\n      callvalue\n      dup1\n      iszero\n      tag_118\n      jumpi\n      0x00\n      dup1\n      revert\n    tag_118:\n      pop\n      tag_119\n      0x04\n      dup1\n      calldatasize\n      sub\n      dup2\n      add\n      swap1\n      tag_120\n      swap2\n      swap1\n      tag_121\n      jump\t// in\n    tag_120:\n      tag_122\n      jump\t// in\n    tag_119:\n      mload(0x40)\n      tag_123\n      swap2\n      swap1\n      tag_43\n      jump\t// in\n    tag_123:\n      mload(0x40)\n      dup1\n      swap2\n      sub\n      swap1\n      return\n        /* \"@openzeppelin/contracts-upgradeable@4.9.3/access/OwnableUpgradeable.sol\":2314:2512  function transferOwnership(address newOwner) public virtual onlyOwner {... */\n    tag_23:\n      callvalue\n      dup1\n      iszero\n      tag_124\n      jumpi\n      0x00\n      dup1\n      revert\n    tag_124:\n      pop\n      tag_125\n      0x04\n      dup1\n      calldatasize\n      sub\n      dup2\n      add\n      swap1\n      tag_126\n      swap2\n      swap1\n      tag_58\n      jump\t// in\n    tag_126:\n      tag_127\n      jump\t// in\n    tag_125:\n      stop\n        /* \"@openzeppelin/contracts-upgradeable@4.9.3/token/ERC20/ERC20Upgradeable.sol\":2495:2593  function name() public view virtual override returns (string memory) {... */\n    tag_29:\n        /* \"@openzeppelin/contracts-upgradeable@4.9.3/token/ERC20/ERC20Upgradeable.sol\":2549:2562  string memory */\n      0x60\n        /* \"@openzeppelin/contracts-upgradeable@4.9.3/token/ERC20/ERC20Upgradeable.sol\":2581:2586  _name */\n      0x36\n        /* \"@openzeppelin/contracts-upgradeable@4.9.3/token/ERC20/ERC20Upgradeable.sol\":2574:2586  return _name */\n      dup1\n      sload\n      tag_129\n      swap1\n      tag_130\n      jump\t// in\n    tag_129:\n      dup1\n      0x1f\n      add\n      0x20\n      dup1\n      swap2\n      div\n      mul\n      0x20\n      add\n      mload(0x40)\n      swap1\n      dup2\n      add\n      0x40\n      mstore\n      dup1\n      swap3\n      swap2\n      swap1\n      dup2\n      dup2\n      mstore\n      0x20\n      add\n      dup3\n      dup1\n      sload\n      tag_131\n      swap1\n      tag_130\n      jump\t// in\n    tag_131:\n      dup1\n      iszero\n      tag_132\n      jumpi\n      dup1\n      0x1f\n      lt\n      tag_133\n      jumpi\n      0x0100\n      dup1\n      dup4\n      sload\n      div\n      mul\n      dup4\n      mstore\n      swap2\n      0x20\n      add\n      swap2\n      jump(tag_132)\n    tag_133:\n      dup3\n      add\n      swap2\n      swap1\n      0x00\n      mstore\n      keccak256(0x00, 0x20)\n      swap1\n    tag_134:\n      dup2\n      sload\n      dup2\n      mstore\n      swap1\n      0x01\n      add\n      swap1\n      0x20\n      add\n      dup1\n      dup4\n      gt\n      tag_134\n      jumpi\n      dup3\n      swap1\n      sub\n      0x1f\n      and\n      dup3\n      add\n      swap2\n    tag_132:\n      pop\n      pop\n      pop\n      pop\n      pop\n      swap1\n      pop\n        /* \"@openzeppelin/contracts-upgradeable@4.9.3/token/ERC20/ERC20Upgradeable.sol\":2495:2593  function name() public view virtual override returns (string memory) {... */\n      swap1\n      jump\t// out\n        /* \"@openzeppelin/contracts-upgradeable@4.9.3/token/ERC20/ERC20Upgradeable.sol\":4781:4978  function approve(address spender, uint256 amount) public virtual override returns (bool) {... */\n    tag_36:\n        /* \"@openzeppelin/contracts-upgradeable@4.9.3/token/ERC20/ERC20Upgradeable.sol\":4864:4868  bool */\n      0x00\n        /* \"@openzeppelin/contracts-upgradeable@4.9.3/token/ERC20/ERC20Upgradeable.sol\":4880:4893  address owner */\n      dup1\n        /* \"@openzeppelin/contracts-upgradeable@4.9.3/token/ERC20/ERC20Upgradeable.sol\":4896:4908  _msgSender() */\n      tag_136\n        /* \"@openzeppelin/contracts-upgradeable@4.9.3/token/ERC20/ERC20Upgradeable.sol\":4896:4906  _msgSender */\n      tag_137\n        /* \"@openzeppelin/contracts-upgradeable@4.9.3/token/ERC20/ERC20Upgradeable.sol\":4896:4908  _msgSender() */\n      jump\t// in\n    tag_136:\n        /* \"@openzeppelin/contracts-upgradeable@4.9.3/token/ERC20/ERC20Upgradeable.sol\":4880:4908  address owner = _msgSender() */\n      swap1\n      pop\n        /* \"@openzeppelin/contracts-upgradeable@4.9.3/token/ERC20/ERC20Upgradeable.sol\":4918:4950  _approve(owner, spender, amount) */\n      tag_138\n        /* \"@openzeppelin/contracts-upgradeable@4.9.3/token/ERC20/ERC20Upgradeable.sol\":4927:4932  owner */\n      dup2\n        /* \"@openzeppelin/contracts-upgradeable@4.9.3/token/ERC20/ERC20Upgradeable.sol\":4934:4941  spender */\n      dup6\n        /* \"@openzeppelin/contracts-upgradeable@4.9.3/token/ERC20/ERC20Upgradeable.sol\":4943:4949  amount */\n      dup6\n        /* \"@openzeppelin/contracts-upgradeable@4.9.3/token/ERC20/ERC20Upgradeable.sol\":4918:4926  _approve */\n      tag_139\n        /* \"@openzeppelin/contracts-upgradeable@4.9.3/token/ERC20/ERC20Upgradeable.sol\":4918:4950  _approve(owner, spender, amount) */\n      jump\t// in\n    tag_138:\n        /* \"@openzeppelin/contracts-upgradeable@4.9.3/token/ERC20/ERC20Upgradeable.sol\":4967:4971  true */\n      0x01\n        /* \"@openzeppelin/contracts-upgradeable@4.9.3/token/ERC20/ERC20Upgradeable.sol\":4960:4971  return true */\n      swap2\n      pop\n      pop\n        /* \"@openzeppelin/contracts-upgradeable@4.9.3/token/ERC20/ERC20Upgradeable.sol\":4781:4978  function approve(address spender, uint256 amount) public virtual override returns (bool) {... */\n      swap3\n      swap2\n      pop\n      pop\n      jump\t// out\n        /* \"@openzeppelin/contracts-upgradeable@4.9.3/token/ERC20/ERC20Upgradeable.sol\":3592:3698  function totalSupply() public view virtual override returns (uint256) {... */\n    tag_41:\n        /* \"@openzeppelin/contracts-upgradeable@4.9.3/token/ERC20/ERC20Upgradeable.sol\":3653:3660  uint256 */\n      0x00\n        /* \"@openzeppelin/contracts-upgradeable@4.9.3/token/ERC20/ERC20Upgradeable.sol\":3679:3691  _totalSupply */\n      sload(0x35)\n        /* \"@openzeppelin/contracts-upgradeable@4.9.3/token/ERC20/ERC20Upgradeable.sol\":3672:3691  return _totalSupply */\n      swap1\n      pop\n        /* \"@openzeppelin/contracts-upgradeable@4.9.3/token/ERC20/ERC20Upgradeable.sol\":3592:3698  function totalSupply() public view virtual override returns (uint256) {... */\n      swap1\n      jump\t// out\n        /* \"@openzeppelin/contracts-upgradeable@4.9.3/token/ERC20/ERC20Upgradeable.sol\":5540:5796  function transferFrom(address from, address to, uint256 amount) public virtual override returns (bool) {... */\n    tag_48:\n        /* \"@openzeppelin/contracts-upgradeable@4.9.3/token/ERC20/ERC20Upgradeable.sol\":5637:5641  bool */\n      0x00\n        /* \"@openzeppelin/contracts-upgradeable@4.9.3/token/ERC20/ERC20Upgradeable.sol\":5653:5668  address spender */\n      dup1\n        /* \"@openzeppelin/contracts-upgradeable@4.9.3/token/ERC20/ERC20Upgradeable.sol\":5671:5683  _msgSender() */\n      tag_142\n        /* \"@openzeppelin/contracts-upgradeable@4.9.3/token/ERC20/ERC20Upgradeable.sol\":5671:5681  _msgSender */\n      tag_137\n        /* \"@openzeppelin/contracts-upgradeable@4.9.3/token/ERC20/ERC20Upgradeable.sol\":5671:5683  _msgSender() */\n      jump\t// in\n    tag_142:\n        /* \"@openzeppelin/contracts-upgradeable@4.9.3/token/ERC20/ERC20Upgradeable.sol\":5653:5683  address spender = _msgSender() */\n      swap1\n      pop\n        /* \"@openzeppelin/contracts-upgradeable@4.9.3/token/ERC20/ERC20Upgradeable.sol\":5693:5731  _spendAllowance(from, spender, amount) */\n      tag_143\n        /* \"@openzeppelin/contracts-upgradeable@4.9.3/token/ERC20/ERC20Upgradeable.sol\":5709:5713  from */\n      dup6\n        /* \"@openzeppelin/contracts-upgradeable@4.9.3/token/ERC20/ERC20Upgradeable.sol\":5715:5722  spender */\n      dup3\n        /* \"@openzeppelin/contracts-upgradeable@4.9.3/token/ERC20/ERC20Upgradeable.sol\":5724:5730  amount */\n      dup6\n        /* \"@openzeppelin/contracts-upgradeable@4.9.3/token/ERC20/ERC20Upgradeable.sol\":5693:5708  _spendAllowance */\n      tag_144\n        /* \"@openzeppelin/contracts-upgradeable@4.9.3/token/ERC20/ERC20Upgradeable.sol\":5693:5731  _spendAllowance(from, spender, amount) */\n      jump\t// in\n    tag_143:\n        /* \"@openzeppelin/contracts-upgradeable@4.9.3/token/ERC20/ERC20Upgradeable.sol\":5741:5768  _transfer(from, to, amount) */\n      tag_145\n        /* \"@openzeppelin/contracts-upgradeable@4.9.3/token/ERC20/ERC20Upgradeable.sol\":5751:5755  from */\n      dup6\n        /* \"@openzeppelin/contracts-upgradeable@4.9.3/token/ERC20/ERC20Upgradeable.sol\":5757:5759  to */\n      dup6\n        /* \"@openzeppelin/contracts-upgradeable@4.9.3/token/ERC20/ERC20Upgradeable.sol\":5761:5767  amount */\n      dup6\n        /* \"@openzeppelin/contracts-upgradeable@4.9.3/token/ERC20/ERC20Upgradeable.sol\":5741:5750  _transfer */\n      tag_146\n        /* \"@openzeppelin/contracts-upgradeable@4.9.3/token/ERC20/ERC20Upgradeable.sol\":5741:5768  _transfer(from, to, amount) */\n      jump\t// in\n    tag_145:\n        /* \"@openzeppelin/contracts-upgradeable@4.9.3/token/ERC20/ERC20Upgradeable.sol\":5785:5789  true */\n      0x01\n        /* \"@openzeppelin/contracts-upgradeable@4.9.3/token/ERC20/ERC20Upgradeable.sol\":5778:5789  return true */\n      swap2\n      pop\n      pop\n        /* \"@openzeppelin/contracts-upgradeable@4.9.3/token/ERC20/ERC20Upgradeable.sol\":5540:5796  function transferFrom(address from, address to, uint256 amount) public virtual override returns (bool) {... */\n      swap4\n      swap3\n      pop\n      pop\n      pop\n      jump\t// out\n        /* \"@openzeppelin/contracts-upgradeable@4.9.3/token/ERC20/ERC20Upgradeable.sol\":3441:3532  function decimals() public view virtual override returns (uint8) {... */\n    tag_52:\n        /* \"@openzeppelin/contracts-upgradeable@4.9.3/token/ERC20/ERC20Upgradeable.sol\":3499:3504  uint8 */\n      0x00\n        /* \"@openzeppelin/contracts-upgradeable@4.9.3/token/ERC20/ERC20Upgradeable.sol\":3523:3525  18 */\n      0x12\n        /* \"@openzeppelin/contracts-upgradeable@4.9.3/token/ERC20/ERC20Upgradeable.sol\":3516:3525  return 18 */\n      swap1\n      pop\n        /* \"@openzeppelin/contracts-upgradeable@4.9.3/token/ERC20/ERC20Upgradeable.sol\":3441:3532  function decimals() public view virtual override returns (uint8) {... */\n      swap1\n      jump\t// out\n        /* \"@openzeppelin/contracts-upgradeable@4.9.3/proxy/utils/UUPSUpgradeable.sol\":3387:3582  function upgradeTo(address newImplementation) public virtual onlyProxy {... */\n    tag_59:\n        /* \"@openzeppelin/contracts-upgradeable@4.9.3/proxy/utils/UUPSUpgradeable.sol\":1898:1904  __self */\n      immutable(\"0x04858cf527bbe93978e168f56532450d1459771814ce695a45178f6b6b92373a\")\n        /* \"@openzeppelin/contracts-upgradeable@4.9.3/proxy/utils/UUPSUpgradeable.sol\":1881:1904  address(this) != __self */\n      0xffffffffffffffffffffffffffffffffffffffff\n      and\n        /* \"@openzeppelin/contracts-upgradeable@4.9.3/proxy/utils/UUPSUpgradeable.sol\":1889:1893  this */\n      address\n        /* \"@openzeppelin/contracts-upgradeable@4.9.3/proxy/utils/UUPSUpgradeable.sol\":1881:1904  address(this) != __self */\n      0xffffffffffffffffffffffffffffffffffffffff\n      and\n      sub\n        /* \"@openzeppelin/contracts-upgradeable@4.9.3/proxy/utils/UUPSUpgradeable.sol\":1873:1953  require(address(this) != __self, \"Function must be called through delegatecall\") */\n      tag_149\n      jumpi\n      mload(0x40)\n      0x08c379a000000000000000000000000000000000000000000000000000000000\n      dup2\n      mstore\n      0x04\n      add\n      tag_150\n      swap1\n      tag_151\n      jump\t// in\n    tag_150:\n      mload(0x40)\n      dup1\n      swap2\n      sub\n      swap1\n      revert\n    tag_149:\n        /* \"@openzeppelin/contracts-upgradeable@4.9.3/proxy/utils/UUPSUpgradeable.sol\":1995:2001  __self */\n      immutable(\"0x04858cf527bbe93978e168f56532450d1459771814ce695a45178f6b6b92373a\")\n        /* \"@openzeppelin/contracts-upgradeable@4.9.3/proxy/utils/UUPSUpgradeable.sol\":1971:2001  _getImplementation() == __self */\n      0xffffffffffffffffffffffffffffffffffffffff\n      and\n        /* \"@openzeppelin/contracts-upgradeable@4.9.3/proxy/utils/UUPSUpgradeable.sol\":1971:1991  _getImplementation() */\n      tag_152\n        /* \"@openzeppelin/contracts-upgradeable@4.9.3/proxy/utils/UUPSUpgradeable.sol\":1971:1989  _getImplementation */\n      tag_153\n        /* \"@openzeppelin/contracts-upgradeable@4.9.3/proxy/utils/UUPSUpgradeable.sol\":1971:1991  _getImplementation() */\n      jump\t// in\n    tag_152:\n        /* \"@openzeppelin/contracts-upgradeable@4.9.3/proxy/utils/UUPSUpgradeable.sol\":1971:2001  _getImplementation() == __self */\n      0xffffffffffffffffffffffffffffffffffffffff\n      and\n      eq\n        /* \"@openzeppelin/contracts-upgradeable@4.9.3/proxy/utils/UUPSUpgradeable.sol\":1963:2050  require(_getImplementation() == __self, \"Function must be called through active proxy\") */\n      tag_154\n      jumpi\n      mload(0x40)\n      0x08c379a000000000000000000000000000000000000000000000000000000000\n      dup2\n      mstore\n      0x04\n      add\n      tag_155\n      swap1\n      tag_156\n      jump\t// in\n    tag_155:\n      mload(0x40)\n      dup1\n      swap2\n      sub\n      swap1\n      revert\n    tag_154:\n        /* \"@openzeppelin/contracts-upgradeable@4.9.3/proxy/utils/UUPSUpgradeable.sol\":3468:3504  _authorizeUpgrade(newImplementation) */\n      tag_158\n        /* \"@openzeppelin/contracts-upgradeable@4.9.3/proxy/utils/UUPSUpgradeable.sol\":3486:3503  newImplementation */\n      dup2\n        /* \"@openzeppelin/contracts-upgradeable@4.9.3/proxy/utils/UUPSUpgradeable.sol\":3468:3485  _authorizeUpgrade */\n      tag_159\n        /* \"@openzeppelin/contracts-upgradeable@4.9.3/proxy/utils/UUPSUpgradeable.sol\":3468:3504  _authorizeUpgrade(newImplementation) */\n      jump\t// in\n    tag_158:\n        /* \"@openzeppelin/contracts-upgradeable@4.9.3/proxy/utils/UUPSUpgradeable.sol\":3514:3575  _upgradeToAndCallUUPS(newImplementation, new bytes(0), false) */\n      tag_160\n        /* \"@openzeppelin/contracts-upgradeable@4.9.3/proxy/utils/UUPSUpgradeable.sol\":3536:3553  newImplementation */\n      dup2\n        /* \"@openzeppelin/contracts-upgradeable@4.9.3/proxy/utils/UUPSUpgradeable.sol\":3565:3566  0 */\n      0x00\n        /* \"@openzeppelin/contracts-upgradeable@4.9.3/proxy/utils/UUPSUpgradeable.sol\":3555:3567  new bytes(0) */\n      0xffffffffffffffff\n      dup2\n      gt\n      iszero\n      tag_161\n      jumpi\n      tag_162\n      tag_163\n      jump\t// in\n    tag_162:\n    tag_161:\n      mload(0x40)\n      swap1\n      dup1\n      dup3\n      mstore\n      dup1\n      0x1f\n      add\n      not(0x1f)\n      and\n      0x20\n      add\n      dup3\n      add\n      0x40\n      mstore\n      dup1\n      iszero\n      tag_164\n      jumpi\n      dup2\n      0x20\n      add\n      0x01\n      dup3\n      mul\n      dup1\n      calldatasize\n      dup4\n      calldatacopy\n      dup1\n      dup3\n      add\n      swap2\n      pop\n      pop\n      swap1\n      pop\n    tag_164:\n      pop\n        /* \"@openzeppelin/contracts-upgradeable@4.9.3/proxy/utils/UUPSUpgradeable.sol\":3569:3574  false */\n      0x00\n        /* \"@openzeppelin/contracts-upgradeable@4.9.3/proxy/utils/UUPSUpgradeable.sol\":3514:3535  _upgradeToAndCallUUPS */\n      tag_165\n        /* \"@openzeppelin/contracts-upgradeable@4.9.3/proxy/utils/UUPSUpgradeable.sol\":3514:3575  _upgradeToAndCallUUPS(newImplementation, new bytes(0), false) */\n      jump\t// in\n    tag_160:\n        /* \"@openzeppelin/contracts-upgradeable@4.9.3/proxy/utils/UUPSUpgradeable.sol\":3387:3582  function upgradeTo(address newImplementation) public virtual onlyProxy {... */\n      pop\n      jump\t// out\n        /* \"@openzeppelin/contracts-upgradeable@4.9.3/token/ERC20/ERC20Upgradeable.sol\":6191:6425  function increaseAllowance(address spender, uint256 addedValue) public virtual returns (bool) {... */\n    tag_63:\n        /* \"@openzeppelin/contracts-upgradeable@4.9.3/token/ERC20/ERC20Upgradeable.sol\":6279:6283  bool */\n      0x00\n        /* \"@openzeppelin/contracts-upgradeable@4.9.3/token/ERC20/ERC20Upgradeable.sol\":6295:6308  address owner */\n      dup1\n        /* \"@openzeppelin/contracts-upgradeable@4.9.3/token/ERC20/ERC20Upgradeable.sol\":6311:6323  _msgSender() */\n      tag_167\n        /* \"@openzeppelin/contracts-upgradeable@4.9.3/token/ERC20/ERC20Upgradeable.sol\":6311:6321  _msgSender */\n      tag_137\n        /* \"@openzeppelin/contracts-upgradeable@4.9.3/token/ERC20/ERC20Upgradeable.sol\":6311:6323  _msgSender() */\n      jump\t// in\n    tag_167:\n        /* \"@openzeppelin/contracts-upgradeable@4.9.3/token/ERC20/ERC20Upgradeable.sol\":6295:6323  address owner = _msgSender() */\n      swap1\n      pop\n        /* \"@openzeppelin/contracts-upgradeable@4.9.3/token/ERC20/ERC20Upgradeable.sol\":6333:6397  _approve(owner, spender, allowance(owner, spender) + addedValue) */\n      tag_168\n        /* \"@openzeppelin/contracts-upgradeable@4.9.3/token/ERC20/ERC20Upgradeable.sol\":6342:6347  owner */\n      dup2\n        /* \"@openzeppelin/contracts-upgradeable@4.9.3/token/ERC20/ERC20Upgradeable.sol\":6349:6356  spender */\n      dup6\n        /* \"@openzeppelin/contracts-upgradeable@4.9.3/token/ERC20/ERC20Upgradeable.sol\":6386:6396  addedValue */\n      dup6\n        /* \"@openzeppelin/contracts-upgradeable@4.9.3/token/ERC20/ERC20Upgradeable.sol\":6358:6383  allowance(owner, spender) */\n      tag_169\n        /* \"@openzeppelin/contracts-upgradeable@4.9.3/token/ERC20/ERC20Upgradeable.sol\":6368:6373  owner */\n      dup6\n        /* \"@openzeppelin/contracts-upgradeable@4.9.3/token/ERC20/ERC20Upgradeable.sol\":6375:6382  spender */\n      dup10\n        /* \"@openzeppelin/contracts-upgradeable@4.9.3/token/ERC20/ERC20Upgradeable.sol\":6358:6367  allowance */\n      tag_122\n        /* \"@openzeppelin/contracts-upgradeable@4.9.3/token/ERC20/ERC20Upgradeable.sol\":6358:6383  allowance(owner, spender) */\n      jump\t// in\n    tag_169:\n        /* \"@openzeppelin/contracts-upgradeable@4.9.3/token/ERC20/ERC20Upgradeable.sol\":6358:6396  allowance(owner, spender) + addedValue */\n      tag_170\n      swap2\n      swap1\n      tag_171\n      jump\t// in\n    tag_170:\n        /* \"@openzeppelin/contracts-upgradeable@4.9.3/token/ERC20/ERC20Upgradeable.sol\":6333:6341  _approve */\n      tag_139\n        /* \"@openzeppelin/contracts-upgradeable@4.9.3/token/ERC20/ERC20Upgradeable.sol\":6333:6397  _approve(owner, spender, allowance(owner, spender) + addedValue) */\n      jump\t// in\n    tag_168:\n        /* \"@openzeppelin/contracts-upgradeable@4.9.3/token/ERC20/ERC20Upgradeable.sol\":6414:6418  true */\n      0x01\n        /* \"@openzeppelin/contracts-upgradeable@4.9.3/token/ERC20/ERC20Upgradeable.sol\":6407:6418  return true */\n      swap2\n      pop\n      pop\n        /* \"@openzeppelin/contracts-upgradeable@4.9.3/token/ERC20/ERC20Upgradeable.sol\":6191:6425  function increaseAllowance(address spender, uint256 addedValue) public virtual returns (bool) {... */\n      swap3\n      swap2\n      pop\n      pop\n      jump\t// out\n        /* \"contract-bed87a3bb7.sol\":993:1056  function unpause() public onlyOwner {... */\n    tag_67:\n        /* \"@openzeppelin/contracts-upgradeable@4.9.3/access/OwnableUpgradeable.sol\":1334:1347  _checkOwner() */\n      tag_173\n        /* \"@openzeppelin/contracts-upgradeable@4.9.3/access/OwnableUpgradeable.sol\":1334:1345  _checkOwner */\n      tag_174\n        /* \"@openzeppelin/contracts-upgradeable@4.9.3/access/OwnableUpgradeable.sol\":1334:1347  _checkOwner() */\n      jump\t// in\n    tag_173:\n        /* \"contract-bed87a3bb7.sol\":1039:1049  _unpause() */\n      tag_176\n        /* \"contract-bed87a3bb7.sol\":1039:1047  _unpause */\n      tag_177\n        /* \"contract-bed87a3bb7.sol\":1039:1049  _unpause() */\n      jump\t// in\n    tag_176:\n        /* \"contract-bed87a3bb7.sol\":993:1056  function unpause() public onlyOwner {... */\n      jump\t// out\n        /* \"contract-bed87a3bb7.sol\":1062:1155  function mint(address to, uint256 amount) public onlyOwner {... */\n    tag_71:\n        /* \"@openzeppelin/contracts-upgradeable@4.9.3/access/OwnableUpgradeable.sol\":1334:1347  _checkOwner() */\n      tag_179\n        /* \"@openzeppelin/contracts-upgradeable@4.9.3/access/OwnableUpgradeable.sol\":1334:1345  _checkOwner */\n      tag_174\n        /* \"@openzeppelin/contracts-upgradeable@4.9.3/access/OwnableUpgradeable.sol\":1334:1347  _checkOwner() */\n      jump\t// in\n    tag_179:\n        /* \"contract-bed87a3bb7.sol\":1131:1148  _mint(to, amount) */\n      tag_181\n        /* \"contract-bed87a3bb7.sol\":1137:1139  to */\n      dup3\n        /* \"contract-bed87a3bb7.sol\":1141:1147  amount */\n      dup3\n        /* \"contract-bed87a3bb7.sol\":1131:1136  _mint */\n      tag_182\n        /* \"contract-bed87a3bb7.sol\":1131:1148  _mint(to, amount) */\n      jump\t// in\n    tag_181:\n        /* \"contract-bed87a3bb7.sol\":1062:1155  function mint(address to, uint256 amount) public onlyOwner {... */\n      pop\n      pop\n      jump\t// out\n        /* \"@openzeppelin/contracts-upgradeable@4.9.3/proxy/utils/UUPSUpgradeable.sol\":3901:4121  function upgradeToAndCall(address newImplementation, bytes memory data) public payable virtual onlyProxy {... */\n    tag_75:\n        /* \"@openzeppelin/contracts-upgradeable@4.9.3/proxy/utils/UUPSUpgradeable.sol\":1898:1904  __self */\n      immutable(\"0x04858cf527bbe93978e168f56532450d1459771814ce695a45178f6b6b92373a\")\n        /* \"@openzeppelin/contracts-upgradeable@4.9.3/proxy/utils/UUPSUpgradeable.sol\":1881:1904  address(this) != __self */\n      0xffffffffffffffffffffffffffffffffffffffff\n      and\n        /* \"@openzeppelin/contracts-upgradeable@4.9.3/proxy/utils/UUPSUpgradeable.sol\":1889:1893  this */\n      address\n        /* \"@openzeppelin/contracts-upgradeable@4.9.3/proxy/utils/UUPSUpgradeable.sol\":1881:1904  address(this) != __self */\n      0xffffffffffffffffffffffffffffffffffffffff\n      and\n      sub\n        /* \"@openzeppelin/contracts-upgradeable@4.9.3/proxy/utils/UUPSUpgradeable.sol\":1873:1953  require(address(this) != __self, \"Function must be called through delegatecall\") */\n      tag_184\n      jumpi\n      mload(0x40)\n      0x08c379a000000000000000000000000000000000000000000000000000000000\n      dup2\n      mstore\n      0x04\n      add\n      tag_185\n      swap1\n      tag_151\n      jump\t// in\n    tag_185:\n      mload(0x40)\n      dup1\n      swap2\n      sub\n      swap1\n      revert\n    tag_184:\n        /* \"@openzeppelin/contracts-upgradeable@4.9.3/proxy/utils/UUPSUpgradeable.sol\":1995:2001  __self */\n      immutable(\"0x04858cf527bbe93978e168f56532450d1459771814ce695a45178f6b6b92373a\")\n        /* \"@openzeppelin/contracts-upgradeable@4.9.3/proxy/utils/UUPSUpgradeable.sol\":1971:2001  _getImplementation() == __self */\n      0xffffffffffffffffffffffffffffffffffffffff\n      and\n        /* \"@openzeppelin/contracts-upgradeable@4.9.3/proxy/utils/UUPSUpgradeable.sol\":1971:1991  _getImplementation() */\n      tag_186\n        /* \"@openzeppelin/contracts-upgradeable@4.9.3/proxy/utils/UUPSUpgradeable.sol\":1971:1989  _getImplementation */\n      tag_153\n        /* \"@openzeppelin/contracts-upgradeable@4.9.3/proxy/utils/UUPSUpgradeable.sol\":1971:1991  _getImplementation() */\n      jump\t// in\n    tag_186:\n        /* \"@openzeppelin/contracts-upgradeable@4.9.3/proxy/utils/UUPSUpgradeable.sol\":1971:2001  _getImplementation() == __self */\n      0xffffffffffffffffffffffffffffffffffffffff\n      and\n      eq\n        /* \"@openzeppelin/contracts-upgradeable@4.9.3/proxy/utils/UUPSUpgradeable.sol\":1963:2050  require(_getImplementation() == __self, \"Function must be called through active proxy\") */\n      tag_187\n      jumpi\n      mload(0x40)\n      0x08c379a000000000000000000000000000000000000000000000000000000000\n      dup2\n      mstore\n      0x04\n      add\n      tag_188\n      swap1\n      tag_156\n      jump\t// in\n    tag_188:\n      mload(0x40)\n      dup1\n      swap2\n      sub\n      swap1\n      revert\n    tag_187:\n        /* \"@openzeppelin/contracts-upgradeable@4.9.3/proxy/utils/UUPSUpgradeable.sol\":4016:4052  _authorizeUpgrade(newImplementation) */\n      tag_190\n        /* \"@openzeppelin/contracts-upgradeable@4.9.3/proxy/utils/UUPSUpgradeable.sol\":4034:4051  newImplementation */\n      dup3\n        /* \"@openzeppelin/contracts-upgradeable@4.9.3/proxy/utils/UUPSUpgradeable.sol\":4016:4033  _authorizeUpgrade */\n      tag_159\n        /* \"@openzeppelin/contracts-upgradeable@4.9.3/proxy/utils/UUPSUpgradeable.sol\":4016:4052  _authorizeUpgrade(newImplementation) */\n      jump\t// in\n    tag_190:\n        /* \"@openzeppelin/contracts-upgradeable@4.9.3/proxy/utils/UUPSUpgradeable.sol\":4062:4114  _upgradeToAndCallUUPS(newImplementation, data, true) */\n      tag_191\n        /* \"@openzeppelin/contracts-upgradeable@4.9.3/proxy/utils/UUPSUpgradeable.sol\":4084:4101  newImplementation */\n      dup3\n        /* \"@openzeppelin/contracts-upgradeable@4.9.3/proxy/utils/UUPSUpgradeable.sol\":4103:4107  data */\n      dup3\n        /* \"@openzeppelin/contracts-upgradeable@4.9.3/proxy/utils/UUPSUpgradeable.sol\":4109:4113  true */\n      0x01\n        /* \"@openzeppelin/contracts-upgradeable@4.9.3/proxy/utils/UUPSUpgradeable.sol\":4062:4083  _upgradeToAndCallUUPS */\n      tag_165\n        /* \"@openzeppelin/contracts-upgradeable@4.9.3/proxy/utils/UUPSUpgradeable.sol\":4062:4114  _upgradeToAndCallUUPS(newImplementation, data, true) */\n      jump\t// in\n    tag_191:\n        /* \"@openzeppelin/contracts-upgradeable@4.9.3/proxy/utils/UUPSUpgradeable.sol\":3901:4121  function upgradeToAndCall(address newImplementation, bytes memory data) public payable virtual onlyProxy {... */\n      pop\n      pop\n      jump\t// out\n        /* \"@openzeppelin/contracts-upgradeable@4.9.3/proxy/utils/UUPSUpgradeable.sol\":3006:3137  function proxiableUUID() external view virtual override notDelegated returns (bytes32) {... */\n    tag_78:\n        /* \"@openzeppelin/contracts-upgradeable@4.9.3/proxy/utils/UUPSUpgradeable.sol\":3084:3091  bytes32 */\n      0x00\n        /* \"@openzeppelin/contracts-upgradeable@4.9.3/proxy/utils/UUPSUpgradeable.sol\":2333:2339  __self */\n      immutable(\"0x04858cf527bbe93978e168f56532450d1459771814ce695a45178f6b6b92373a\")\n        /* \"@openzeppelin/contracts-upgradeable@4.9.3/proxy/utils/UUPSUpgradeable.sol\":2316:2339  address(this) == __self */\n      0xffffffffffffffffffffffffffffffffffffffff\n      and\n        /* \"@openzeppelin/contracts-upgradeable@4.9.3/proxy/utils/UUPSUpgradeable.sol\":2324:2328  this */\n      address\n        /* \"@openzeppelin/contracts-upgradeable@4.9.3/proxy/utils/UUPSUpgradeable.sol\":2316:2339  address(this) == __self */\n      0xffffffffffffffffffffffffffffffffffffffff\n      and\n      eq\n        /* \"@openzeppelin/contracts-upgradeable@4.9.3/proxy/utils/UUPSUpgradeable.sol\":2308:2400  require(address(this) == __self, \"UUPSUpgradeable: must not be called through delegatecall\") */\n      tag_193\n      jumpi\n      mload(0x40)\n      0x08c379a000000000000000000000000000000000000000000000000000000000\n      dup2\n      mstore\n      0x04\n      add\n      tag_194\n      swap1\n      tag_195\n      jump\t// in\n    tag_194:\n      mload(0x40)\n      dup1\n      swap2\n      sub\n      swap1\n      revert\n    tag_193:\n        /* \"@openzeppelin/contracts-upgradeable@4.9.3/proxy/ERC1967/ERC1967UpgradeUpgradeable.sol\":1312:1378  0x360894a13ba1a3210667c828492db98dca3e2076cc3735a920a3ca505d382bbc */\n      0x360894a13ba1a3210667c828492db98dca3e2076cc3735a920a3ca505d382bbc\n        /* \"@openzeppelin/contracts-upgradeable@4.9.3/proxy/utils/UUPSUpgradeable.sol\":3110:3130  _IMPLEMENTATION_SLOT */\n      0x00\n      shl\n        /* \"@openzeppelin/contracts-upgradeable@4.9.3/proxy/utils/UUPSUpgradeable.sol\":3103:3130  return _IMPLEMENTATION_SLOT */\n      swap1\n      pop\n        /* \"@openzeppelin/contracts-upgradeable@4.9.3/proxy/utils/UUPSUpgradeable.sol\":3006:3137  function proxiableUUID() external view virtual override notDelegated returns (bytes32) {... */\n      swap1\n      jump\t// out\n        /* \"@openzeppelin/contracts-upgradeable@4.9.3/security/PausableUpgradeable.sol\":1858:1942  function paused() public view virtual returns (bool) {... */\n    tag_83:\n        /* \"@openzeppelin/contracts-upgradeable@4.9.3/security/PausableUpgradeable.sol\":1905:1909  bool */\n      0x00\n        /* \"@openzeppelin/contracts-upgradeable@4.9.3/security/PausableUpgradeable.sol\":1928:1935  _paused */\n      0x65\n      0x00\n      swap1\n      sload\n      swap1\n      0x0100\n      exp\n      swap1\n      div\n      0xff\n      and\n        /* \"@openzeppelin/contracts-upgradeable@4.9.3/security/PausableUpgradeable.sol\":1921:1935  return _paused */\n      swap1\n      pop\n        /* \"@openzeppelin/contracts-upgradeable@4.9.3/security/PausableUpgradeable.sol\":1858:1942  function paused() public view virtual returns (bool) {... */\n      swap1\n      jump\t// out\n        /* \"@openzeppelin/contracts-upgradeable@4.9.3/token/ERC20/ERC20Upgradeable.sol\":3756:3881  function balanceOf(address account) public view virtual override returns (uint256) {... */\n    tag_88:\n        /* \"@openzeppelin/contracts-upgradeable@4.9.3/token/ERC20/ERC20Upgradeable.sol\":3830:3837  uint256 */\n      0x00\n        /* \"@openzeppelin/contracts-upgradeable@4.9.3/token/ERC20/ERC20Upgradeable.sol\":3856:3865  _balances */\n      0x33\n        /* \"@openzeppelin/contracts-upgradeable@4.9.3/token/ERC20/ERC20Upgradeable.sol\":3856:3874  _balances[account] */\n      0x00\n        /* \"@openzeppelin/contracts-upgradeable@4.9.3/token/ERC20/ERC20Upgradeable.sol\":3866:3873  account */\n      dup4\n        /* \"@openzeppelin/contracts-upgradeable@4.9.3/token/ERC20/ERC20Upgradeable.sol\":3856:3874  _balances[account] */\n      0xffffffffffffffffffffffffffffffffffffffff\n      and\n      0xffffffffffffffffffffffffffffffffffffffff\n      and\n      dup2\n      mstore\n      0x20\n      add\n      swap1\n      dup2\n      mstore\n      0x20\n      add\n      0x00\n      keccak256\n      sload\n        /* \"@openzeppelin/contracts-upgradeable@4.9.3/token/ERC20/ERC20Upgradeable.sol\":3849:3874  return _balances[account] */\n      swap1\n      pop\n        /* \"@openzeppelin/contracts-upgradeable@4.9.3/token/ERC20/ERC20Upgradeable.sol\":3756:3881  function balanceOf(address account) public view virtual override returns (uint256) {... */\n      swap2\n      swap1\n      pop\n      jump\t// out\n        /* \"@openzeppelin/contracts-upgradeable@4.9.3/access/OwnableUpgradeable.sol\":2064:2165  function renounceOwnership() public virtual onlyOwner {... */\n    tag_92:\n        /* \"@openzeppelin/contracts-upgradeable@4.9.3/access/OwnableUpgradeable.sol\":1334:1347  _checkOwner() */\n      tag_200\n        /* \"@openzeppelin/contracts-upgradeable@4.9.3/access/OwnableUpgradeable.sol\":1334:1345  _checkOwner */\n      tag_174\n        /* \"@openzeppelin/contracts-upgradeable@4.9.3/access/OwnableUpgradeable.sol\":1334:1347  _checkOwner() */\n      jump\t// in\n    tag_200:\n        /* \"@openzeppelin/contracts-upgradeable@4.9.3/access/OwnableUpgradeable.sol\":2128:2158  _transferOwnership(address(0)) */\n      tag_202\n        /* \"@openzeppelin/contracts-upgradeable@4.9.3/access/OwnableUpgradeable.sol\":2155:2156  0 */\n      0x00\n        /* \"@openzeppelin/contracts-upgradeable@4.9.3/access/OwnableUpgradeable.sol\":2128:2146  _transferOwnership */\n      tag_203\n        /* \"@openzeppelin/contracts-upgradeable@4.9.3/access/OwnableUpgradeable.sol\":2128:2158  _transferOwnership(address(0)) */\n      jump\t// in\n    tag_202:\n        /* \"@openzeppelin/contracts-upgradeable@4.9.3/access/OwnableUpgradeable.sol\":2064:2165  function renounceOwnership() public virtual onlyOwner {... */\n      jump\t// out\n        /* \"contract-bed87a3bb7.sol\":749:922  function initialize() initializer public {... */\n    tag_95:\n        /* \"@openzeppelin/contracts-upgradeable@4.9.3/proxy/utils/Initializable.sol\":3279:3298  bool isTopLevelCall */\n      0x00\n        /* \"@openzeppelin/contracts-upgradeable@4.9.3/proxy/utils/Initializable.sol\":3302:3315  _initializing */\n      dup1\n      0x01\n      swap1\n      sload\n      swap1\n      0x0100\n      exp\n      swap1\n      div\n      0xff\n      and\n        /* \"@openzeppelin/contracts-upgradeable@4.9.3/proxy/utils/Initializable.sol\":3301:3315  !_initializing */\n      iszero\n        /* \"@openzeppelin/contracts-upgradeable@4.9.3/proxy/utils/Initializable.sol\":3279:3315  bool isTopLevelCall = !_initializing */\n      swap1\n      pop\n        /* \"@openzeppelin/contracts-upgradeable@4.9.3/proxy/utils/Initializable.sol\":3347:3361  isTopLevelCall */\n      dup1\n        /* \"@openzeppelin/contracts-upgradeable@4.9.3/proxy/utils/Initializable.sol\":3347:3381  isTopLevelCall && _initialized < 1 */\n      dup1\n      iszero\n      tag_205\n      jumpi\n      pop\n        /* \"@openzeppelin/contracts-upgradeable@4.9.3/proxy/utils/Initializable.sol\":3380:3381  1 */\n      0x01\n        /* \"@openzeppelin/contracts-upgradeable@4.9.3/proxy/utils/Initializable.sol\":3365:3377  _initialized */\n      0x00\n      dup1\n      sload\n      swap1\n      0x0100\n      exp\n      swap1\n      div\n      0xff\n      and\n        /* \"@openzeppelin/contracts-upgradeable@4.9.3/proxy/utils/Initializable.sol\":3365:3381  _initialized < 1 */\n      0xff\n      and\n      lt\n        /* \"@openzeppelin/contracts-upgradeable@4.9.3/proxy/utils/Initializable.sol\":3347:3381  isTopLevelCall && _initialized < 1 */\n    tag_205:\n        /* \"@openzeppelin/contracts-upgradeable@4.9.3/proxy/utils/Initializable.sol\":3346:3454  (isTopLevelCall && _initialized < 1) || (!AddressUpgradeable.isContract(address(this)) && _initialized == 1) */\n      dup1\n      tag_206\n      jumpi\n      pop\n        /* \"@openzeppelin/contracts-upgradeable@4.9.3/proxy/utils/Initializable.sol\":3388:3432  AddressUpgradeable.isContract(address(this)) */\n      tag_207\n        /* \"@openzeppelin/contracts-upgradeable@4.9.3/proxy/utils/Initializable.sol\":3426:3430  this */\n      address\n        /* \"@openzeppelin/contracts-upgradeable@4.9.3/proxy/utils/Initializable.sol\":3388:3417  AddressUpgradeable.isContract */\n      tag_208\n        /* \"@openzeppelin/contracts-upgradeable@4.9.3/proxy/utils/Initializable.sol\":3388:3432  AddressUpgradeable.isContract(address(this)) */\n      jump\t// in\n    tag_207:\n        /* \"@openzeppelin/contracts-upgradeable@4.9.3/proxy/utils/Initializable.sol\":3387:3432  !AddressUpgradeable.isContract(address(this)) */\n      iszero\n        /* \"@openzeppelin/contracts-upgradeable@4.9.3/proxy/utils/Initializable.sol\":3387:3453  !AddressUpgradeable.isContract(address(this)) && _initialized == 1 */\n      dup1\n      iszero\n      tag_209\n      jumpi\n      pop\n        /* \"@openzeppelin/contracts-upgradeable@4.9.3/proxy/utils/Initializable.sol\":3452:3453  1 */\n      0x01\n        /* \"@openzeppelin/contracts-upgradeable@4.9.3/proxy/utils/Initializable.sol\":3436:3448  _initialized */\n      0x00\n      dup1\n      sload\n      swap1\n      0x0100\n      exp\n      swap1\n      div\n      0xff\n      and\n        /* \"@openzeppelin/contracts-upgradeable@4.9.3/proxy/utils/Initializable.sol\":3436:3453  _initialized == 1 */\n      0xff\n      and\n      eq\n        /* \"@openzeppelin/contracts-upgradeable@4.9.3/proxy/utils/Initializable.sol\":3387:3453  !AddressUpgradeable.isContract(address(this)) && _initialized == 1 */\n    tag_209:\n        /* \"@openzeppelin/contracts-upgradeable@4.9.3/proxy/utils/Initializable.sol\":3346:3454  (isTopLevelCall && _initialized < 1) || (!AddressUpgradeable.isContract(address(this)) && _initialized == 1) */\n    tag_206:\n        /* \"@openzeppelin/contracts-upgradeable@4.9.3/proxy/utils/Initializable.sol\":3325:3526  require(... */\n      tag_210\n      jumpi\n      mload(0x40)\n      0x08c379a000000000000000000000000000000000000000000000000000000000\n      dup2\n      mstore\n      0x04\n      add\n      tag_211\n      swap1\n      tag_212\n      jump\t// in\n    tag_211:\n      mload(0x40)\n      dup1\n      swap2\n      sub\n      swap1\n      revert\n    tag_210:\n        /* \"@openzeppelin/contracts-upgradeable@4.9.3/proxy/utils/Initializable.sol\":3551:3552  1 */\n      0x01\n        /* \"@openzeppelin/contracts-upgradeable@4.9.3/proxy/utils/Initializable.sol\":3536:3548  _initialized */\n      0x00\n      dup1\n        /* \"@openzeppelin/contracts-upgradeable@4.9.3/proxy/utils/Initializable.sol\":3536:3552  _initialized = 1 */\n      0x0100\n      exp\n      dup2\n      sload\n      dup2\n      0xff\n      mul\n      not\n      and\n      swap1\n      dup4\n      0xff\n      and\n      mul\n      or\n      swap1\n      sstore\n      pop\n        /* \"@openzeppelin/contracts-upgradeable@4.9.3/proxy/utils/Initializable.sol\":3566:3580  isTopLevelCall */\n      dup1\n        /* \"@openzeppelin/contracts-upgradeable@4.9.3/proxy/utils/Initializable.sol\":3562:3627  if (isTopLevelCall) {... */\n      iszero\n      tag_213\n      jumpi\n        /* \"@openzeppelin/contracts-upgradeable@4.9.3/proxy/utils/Initializable.sol\":3612:3616  true */\n      0x01\n        /* \"@openzeppelin/contracts-upgradeable@4.9.3/proxy/utils/Initializable.sol\":3596:3609  _initializing */\n      0x00\n      0x01\n        /* \"@openzeppelin/contracts-upgradeable@4.9.3/proxy/utils/Initializable.sol\":3596:3616  _initializing = true */\n      0x0100\n      exp\n      dup2\n      sload\n      dup2\n      0xff\n      mul\n      not\n      and\n      swap1\n      dup4\n      iszero\n      iszero\n      mul\n      or\n      swap1\n      sstore\n      pop\n        /* \"@openzeppelin/contracts-upgradeable@4.9.3/proxy/utils/Initializable.sol\":3562:3627  if (isTopLevelCall) {... */\n    tag_213:\n        /* \"contract-bed87a3bb7.sol\":800:828  __ERC20_init(\"WITS\", \"WITS\") */\n      tag_215\n      mload(0x40)\n      dup1\n      0x40\n      add\n      0x40\n      mstore\n      dup1\n      0x04\n      dup2\n      mstore\n      0x20\n      add\n      0x5749545300000000000000000000000000000000000000000000000000000000\n      dup2\n      mstore\n      pop\n      mload(0x40)\n      dup1\n      0x40\n      add\n      0x40\n      mstore\n      dup1\n      0x04\n      dup2\n      mstore\n      0x20\n      add\n      0x5749545300000000000000000000000000000000000000000000000000000000\n      dup2\n      mstore\n      pop\n        /* \"contract-bed87a3bb7.sol\":800:812  __ERC20_init */\n      tag_216\n        /* \"contract-bed87a3bb7.sol\":800:828  __ERC20_init(\"WITS\", \"WITS\") */\n      jump\t// in\n    tag_215:\n        /* \"contract-bed87a3bb7.sol\":838:855  __Pausable_init() */\n      tag_217\n        /* \"contract-bed87a3bb7.sol\":838:853  __Pausable_init */\n      tag_218\n        /* \"contract-bed87a3bb7.sol\":838:855  __Pausable_init() */\n      jump\t// in\n    tag_217:\n        /* \"contract-bed87a3bb7.sol\":865:881  __Ownable_init() */\n      tag_219\n        /* \"contract-bed87a3bb7.sol\":865:879  __Ownable_init */\n      tag_220\n        /* \"contract-bed87a3bb7.sol\":865:881  __Ownable_init() */\n      jump\t// in\n    tag_219:\n        /* \"contract-bed87a3bb7.sol\":891:915  __UUPSUpgradeable_init() */\n      tag_221\n        /* \"contract-bed87a3bb7.sol\":891:913  __UUPSUpgradeable_init */\n      tag_222\n        /* \"contract-bed87a3bb7.sol\":891:915  __UUPSUpgradeable_init() */\n      jump\t// in\n    tag_221:\n        /* \"@openzeppelin/contracts-upgradeable@4.9.3/proxy/utils/Initializable.sol\":3651:3665  isTopLevelCall */\n      dup1\n        /* \"@openzeppelin/contracts-upgradeable@4.9.3/proxy/utils/Initializable.sol\":3647:3746  if (isTopLevelCall) {... */\n      iszero\n      tag_223\n      jumpi\n        /* \"@openzeppelin/contracts-upgradeable@4.9.3/proxy/utils/Initializable.sol\":3697:3702  false */\n      0x00\n        /* \"@openzeppelin/contracts-upgradeable@4.9.3/proxy/utils/Initializable.sol\":3681:3694  _initializing */\n      dup1\n      0x01\n        /* \"@openzeppelin/contracts-upgradeable@4.9.3/proxy/utils/Initializable.sol\":3681:3702  _initializing = false */\n      0x0100\n      exp\n      dup2\n      sload\n      dup2\n      0xff\n      mul\n      not\n      and\n      swap1\n      dup4\n      iszero\n      iszero\n      mul\n      or\n      swap1\n      sstore\n      pop\n        /* \"@openzeppelin/contracts-upgradeable@4.9.3/proxy/utils/Initializable.sol\":3721:3735  Initialized(1) */\n      0x7f26b83ff96e1f2b6a682f133852f6798a09c465da95921460cefb3847402498\n        /* \"@openzeppelin/contracts-upgradeable@4.9.3/proxy/utils/Initializable.sol\":3733:3734  1 */\n      0x01\n        /* \"@openzeppelin/contracts-upgradeable@4.9.3/proxy/utils/Initializable.sol\":3721:3735  Initialized(1) */\n      mload(0x40)\n      tag_224\n      swap2\n      swap1\n      tag_225\n      jump\t// in\n    tag_224:\n      mload(0x40)\n      dup1\n      swap2\n      sub\n      swap1\n      log1\n        /* \"@openzeppelin/contracts-upgradeable@4.9.3/proxy/utils/Initializable.sol\":3647:3746  if (isTopLevelCall) {... */\n    tag_223:\n        /* \"@openzeppelin/contracts-upgradeable@4.9.3/proxy/utils/Initializable.sol\":3269:3752  {... */\n      pop\n        /* \"contract-bed87a3bb7.sol\":749:922  function initialize() initializer public {... */\n      jump\t// out\n        /* \"contract-bed87a3bb7.sol\":928:987  function pause() public onlyOwner {... */\n    tag_98:\n        /* \"@openzeppelin/contracts-upgradeable@4.9.3/access/OwnableUpgradeable.sol\":1334:1347  _checkOwner() */\n      tag_227\n        /* \"@openzeppelin/contracts-upgradeable@4.9.3/access/OwnableUpgradeable.sol\":1334:1345  _checkOwner */\n      tag_174\n        /* \"@openzeppelin/contracts-upgradeable@4.9.3/access/OwnableUpgradeable.sol\":1334:1347  _checkOwner() */\n      jump\t// in\n    tag_227:\n        /* \"contract-bed87a3bb7.sol\":972:980  _pause() */\n      tag_229\n        /* \"contract-bed87a3bb7.sol\":972:978  _pause */\n      tag_230\n        /* \"contract-bed87a3bb7.sol\":972:980  _pause() */\n      jump\t// in\n    tag_229:\n        /* \"contract-bed87a3bb7.sol\":928:987  function pause() public onlyOwner {... */\n      jump\t// out\n        /* \"@openzeppelin/contracts-upgradeable@4.9.3/access/OwnableUpgradeable.sol\":1441:1526  function owner() public view virtual returns (address) {... */\n    tag_101:\n        /* \"@openzeppelin/contracts-upgradeable@4.9.3/access/OwnableUpgradeable.sol\":1487:1494  address */\n      0x00\n        /* \"@openzeppelin/contracts-upgradeable@4.9.3/access/OwnableUpgradeable.sol\":1513:1519  _owner */\n      0x97\n      0x00\n      swap1\n      sload\n      swap1\n      0x0100\n      exp\n      swap1\n      div\n      0xffffffffffffffffffffffffffffffffffffffff\n      and\n        /* \"@openzeppelin/contracts-upgradeable@4.9.3/access/OwnableUpgradeable.sol\":1506:1519  return _owner */\n      swap1\n      pop\n        /* \"@openzeppelin/contracts-upgradeable@4.9.3/access/OwnableUpgradeable.sol\":1441:1526  function owner() public view virtual returns (address) {... */\n      swap1\n      jump\t// out\n        /* \"@openzeppelin/contracts-upgradeable@4.9.3/token/ERC20/ERC20Upgradeable.sol\":2706:2808  function symbol() public view virtual override returns (string memory) {... */\n    tag_106:\n        /* \"@openzeppelin/contracts-upgradeable@4.9.3/token/ERC20/ERC20Upgradeable.sol\":2762:2775  string memory */\n      0x60\n        /* \"@openzeppelin/contracts-upgradeable@4.9.3/token/ERC20/ERC20Upgradeable.sol\":2794:2801  _symbol */\n      0x37\n        /* \"@openzeppelin/contracts-upgradeable@4.9.3/token/ERC20/ERC20Upgradeable.sol\":2787:2801  return _symbol */\n      dup1\n      sload\n      tag_233\n      swap1\n      tag_130\n      jump\t// in\n    tag_233:\n      dup1\n      0x1f\n      add\n      0x20\n      dup1\n      swap2\n      div\n      mul\n      0x20\n      add\n      mload(0x40)\n      swap1\n      dup2\n      add\n      0x40\n      mstore\n      dup1\n      swap3\n      swap2\n      swap1\n      dup2\n      dup2\n      mstore\n      0x20\n      add\n      dup3\n      dup1\n      sload\n      tag_234\n      swap1\n      tag_130\n      jump\t// in\n    tag_234:\n      dup1\n      iszero\n      tag_235\n      jumpi\n      dup1\n      0x1f\n      lt\n      tag_236\n      jumpi\n      0x0100\n      dup1\n      dup4\n      sload\n      div\n      mul\n      dup4\n      mstore\n      swap2\n      0x20\n      add\n      swap2\n      jump(tag_235)\n    tag_236:\n      dup3\n      add\n      swap2\n      swap1\n      0x00\n      mstore\n      keccak256(0x00, 0x20)\n      swap1\n    tag_237:\n      dup2\n      sload\n      dup2\n      mstore\n      swap1\n      0x01\n      add\n      swap1\n      0x20\n      add\n      dup1\n      dup4\n      gt\n      tag_237\n      jumpi\n      dup3\n      swap1\n      sub\n      0x1f\n      and\n      dup3\n      add\n      swap2\n    tag_235:\n      pop\n      pop\n      pop\n      pop\n      pop\n      swap1\n      pop\n        /* \"@openzeppelin/contracts-upgradeable@4.9.3/token/ERC20/ERC20Upgradeable.sol\":2706:2808  function symbol() public view virtual override returns (string memory) {... */\n      swap1\n      jump\t// out\n        /* \"@openzeppelin/contracts-upgradeable@4.9.3/token/ERC20/ERC20Upgradeable.sol\":6912:7339  function decreaseAllowance(address spender, uint256 subtractedValue) public virtual returns (bool) {... */\n    tag_111:\n        /* \"@openzeppelin/contracts-upgradeable@4.9.3/token/ERC20/ERC20Upgradeable.sol\":7005:7009  bool */\n      0x00\n        /* \"@openzeppelin/contracts-upgradeable@4.9.3/token/ERC20/ERC20Upgradeable.sol\":7021:7034  address owner */\n      dup1\n        /* \"@openzeppelin/contracts-upgradeable@4.9.3/token/ERC20/ERC20Upgradeable.sol\":7037:7049  _msgSender() */\n      tag_239\n        /* \"@openzeppelin/contracts-upgradeable@4.9.3/token/ERC20/ERC20Upgradeable.sol\":7037:7047  _msgSender */\n      tag_137\n        /* \"@openzeppelin/contracts-upgradeable@4.9.3/token/ERC20/ERC20Upgradeable.sol\":7037:7049  _msgSender() */\n      jump\t// in\n    tag_239:\n        /* \"@openzeppelin/contracts-upgradeable@4.9.3/token/ERC20/ERC20Upgradeable.sol\":7021:7049  address owner = _msgSender() */\n      swap1\n      pop\n        /* \"@openzeppelin/contracts-upgradeable@4.9.3/token/ERC20/ERC20Upgradeable.sol\":7059:7083  uint256 currentAllowance */\n      0x00\n        /* \"@openzeppelin/contracts-upgradeable@4.9.3/token/ERC20/ERC20Upgradeable.sol\":7086:7111  allowance(owner, spender) */\n      tag_240\n        /* \"@openzeppelin/contracts-upgradeable@4.9.3/token/ERC20/ERC20Upgradeable.sol\":7096:7101  owner */\n      dup3\n        /* \"@openzeppelin/contracts-upgradeable@4.9.3/token/ERC20/ERC20Upgradeable.sol\":7103:7110  spender */\n      dup7\n        /* \"@openzeppelin/contracts-upgradeable@4.9.3/token/ERC20/ERC20Upgradeable.sol\":7086:7095  allowance */\n      tag_122\n        /* \"@openzeppelin/contracts-upgradeable@4.9.3/token/ERC20/ERC20Upgradeable.sol\":7086:7111  allowance(owner, spender) */\n      jump\t// in\n    tag_240:\n        /* \"@openzeppelin/contracts-upgradeable@4.9.3/token/ERC20/ERC20Upgradeable.sol\":7059:7111  uint256 currentAllowance = allowance(owner, spender) */\n      swap1\n      pop\n        /* \"@openzeppelin/contracts-upgradeable@4.9.3/token/ERC20/ERC20Upgradeable.sol\":7149:7164  subtractedValue */\n      dup4\n        /* \"@openzeppelin/contracts-upgradeable@4.9.3/token/ERC20/ERC20Upgradeable.sol\":7129:7145  currentAllowance */\n      dup2\n        /* \"@openzeppelin/contracts-upgradeable@4.9.3/token/ERC20/ERC20Upgradeable.sol\":7129:7164  currentAllowance >= subtractedValue */\n      lt\n      iszero\n        /* \"@openzeppelin/contracts-upgradeable@4.9.3/token/ERC20/ERC20Upgradeable.sol\":7121:7206  require(currentAllowance >= subtractedValue, \"ERC20: decreased allowance below zero\") */\n      tag_241\n      jumpi\n      mload(0x40)\n      0x08c379a000000000000000000000000000000000000000000000000000000000\n      dup2\n      mstore\n      0x04\n      add\n      tag_242\n      swap1\n      tag_243\n      jump\t// in\n    tag_242:\n      mload(0x40)\n      dup1\n      swap2\n      sub\n      swap1\n      revert\n    tag_241:\n        /* \"@openzeppelin/contracts-upgradeable@4.9.3/token/ERC20/ERC20Upgradeable.sol\":7240:7300  _approve(owner, spender, currentAllowance - subtractedValue) */\n      tag_244\n        /* \"@openzeppelin/contracts-upgradeable@4.9.3/token/ERC20/ERC20Upgradeable.sol\":7249:7254  owner */\n      dup3\n        /* \"@openzeppelin/contracts-upgradeable@4.9.3/token/ERC20/ERC20Upgradeable.sol\":7256:7263  spender */\n      dup7\n        /* \"@openzeppelin/contracts-upgradeable@4.9.3/token/ERC20/ERC20Upgradeable.sol\":7284:7299  subtractedValue */\n      dup7\n        /* \"@openzeppelin/contracts-upgradeable@4.9.3/token/ERC20/ERC20Upgradeable.sol\":7265:7281  currentAllowance */\n      dup5\n        /* \"@openzeppelin/contracts-upgradeable@4.9.3/token/ERC20/ERC20Upgradeable.sol\":7265:7299  currentAllowance - subtractedValue */\n      sub\n        /* \"@openzeppelin/contracts-upgradeable@4.9.3/token/ERC20/ERC20Upgradeable.sol\":7240:7248  _approve */\n      tag_139\n        /* \"@openzeppelin/contracts-upgradeable@4.9.3/token/ERC20/ERC20Upgradeable.sol\":7240:7300  _approve(owner, spender, currentAllowance - subtractedValue) */\n      jump\t// in\n    tag_244:\n        /* \"@openzeppelin/contracts-upgradeable@4.9.3/token/ERC20/ERC20Upgradeable.sol\":7328:7332  true */\n      0x01\n        /* \"@openzeppelin/contracts-upgradeable@4.9.3/token/ERC20/ERC20Upgradeable.sol\":7321:7332  return true */\n      swap3\n      pop\n      pop\n      pop\n        /* \"@openzeppelin/contracts-upgradeable@4.9.3/token/ERC20/ERC20Upgradeable.sol\":6912:7339  function decreaseAllowance(address spender, uint256 subtractedValue) public virtual returns (bool) {... */\n      swap3\n      swap2\n      pop\n      pop\n      jump\t// out\n        /* \"@openzeppelin/contracts-upgradeable@4.9.3/token/ERC20/ERC20Upgradeable.sol\":4077:4266  function transfer(address to, uint256 amount) public virtual override returns (bool) {... */\n    tag_116:\n        /* \"@openzeppelin/contracts-upgradeable@4.9.3/token/ERC20/ERC20Upgradeable.sol\":4156:4160  bool */\n      0x00\n        /* \"@openzeppelin/contracts-upgradeable@4.9.3/token/ERC20/ERC20Upgradeable.sol\":4172:4185  address owner */\n      dup1\n        /* \"@openzeppelin/contracts-upgradeable@4.9.3/token/ERC20/ERC20Upgradeable.sol\":4188:4200  _msgSender() */\n      tag_246\n        /* \"@openzeppelin/contracts-upgradeable@4.9.3/token/ERC20/ERC20Upgradeable.sol\":4188:4198  _msgSender */\n      tag_137\n        /* \"@openzeppelin/contracts-upgradeable@4.9.3/token/ERC20/ERC20Upgradeable.sol\":4188:4200  _msgSender() */\n      jump\t// in\n    tag_246:\n        /* \"@openzeppelin/contracts-upgradeable@4.9.3/token/ERC20/ERC20Upgradeable.sol\":4172:4200  address owner = _msgSender() */\n      swap1\n      pop\n        /* \"@openzeppelin/contracts-upgradeable@4.9.3/token/ERC20/ERC20Upgradeable.sol\":4210:4238  _transfer(owner, to, amount) */\n      tag_247\n        /* \"@openzeppelin/contracts-upgradeable@4.9.3/token/ERC20/ERC20Upgradeable.sol\":4220:4225  owner */\n      dup2\n        /* \"@openzeppelin/contracts-upgradeable@4.9.3/token/ERC20/ERC20Upgradeable.sol\":4227:4229  to */\n      dup6\n        /* \"@openzeppelin/contracts-upgradeable@4.9.3/token/ERC20/ERC20Upgradeable.sol\":4231:4237  amount */\n      dup6\n        /* \"@openzeppelin/contracts-upgradeable@4.9.3/token/ERC20/ERC20Upgradeable.sol\":4210:4219  _transfer */\n      tag_146\n        /* \"@openzeppelin/contracts-upgradeable@4.9.3/token/ERC20/ERC20Upgradeable.sol\":4210:4238  _transfer(owner, to, amount) */\n      jump\t// in\n    tag_247:\n        /* \"@openzeppelin/contracts-upgradeable@4.9.3/token/ERC20/ERC20Upgradeable.sol\":4255:4259  true */\n      0x01\n        /* \"@openzeppelin/contracts-upgradeable@4.9.3/token/ERC20/ERC20Upgradeable.sol\":4248:4259  return true */\n      swap2\n      pop\n      pop\n        /* \"@openzeppelin/contracts-upgradeable@4.9.3/token/ERC20/ERC20Upgradeable.sol\":4077:4266  function transfer(address to, uint256 amount) public virtual override returns (bool) {... */\n      swap3\n      swap2\n      pop\n      pop\n      jump\t// out\n        /* \"@openzeppelin/contracts-upgradeable@4.9.3/token/ERC20/ERC20Upgradeable.sol\":4324:4473  function allowance(address owner, address spender) public view virtual override returns (uint256) {... */\n    tag_122:\n        /* \"@openzeppelin/contracts-upgradeable@4.9.3/token/ERC20/ERC20Upgradeable.sol\":4413:4420  uint256 */\n      0x00\n        /* \"@openzeppelin/contracts-upgradeable@4.9.3/token/ERC20/ERC20Upgradeable.sol\":4439:4450  _allowances */\n      0x34\n        /* \"@openzeppelin/contracts-upgradeable@4.9.3/token/ERC20/ERC20Upgradeable.sol\":4439:4457  _allowances[owner] */\n      0x00\n        /* \"@openzeppelin/contracts-upgradeable@4.9.3/token/ERC20/ERC20Upgradeable.sol\":4451:4456  owner */\n      dup5\n        /* \"@openzeppelin/contracts-upgradeable@4.9.3/token/ERC20/ERC20Upgradeable.sol\":4439:4457  _allowances[owner] */\n      0xffffffffffffffffffffffffffffffffffffffff\n      and\n      0xffffffffffffffffffffffffffffffffffffffff\n      and\n      dup2\n      mstore\n      0x20\n      add\n      swap1\n      dup2\n      mstore\n      0x20\n      add\n      0x00\n      keccak256\n        /* \"@openzeppelin/contracts-upgradeable@4.9.3/token/ERC20/ERC20Upgradeable.sol\":4439:4466  _allowances[owner][spender] */\n      0x00\n        /* \"@openzeppelin/contracts-upgradeable@4.9.3/token/ERC20/ERC20Upgradeable.sol\":4458:4465  spender */\n      dup4\n        /* \"@openzeppelin/contracts-upgradeable@4.9.3/token/ERC20/ERC20Upgradeable.sol\":4439:4466  _allowances[owner][spender] */\n      0xffffffffffffffffffffffffffffffffffffffff\n      and\n      0xffffffffffffffffffffffffffffffffffffffff\n      and\n      dup2\n      mstore\n      0x20\n      add\n      swap1\n      dup2\n      mstore\n      0x20\n      add\n      0x00\n      keccak256\n      sload\n        /* \"@openzeppelin/contracts-upgradeable@4.9.3/token/ERC20/ERC20Upgradeable.sol\":4432:4466  return _allowances[owner][spender] */\n      swap1\n      pop\n        /* \"@openzeppelin/contracts-upgradeable@4.9.3/token/ERC20/ERC20Upgradeable.sol\":4324:4473  function allowance(address owner, address spender) public view virtual override returns (uint256) {... */\n      swap3\n      swap2\n      pop\n      pop\n      jump\t// out\n        /* \"@openzeppelin/contracts-upgradeable@4.9.3/access/OwnableUpgradeable.sol\":2314:2512  function transferOwnership(address newOwner) public virtual onlyOwner {... */\n    tag_127:\n        /* \"@openzeppelin/contracts-upgradeable@4.9.3/access/OwnableUpgradeable.sol\":1334:1347  _checkOwner() */\n      tag_250\n        /* \"@openzeppelin/contracts-upgradeable@4.9.3/access/OwnableUpgradeable.sol\":1334:1345  _checkOwner */\n      tag_174\n        /* \"@openzeppelin/contracts-upgradeable@4.9.3/access/OwnableUpgradeable.sol\":1334:1347  _checkOwner() */\n      jump\t// in\n    tag_250:\n        /* \"@openzeppelin/contracts-upgradeable@4.9.3/access/OwnableUpgradeable.sol\":2422:2423  0 */\n      0x00\n        /* \"@openzeppelin/contracts-upgradeable@4.9.3/access/OwnableUpgradeable.sol\":2402:2424  newOwner != address(0) */\n      0xffffffffffffffffffffffffffffffffffffffff\n      and\n        /* \"@openzeppelin/contracts-upgradeable@4.9.3/access/OwnableUpgradeable.sol\":2402:2410  newOwner */\n      dup2\n        /* \"@openzeppelin/contracts-upgradeable@4.9.3/access/OwnableUpgradeable.sol\":2402:2424  newOwner != address(0) */\n      0xffffffffffffffffffffffffffffffffffffffff\n      and\n      sub\n        /* \"@openzeppelin/contracts-upgradeable@4.9.3/access/OwnableUpgradeable.sol\":2394:2467  require(newOwner != address(0), \"Ownable: new owner is the zero address\") */\n      tag_252\n      jumpi\n      mload(0x40)\n      0x08c379a000000000000000000000000000000000000000000000000000000000\n      dup2\n      mstore\n      0x04\n      add\n      tag_253\n      swap1\n      tag_254\n      jump\t// in\n    tag_253:\n      mload(0x40)\n      dup1\n      swap2\n      sub\n      swap1\n      revert\n    tag_252:\n        /* \"@openzeppelin/contracts-upgradeable@4.9.3/access/OwnableUpgradeable.sol\":2477:2505  _transferOwnership(newOwner) */\n      tag_255\n        /* \"@openzeppelin/contracts-upgradeable@4.9.3/access/OwnableUpgradeable.sol\":2496:2504  newOwner */\n      dup2\n        /* \"@openzeppelin/contracts-upgradeable@4.9.3/access/OwnableUpgradeable.sol\":2477:2495  _transferOwnership */\n      tag_203\n        /* \"@openzeppelin/contracts-upgradeable@4.9.3/access/OwnableUpgradeable.sol\":2477:2505  _transferOwnership(newOwner) */\n      jump\t// in\n    tag_255:\n        /* \"@openzeppelin/contracts-upgradeable@4.9.3/access/OwnableUpgradeable.sol\":2314:2512  function transferOwnership(address newOwner) public virtual onlyOwner {... */\n      pop\n      jump\t// out\n        /* \"@openzeppelin/contracts-upgradeable@4.9.3/utils/ContextUpgradeable.sol\":850:946  function _msgSender() internal view virtual returns (address) {... */\n    tag_137:\n        /* \"@openzeppelin/contracts-upgradeable@4.9.3/utils/ContextUpgradeable.sol\":903:910  address */\n      0x00\n        /* \"@openzeppelin/contracts-upgradeable@4.9.3/utils/ContextUpgradeable.sol\":929:939  msg.sender */\n      caller\n        /* \"@openzeppelin/contracts-upgradeable@4.9.3/utils/ContextUpgradeable.sol\":922:939  return msg.sender */\n      swap1\n      pop\n        /* \"@openzeppelin/contracts-upgradeable@4.9.3/utils/ContextUpgradeable.sol\":850:946  function _msgSender() internal view virtual returns (address) {... */\n      swap1\n      jump\t// out\n        /* \"@openzeppelin/contracts-upgradeable@4.9.3/token/ERC20/ERC20Upgradeable.sol\":10794:11134  function _approve(address owner, address spender, uint256 amount) internal virtual {... */\n    tag_139:\n        /* \"@openzeppelin/contracts-upgradeable@4.9.3/token/ERC20/ERC20Upgradeable.sol\":10912:10913  0 */\n      0x00\n        /* \"@openzeppelin/contracts-upgradeable@4.9.3/token/ERC20/ERC20Upgradeable.sol\":10895:10914  owner != address(0) */\n      0xffffffffffffffffffffffffffffffffffffffff\n      and\n        /* \"@openzeppelin/contracts-upgradeable@4.9.3/token/ERC20/ERC20Upgradeable.sol\":10895:10900  owner */\n      dup4\n        /* \"@openzeppelin/contracts-upgradeable@4.9.3/token/ERC20/ERC20Upgradeable.sol\":10895:10914  owner != address(0) */\n      0xffffffffffffffffffffffffffffffffffffffff\n      and\n      sub\n        /* \"@openzeppelin/contracts-upgradeable@4.9.3/token/ERC20/ERC20Upgradeable.sol\":10887:10955  require(owner != address(0), \"ERC20: approve from the zero address\") */\n      tag_258\n      jumpi\n      mload(0x40)\n      0x08c379a000000000000000000000000000000000000000000000000000000000\n      dup2\n      mstore\n      0x04\n      add\n      tag_259\n      swap1\n      tag_260\n      jump\t// in\n    tag_259:\n      mload(0x40)\n      dup1\n      swap2\n      sub\n      swap1\n      revert\n    tag_258:\n        /* \"@openzeppelin/contracts-upgradeable@4.9.3/token/ERC20/ERC20Upgradeable.sol\":10992:10993  0 */\n      0x00\n        /* \"@openzeppelin/contracts-upgradeable@4.9.3/token/ERC20/ERC20Upgradeable.sol\":10973:10994  spender != address(0) */\n      0xffffffffffffffffffffffffffffffffffffffff\n      and\n        /* \"@openzeppelin/contracts-upgradeable@4.9.3/token/ERC20/ERC20Upgradeable.sol\":10973:10980  spender */\n      dup3\n        /* \"@openzeppelin/contracts-upgradeable@4.9.3/token/ERC20/ERC20Upgradeable.sol\":10973:10994  spender != address(0) */\n      0xffffffffffffffffffffffffffffffffffffffff\n      and\n      sub\n        /* \"@openzeppelin/contracts-upgradeable@4.9.3/token/ERC20/ERC20Upgradeable.sol\":10965:11033  require(spender != address(0), \"ERC20: approve to the zero address\") */\n      tag_261\n      jumpi\n      mload(0x40)\n      0x08c379a000000000000000000000000000000000000000000000000000000000\n      dup2\n      mstore\n      0x04\n      add\n      tag_262\n      swap1\n      tag_263\n      jump\t// in\n    tag_262:\n      mload(0x40)\n      dup1\n      swap2\n      sub\n      swap1\n      revert\n    tag_261:\n        /* \"@openzeppelin/contracts-upgradeable@4.9.3/token/ERC20/ERC20Upgradeable.sol\":11074:11080  amount */\n      dup1\n        /* \"@openzeppelin/contracts-upgradeable@4.9.3/token/ERC20/ERC20Upgradeable.sol\":11044:11055  _allowances */\n      0x34\n        /* \"@openzeppelin/contracts-upgradeable@4.9.3/token/ERC20/ERC20Upgradeable.sol\":11044:11062  _allowances[owner] */\n      0x00\n        /* \"@openzeppelin/contracts-upgradeable@4.9.3/token/ERC20/ERC20Upgradeable.sol\":11056:11061  owner */\n      dup6\n        /* \"@openzeppelin/contracts-upgradeable@4.9.3/token/ERC20/ERC20Upgradeable.sol\":11044:11062  _allowances[owner] */\n      0xffffffffffffffffffffffffffffffffffffffff\n      and\n      0xffffffffffffffffffffffffffffffffffffffff\n      and\n      dup2\n      mstore\n      0x20\n      add\n      swap1\n      dup2\n      mstore\n      0x20\n      add\n      0x00\n      keccak256\n        /* \"@openzeppelin/contracts-upgradeable@4.9.3/token/ERC20/ERC20Upgradeable.sol\":11044:11071  _allowances[owner][spender] */\n      0x00\n        /* \"@openzeppelin/contracts-upgradeable@4.9.3/token/ERC20/ERC20Upgradeable.sol\":11063:11070  spender */\n      dup5\n        /* \"@openzeppelin/contracts-upgradeable@4.9.3/token/ERC20/ERC20Upgradeable.sol\":11044:11071  _allowances[owner][spender] */\n      0xffffffffffffffffffffffffffffffffffffffff\n      and\n      0xffffffffffffffffffffffffffffffffffffffff\n      and\n      dup2\n      mstore\n      0x20\n      add\n      swap1\n      dup2\n      mstore\n      0x20\n      add\n      0x00\n      keccak256\n        /* \"@openzeppelin/contracts-upgradeable@4.9.3/token/ERC20/ERC20Upgradeable.sol\":11044:11080  _allowances[owner][spender] = amount */\n      dup2\n      swap1\n      sstore\n      pop\n        /* \"@openzeppelin/contracts-upgradeable@4.9.3/token/ERC20/ERC20Upgradeable.sol\":11111:11118  spender */\n      dup2\n        /* \"@openzeppelin/contracts-upgradeable@4.9.3/token/ERC20/ERC20Upgradeable.sol\":11095:11127  Approval(owner, spender, amount) */\n      0xffffffffffffffffffffffffffffffffffffffff\n      and\n        /* \"@openzeppelin/contracts-upgradeable@4.9.3/token/ERC20/ERC20Upgradeable.sol\":11104:11109  owner */\n      dup4\n        /* \"@openzeppelin/contracts-upgradeable@4.9.3/token/ERC20/ERC20Upgradeable.sol\":11095:11127  Approval(owner, spender, amount) */\n      0xffffffffffffffffffffffffffffffffffffffff\n      and\n      0x8c5be1e5ebec7d5bd14f71427d1e84f3dd0314c0f7b2291e5b200ac8c7c3b925\n        /* \"@openzeppelin/contracts-upgradeable@4.9.3/token/ERC20/ERC20Upgradeable.sol\":11120:11126  amount */\n      dup4\n        /* \"@openzeppelin/contracts-upgradeable@4.9.3/token/ERC20/ERC20Upgradeable.sol\":11095:11127  Approval(owner, spender, amount) */\n      mload(0x40)\n      tag_264\n      swap2\n      swap1\n      tag_43\n      jump\t// in\n    tag_264:\n      mload(0x40)\n      dup1\n      swap2\n      sub\n      swap1\n      log3\n        /* \"@openzeppelin/contracts-upgradeable@4.9.3/token/ERC20/ERC20Upgradeable.sol\":10794:11134  function _approve(address owner, address spender, uint256 amount) internal virtual {... */\n      pop\n      pop\n      pop\n      jump\t// out\n        /* \"@openzeppelin/contracts-upgradeable@4.9.3/token/ERC20/ERC20Upgradeable.sol\":11415:11826  function _spendAllowance(address owner, address spender, uint256 amount) internal virtual {... */\n    tag_144:\n        /* \"@openzeppelin/contracts-upgradeable@4.9.3/token/ERC20/ERC20Upgradeable.sol\":11515:11539  uint256 currentAllowance */\n      0x00\n        /* \"@openzeppelin/contracts-upgradeable@4.9.3/token/ERC20/ERC20Upgradeable.sol\":11542:11567  allowance(owner, spender) */\n      tag_266\n        /* \"@openzeppelin/contracts-upgradeable@4.9.3/token/ERC20/ERC20Upgradeable.sol\":11552:11557  owner */\n      dup5\n        /* \"@openzeppelin/contracts-upgradeable@4.9.3/token/ERC20/ERC20Upgradeable.sol\":11559:11566  spender */\n      dup5\n        /* \"@openzeppelin/contracts-upgradeable@4.9.3/token/ERC20/ERC20Upgradeable.sol\":11542:11551  allowance */\n      tag_122\n        /* \"@openzeppelin/contracts-upgradeable@4.9.3/token/ERC20/ERC20Upgradeable.sol\":11542:11567  allowance(owner, spender) */\n      jump\t// in\n    tag_266:\n        /* \"@openzeppelin/contracts-upgradeable@4.9.3/token/ERC20/ERC20Upgradeable.sol\":11515:11567  uint256 currentAllowance = allowance(owner, spender) */\n      swap1\n      pop\n        /* \"@openzeppelin/contracts-upgradeable@4.9.3/token/ERC20/ERC20Upgradeable.sol\":11601:11618  type(uint256).max */\n      0xffffffffffffffffffffffffffffffffffffffffffffffffffffffffffffffff\n        /* \"@openzeppelin/contracts-upgradeable@4.9.3/token/ERC20/ERC20Upgradeable.sol\":11581:11597  currentAllowance */\n      dup2\n        /* \"@openzeppelin/contracts-upgradeable@4.9.3/token/ERC20/ERC20Upgradeable.sol\":11581:11618  currentAllowance != type(uint256).max */\n      eq\n        /* \"@openzeppelin/contracts-upgradeable@4.9.3/token/ERC20/ERC20Upgradeable.sol\":11577:11820  if (currentAllowance != type(uint256).max) {... */\n      tag_267\n      jumpi\n        /* \"@openzeppelin/contracts-upgradeable@4.9.3/token/ERC20/ERC20Upgradeable.sol\":11662:11668  amount */\n      dup2\n        /* \"@openzeppelin/contracts-upgradeable@4.9.3/token/ERC20/ERC20Upgradeable.sol\":11642:11658  currentAllowance */\n      dup2\n        /* \"@openzeppelin/contracts-upgradeable@4.9.3/token/ERC20/ERC20Upgradeable.sol\":11642:11668  currentAllowance >= amount */\n      lt\n      iszero\n        /* \"@openzeppelin/contracts-upgradeable@4.9.3/token/ERC20/ERC20Upgradeable.sol\":11634:11702  require(currentAllowance >= amount, \"ERC20: insufficient allowance\") */\n      tag_268\n      jumpi\n      mload(0x40)\n      0x08c379a000000000000000000000000000000000000000000000000000000000\n      dup2\n      mstore\n      0x04\n      add\n      tag_269\n      swap1\n      tag_270\n      jump\t// in\n    tag_269:\n      mload(0x40)\n      dup1\n      swap2\n      sub\n      swap1\n      revert\n    tag_268:\n        /* \"@openzeppelin/contracts-upgradeable@4.9.3/token/ERC20/ERC20Upgradeable.sol\":11744:11795  _approve(owner, spender, currentAllowance - amount) */\n      tag_271\n        /* \"@openzeppelin/contracts-upgradeable@4.9.3/token/ERC20/ERC20Upgradeable.sol\":11753:11758  owner */\n      dup5\n        /* \"@openzeppelin/contracts-upgradeable@4.9.3/token/ERC20/ERC20Upgradeable.sol\":11760:11767  spender */\n      dup5\n        /* \"@openzeppelin/contracts-upgradeable@4.9.3/token/ERC20/ERC20Upgradeable.sol\":11788:11794  amount */\n      dup5\n        /* \"@openzeppelin/contracts-upgradeable@4.9.3/token/ERC20/ERC20Upgradeable.sol\":11769:11785  currentAllowance */\n      dup5\n        /* \"@openzeppelin/contracts-upgradeable@4.9.3/token/ERC20/ERC20Upgradeable.sol\":11769:11794  currentAllowance - amount */\n      sub\n        /* \"@openzeppelin/contracts-upgradeable@4.9.3/token/ERC20/ERC20Upgradeable.sol\":11744:11752  _approve */\n      tag_139\n        /* \"@openzeppelin/contracts-upgradeable@4.9.3/token/ERC20/ERC20Upgradeable.sol\":11744:11795  _approve(owner, spender, currentAllowance - amount) */\n      jump\t// in\n    tag_271:\n        /* \"@openzeppelin/contracts-upgradeable@4.9.3/token/ERC20/ERC20Upgradeable.sol\":11577:11820  if (currentAllowance != type(uint256).max) {... */\n    tag_267:\n        /* \"@openzeppelin/contracts-upgradeable@4.9.3/token/ERC20/ERC20Upgradeable.sol\":11505:11826  {... */\n      pop\n        /* \"@openzeppelin/contracts-upgradeable@4.9.3/token/ERC20/ERC20Upgradeable.sol\":11415:11826  function _spendAllowance(address owner, address spender, uint256 amount) internal virtual {... */\n      pop\n      pop\n      pop\n      jump\t// out\n        /* \"@openzeppelin/contracts-upgradeable@4.9.3/token/ERC20/ERC20Upgradeable.sol\":7793:8581  function _transfer(address from, address to, uint256 amount) internal virtual {... */\n    tag_146:\n        /* \"@openzeppelin/contracts-upgradeable@4.9.3/token/ERC20/ERC20Upgradeable.sol\":7905:7906  0 */\n      0x00\n        /* \"@openzeppelin/contracts-upgradeable@4.9.3/token/ERC20/ERC20Upgradeable.sol\":7889:7907  from != address(0) */\n      0xffffffffffffffffffffffffffffffffffffffff\n      and\n        /* \"@openzeppelin/contracts-upgradeable@4.9.3/token/ERC20/ERC20Upgradeable.sol\":7889:7893  from */\n      dup4\n        /* \"@openzeppelin/contracts-upgradeable@4.9.3/token/ERC20/ERC20Upgradeable.sol\":7889:7907  from != address(0) */\n      0xffffffffffffffffffffffffffffffffffffffff\n      and\n      sub\n        /* \"@openzeppelin/contracts-upgradeable@4.9.3/token/ERC20/ERC20Upgradeable.sol\":7881:7949  require(from != address(0), \"ERC20: transfer from the zero address\") */\n      tag_273\n      jumpi\n      mload(0x40)\n      0x08c379a000000000000000000000000000000000000000000000000000000000\n      dup2\n      mstore\n      0x04\n      add\n      tag_274\n      swap1\n      tag_275\n      jump\t// in\n    tag_274:\n      mload(0x40)\n      dup1\n      swap2\n      sub\n      swap1\n      revert\n    tag_273:\n        /* \"@openzeppelin/contracts-upgradeable@4.9.3/token/ERC20/ERC20Upgradeable.sol\":7981:7982  0 */\n      0x00\n        /* \"@openzeppelin/contracts-upgradeable@4.9.3/token/ERC20/ERC20Upgradeable.sol\":7967:7983  to != address(0) */\n      0xffffffffffffffffffffffffffffffffffffffff\n      and\n        /* \"@openzeppelin/contracts-upgradeable@4.9.3/token/ERC20/ERC20Upgradeable.sol\":7967:7969  to */\n      dup3\n        /* \"@openzeppelin/contracts-upgradeable@4.9.3/token/ERC20/ERC20Upgradeable.sol\":7967:7983  to != address(0) */\n      0xffffffffffffffffffffffffffffffffffffffff\n      and\n      sub\n        /* \"@openzeppelin/contracts-upgradeable@4.9.3/token/ERC20/ERC20Upgradeable.sol\":7959:8023  require(to != address(0), \"ERC20: transfer to the zero address\") */\n      tag_276\n      jumpi\n      mload(0x40)\n      0x08c379a000000000000000000000000000000000000000000000000000000000\n      dup2\n      mstore\n      0x04\n      add\n      tag_277\n      swap1\n      tag_278\n      jump\t// in\n    tag_277:\n      mload(0x40)\n      dup1\n      swap2\n      sub\n      swap1\n      revert\n    tag_276:\n        /* \"@openzeppelin/contracts-upgradeable@4.9.3/token/ERC20/ERC20Upgradeable.sol\":8034:8072  _beforeTokenTransfer(from, to, amount) */\n      tag_279\n        /* \"@openzeppelin/contracts-upgradeable@4.9.3/token/ERC20/ERC20Upgradeable.sol\":8055:8059  from */\n      dup4\n        /* \"@openzeppelin/contracts-upgradeable@4.9.3/token/ERC20/ERC20Upgradeable.sol\":8061:8063  to */\n      dup4\n        /* \"@openzeppelin/contracts-upgradeable@4.9.3/token/ERC20/ERC20Upgradeable.sol\":8065:8071  amount */\n      dup4\n        /* \"@openzeppelin/contracts-upgradeable@4.9.3/token/ERC20/ERC20Upgradeable.sol\":8034:8054  _beforeTokenTransfer */\n      tag_280\n        /* \"@openzeppelin/contracts-upgradeable@4.9.3/token/ERC20/ERC20Upgradeable.sol\":8034:8072  _beforeTokenTransfer(from, to, amount) */\n      jump\t// in\n    tag_279:\n        /* \"@openzeppelin/contracts-upgradeable@4.9.3/token/ERC20/ERC20Upgradeable.sol\":8083:8102  uint256 fromBalance */\n      0x00\n        /* \"@openzeppelin/contracts-upgradeable@4.9.3/token/ERC20/ERC20Upgradeable.sol\":8105:8114  _balances */\n      0x33\n        /* \"@openzeppelin/contracts-upgradeable@4.9.3/token/ERC20/ERC20Upgradeable.sol\":8105:8120  _balances[from] */\n      0x00\n        /* \"@openzeppelin/contracts-upgradeable@4.9.3/token/ERC20/ERC20Upgradeable.sol\":8115:8119  from */\n      dup6\n        /* \"@openzeppelin/contracts-upgradeable@4.9.3/token/ERC20/ERC20Upgradeable.sol\":8105:8120  _balances[from] */\n      0xffffffffffffffffffffffffffffffffffffffff\n      and\n      0xffffffffffffffffffffffffffffffffffffffff\n      and\n      dup2\n      mstore\n      0x20\n      add\n      swap1\n      dup2\n      mstore\n      0x20\n      add\n      0x00\n      keccak256\n      sload\n        /* \"@openzeppelin/contracts-upgradeable@4.9.3/token/ERC20/ERC20Upgradeable.sol\":8083:8120  uint256 fromBalance = _balances[from] */\n      swap1\n      pop\n        /* \"@openzeppelin/contracts-upgradeable@4.9.3/token/ERC20/ERC20Upgradeable.sol\":8153:8159  amount */\n      dup2\n        /* \"@openzeppelin/contracts-upgradeable@4.9.3/token/ERC20/ERC20Upgradeable.sol\":8138:8149  fromBalance */\n      dup2\n        /* \"@openzeppelin/contracts-upgradeable@4.9.3/token/ERC20/ERC20Upgradeable.sol\":8138:8159  fromBalance >= amount */\n      lt\n      iszero\n        /* \"@openzeppelin/contracts-upgradeable@4.9.3/token/ERC20/ERC20Upgradeable.sol\":8130:8202  require(fromBalance >= amount, \"ERC20: transfer amount exceeds balance\") */\n      tag_281\n      jumpi\n      mload(0x40)\n      0x08c379a000000000000000000000000000000000000000000000000000000000\n      dup2\n      mstore\n      0x04\n      add\n      tag_282\n      swap1\n      tag_283\n      jump\t// in\n    tag_282:\n      mload(0x40)\n      dup1\n      swap2\n      sub\n      swap1\n      revert\n    tag_281:\n        /* \"@openzeppelin/contracts-upgradeable@4.9.3/token/ERC20/ERC20Upgradeable.sol\":8268:8274  amount */\n      dup2\n        /* \"@openzeppelin/contracts-upgradeable@4.9.3/token/ERC20/ERC20Upgradeable.sol\":8254:8265  fromBalance */\n      dup2\n        /* \"@openzeppelin/contracts-upgradeable@4.9.3/token/ERC20/ERC20Upgradeable.sol\":8254:8274  fromBalance - amount */\n      sub\n        /* \"@openzeppelin/contracts-upgradeable@4.9.3/token/ERC20/ERC20Upgradeable.sol\":8236:8245  _balances */\n      0x33\n        /* \"@openzeppelin/contracts-upgradeable@4.9.3/token/ERC20/ERC20Upgradeable.sol\":8236:8251  _balances[from] */\n      0x00\n        /* \"@openzeppelin/contracts-upgradeable@4.9.3/token/ERC20/ERC20Upgradeable.sol\":8246:8250  from */\n      dup7\n        /* \"@openzeppelin/contracts-upgradeable@4.9.3/token/ERC20/ERC20Upgradeable.sol\":8236:8251  _balances[from] */\n      0xffffffffffffffffffffffffffffffffffffffff\n      and\n      0xffffffffffffffffffffffffffffffffffffffff\n      and\n      dup2\n      mstore\n      0x20\n      add\n      swap1\n      dup2\n      mstore\n      0x20\n      add\n      0x00\n      keccak256\n        /* \"@openzeppelin/contracts-upgradeable@4.9.3/token/ERC20/ERC20Upgradeable.sol\":8236:8274  _balances[from] = fromBalance - amount */\n      dup2\n      swap1\n      sstore\n      pop\n        /* \"@openzeppelin/contracts-upgradeable@4.9.3/token/ERC20/ERC20Upgradeable.sol\":8468:8474  amount */\n      dup2\n        /* \"@openzeppelin/contracts-upgradeable@4.9.3/token/ERC20/ERC20Upgradeable.sol\":8451:8460  _balances */\n      0x33\n        /* \"@openzeppelin/contracts-upgradeable@4.9.3/token/ERC20/ERC20Upgradeable.sol\":8451:8464  _balances[to] */\n      0x00\n        /* \"@openzeppelin/contracts-upgradeable@4.9.3/token/ERC20/ERC20Upgradeable.sol\":8461:8463  to */\n      dup6\n        /* \"@openzeppelin/contracts-upgradeable@4.9.3/token/ERC20/ERC20Upgradeable.sol\":8451:8464  _balances[to] */\n      0xffffffffffffffffffffffffffffffffffffffff\n      and\n      0xffffffffffffffffffffffffffffffffffffffff\n      and\n      dup2\n      mstore\n      0x20\n      add\n      swap1\n      dup2\n      mstore\n      0x20\n      add\n      0x00\n      keccak256\n      0x00\n        /* \"@openzeppelin/contracts-upgradeable@4.9.3/token/ERC20/ERC20Upgradeable.sol\":8451:8474  _balances[to] += amount */\n      dup3\n      dup3\n      sload\n      add\n      swap3\n      pop\n      pop\n      dup2\n      swap1\n      sstore\n      pop\n        /* \"@openzeppelin/contracts-upgradeable@4.9.3/token/ERC20/ERC20Upgradeable.sol\":8515:8517  to */\n      dup3\n        /* \"@openzeppelin/contracts-upgradeable@4.9.3/token/ERC20/ERC20Upgradeable.sol\":8500:8526  Transfer(from, to, amount) */\n      0xffffffffffffffffffffffffffffffffffffffff\n      and\n        /* \"@openzeppelin/contracts-upgradeable@4.9.3/token/ERC20/ERC20Upgradeable.sol\":8509:8513  from */\n      dup5\n        /* \"@openzeppelin/contracts-upgradeable@4.9.3/token/ERC20/ERC20Upgradeable.sol\":8500:8526  Transfer(from, to, amount) */\n      0xffffffffffffffffffffffffffffffffffffffff\n      and\n      0xddf252ad1be2c89b69c2b068fc378daa952ba7f163c4a11628f55a4df523b3ef\n        /* \"@openzeppelin/contracts-upgradeable@4.9.3/token/ERC20/ERC20Upgradeable.sol\":8519:8525  amount */\n      dup5\n        /* \"@openzeppelin/contracts-upgradeable@4.9.3/token/ERC20/ERC20Upgradeable.sol\":8500:8526  Transfer(from, to, amount) */\n      mload(0x40)\n      tag_284\n      swap2\n      swap1\n      tag_43\n      jump\t// in\n    tag_284:\n      mload(0x40)\n      dup1\n      swap2\n      sub\n      swap1\n      log3\n        /* \"@openzeppelin/contracts-upgradeable@4.9.3/token/ERC20/ERC20Upgradeable.sol\":8537:8574  _afterTokenTransfer(from, to, amount) */\n      tag_285\n        /* \"@openzeppelin/contracts-upgradeable@4.9.3/token/ERC20/ERC20Upgradeable.sol\":8557:8561  from */\n      dup5\n        /* \"@openzeppelin/contracts-upgradeable@4.9.3/token/ERC20/ERC20Upgradeable.sol\":8563:8565  to */\n      dup5\n        /* \"@openzeppelin/contracts-upgradeable@4.9.3/token/ERC20/ERC20Upgradeable.sol\":8567:8573  amount */\n      dup5\n        /* \"@openzeppelin/contracts-upgradeable@4.9.3/token/ERC20/ERC20Upgradeable.sol\":8537:8556  _afterTokenTransfer */\n      tag_286\n        /* \"@openzeppelin/contracts-upgradeable@4.9.3/token/ERC20/ERC20Upgradeable.sol\":8537:8574  _afterTokenTransfer(from, to, amount) */\n      jump\t// in\n    tag_285:\n        /* \"@openzeppelin/contracts-upgradeable@4.9.3/token/ERC20/ERC20Upgradeable.sol\":7871:8581  {... */\n      pop\n        /* \"@openzeppelin/contracts-upgradeable@4.9.3/token/ERC20/ERC20Upgradeable.sol\":7793:8581  function _transfer(address from, address to, uint256 amount) internal virtual {... */\n      pop\n      pop\n      pop\n      jump\t// out\n        /* \"@openzeppelin/contracts-upgradeable@4.9.3/proxy/ERC1967/ERC1967UpgradeUpgradeable.sol\":1457:1608  function _getImplementation() internal view returns (address) {... */\n    tag_153:\n        /* \"@openzeppelin/contracts-upgradeable@4.9.3/proxy/ERC1967/ERC1967UpgradeUpgradeable.sol\":1510:1517  address */\n      0x00\n        /* \"@openzeppelin/contracts-upgradeable@4.9.3/proxy/ERC1967/ERC1967UpgradeUpgradeable.sol\":1536:1595  StorageSlotUpgradeable.getAddressSlot(_IMPLEMENTATION_SLOT) */\n      tag_288\n        /* \"@openzeppelin/contracts-upgradeable@4.9.3/proxy/ERC1967/ERC1967UpgradeUpgradeable.sol\":1312:1378  0x360894a13ba1a3210667c828492db98dca3e2076cc3735a920a3ca505d382bbc */\n      0x360894a13ba1a3210667c828492db98dca3e2076cc3735a920a3ca505d382bbc\n        /* \"@openzeppelin/contracts-upgradeable@4.9.3/proxy/ERC1967/ERC1967UpgradeUpgradeable.sol\":1574:1594  _IMPLEMENTATION_SLOT */\n      0x00\n      shl\n        /* \"@openzeppelin/contracts-upgradeable@4.9.3/proxy/ERC1967/ERC1967UpgradeUpgradeable.sol\":1536:1573  StorageSlotUpgradeable.getAddressSlot */\n      tag_289\n        /* \"@openzeppelin/contracts-upgradeable@4.9.3/proxy/ERC1967/ERC1967UpgradeUpgradeable.sol\":1536:1595  StorageSlotUpgradeable.getAddressSlot(_IMPLEMENTATION_SLOT) */\n      jump\t// in\n    tag_288:\n        /* \"@openzeppelin/contracts-upgradeable@4.9.3/proxy/ERC1967/ERC1967UpgradeUpgradeable.sol\":1536:1601  StorageSlotUpgradeable.getAddressSlot(_IMPLEMENTATION_SLOT).value */\n      0x00\n      add\n      0x00\n      swap1\n      sload\n      swap1\n      0x0100\n      exp\n      swap1\n      div\n      0xffffffffffffffffffffffffffffffffffffffff\n      and\n        /* \"@openzeppelin/contracts-upgradeable@4.9.3/proxy/ERC1967/ERC1967UpgradeUpgradeable.sol\":1529:1601  return StorageSlotUpgradeable.getAddressSlot(_IMPLEMENTATION_SLOT).value */\n      swap1\n      pop\n        /* \"@openzeppelin/contracts-upgradeable@4.9.3/proxy/ERC1967/ERC1967UpgradeUpgradeable.sol\":1457:1608  function _getImplementation() internal view returns (address) {... */\n      swap1\n      jump\t// out\n        /* \"contract-bed87a3bb7.sol\":1360:1472  function _authorizeUpgrade(address newImplementation)... */\n    tag_159:\n        /* \"@openzeppelin/contracts-upgradeable@4.9.3/access/OwnableUpgradeable.sol\":1334:1347  _checkOwner() */\n      tag_291\n        /* \"@openzeppelin/contracts-upgradeable@4.9.3/access/OwnableUpgradeable.sol\":1334:1345  _checkOwner */\n      tag_174\n        /* \"@openzeppelin/contracts-upgradeable@4.9.3/access/OwnableUpgradeable.sol\":1334:1347  _checkOwner() */\n      jump\t// in\n    tag_291:\n        /* \"contract-bed87a3bb7.sol\":1360:1472  function _authorizeUpgrade(address newImplementation)... */\n      pop\n      jump\t// out\n        /* \"@openzeppelin/contracts-upgradeable@4.9.3/proxy/ERC1967/ERC1967UpgradeUpgradeable.sol\":2820:3764  function _upgradeToAndCallUUPS(address newImplementation, bytes memory data, bool forceCall) internal {... */\n    tag_165:\n        /* \"@openzeppelin/contracts-upgradeable@4.9.3/proxy/ERC1967/ERC1967UpgradeUpgradeable.sol\":3236:3289  StorageSlotUpgradeable.getBooleanSlot(_ROLLBACK_SLOT) */\n      tag_294\n        /* \"@openzeppelin/contracts-upgradeable@4.9.3/proxy/ERC1967/ERC1967UpgradeUpgradeable.sol\":971:1037  0x4910fdfa16fed3260ed0e7147f7cc6da11a60208b5b9406d12a635614ffd9143 */\n      0x4910fdfa16fed3260ed0e7147f7cc6da11a60208b5b9406d12a635614ffd9143\n        /* \"@openzeppelin/contracts-upgradeable@4.9.3/proxy/ERC1967/ERC1967UpgradeUpgradeable.sol\":3274:3288  _ROLLBACK_SLOT */\n      0x00\n      shl\n        /* \"@openzeppelin/contracts-upgradeable@4.9.3/proxy/ERC1967/ERC1967UpgradeUpgradeable.sol\":3236:3273  StorageSlotUpgradeable.getBooleanSlot */\n      tag_295\n        /* \"@openzeppelin/contracts-upgradeable@4.9.3/proxy/ERC1967/ERC1967UpgradeUpgradeable.sol\":3236:3289  StorageSlotUpgradeable.getBooleanSlot(_ROLLBACK_SLOT) */\n      jump\t// in\n    tag_294:\n        /* \"@openzeppelin/contracts-upgradeable@4.9.3/proxy/ERC1967/ERC1967UpgradeUpgradeable.sol\":3236:3295  StorageSlotUpgradeable.getBooleanSlot(_ROLLBACK_SLOT).value */\n      0x00\n      add\n      0x00\n      swap1\n      sload\n      swap1\n      0x0100\n      exp\n      swap1\n      div\n      0xff\n      and\n        /* \"@openzeppelin/contracts-upgradeable@4.9.3/proxy/ERC1967/ERC1967UpgradeUpgradeable.sol\":3232:3758  if (StorageSlotUpgradeable.getBooleanSlot(_ROLLBACK_SLOT).value) {... */\n      iszero\n      tag_296\n      jumpi\n        /* \"@openzeppelin/contracts-upgradeable@4.9.3/proxy/ERC1967/ERC1967UpgradeUpgradeable.sol\":3311:3348  _setImplementation(newImplementation) */\n      tag_297\n        /* \"@openzeppelin/contracts-upgradeable@4.9.3/proxy/ERC1967/ERC1967UpgradeUpgradeable.sol\":3330:3347  newImplementation */\n      dup4\n        /* \"@openzeppelin/contracts-upgradeable@4.9.3/proxy/ERC1967/ERC1967UpgradeUpgradeable.sol\":3311:3329  _setImplementation */\n      tag_298\n        /* \"@openzeppelin/contracts-upgradeable@4.9.3/proxy/ERC1967/ERC1967UpgradeUpgradeable.sol\":3311:3348  _setImplementation(newImplementation) */\n      jump\t// in\n    tag_297:\n        /* \"@openzeppelin/contracts-upgradeable@4.9.3/proxy/ERC1967/ERC1967UpgradeUpgradeable.sol\":3232:3758  if (StorageSlotUpgradeable.getBooleanSlot(_ROLLBACK_SLOT).value) {... */\n      jump(tag_299)\n    tag_296:\n        /* \"@openzeppelin/contracts-upgradeable@4.9.3/proxy/ERC1967/ERC1967UpgradeUpgradeable.sol\":3412:3429  newImplementation */\n      dup3\n        /* \"@openzeppelin/contracts-upgradeable@4.9.3/proxy/ERC1967/ERC1967UpgradeUpgradeable.sol\":3383:3444  IERC1822ProxiableUpgradeable(newImplementation).proxiableUUID */\n      0xffffffffffffffffffffffffffffffffffffffff\n      and\n      0x52d1902d\n        /* \"@openzeppelin/contracts-upgradeable@4.9.3/proxy/ERC1967/ERC1967UpgradeUpgradeable.sol\":3383:3446  IERC1822ProxiableUpgradeable(newImplementation).proxiableUUID() */\n      mload(0x40)\n      dup2\n      0xffffffff\n      and\n      0xe0\n      shl\n      dup2\n      mstore\n      0x04\n      add\n      0x20\n      mload(0x40)\n      dup1\n      dup4\n      sub\n      dup2\n      dup7\n      gas\n      staticcall\n      swap3\n      pop\n      pop\n      pop\n      dup1\n      iszero\n      tag_300\n      jumpi\n      pop\n      mload(0x40)\n      returndatasize\n      not(0x1f)\n      0x1f\n      dup3\n      add\n      and\n      dup3\n      add\n      dup1\n      0x40\n      mstore\n      pop\n      dup2\n      add\n      swap1\n      tag_301\n      swap2\n      swap1\n      tag_302\n      jump\t// in\n    tag_301:\n      0x01\n    tag_300:\n        /* \"@openzeppelin/contracts-upgradeable@4.9.3/proxy/ERC1967/ERC1967UpgradeUpgradeable.sol\":3379:3681  try IERC1822ProxiableUpgradeable(newImplementation).proxiableUUID() returns (bytes32 slot) {... */\n      tag_303\n      jumpi\n        /* \"@openzeppelin/contracts-upgradeable@4.9.3/proxy/ERC1967/ERC1967UpgradeUpgradeable.sol\":3610:3666  revert(\"ERC1967Upgrade: new implementation is not UUPS\") */\n      mload(0x40)\n      0x08c379a000000000000000000000000000000000000000000000000000000000\n      dup2\n      mstore\n      0x04\n      add\n      tag_307\n      swap1\n      tag_308\n      jump\t// in\n    tag_307:\n      mload(0x40)\n      dup1\n      swap2\n      sub\n      swap1\n      revert\n        /* \"@openzeppelin/contracts-upgradeable@4.9.3/proxy/ERC1967/ERC1967UpgradeUpgradeable.sol\":3379:3681  try IERC1822ProxiableUpgradeable(newImplementation).proxiableUUID() returns (bytes32 slot) {... */\n    tag_303:\n        /* \"@openzeppelin/contracts-upgradeable@4.9.3/proxy/ERC1967/ERC1967UpgradeUpgradeable.sol\":1312:1378  0x360894a13ba1a3210667c828492db98dca3e2076cc3735a920a3ca505d382bbc */\n      0x360894a13ba1a3210667c828492db98dca3e2076cc3735a920a3ca505d382bbc\n        /* \"@openzeppelin/contracts-upgradeable@4.9.3/proxy/ERC1967/ERC1967UpgradeUpgradeable.sol\":3504:3524  _IMPLEMENTATION_SLOT */\n      0x00\n      shl\n        /* \"@openzeppelin/contracts-upgradeable@4.9.3/proxy/ERC1967/ERC1967UpgradeUpgradeable.sol\":3496:3500  slot */\n      dup2\n        /* \"@openzeppelin/contracts-upgradeable@4.9.3/proxy/ERC1967/ERC1967UpgradeUpgradeable.sol\":3496:3524  slot == _IMPLEMENTATION_SLOT */\n      eq\n        /* \"@openzeppelin/contracts-upgradeable@4.9.3/proxy/ERC1967/ERC1967UpgradeUpgradeable.sol\":3488:3570  require(slot == _IMPLEMENTATION_SLOT, \"ERC1967Upgrade: unsupported proxiableUUID\") */\n      tag_310\n      jumpi\n      mload(0x40)\n      0x08c379a000000000000000000000000000000000000000000000000000000000\n      dup2\n      mstore\n      0x04\n      add\n      tag_311\n      swap1\n      tag_312\n      jump\t// in\n    tag_311:\n      mload(0x40)\n      dup1\n      swap2\n      sub\n      swap1\n      revert\n    tag_310:\n        /* \"@openzeppelin/contracts-upgradeable@4.9.3/proxy/ERC1967/ERC1967UpgradeUpgradeable.sol\":3447:3585  returns (bytes32 slot) {... */\n      pop\n        /* \"@openzeppelin/contracts-upgradeable@4.9.3/proxy/ERC1967/ERC1967UpgradeUpgradeable.sol\":3694:3747  _upgradeToAndCall(newImplementation, data, forceCall) */\n      tag_313\n        /* \"@openzeppelin/contracts-upgradeable@4.9.3/proxy/ERC1967/ERC1967UpgradeUpgradeable.sol\":3712:3729  newImplementation */\n      dup4\n        /* \"@openzeppelin/contracts-upgradeable@4.9.3/proxy/ERC1967/ERC1967UpgradeUpgradeable.sol\":3731:3735  data */\n      dup4\n        /* \"@openzeppelin/contracts-upgradeable@4.9.3/proxy/ERC1967/ERC1967UpgradeUpgradeable.sol\":3737:3746  forceCall */\n      dup4\n        /* \"@openzeppelin/contracts-upgradeable@4.9.3/proxy/ERC1967/ERC1967UpgradeUpgradeable.sol\":3694:3711  _upgradeToAndCall */\n      tag_314\n        /* \"@openzeppelin/contracts-upgradeable@4.9.3/proxy/ERC1967/ERC1967UpgradeUpgradeable.sol\":3694:3747  _upgradeToAndCall(newImplementation, data, forceCall) */\n      jump\t// in\n    tag_313:\n        /* \"@openzeppelin/contracts-upgradeable@4.9.3/proxy/ERC1967/ERC1967UpgradeUpgradeable.sol\":3232:3758  if (StorageSlotUpgradeable.getBooleanSlot(_ROLLBACK_SLOT).value) {... */\n    tag_299:\n        /* \"@openzeppelin/contracts-upgradeable@4.9.3/proxy/ERC1967/ERC1967UpgradeUpgradeable.sol\":2820:3764  function _upgradeToAndCallUUPS(address newImplementation, bytes memory data, bool forceCall) internal {... */\n      pop\n      pop\n      pop\n      jump\t// out\n        /* \"@openzeppelin/contracts-upgradeable@4.9.3/access/OwnableUpgradeable.sol\":1599:1729  function _checkOwner() internal view virtual {... */\n    tag_174:\n        /* \"@openzeppelin/contracts-upgradeable@4.9.3/access/OwnableUpgradeable.sol\":1673:1685  _msgSender() */\n      tag_316\n        /* \"@openzeppelin/contracts-upgradeable@4.9.3/access/OwnableUpgradeable.sol\":1673:1683  _msgSender */\n      tag_137\n        /* \"@openzeppelin/contracts-upgradeable@4.9.3/access/OwnableUpgradeable.sol\":1673:1685  _msgSender() */\n      jump\t// in\n    tag_316:\n        /* \"@openzeppelin/contracts-upgradeable@4.9.3/access/OwnableUpgradeable.sol\":1662:1685  owner() == _msgSender() */\n      0xffffffffffffffffffffffffffffffffffffffff\n      and\n        /* \"@openzeppelin/contracts-upgradeable@4.9.3/access/OwnableUpgradeable.sol\":1662:1669  owner() */\n      tag_317\n        /* \"@openzeppelin/contracts-upgradeable@4.9.3/access/OwnableUpgradeable.sol\":1662:1667  owner */\n      tag_101\n        /* \"@openzeppelin/contracts-upgradeable@4.9.3/access/OwnableUpgradeable.sol\":1662:1669  owner() */\n      jump\t// in\n    tag_317:\n        /* \"@openzeppelin/contracts-upgradeable@4.9.3/access/OwnableUpgradeable.sol\":1662:1685  owner() == _msgSender() */\n      0xffffffffffffffffffffffffffffffffffffffff\n      and\n      eq\n        /* \"@openzeppelin/contracts-upgradeable@4.9.3/access/OwnableUpgradeable.sol\":1654:1722  require(owner() == _msgSender(), \"Ownable: caller is not the owner\") */\n      tag_318\n      jumpi\n      mload(0x40)\n      0x08c379a000000000000000000000000000000000000000000000000000000000\n      dup2\n      mstore\n      0x04\n      add\n      tag_319\n      swap1\n      tag_320\n      jump\t// in\n    tag_319:\n      mload(0x40)\n      dup1\n      swap2\n      sub\n      swap1\n      revert\n    tag_318:\n        /* \"@openzeppelin/contracts-upgradeable@4.9.3/access/OwnableUpgradeable.sol\":1599:1729  function _checkOwner() internal view virtual {... */\n      jump\t// out\n        /* \"@openzeppelin/contracts-upgradeable@4.9.3/security/PausableUpgradeable.sol\":2676:2793  function _unpause() internal virtual whenPaused {... */\n    tag_177:\n        /* \"@openzeppelin/contracts-upgradeable@4.9.3/security/PausableUpgradeable.sol\":1729:1745  _requirePaused() */\n      tag_322\n        /* \"@openzeppelin/contracts-upgradeable@4.9.3/security/PausableUpgradeable.sol\":1729:1743  _requirePaused */\n      tag_323\n        /* \"@openzeppelin/contracts-upgradeable@4.9.3/security/PausableUpgradeable.sol\":1729:1745  _requirePaused() */\n      jump\t// in\n    tag_322:\n        /* \"@openzeppelin/contracts-upgradeable@4.9.3/security/PausableUpgradeable.sol\":2744:2749  false */\n      0x00\n        /* \"@openzeppelin/contracts-upgradeable@4.9.3/security/PausableUpgradeable.sol\":2734:2741  _paused */\n      0x65\n      0x00\n        /* \"@openzeppelin/contracts-upgradeable@4.9.3/security/PausableUpgradeable.sol\":2734:2749  _paused = false */\n      0x0100\n      exp\n      dup2\n      sload\n      dup2\n      0xff\n      mul\n      not\n      and\n      swap1\n      dup4\n      iszero\n      iszero\n      mul\n      or\n      swap1\n      sstore\n      pop\n        /* \"@openzeppelin/contracts-upgradeable@4.9.3/security/PausableUpgradeable.sol\":2764:2786  Unpaused(_msgSender()) */\n      0x5db9ee0a495bf2e6ff9c91a7834c1ba4fdd244a5e8aa4e537bd38aeae4b073aa\n        /* \"@openzeppelin/contracts-upgradeable@4.9.3/security/PausableUpgradeable.sol\":2773:2785  _msgSender() */\n      tag_325\n        /* \"@openzeppelin/contracts-upgradeable@4.9.3/security/PausableUpgradeable.sol\":2773:2783  _msgSender */\n      tag_137\n        /* \"@openzeppelin/contracts-upgradeable@4.9.3/security/PausableUpgradeable.sol\":2773:2785  _msgSender() */\n      jump\t// in\n    tag_325:\n        /* \"@openzeppelin/contracts-upgradeable@4.9.3/security/PausableUpgradeable.sol\":2764:2786  Unpaused(_msgSender()) */\n      mload(0x40)\n      tag_326\n      swap2\n      swap1\n      tag_103\n      jump\t// in\n    tag_326:\n      mload(0x40)\n      dup1\n      swap2\n      sub\n      swap1\n      log1\n        /* \"@openzeppelin/contracts-upgradeable@4.9.3/security/PausableUpgradeable.sol\":2676:2793  function _unpause() internal virtual whenPaused {... */\n      jump\t// out\n        /* \"@openzeppelin/contracts-upgradeable@4.9.3/token/ERC20/ERC20Upgradeable.sol\":8857:9392  function _mint(address account, uint256 amount) internal virtual {... */\n    tag_182:\n        /* \"@openzeppelin/contracts-upgradeable@4.9.3/token/ERC20/ERC20Upgradeable.sol\":8959:8960  0 */\n      0x00\n        /* \"@openzeppelin/contracts-upgradeable@4.9.3/token/ERC20/ERC20Upgradeable.sol\":8940:8961  account != address(0) */\n      0xffffffffffffffffffffffffffffffffffffffff\n      and\n        /* \"@openzeppelin/contracts-upgradeable@4.9.3/token/ERC20/ERC20Upgradeable.sol\":8940:8947  account */\n      dup3\n        /* \"@openzeppelin/contracts-upgradeable@4.9.3/token/ERC20/ERC20Upgradeable.sol\":8940:8961  account != address(0) */\n      0xffffffffffffffffffffffffffffffffffffffff\n      and\n      sub\n        /* \"@openzeppelin/contracts-upgradeable@4.9.3/token/ERC20/ERC20Upgradeable.sol\":8932:8997  require(account != address(0), \"ERC20: mint to the zero address\") */\n      tag_328\n      jumpi\n      mload(0x40)\n      0x08c379a000000000000000000000000000000000000000000000000000000000\n      dup2\n      mstore\n      0x04\n      add\n      tag_329\n      swap1\n      tag_330\n      jump\t// in\n    tag_329:\n      mload(0x40)\n      dup1\n      swap2\n      sub\n      swap1\n      revert\n    tag_328:\n        /* \"@openzeppelin/contracts-upgradeable@4.9.3/token/ERC20/ERC20Upgradeable.sol\":9008:9057  _beforeTokenTransfer(address(0), account, amount) */\n      tag_331\n        /* \"@openzeppelin/contracts-upgradeable@4.9.3/token/ERC20/ERC20Upgradeable.sol\":9037:9038  0 */\n      0x00\n        /* \"@openzeppelin/contracts-upgradeable@4.9.3/token/ERC20/ERC20Upgradeable.sol\":9041:9048  account */\n      dup4\n        /* \"@openzeppelin/contracts-upgradeable@4.9.3/token/ERC20/ERC20Upgradeable.sol\":9050:9056  amount */\n      dup4\n        /* \"@openzeppelin/contracts-upgradeable@4.9.3/token/ERC20/ERC20Upgradeable.sol\":9008:9028  _beforeTokenTransfer */\n      tag_280\n        /* \"@openzeppelin/contracts-upgradeable@4.9.3/token/ERC20/ERC20Upgradeable.sol\":9008:9057  _beforeTokenTransfer(address(0), account, amount) */\n      jump\t// in\n    tag_331:\n        /* \"@openzeppelin/contracts-upgradeable@4.9.3/token/ERC20/ERC20Upgradeable.sol\":9084:9090  amount */\n      dup1\n        /* \"@openzeppelin/contracts-upgradeable@4.9.3/token/ERC20/ERC20Upgradeable.sol\":9068:9080  _totalSupply */\n      0x35\n      0x00\n        /* \"@openzeppelin/contracts-upgradeable@4.9.3/token/ERC20/ERC20Upgradeable.sol\":9068:9090  _totalSupply += amount */\n      dup3\n      dup3\n      sload\n      tag_332\n      swap2\n      swap1\n      tag_171\n      jump\t// in\n    tag_332:\n      swap3\n      pop\n      pop\n      dup2\n      swap1\n      sstore\n      pop\n        /* \"@openzeppelin/contracts-upgradeable@4.9.3/token/ERC20/ERC20Upgradeable.sol\":9258:9264  amount */\n      dup1\n        /* \"@openzeppelin/contracts-upgradeable@4.9.3/token/ERC20/ERC20Upgradeable.sol\":9236:9245  _balances */\n      0x33\n        /* \"@openzeppelin/contracts-upgradeable@4.9.3/token/ERC20/ERC20Upgradeable.sol\":9236:9254  _balances[account] */\n      0x00\n        /* \"@openzeppelin/contracts-upgradeable@4.9.3/token/ERC20/ERC20Upgradeable.sol\":9246:9253  account */\n      dup5\n        /* \"@openzeppelin/contracts-upgradeable@4.9.3/token/ERC20/ERC20Upgradeable.sol\":9236:9254  _balances[account] */\n      0xffffffffffffffffffffffffffffffffffffffff\n      and\n      0xffffffffffffffffffffffffffffffffffffffff\n      and\n      dup2\n      mstore\n      0x20\n      add\n      swap1\n      dup2\n      mstore\n      0x20\n      add\n      0x00\n      keccak256\n      0x00\n        /* \"@openzeppelin/contracts-upgradeable@4.9.3/token/ERC20/ERC20Upgradeable.sol\":9236:9264  _balances[account] += amount */\n      dup3\n      dup3\n      sload\n      add\n      swap3\n      pop\n      pop\n      dup2\n      swap1\n      sstore\n      pop\n        /* \"@openzeppelin/contracts-upgradeable@4.9.3/token/ERC20/ERC20Upgradeable.sol\":9310:9317  account */\n      dup2\n        /* \"@openzeppelin/contracts-upgradeable@4.9.3/token/ERC20/ERC20Upgradeable.sol\":9289:9326  Transfer(address(0), account, amount) */\n      0xffffffffffffffffffffffffffffffffffffffff\n      and\n        /* \"@openzeppelin/contracts-upgradeable@4.9.3/token/ERC20/ERC20Upgradeable.sol\":9306:9307  0 */\n      0x00\n        /* \"@openzeppelin/contracts-upgradeable@4.9.3/token/ERC20/ERC20Upgradeable.sol\":9289:9326  Transfer(address(0), account, amount) */\n      0xffffffffffffffffffffffffffffffffffffffff\n      and\n      0xddf252ad1be2c89b69c2b068fc378daa952ba7f163c4a11628f55a4df523b3ef\n        /* \"@openzeppelin/contracts-upgradeable@4.9.3/token/ERC20/ERC20Upgradeable.sol\":9319:9325  amount */\n      dup4\n        /* \"@openzeppelin/contracts-upgradeable@4.9.3/token/ERC20/ERC20Upgradeable.sol\":9289:9326  Transfer(address(0), account, amount) */\n      mload(0x40)\n      tag_333\n      swap2\n      swap1\n      tag_43\n      jump\t// in\n    tag_333:\n      mload(0x40)\n      dup1\n      swap2\n      sub\n      swap1\n      log3\n        /* \"@openzeppelin/contracts-upgradeable@4.9.3/token/ERC20/ERC20Upgradeable.sol\":9337:9385  _afterTokenTransfer(address(0), account, amount) */\n      tag_334\n        /* \"@openzeppelin/contracts-upgradeable@4.9.3/token/ERC20/ERC20Upgradeable.sol\":9365:9366  0 */\n      0x00\n        /* \"@openzeppelin/contracts-upgradeable@4.9.3/token/ERC20/ERC20Upgradeable.sol\":9369:9376  account */\n      dup4\n        /* \"@openzeppelin/contracts-upgradeable@4.9.3/token/ERC20/ERC20Upgradeable.sol\":9378:9384  amount */\n      dup4\n        /* \"@openzeppelin/contracts-upgradeable@4.9.3/token/ERC20/ERC20Upgradeable.sol\":9337:9356  _afterTokenTransfer */\n      tag_286\n        /* \"@openzeppelin/contracts-upgradeable@4.9.3/token/ERC20/ERC20Upgradeable.sol\":9337:9385  _afterTokenTransfer(address(0), account, amount) */\n      jump\t// in\n    tag_334:\n        /* \"@openzeppelin/contracts-upgradeable@4.9.3/token/ERC20/ERC20Upgradeable.sol\":8857:9392  function _mint(address account, uint256 amount) internal virtual {... */\n      pop\n      pop\n      jump\t// out\n        /* \"@openzeppelin/contracts-upgradeable@4.9.3/access/OwnableUpgradeable.sol\":2666:2853  function _transferOwnership(address newOwner) internal virtual {... */\n    tag_203:\n        /* \"@openzeppelin/contracts-upgradeable@4.9.3/access/OwnableUpgradeable.sol\":2739:2755  address oldOwner */\n      0x00\n        /* \"@openzeppelin/contracts-upgradeable@4.9.3/access/OwnableUpgradeable.sol\":2758:2764  _owner */\n      0x97\n      0x00\n      swap1\n      sload\n      swap1\n      0x0100\n      exp\n      swap1\n      div\n      0xffffffffffffffffffffffffffffffffffffffff\n      and\n        /* \"@openzeppelin/contracts-upgradeable@4.9.3/access/OwnableUpgradeable.sol\":2739:2764  address oldOwner = _owner */\n      swap1\n      pop\n        /* \"@openzeppelin/contracts-upgradeable@4.9.3/access/OwnableUpgradeable.sol\":2783:2791  newOwner */\n      dup2\n        /* \"@openzeppelin/contracts-upgradeable@4.9.3/access/OwnableUpgradeable.sol\":2774:2780  _owner */\n      0x97\n      0x00\n        /* \"@openzeppelin/contracts-upgradeable@4.9.3/access/OwnableUpgradeable.sol\":2774:2791  _owner = newOwner */\n      0x0100\n      exp\n      dup2\n      sload\n      dup2\n      0xffffffffffffffffffffffffffffffffffffffff\n      mul\n      not\n      and\n      swap1\n      dup4\n      0xffffffffffffffffffffffffffffffffffffffff\n      and\n      mul\n      or\n      swap1\n      sstore\n      pop\n        /* \"@openzeppelin/contracts-upgradeable@4.9.3/access/OwnableUpgradeable.sol\":2837:2845  newOwner */\n      dup2\n        /* \"@openzeppelin/contracts-upgradeable@4.9.3/access/OwnableUpgradeable.sol\":2806:2846  OwnershipTransferred(oldOwner, newOwner) */\n      0xffffffffffffffffffffffffffffffffffffffff\n      and\n        /* \"@openzeppelin/contracts-upgradeable@4.9.3/access/OwnableUpgradeable.sol\":2827:2835  oldOwner */\n      dup2\n        /* \"@openzeppelin/contracts-upgradeable@4.9.3/access/OwnableUpgradeable.sol\":2806:2846  OwnershipTransferred(oldOwner, newOwner) */\n      0xffffffffffffffffffffffffffffffffffffffff\n      and\n      0x8be0079c531659141344cd1fd0a4f28419497f9722a3daafe3b4186f6b6457e0\n      mload(0x40)\n      mload(0x40)\n      dup1\n      swap2\n      sub\n      swap1\n      log3\n        /* \"@openzeppelin/contracts-upgradeable@4.9.3/access/OwnableUpgradeable.sol\":2729:2853  {... */\n      pop\n        /* \"@openzeppelin/contracts-upgradeable@4.9.3/access/OwnableUpgradeable.sol\":2666:2853  function _transferOwnership(address newOwner) internal virtual {... */\n      pop\n      jump\t// out\n        /* \"@openzeppelin/contracts-upgradeable@4.9.3/utils/AddressUpgradeable.sol\":1423:1743  function isContract(address account) internal view returns (bool) {... */\n    tag_208:\n        /* \"@openzeppelin/contracts-upgradeable@4.9.3/utils/AddressUpgradeable.sol\":1483:1487  bool */\n      0x00\n        /* \"@openzeppelin/contracts-upgradeable@4.9.3/utils/AddressUpgradeable.sol\":1735:1736  0 */\n      dup1\n        /* \"@openzeppelin/contracts-upgradeable@4.9.3/utils/AddressUpgradeable.sol\":1713:1720  account */\n      dup3\n        /* \"@openzeppelin/contracts-upgradeable@4.9.3/utils/AddressUpgradeable.sol\":1713:1732  account.code.length */\n      0xffffffffffffffffffffffffffffffffffffffff\n      and\n      extcodesize\n        /* \"@openzeppelin/contracts-upgradeable@4.9.3/utils/AddressUpgradeable.sol\":1713:1736  account.code.length > 0 */\n      gt\n        /* \"@openzeppelin/contracts-upgradeable@4.9.3/utils/AddressUpgradeable.sol\":1706:1736  return account.code.length > 0 */\n      swap1\n      pop\n        /* \"@openzeppelin/contracts-upgradeable@4.9.3/utils/AddressUpgradeable.sol\":1423:1743  function isContract(address account) internal view returns (bool) {... */\n      swap2\n      swap1\n      pop\n      jump\t// out\n        /* \"@openzeppelin/contracts-upgradeable@4.9.3/token/ERC20/ERC20Upgradeable.sol\":2118:2265  function __ERC20_init(string memory name_, string memory symbol_) internal onlyInitializing {... */\n    tag_216:\n        /* \"@openzeppelin/contracts-upgradeable@4.9.3/proxy/utils/Initializable.sol\":5374:5387  _initializing */\n      0x00\n      0x01\n      swap1\n      sload\n      swap1\n      0x0100\n      exp\n      swap1\n      div\n      0xff\n      and\n        /* \"@openzeppelin/contracts-upgradeable@4.9.3/proxy/utils/Initializable.sol\":5366:5435  require(_initializing, \"Initializable: contract is not initializing\") */\n      tag_338\n      jumpi\n      mload(0x40)\n      0x08c379a000000000000000000000000000000000000000000000000000000000\n      dup2\n      mstore\n      0x04\n      add\n      tag_339\n      swap1\n      tag_340\n      jump\t// in\n    tag_339:\n      mload(0x40)\n      dup1\n      swap2\n      sub\n      swap1\n      revert\n    tag_338:\n        /* \"@openzeppelin/contracts-upgradeable@4.9.3/token/ERC20/ERC20Upgradeable.sol\":2220:2258  __ERC20_init_unchained(name_, symbol_) */\n      tag_342\n        /* \"@openzeppelin/contracts-upgradeable@4.9.3/token/ERC20/ERC20Upgradeable.sol\":2243:2248  name_ */\n      dup3\n        /* \"@openzeppelin/contracts-upgradeable@4.9.3/token/ERC20/ERC20Upgradeable.sol\":2250:2257  symbol_ */\n      dup3\n        /* \"@openzeppelin/contracts-upgradeable@4.9.3/token/ERC20/ERC20Upgradeable.sol\":2220:2242  __ERC20_init_unchained */\n      tag_343\n        /* \"@openzeppelin/contracts-upgradeable@4.9.3/token/ERC20/ERC20Upgradeable.sol\":2220:2258  __ERC20_init_unchained(name_, symbol_) */\n      jump\t// in\n    tag_342:\n        /* \"@openzeppelin/contracts-upgradeable@4.9.3/token/ERC20/ERC20Upgradeable.sol\":2118:2265  function __ERC20_init(string memory name_, string memory symbol_) internal onlyInitializing {... */\n      pop\n      pop\n      jump\t// out\n        /* \"@openzeppelin/contracts-upgradeable@4.9.3/security/PausableUpgradeable.sol\":1063:1160  function __Pausable_init() internal onlyInitializing {... */\n    tag_218:\n        /* \"@openzeppelin/contracts-upgradeable@4.9.3/proxy/utils/Initializable.sol\":5374:5387  _initializing */\n      0x00\n      0x01\n      swap1\n      sload\n      swap1\n      0x0100\n      exp\n      swap1\n      div\n      0xff\n      and\n        /* \"@openzeppelin/contracts-upgradeable@4.9.3/proxy/utils/Initializable.sol\":5366:5435  require(_initializing, \"Initializable: contract is not initializing\") */\n      tag_345\n      jumpi\n      mload(0x40)\n      0x08c379a000000000000000000000000000000000000000000000000000000000\n      dup2\n      mstore\n      0x04\n      add\n      tag_346\n      swap1\n      tag_340\n      jump\t// in\n    tag_346:\n      mload(0x40)\n      dup1\n      swap2\n      sub\n      swap1\n      revert\n    tag_345:\n        /* \"@openzeppelin/contracts-upgradeable@4.9.3/security/PausableUpgradeable.sol\":1126:1153  __Pausable_init_unchained() */\n      tag_348\n        /* \"@openzeppelin/contracts-upgradeable@4.9.3/security/PausableUpgradeable.sol\":1126:1151  __Pausable_init_unchained */\n      tag_349\n        /* \"@openzeppelin/contracts-upgradeable@4.9.3/security/PausableUpgradeable.sol\":1126:1153  __Pausable_init_unchained() */\n      jump\t// in\n    tag_348:\n        /* \"@openzeppelin/contracts-upgradeable@4.9.3/security/PausableUpgradeable.sol\":1063:1160  function __Pausable_init() internal onlyInitializing {... */\n      jump\t// out\n        /* \"@openzeppelin/contracts-upgradeable@4.9.3/access/OwnableUpgradeable.sol\":1003:1098  function __Ownable_init() internal onlyInitializing {... */\n    tag_220:\n        /* \"@openzeppelin/contracts-upgradeable@4.9.3/proxy/utils/Initializable.sol\":5374:5387  _initializing */\n      0x00\n      0x01\n      swap1\n      sload\n      swap1\n      0x0100\n      exp\n      swap1\n      div\n      0xff\n      and\n        /* \"@openzeppelin/contracts-upgradeable@4.9.3/proxy/utils/Initializable.sol\":5366:5435  require(_initializing, \"Initializable: contract is not initializing\") */\n      tag_351\n      jumpi\n      mload(0x40)\n      0x08c379a000000000000000000000000000000000000000000000000000000000\n      dup2\n      mstore\n      0x04\n      add\n      tag_352\n      swap1\n      tag_340\n      jump\t// in\n    tag_352:\n      mload(0x40)\n      dup1\n      swap2\n      sub\n      swap1\n      revert\n    tag_351:\n        /* \"@openzeppelin/contracts-upgradeable@4.9.3/access/OwnableUpgradeable.sol\":1065:1091  __Ownable_init_unchained() */\n      tag_354\n        /* \"@openzeppelin/contracts-upgradeable@4.9.3/access/OwnableUpgradeable.sol\":1065:1089  __Ownable_init_unchained */\n      tag_355\n        /* \"@openzeppelin/contracts-upgradeable@4.9.3/access/OwnableUpgradeable.sol\":1065:1091  __Ownable_init_unchained() */\n      jump\t// in\n    tag_354:\n        /* \"@openzeppelin/contracts-upgradeable@4.9.3/access/OwnableUpgradeable.sol\":1003:1098  function __Ownable_init() internal onlyInitializing {... */\n      jump\t// out\n        /* \"@openzeppelin/contracts-upgradeable@4.9.3/proxy/utils/UUPSUpgradeable.sol\":1042:1109  function __UUPSUpgradeable_init() internal onlyInitializing {... */\n    tag_222:\n        /* \"@openzeppelin/contracts-upgradeable@4.9.3/proxy/utils/Initializable.sol\":5374:5387  _initializing */\n      0x00\n      0x01\n      swap1\n      sload\n      swap1\n      0x0100\n      exp\n      swap1\n      div\n      0xff\n      and\n        /* \"@openzeppelin/contracts-upgradeable@4.9.3/proxy/utils/Initializable.sol\":5366:5435  require(_initializing, \"Initializable: contract is not initializing\") */\n      tag_357\n      jumpi\n      mload(0x40)\n      0x08c379a000000000000000000000000000000000000000000000000000000000\n      dup2\n      mstore\n      0x04\n      add\n      tag_358\n      swap1\n      tag_340\n      jump\t// in\n    tag_358:\n      mload(0x40)\n      dup1\n      swap2\n      sub\n      swap1\n      revert\n    tag_357:\n        /* \"@openzeppelin/contracts-upgradeable@4.9.3/proxy/utils/UUPSUpgradeable.sol\":1042:1109  function __UUPSUpgradeable_init() internal onlyInitializing {... */\n      jump\t// out\n        /* \"@openzeppelin/contracts-upgradeable@4.9.3/security/PausableUpgradeable.sol\":2429:2544  function _pause() internal virtual whenNotPaused {... */\n    tag_230:\n        /* \"@openzeppelin/contracts-upgradeable@4.9.3/security/PausableUpgradeable.sol\":1482:1501  _requireNotPaused() */\n      tag_361\n        /* \"@openzeppelin/contracts-upgradeable@4.9.3/security/PausableUpgradeable.sol\":1482:1499  _requireNotPaused */\n      tag_362\n        /* \"@openzeppelin/contracts-upgradeable@4.9.3/security/PausableUpgradeable.sol\":1482:1501  _requireNotPaused() */\n      jump\t// in\n    tag_361:\n        /* \"@openzeppelin/contracts-upgradeable@4.9.3/security/PausableUpgradeable.sol\":2498:2502  true */\n      0x01\n        /* \"@openzeppelin/contracts-upgradeable@4.9.3/security/PausableUpgradeable.sol\":2488:2495  _paused */\n      0x65\n      0x00\n        /* \"@openzeppelin/contracts-upgradeable@4.9.3/security/PausableUpgradeable.sol\":2488:2502  _paused = true */\n      0x0100\n      exp\n      dup2\n      sload\n      dup2\n      0xff\n      mul\n      not\n      and\n      swap1\n      dup4\n      iszero\n      iszero\n      mul\n      or\n      swap1\n      sstore\n      pop\n        /* \"@openzeppelin/contracts-upgradeable@4.9.3/security/PausableUpgradeable.sol\":2517:2537  Paused(_msgSender()) */\n      0x62e78cea01bee320cd4e420270b5ea74000d11b0c9f74754ebdbfc544b05a258\n        /* \"@openzeppelin/contracts-upgradeable@4.9.3/security/PausableUpgradeable.sol\":2524:2536  _msgSender() */\n      tag_364\n        /* \"@openzeppelin/contracts-upgradeable@4.9.3/security/PausableUpgradeable.sol\":2524:2534  _msgSender */\n      tag_137\n        /* \"@openzeppelin/contracts-upgradeable@4.9.3/security/PausableUpgradeable.sol\":2524:2536  _msgSender() */\n      jump\t// in\n    tag_364:\n        /* \"@openzeppelin/contracts-upgradeable@4.9.3/security/PausableUpgradeable.sol\":2517:2537  Paused(_msgSender()) */\n      mload(0x40)\n      tag_365\n      swap2\n      swap1\n      tag_103\n      jump\t// in\n    tag_365:\n      mload(0x40)\n      dup1\n      swap2\n      sub\n      swap1\n      log1\n        /* \"@openzeppelin/contracts-upgradeable@4.9.3/security/PausableUpgradeable.sol\":2429:2544  function _pause() internal virtual whenNotPaused {... */\n      jump\t// out\n        /* \"contract-bed87a3bb7.sol\":1161:1354  function _beforeTokenTransfer(address from, address to, uint256 amount)... */\n    tag_280:\n        /* \"@openzeppelin/contracts-upgradeable@4.9.3/security/PausableUpgradeable.sol\":1482:1501  _requireNotPaused() */\n      tag_367\n        /* \"@openzeppelin/contracts-upgradeable@4.9.3/security/PausableUpgradeable.sol\":1482:1499  _requireNotPaused */\n      tag_362\n        /* \"@openzeppelin/contracts-upgradeable@4.9.3/security/PausableUpgradeable.sol\":1482:1501  _requireNotPaused() */\n      jump\t// in\n    tag_367:\n        /* \"contract-bed87a3bb7.sol\":1303:1347  super._beforeTokenTransfer(from, to, amount) */\n      tag_369\n        /* \"contract-bed87a3bb7.sol\":1330:1334  from */\n      dup4\n        /* \"contract-bed87a3bb7.sol\":1336:1338  to */\n      dup4\n        /* \"contract-bed87a3bb7.sol\":1340:1346  amount */\n      dup4\n        /* \"contract-bed87a3bb7.sol\":1303:1329  super._beforeTokenTransfer */\n      tag_370\n        /* \"contract-bed87a3bb7.sol\":1303:1347  super._beforeTokenTransfer(from, to, amount) */\n      jump\t// in\n    tag_369:\n        /* \"contract-bed87a3bb7.sol\":1161:1354  function _beforeTokenTransfer(address from, address to, uint256 amount)... */\n      pop\n      pop\n      pop\n      jump\t// out\n        /* \"@openzeppelin/contracts-upgradeable@4.9.3/token/ERC20/ERC20Upgradeable.sol\":13089:13179  function _afterTokenTransfer(address from, address to, uint256 amount) internal virtual {} */\n    tag_286:\n      pop\n      pop\n      pop\n      jump\t// out\n        /* \"@openzeppelin/contracts-upgradeable@4.9.3/utils/StorageSlotUpgradeable.sol\":1870:2060  function getAddressSlot(bytes32 slot) internal pure returns (AddressSlot storage r) {... */\n    tag_289:\n        /* \"@openzeppelin/contracts-upgradeable@4.9.3/utils/StorageSlotUpgradeable.sol\":1931:1952  AddressSlot storage r */\n      0x00\n        /* \"@openzeppelin/contracts-upgradeable@4.9.3/utils/StorageSlotUpgradeable.sol\":2040:2044  slot */\n      dup2\n        /* \"@openzeppelin/contracts-upgradeable@4.9.3/utils/StorageSlotUpgradeable.sol\":2030:2044  r.slot := slot */\n      swap1\n      pop\n        /* \"@openzeppelin/contracts-upgradeable@4.9.3/utils/StorageSlotUpgradeable.sol\":1870:2060  function getAddressSlot(bytes32 slot) internal pure returns (AddressSlot storage r) {... */\n      swap2\n      swap1\n      pop\n      jump\t// out\n        /* \"@openzeppelin/contracts-upgradeable@4.9.3/utils/StorageSlotUpgradeable.sol\":2158:2348  function getBooleanSlot(bytes32 slot) internal pure returns (BooleanSlot storage r) {... */\n    tag_295:\n        /* \"@openzeppelin/contracts-upgradeable@4.9.3/utils/StorageSlotUpgradeable.sol\":2219:2240  BooleanSlot storage r */\n      0x00\n        /* \"@openzeppelin/contracts-upgradeable@4.9.3/utils/StorageSlotUpgradeable.sol\":2328:2332  slot */\n      dup2\n        /* \"@openzeppelin/contracts-upgradeable@4.9.3/utils/StorageSlotUpgradeable.sol\":2318:2332  r.slot := slot */\n      swap1\n      pop\n        /* \"@openzeppelin/contracts-upgradeable@4.9.3/utils/StorageSlotUpgradeable.sol\":2158:2348  function getBooleanSlot(bytes32 slot) internal pure returns (BooleanSlot storage r) {... */\n      swap2\n      swap1\n      pop\n      jump\t// out\n        /* \"@openzeppelin/contracts-upgradeable@4.9.3/proxy/ERC1967/ERC1967UpgradeUpgradeable.sol\":1699:1980  function _setImplementation(address newImplementation) private {... */\n    tag_298:\n        /* \"@openzeppelin/contracts-upgradeable@4.9.3/proxy/ERC1967/ERC1967UpgradeUpgradeable.sol\":1780:1828  AddressUpgradeable.isContract(newImplementation) */\n      tag_375\n        /* \"@openzeppelin/contracts-upgradeable@4.9.3/proxy/ERC1967/ERC1967UpgradeUpgradeable.sol\":1810:1827  newImplementation */\n      dup2\n        /* \"@openzeppelin/contracts-upgradeable@4.9.3/proxy/ERC1967/ERC1967UpgradeUpgradeable.sol\":1780:1809  AddressUpgradeable.isContract */\n      tag_208\n        /* \"@openzeppelin/contracts-upgradeable@4.9.3/proxy/ERC1967/ERC1967UpgradeUpgradeable.sol\":1780:1828  AddressUpgradeable.isContract(newImplementation) */\n      jump\t// in\n    tag_375:\n        /* \"@openzeppelin/contracts-upgradeable@4.9.3/proxy/ERC1967/ERC1967UpgradeUpgradeable.sol\":1772:1878  require(AddressUpgradeable.isContract(newImplementation), \"ERC1967: new implementation is not a contract\") */\n      tag_376\n      jumpi\n      mload(0x40)\n      0x08c379a000000000000000000000000000000000000000000000000000000000\n      dup2\n      mstore\n      0x04\n      add\n      tag_377\n      swap1\n      tag_378\n      jump\t// in\n    tag_377:\n      mload(0x40)\n      dup1\n      swap2\n      sub\n      swap1\n      revert\n    tag_376:\n        /* \"@openzeppelin/contracts-upgradeable@4.9.3/proxy/ERC1967/ERC1967UpgradeUpgradeable.sol\":1956:1973  newImplementation */\n      dup1\n        /* \"@openzeppelin/contracts-upgradeable@4.9.3/proxy/ERC1967/ERC1967UpgradeUpgradeable.sol\":1888:1947  StorageSlotUpgradeable.getAddressSlot(_IMPLEMENTATION_SLOT) */\n      tag_379\n        /* \"@openzeppelin/contracts-upgradeable@4.9.3/proxy/ERC1967/ERC1967UpgradeUpgradeable.sol\":1312:1378  0x360894a13ba1a3210667c828492db98dca3e2076cc3735a920a3ca505d382bbc */\n      0x360894a13ba1a3210667c828492db98dca3e2076cc3735a920a3ca505d382bbc\n        /* \"@openzeppelin/contracts-upgradeable@4.9.3/proxy/ERC1967/ERC1967UpgradeUpgradeable.sol\":1926:1946  _IMPLEMENTATION_SLOT */\n      0x00\n      shl\n        /* \"@openzeppelin/contracts-upgradeable@4.9.3/proxy/ERC1967/ERC1967UpgradeUpgradeable.sol\":1888:1925  StorageSlotUpgradeable.getAddressSlot */\n      tag_289\n        /* \"@openzeppelin/contracts-upgradeable@4.9.3/proxy/ERC1967/ERC1967UpgradeUpgradeable.sol\":1888:1947  StorageSlotUpgradeable.getAddressSlot(_IMPLEMENTATION_SLOT) */\n      jump\t// in\n    tag_379:\n        /* \"@openzeppelin/contracts-upgradeable@4.9.3/proxy/ERC1967/ERC1967UpgradeUpgradeable.sol\":1888:1953  StorageSlotUpgradeable.getAddressSlot(_IMPLEMENTATION_SLOT).value */\n      0x00\n      add\n      0x00\n        /* \"@openzeppelin/contracts-upgradeable@4.9.3/proxy/ERC1967/ERC1967UpgradeUpgradeable.sol\":1888:1973  StorageSlotUpgradeable.getAddressSlot(_IMPLEMENTATION_SLOT).value = newImplementation */\n      0x0100\n      exp\n      dup2\n      sload\n      dup2\n      0xffffffffffffffffffffffffffffffffffffffff\n      mul\n      not\n      and\n      swap1\n      dup4\n      0xffffffffffffffffffffffffffffffffffffffff\n      and\n      mul\n      or\n      swap1\n      sstore\n      pop\n        /* \"@openzeppelin/contracts-upgradeable@4.9.3/proxy/ERC1967/ERC1967UpgradeUpgradeable.sol\":1699:1980  function _setImplementation(address newImplementation) private {... */\n      pop\n      jump\t// out\n        /* \"@openzeppelin/contracts-upgradeable@4.9.3/proxy/ERC1967/ERC1967UpgradeUpgradeable.sol\":2372:2648  function _upgradeToAndCall(address newImplementation, bytes memory data, bool forceCall) internal {... */\n    tag_314:\n        /* \"@openzeppelin/contracts-upgradeable@4.9.3/proxy/ERC1967/ERC1967UpgradeUpgradeable.sol\":2480:2509  _upgradeTo(newImplementation) */\n      tag_381\n        /* \"@openzeppelin/contracts-upgradeable@4.9.3/proxy/ERC1967/ERC1967UpgradeUpgradeable.sol\":2491:2508  newImplementation */\n      dup4\n        /* \"@openzeppelin/contracts-upgradeable@4.9.3/proxy/ERC1967/ERC1967UpgradeUpgradeable.sol\":2480:2490  _upgradeTo */\n      tag_382\n        /* \"@openzeppelin/contracts-upgradeable@4.9.3/proxy/ERC1967/ERC1967UpgradeUpgradeable.sol\":2480:2509  _upgradeTo(newImplementation) */\n      jump\t// in\n    tag_381:\n        /* \"@openzeppelin/contracts-upgradeable@4.9.3/proxy/ERC1967/ERC1967UpgradeUpgradeable.sol\":2537:2538  0 */\n      0x00\n        /* \"@openzeppelin/contracts-upgradeable@4.9.3/proxy/ERC1967/ERC1967UpgradeUpgradeable.sol\":2523:2527  data */\n      dup3\n        /* \"@openzeppelin/contracts-upgradeable@4.9.3/proxy/ERC1967/ERC1967UpgradeUpgradeable.sol\":2523:2534  data.length */\n      mload\n        /* \"@openzeppelin/contracts-upgradeable@4.9.3/proxy/ERC1967/ERC1967UpgradeUpgradeable.sol\":2523:2538  data.length > 0 */\n      gt\n        /* \"@openzeppelin/contracts-upgradeable@4.9.3/proxy/ERC1967/ERC1967UpgradeUpgradeable.sol\":2523:2551  data.length > 0 || forceCall */\n      dup1\n      tag_383\n      jumpi\n      pop\n        /* \"@openzeppelin/contracts-upgradeable@4.9.3/proxy/ERC1967/ERC1967UpgradeUpgradeable.sol\":2542:2551  forceCall */\n      dup1\n        /* \"@openzeppelin/contracts-upgradeable@4.9.3/proxy/ERC1967/ERC1967UpgradeUpgradeable.sol\":2523:2551  data.length > 0 || forceCall */\n    tag_383:\n        /* \"@openzeppelin/contracts-upgradeable@4.9.3/proxy/ERC1967/ERC1967UpgradeUpgradeable.sol\":2519:2642  if (data.length > 0 || forceCall) {... */\n      iszero\n      tag_384\n      jumpi\n        /* \"@openzeppelin/contracts-upgradeable@4.9.3/proxy/ERC1967/ERC1967UpgradeUpgradeable.sol\":2567:2631  AddressUpgradeable.functionDelegateCall(newImplementation, data) */\n      tag_385\n        /* \"@openzeppelin/contracts-upgradeable@4.9.3/proxy/ERC1967/ERC1967UpgradeUpgradeable.sol\":2607:2624  newImplementation */\n      dup4\n        /* \"@openzeppelin/contracts-upgradeable@4.9.3/proxy/ERC1967/ERC1967UpgradeUpgradeable.sol\":2626:2630  data */\n      dup4\n        /* \"@openzeppelin/contracts-upgradeable@4.9.3/proxy/ERC1967/ERC1967UpgradeUpgradeable.sol\":2567:2606  AddressUpgradeable.functionDelegateCall */\n      tag_386\n        /* \"@openzeppelin/contracts-upgradeable@4.9.3/proxy/ERC1967/ERC1967UpgradeUpgradeable.sol\":2567:2631  AddressUpgradeable.functionDelegateCall(newImplementation, data) */\n      jump\t// in\n    tag_385:\n      pop\n        /* \"@openzeppelin/contracts-upgradeable@4.9.3/proxy/ERC1967/ERC1967UpgradeUpgradeable.sol\":2519:2642  if (data.length > 0 || forceCall) {... */\n    tag_384:\n        /* \"@openzeppelin/contracts-upgradeable@4.9.3/proxy/ERC1967/ERC1967UpgradeUpgradeable.sol\":2372:2648  function _upgradeToAndCall(address newImplementation, bytes memory data, bool forceCall) internal {... */\n      pop\n      pop\n      pop\n      jump\t// out\n        /* \"@openzeppelin/contracts-upgradeable@4.9.3/security/PausableUpgradeable.sol\":2188:2294  function _requirePaused() internal view virtual {... */\n    tag_323:\n        /* \"@openzeppelin/contracts-upgradeable@4.9.3/security/PausableUpgradeable.sol\":2254:2262  paused() */\n      tag_388\n        /* \"@openzeppelin/contracts-upgradeable@4.9.3/security/PausableUpgradeable.sol\":2254:2260  paused */\n      tag_83\n        /* \"@openzeppelin/contracts-upgradeable@4.9.3/security/PausableUpgradeable.sol\":2254:2262  paused() */\n      jump\t// in\n    tag_388:\n        /* \"@openzeppelin/contracts-upgradeable@4.9.3/security/PausableUpgradeable.sol\":2246:2287  require(paused(), \"Pausable: not paused\") */\n      tag_389\n      jumpi\n      mload(0x40)\n      0x08c379a000000000000000000000000000000000000000000000000000000000\n      dup2\n      mstore\n      0x04\n      add\n      tag_390\n      swap1\n      tag_391\n      jump\t// in\n    tag_390:\n      mload(0x40)\n      dup1\n      swap2\n      sub\n      swap1\n      revert\n    tag_389:\n        /* \"@openzeppelin/contracts-upgradeable@4.9.3/security/PausableUpgradeable.sol\":2188:2294  function _requirePaused() internal view virtual {... */\n      jump\t// out\n        /* \"@openzeppelin/contracts-upgradeable@4.9.3/token/ERC20/ERC20Upgradeable.sol\":2271:2430  function __ERC20_init_unchained(string memory name_, string memory symbol_) internal onlyInitializing {... */\n    tag_343:\n        /* \"@openzeppelin/contracts-upgradeable@4.9.3/proxy/utils/Initializable.sol\":5374:5387  _initializing */\n      0x00\n      0x01\n      swap1\n      sload\n      swap1\n      0x0100\n      exp\n      swap1\n      div\n      0xff\n      and\n        /* \"@openzeppelin/contracts-upgradeable@4.9.3/proxy/utils/Initializable.sol\":5366:5435  require(_initializing, \"Initializable: contract is not initializing\") */\n      tag_393\n      jumpi\n      mload(0x40)\n      0x08c379a000000000000000000000000000000000000000000000000000000000\n      dup2\n      mstore\n      0x04\n      add\n      tag_394\n      swap1\n      tag_340\n      jump\t// in\n    tag_394:\n      mload(0x40)\n      dup1\n      swap2\n      sub\n      swap1\n      revert\n    tag_393:\n        /* \"@openzeppelin/contracts-upgradeable@4.9.3/token/ERC20/ERC20Upgradeable.sol\":2391:2396  name_ */\n      dup2\n        /* \"@openzeppelin/contracts-upgradeable@4.9.3/token/ERC20/ERC20Upgradeable.sol\":2383:2388  _name */\n      0x36\n        /* \"@openzeppelin/contracts-upgradeable@4.9.3/token/ERC20/ERC20Upgradeable.sol\":2383:2396  _name = name_ */\n      swap1\n      dup2\n      tag_396\n      swap2\n      swap1\n      tag_397\n      jump\t// in\n    tag_396:\n      pop\n        /* \"@openzeppelin/contracts-upgradeable@4.9.3/token/ERC20/ERC20Upgradeable.sol\":2416:2423  symbol_ */\n      dup1\n        /* \"@openzeppelin/contracts-upgradeable@4.9.3/token/ERC20/ERC20Upgradeable.sol\":2406:2413  _symbol */\n      0x37\n        /* \"@openzeppelin/contracts-upgradeable@4.9.3/token/ERC20/ERC20Upgradeable.sol\":2406:2423  _symbol = symbol_ */\n      swap1\n      dup2\n      tag_398\n      swap2\n      swap1\n      tag_397\n      jump\t// in\n    tag_398:\n      pop\n        /* \"@openzeppelin/contracts-upgradeable@4.9.3/token/ERC20/ERC20Upgradeable.sol\":2271:2430  function __ERC20_init_unchained(string memory name_, string memory symbol_) internal onlyInitializing {... */\n      pop\n      pop\n      jump\t// out\n        /* \"@openzeppelin/contracts-upgradeable@4.9.3/security/PausableUpgradeable.sol\":1166:1261  function __Pausable_init_unchained() internal onlyInitializing {... */\n    tag_349:\n        /* \"@openzeppelin/contracts-upgradeable@4.9.3/proxy/utils/Initializable.sol\":5374:5387  _initializing */\n      0x00\n      0x01\n      swap1\n      sload\n      swap1\n      0x0100\n      exp\n      swap1\n      div\n      0xff\n      and\n        /* \"@openzeppelin/contracts-upgradeable@4.9.3/proxy/utils/Initializable.sol\":5366:5435  require(_initializing, \"Initializable: contract is not initializing\") */\n      tag_400\n      jumpi\n      mload(0x40)\n      0x08c379a000000000000000000000000000000000000000000000000000000000\n      dup2\n      mstore\n      0x04\n      add\n      tag_401\n      swap1\n      tag_340\n      jump\t// in\n    tag_401:\n      mload(0x40)\n      dup1\n      swap2\n      sub\n      swap1\n      revert\n    tag_400:\n        /* \"@openzeppelin/contracts-upgradeable@4.9.3/security/PausableUpgradeable.sol\":1249:1254  false */\n      0x00\n        /* \"@openzeppelin/contracts-upgradeable@4.9.3/security/PausableUpgradeable.sol\":1239:1246  _paused */\n      0x65\n      0x00\n        /* \"@openzeppelin/contracts-upgradeable@4.9.3/security/PausableUpgradeable.sol\":1239:1254  _paused = false */\n      0x0100\n      exp\n      dup2\n      sload\n      dup2\n      0xff\n      mul\n      not\n      and\n      swap1\n      dup4\n      iszero\n      iszero\n      mul\n      or\n      swap1\n      sstore\n      pop\n        /* \"@openzeppelin/contracts-upgradeable@4.9.3/security/PausableUpgradeable.sol\":1166:1261  function __Pausable_init_unchained() internal onlyInitializing {... */\n      jump\t// out\n        /* \"@openzeppelin/contracts-upgradeable@4.9.3/access/OwnableUpgradeable.sol\":1104:1215  function __Ownable_init_unchained() internal onlyInitializing {... */\n    tag_355:\n        /* \"@openzeppelin/contracts-upgradeable@4.9.3/proxy/utils/Initializable.sol\":5374:5387  _initializing */\n      0x00\n      0x01\n      swap1\n      sload\n      swap1\n      0x0100\n      exp\n      swap1\n      div\n      0xff\n      and\n        /* \"@openzeppelin/contracts-upgradeable@4.9.3/proxy/utils/Initializable.sol\":5366:5435  require(_initializing, \"Initializable: contract is not initializing\") */\n      tag_404\n      jumpi\n      mload(0x40)\n      0x08c379a000000000000000000000000000000000000000000000000000000000\n      dup2\n      mstore\n      0x04\n      add\n      tag_405\n      swap1\n      tag_340\n      jump\t// in\n    tag_405:\n      mload(0x40)\n      dup1\n      swap2\n      sub\n      swap1\n      revert\n    tag_404:\n        /* \"@openzeppelin/contracts-upgradeable@4.9.3/access/OwnableUpgradeable.sol\":1176:1208  _transferOwnership(_msgSender()) */\n      tag_407\n        /* \"@openzeppelin/contracts-upgradeable@4.9.3/access/OwnableUpgradeable.sol\":1195:1207  _msgSender() */\n      tag_408\n        /* \"@openzeppelin/contracts-upgradeable@4.9.3/access/OwnableUpgradeable.sol\":1195:1205  _msgSender */\n      tag_137\n        /* \"@openzeppelin/contracts-upgradeable@4.9.3/access/OwnableUpgradeable.sol\":1195:1207  _msgSender() */\n      jump\t// in\n    tag_408:\n        /* \"@openzeppelin/contracts-upgradeable@4.9.3/access/OwnableUpgradeable.sol\":1176:1194  _transferOwnership */\n      tag_203\n        /* \"@openzeppelin/contracts-upgradeable@4.9.3/access/OwnableUpgradeable.sol\":1176:1208  _transferOwnership(_msgSender()) */\n      jump\t// in\n    tag_407:\n        /* \"@openzeppelin/contracts-upgradeable@4.9.3/access/OwnableUpgradeable.sol\":1104:1215  function __Ownable_init_unchained() internal onlyInitializing {... */\n      jump\t// out\n        /* \"@openzeppelin/contracts-upgradeable@4.9.3/security/PausableUpgradeable.sol\":2010:2116  function _requireNotPaused() internal view virtual {... */\n    tag_362:\n        /* \"@openzeppelin/contracts-upgradeable@4.9.3/security/PausableUpgradeable.sol\":2080:2088  paused() */\n      tag_410\n        /* \"@openzeppelin/contracts-upgradeable@4.9.3/security/PausableUpgradeable.sol\":2080:2086  paused */\n      tag_83\n        /* \"@openzeppelin/contracts-upgradeable@4.9.3/security/PausableUpgradeable.sol\":2080:2088  paused() */\n      jump\t// in\n    tag_410:\n        /* \"@openzeppelin/contracts-upgradeable@4.9.3/security/PausableUpgradeable.sol\":2079:2088  !paused() */\n      iszero\n        /* \"@openzeppelin/contracts-upgradeable@4.9.3/security/PausableUpgradeable.sol\":2071:2109  require(!paused(), \"Pausable: paused\") */\n      tag_411\n      jumpi\n      mload(0x40)\n      0x08c379a000000000000000000000000000000000000000000000000000000000\n      dup2\n      mstore\n      0x04\n      add\n      tag_412\n      swap1\n      tag_413\n      jump\t// in\n    tag_412:\n      mload(0x40)\n      dup1\n      swap2\n      sub\n      swap1\n      revert\n    tag_411:\n        /* \"@openzeppelin/contracts-upgradeable@4.9.3/security/PausableUpgradeable.sol\":2010:2116  function _requireNotPaused() internal view virtual {... */\n      jump\t// out\n        /* \"@openzeppelin/contracts-upgradeable@4.9.3/token/ERC20/ERC20Upgradeable.sol\":12410:12501  function _beforeTokenTransfer(address from, address to, uint256 amount) internal virtual {} */\n    tag_370:\n      pop\n      pop\n      pop\n      jump\t// out\n        /* \"@openzeppelin/contracts-upgradeable@4.9.3/proxy/ERC1967/ERC1967UpgradeUpgradeable.sol\":2086:2238  function _upgradeTo(address newImplementation) internal {... */\n    tag_382:\n        /* \"@openzeppelin/contracts-upgradeable@4.9.3/proxy/ERC1967/ERC1967UpgradeUpgradeable.sol\":2152:2189  _setImplementation(newImplementation) */\n      tag_416\n        /* \"@openzeppelin/contracts-upgradeable@4.9.3/proxy/ERC1967/ERC1967UpgradeUpgradeable.sol\":2171:2188  newImplementation */\n      dup2\n        /* \"@openzeppelin/contracts-upgradeable@4.9.3/proxy/ERC1967/ERC1967UpgradeUpgradeable.sol\":2152:2170  _setImplementation */\n      tag_298\n        /* \"@openzeppelin/contracts-upgradeable@4.9.3/proxy/ERC1967/ERC1967UpgradeUpgradeable.sol\":2152:2189  _setImplementation(newImplementation) */\n      jump\t// in\n    tag_416:\n        /* \"@openzeppelin/contracts-upgradeable@4.9.3/proxy/ERC1967/ERC1967UpgradeUpgradeable.sol\":2213:2230  newImplementation */\n      dup1\n        /* \"@openzeppelin/contracts-upgradeable@4.9.3/proxy/ERC1967/ERC1967UpgradeUpgradeable.sol\":2204:2231  Upgraded(newImplementation) */\n      0xffffffffffffffffffffffffffffffffffffffff\n      and\n      0xbc7cd75a20ee27fd9adebab32041f755214dbc6bffa90cc0225b39da2e5c2d3b\n      mload(0x40)\n      mload(0x40)\n      dup1\n      swap2\n      sub\n      swap1\n      log2\n        /* \"@openzeppelin/contracts-upgradeable@4.9.3/proxy/ERC1967/ERC1967UpgradeUpgradeable.sol\":2086:2238  function _upgradeTo(address newImplementation) internal {... */\n      pop\n      jump\t// out\n        /* \"@openzeppelin/contracts-upgradeable@4.9.3/utils/AddressUpgradeable.sol\":6685:6883  function functionDelegateCall(address target, bytes memory data) internal returns (bytes memory) {... */\n    tag_386:\n        /* \"@openzeppelin/contracts-upgradeable@4.9.3/utils/AddressUpgradeable.sol\":6768:6780  bytes memory */\n      0x60\n        /* \"@openzeppelin/contracts-upgradeable@4.9.3/utils/AddressUpgradeable.sol\":6799:6876  functionDelegateCall(target, data, \"Address: low-level delegate call failed\") */\n      tag_418\n        /* \"@openzeppelin/contracts-upgradeable@4.9.3/utils/AddressUpgradeable.sol\":6820:6826  target */\n      dup4\n        /* \"@openzeppelin/contracts-upgradeable@4.9.3/utils/AddressUpgradeable.sol\":6828:6832  data */\n      dup4\n        /* \"@openzeppelin/contracts-upgradeable@4.9.3/utils/AddressUpgradeable.sol\":6799:6876  functionDelegateCall(target, data, \"Address: low-level delegate call failed\") */\n      mload(0x40)\n      dup1\n      0x60\n      add\n      0x40\n      mstore\n      dup1\n      0x27\n      dup2\n      mstore\n      0x20\n      add\n      data_9fdcd12e4b726339b32a442b0a448365d5d85c96b2d2cff917b4f66c63110398\n      0x27\n      swap2\n      codecopy\n        /* \"@openzeppelin/contracts-upgradeable@4.9.3/utils/AddressUpgradeable.sol\":6799:6819  functionDelegateCall */\n      tag_419\n        /* \"@openzeppelin/contracts-upgradeable@4.9.3/utils/AddressUpgradeable.sol\":6799:6876  functionDelegateCall(target, data, \"Address: low-level delegate call failed\") */\n      jump\t// in\n    tag_418:\n        /* \"@openzeppelin/contracts-upgradeable@4.9.3/utils/AddressUpgradeable.sol\":6792:6876  return functionDelegateCall(target, data, \"Address: low-level delegate call failed\") */\n      swap1\n      pop\n        /* \"@openzeppelin/contracts-upgradeable@4.9.3/utils/AddressUpgradeable.sol\":6685:6883  function functionDelegateCall(address target, bytes memory data) internal returns (bytes memory) {... */\n      swap3\n      swap2\n      pop\n      pop\n      jump\t// out\n        /* \"@openzeppelin/contracts-upgradeable@4.9.3/utils/AddressUpgradeable.sol\":7069:7394  function functionDelegateCall(... */\n    tag_419:\n        /* \"@openzeppelin/contracts-upgradeable@4.9.3/utils/AddressUpgradeable.sol\":7210:7222  bytes memory */\n      0x60\n        /* \"@openzeppelin/contracts-upgradeable@4.9.3/utils/AddressUpgradeable.sol\":7235:7247  bool success */\n      0x00\n        /* \"@openzeppelin/contracts-upgradeable@4.9.3/utils/AddressUpgradeable.sol\":7249:7272  bytes memory returndata */\n      dup1\n        /* \"@openzeppelin/contracts-upgradeable@4.9.3/utils/AddressUpgradeable.sol\":7276:7282  target */\n      dup6\n        /* \"@openzeppelin/contracts-upgradeable@4.9.3/utils/AddressUpgradeable.sol\":7276:7295  target.delegatecall */\n      0xffffffffffffffffffffffffffffffffffffffff\n      and\n        /* \"@openzeppelin/contracts-upgradeable@4.9.3/utils/AddressUpgradeable.sol\":7296:7300  data */\n      dup6\n        /* \"@openzeppelin/contracts-upgradeable@4.9.3/utils/AddressUpgradeable.sol\":7276:7301  target.delegatecall(data) */\n      mload(0x40)\n      tag_421\n      swap2\n      swap1\n      tag_422\n      jump\t// in\n    tag_421:\n      0x00\n      mload(0x40)\n      dup1\n      dup4\n      sub\n      dup2\n      dup6\n      gas\n      delegatecall\n      swap2\n      pop\n      pop\n      returndatasize\n      dup1\n      0x00\n      dup2\n      eq\n      tag_425\n      jumpi\n      mload(0x40)\n      swap2\n      pop\n      and(add(returndatasize, 0x3f), not(0x1f))\n      dup3\n      add\n      0x40\n      mstore\n      returndatasize\n      dup3\n      mstore\n      returndatasize\n      0x00\n      0x20\n      dup5\n      add\n      returndatacopy\n      jump(tag_424)\n    tag_425:\n      0x60\n      swap2\n      pop\n    tag_424:\n      pop\n        /* \"@openzeppelin/contracts-upgradeable@4.9.3/utils/AddressUpgradeable.sol\":7234:7301  (bool success, bytes memory returndata) = target.delegatecall(data) */\n      swap2\n      pop\n      swap2\n      pop\n        /* \"@openzeppelin/contracts-upgradeable@4.9.3/utils/AddressUpgradeable.sol\":7318:7387  verifyCallResultFromTarget(target, success, returndata, errorMessage) */\n      tag_426\n        /* \"@openzeppelin/contracts-upgradeable@4.9.3/utils/AddressUpgradeable.sol\":7345:7351  target */\n      dup7\n        /* \"@openzeppelin/contracts-upgradeable@4.9.3/utils/AddressUpgradeable.sol\":7353:7360  success */\n      dup4\n        /* \"@openzeppelin/contracts-upgradeable@4.9.3/utils/AddressUpgradeable.sol\":7362:7372  returndata */\n      dup4\n        /* \"@openzeppelin/contracts-upgradeable@4.9.3/utils/AddressUpgradeable.sol\":7374:7386  errorMessage */\n      dup8\n        /* \"@openzeppelin/contracts-upgradeable@4.9.3/utils/AddressUpgradeable.sol\":7318:7344  verifyCallResultFromTarget */\n      tag_427\n        /* \"@openzeppelin/contracts-upgradeable@4.9.3/utils/AddressUpgradeable.sol\":7318:7387  verifyCallResultFromTarget(target, success, returndata, errorMessage) */\n      jump\t// in\n    tag_426:\n        /* \"@openzeppelin/contracts-upgradeable@4.9.3/utils/AddressUpgradeable.sol\":7311:7387  return verifyCallResultFromTarget(target, success, returndata, errorMessage) */\n      swap3\n      pop\n      pop\n      pop\n        /* \"@openzeppelin/contracts-upgradeable@4.9.3/utils/AddressUpgradeable.sol\":7069:7394  function functionDelegateCall(... */\n      swap4\n      swap3\n      pop\n      pop\n      pop\n      jump\t// out\n        /* \"@openzeppelin/contracts-upgradeable@4.9.3/utils/AddressUpgradeable.sol\":7682:8310  function verifyCallResultFromTarget(... */\n    tag_427:\n        /* \"@openzeppelin/contracts-upgradeable@4.9.3/utils/AddressUpgradeable.sol\":7862:7874  bytes memory */\n      0x60\n        /* \"@openzeppelin/contracts-upgradeable@4.9.3/utils/AddressUpgradeable.sol\":7890:7897  success */\n      dup4\n        /* \"@openzeppelin/contracts-upgradeable@4.9.3/utils/AddressUpgradeable.sol\":7886:8304  if (success) {... */\n      iszero\n      tag_429\n      jumpi\n        /* \"@openzeppelin/contracts-upgradeable@4.9.3/utils/AddressUpgradeable.sol\":7938:7939  0 */\n      0x00\n        /* \"@openzeppelin/contracts-upgradeable@4.9.3/utils/AddressUpgradeable.sol\":7917:7927  returndata */\n      dup4\n        /* \"@openzeppelin/contracts-upgradeable@4.9.3/utils/AddressUpgradeable.sol\":7917:7934  returndata.length */\n      mload\n        /* \"@openzeppelin/contracts-upgradeable@4.9.3/utils/AddressUpgradeable.sol\":7917:7939  returndata.length == 0 */\n      sub\n        /* \"@openzeppelin/contracts-upgradeable@4.9.3/utils/AddressUpgradeable.sol\":7913:8199  if (returndata.length == 0) {... */\n      tag_430\n      jumpi\n        /* \"@openzeppelin/contracts-upgradeable@4.9.3/utils/AddressUpgradeable.sol\":8132:8150  isContract(target) */\n      tag_431\n        /* \"@openzeppelin/contracts-upgradeable@4.9.3/utils/AddressUpgradeable.sol\":8143:8149  target */\n      dup6\n        /* \"@openzeppelin/contracts-upgradeable@4.9.3/utils/AddressUpgradeable.sol\":8132:8142  isContract */\n      tag_208\n        /* \"@openzeppelin/contracts-upgradeable@4.9.3/utils/AddressUpgradeable.sol\":8132:8150  isContract(target) */\n      jump\t// in\n    tag_431:\n        /* \"@openzeppelin/contracts-upgradeable@4.9.3/utils/AddressUpgradeable.sol\":8124:8184  require(isContract(target), \"Address: call to non-contract\") */\n      tag_432\n      jumpi\n      mload(0x40)\n      0x08c379a000000000000000000000000000000000000000000000000000000000\n      dup2\n      mstore\n      0x04\n      add\n      tag_433\n      swap1\n      tag_434\n      jump\t// in\n    tag_433:\n      mload(0x40)\n      dup1\n      swap2\n      sub\n      swap1\n      revert\n    tag_432:\n        /* \"@openzeppelin/contracts-upgradeable@4.9.3/utils/AddressUpgradeable.sol\":7913:8199  if (returndata.length == 0) {... */\n    tag_430:\n        /* \"@openzeppelin/contracts-upgradeable@4.9.3/utils/AddressUpgradeable.sol\":8219:8229  returndata */\n      dup3\n        /* \"@openzeppelin/contracts-upgradeable@4.9.3/utils/AddressUpgradeable.sol\":8212:8229  return returndata */\n      swap1\n      pop\n      jump(tag_428)\n        /* \"@openzeppelin/contracts-upgradeable@4.9.3/utils/AddressUpgradeable.sol\":7886:8304  if (success) {... */\n    tag_429:\n        /* \"@openzeppelin/contracts-upgradeable@4.9.3/utils/AddressUpgradeable.sol\":8260:8293  _revert(returndata, errorMessage) */\n      tag_436\n        /* \"@openzeppelin/contracts-upgradeable@4.9.3/utils/AddressUpgradeable.sol\":8268:8278  returndata */\n      dup4\n        /* \"@openzeppelin/contracts-upgradeable@4.9.3/utils/AddressUpgradeable.sol\":8280:8292  errorMessage */\n      dup4\n        /* \"@openzeppelin/contracts-upgradeable@4.9.3/utils/AddressUpgradeable.sol\":8260:8267  _revert */\n      tag_437\n        /* \"@openzeppelin/contracts-upgradeable@4.9.3/utils/AddressUpgradeable.sol\":8260:8293  _revert(returndata, errorMessage) */\n      jump\t// in\n    tag_436:\n        /* \"@openzeppelin/contracts-upgradeable@4.9.3/utils/AddressUpgradeable.sol\":7682:8310  function verifyCallResultFromTarget(... */\n    tag_428:\n      swap5\n      swap4\n      pop\n      pop\n      pop\n      pop\n      jump\t// out\n        /* \"@openzeppelin/contracts-upgradeable@4.9.3/utils/AddressUpgradeable.sol\":8832:9372  function _revert(bytes memory returndata, string memory errorMessage) private pure {... */\n    tag_437:\n        /* \"@openzeppelin/contracts-upgradeable@4.9.3/utils/AddressUpgradeable.sol\":9011:9012  0 */\n      0x00\n        /* \"@openzeppelin/contracts-upgradeable@4.9.3/utils/AddressUpgradeable.sol\":8991:9001  returndata */\n      dup3\n        /* \"@openzeppelin/contracts-upgradeable@4.9.3/utils/AddressUpgradeable.sol\":8991:9008  returndata.length */\n      mload\n        /* \"@openzeppelin/contracts-upgradeable@4.9.3/utils/AddressUpgradeable.sol\":8991:9012  returndata.length > 0 */\n      gt\n        /* \"@openzeppelin/contracts-upgradeable@4.9.3/utils/AddressUpgradeable.sol\":8987:9366  if (returndata.length > 0) {... */\n      iszero\n      tag_439\n      jumpi\n        /* \"@openzeppelin/contracts-upgradeable@4.9.3/utils/AddressUpgradeable.sol\":9219:9229  returndata */\n      dup2\n        /* \"@openzeppelin/contracts-upgradeable@4.9.3/utils/AddressUpgradeable.sol\":9213:9230  mload(returndata) */\n      mload\n        /* \"@openzeppelin/contracts-upgradeable@4.9.3/utils/AddressUpgradeable.sol\":9275:9290  returndata_size */\n      dup1\n        /* \"@openzeppelin/contracts-upgradeable@4.9.3/utils/AddressUpgradeable.sol\":9262:9272  returndata */\n      dup4\n        /* \"@openzeppelin/contracts-upgradeable@4.9.3/utils/AddressUpgradeable.sol\":9258:9260  32 */\n      0x20\n        /* \"@openzeppelin/contracts-upgradeable@4.9.3/utils/AddressUpgradeable.sol\":9254:9273  add(32, returndata) */\n      add\n        /* \"@openzeppelin/contracts-upgradeable@4.9.3/utils/AddressUpgradeable.sol\":9247:9291  revert(add(32, returndata), returndata_size) */\n      revert\n        /* \"@openzeppelin/contracts-upgradeable@4.9.3/utils/AddressUpgradeable.sol\":8987:9366  if (returndata.length > 0) {... */\n    tag_439:\n        /* \"@openzeppelin/contracts-upgradeable@4.9.3/utils/AddressUpgradeable.sol\":9342:9354  errorMessage */\n      dup1\n        /* \"@openzeppelin/contracts-upgradeable@4.9.3/utils/AddressUpgradeable.sol\":9335:9355  revert(errorMessage) */\n      mload(0x40)\n      0x08c379a000000000000000000000000000000000000000000000000000000000\n      dup2\n      mstore\n      0x04\n      add\n      tag_441\n      swap2\n      swap1\n      tag_31\n      jump\t// in\n    tag_441:\n      mload(0x40)\n      dup1\n      swap2\n      sub\n      swap1\n      revert\n        /* \"#utility.yul\":7:106   */\n    tag_442:\n        /* \"#utility.yul\":59:65   */\n      0x00\n        /* \"#utility.yul\":93:98   */\n      dup2\n        /* \"#utility.yul\":87:99   */\n      mload\n        /* \"#utility.yul\":77:99   */\n      swap1\n      pop\n        /* \"#utility.yul\":7:106   */\n      swap2\n      swap1\n      pop\n      jump\t// out\n        /* \"#utility.yul\":112:281   */\n    tag_443:\n        /* \"#utility.yul\":196:207   */\n      0x00\n        /* \"#utility.yul\":230:236   */\n      dup3\n        /* \"#utility.yul\":225:228   */\n      dup3\n        /* \"#utility.yul\":218:237   */\n      mstore\n        /* \"#utility.yul\":270:274   */\n      0x20\n        /* \"#utility.yul\":265:268   */\n      dup3\n        /* \"#utility.yul\":261:275   */\n      add\n        /* \"#utility.yul\":246:275   */\n      swap1\n      pop\n        /* \"#utility.yul\":112:281   */\n      swap3\n      swap2\n      pop\n      pop\n      jump\t// out\n        /* \"#utility.yul\":287:533   */\n    tag_444:\n        /* \"#utility.yul\":368:369   */\n      0x00\n        /* \"#utility.yul\":378:491   */\n    tag_544:\n        /* \"#utility.yul\":392:398   */\n      dup4\n        /* \"#utility.yul\":389:390   */\n      dup2\n        /* \"#utility.yul\":386:399   */\n      lt\n        /* \"#utility.yul\":378:491   */\n      iszero\n      tag_546\n      jumpi\n        /* \"#utility.yul\":477:478   */\n      dup1\n        /* \"#utility.yul\":472:475   */\n      dup3\n        /* \"#utility.yul\":468:479   */\n      add\n        /* \"#utility.yul\":462:480   */\n      mload\n        /* \"#utility.yul\":458:459   */\n      dup2\n        /* \"#utility.yul\":453:456   */\n      dup5\n        /* \"#utility.yul\":449:460   */\n      add\n        /* \"#utility.yul\":442:481   */\n      mstore\n        /* \"#utility.yul\":414:416   */\n      0x20\n        /* \"#utility.yul\":411:412   */\n      dup2\n        /* \"#utility.yul\":407:417   */\n      add\n        /* \"#utility.yul\":402:417   */\n      swap1\n      pop\n        /* \"#utility.yul\":378:491   */\n      jump(tag_544)\n    tag_546:\n        /* \"#utility.yul\":525:526   */\n      0x00\n        /* \"#utility.yul\":516:522   */\n      dup5\n        /* \"#utility.yul\":511:514   */\n      dup5\n        /* \"#utility.yul\":507:523   */\n      add\n        /* \"#utility.yul\":500:527   */\n      mstore\n        /* \"#utility.yul\":349:533   */\n      pop\n        /* \"#utility.yul\":287:533   */\n      pop\n      pop\n      pop\n      jump\t// out\n        /* \"#utility.yul\":539:641   */\n    tag_445:\n        /* \"#utility.yul\":580:586   */\n      0x00\n        /* \"#utility.yul\":631:633   */\n      0x1f\n        /* \"#utility.yul\":627:634   */\n      not\n        /* \"#utility.yul\":622:624   */\n      0x1f\n        /* \"#utility.yul\":615:620   */\n      dup4\n        /* \"#utility.yul\":611:625   */\n      add\n        /* \"#utility.yul\":607:635   */\n      and\n        /* \"#utility.yul\":597:635   */\n      swap1\n      pop\n        /* \"#utility.yul\":539:641   */\n      swap2\n      swap1\n      pop\n      jump\t// out\n        /* \"#utility.yul\":647:1024   */\n    tag_446:\n        /* \"#utility.yul\":735:738   */\n      0x00\n        /* \"#utility.yul\":763:802   */\n      tag_549\n        /* \"#utility.yul\":796:801   */\n      dup3\n        /* \"#utility.yul\":763:802   */\n      tag_442\n      jump\t// in\n    tag_549:\n        /* \"#utility.yul\":818:889   */\n      tag_550\n        /* \"#utility.yul\":882:888   */\n      dup2\n        /* \"#utility.yul\":877:880   */\n      dup6\n        /* \"#utility.yul\":818:889   */\n      tag_443\n      jump\t// in\n    tag_550:\n        /* \"#utility.yul\":811:889   */\n      swap4\n      pop\n        /* \"#utility.yul\":898:963   */\n      tag_551\n        /* \"#utility.yul\":956:962   */\n      dup2\n        /* \"#utility.yul\":951:954   */\n      dup6\n        /* \"#utility.yul\":944:948   */\n      0x20\n        /* \"#utility.yul\":937:942   */\n      dup7\n        /* \"#utility.yul\":933:949   */\n      add\n        /* \"#utility.yul\":898:963   */\n      tag_444\n      jump\t// in\n    tag_551:\n        /* \"#utility.yul\":988:1017   */\n      tag_552\n        /* \"#utility.yul\":1010:1016   */\n      dup2\n        /* \"#utility.yul\":988:1017   */\n      tag_445\n      jump\t// in\n    tag_552:\n        /* \"#utility.yul\":983:986   */\n      dup5\n        /* \"#utility.yul\":979:1018   */\n      add\n        /* \"#utility.yul\":972:1018   */\n      swap2\n      pop\n        /* \"#utility.yul\":739:1024   */\n      pop\n        /* \"#utility.yul\":647:1024   */\n      swap3\n      swap2\n      pop\n      pop\n      jump\t// out\n        /* \"#utility.yul\":1030:1343   */\n    tag_31:\n        /* \"#utility.yul\":1143:1147   */\n      0x00\n        /* \"#utility.yul\":1181:1183   */\n      0x20\n        /* \"#utility.yul\":1170:1179   */\n      dup3\n        /* \"#utility.yul\":1166:1184   */\n      add\n        /* \"#utility.yul\":1158:1184   */\n      swap1\n      pop\n        /* \"#utility.yul\":1230:1239   */\n      dup2\n        /* \"#utility.yul\":1224:1228   */\n      dup2\n        /* \"#utility.yul\":1220:1240   */\n      sub\n        /* \"#utility.yul\":1216:1217   */\n      0x00\n        /* \"#utility.yul\":1205:1214   */\n      dup4\n        /* \"#utility.yul\":1201:1218   */\n      add\n        /* \"#utility.yul\":1194:1241   */\n      mstore\n        /* \"#utility.yul\":1258:1336   */\n      tag_554\n        /* \"#utility.yul\":1331:1335   */\n      dup2\n        /* \"#utility.yul\":1322:1328   */\n      dup5\n        /* \"#utility.yul\":1258:1336   */\n      tag_446\n      jump\t// in\n    tag_554:\n        /* \"#utility.yul\":1250:1336   */\n      swap1\n      pop\n        /* \"#utility.yul\":1030:1343   */\n      swap3\n      swap2\n      pop\n      pop\n      jump\t// out\n        /* \"#utility.yul\":1349:1424   */\n    tag_447:\n        /* \"#utility.yul\":1382:1388   */\n      0x00\n        /* \"#utility.yul\":1415:1417   */\n      0x40\n        /* \"#utility.yul\":1409:1418   */\n      mload\n        /* \"#utility.yul\":1399:1418   */\n      swap1\n      pop\n        /* \"#utility.yul\":1349:1424   */\n      swap1\n      jump\t// out\n        /* \"#utility.yul\":1430:1547   */\n    tag_448:\n        /* \"#utility.yul\":1539:1540   */\n      0x00\n        /* \"#utility.yul\":1536:1537   */\n      dup1\n        /* \"#utility.yul\":1529:1541   */\n      revert\n        /* \"#utility.yul\":1553:1670   */\n    tag_449:\n        /* \"#utility.yul\":1662:1663   */\n      0x00\n        /* \"#utility.yul\":1659:1660   */\n      dup1\n        /* \"#utility.yul\":1652:1664   */\n      revert\n        /* \"#utility.yul\":1676:1802   */\n    tag_450:\n        /* \"#utility.yul\":1713:1720   */\n      0x00\n        /* \"#utility.yul\":1753:1795   */\n      0xffffffffffffffffffffffffffffffffffffffff\n        /* \"#utility.yul\":1746:1751   */\n      dup3\n        /* \"#utility.yul\":1742:1796   */\n      and\n        /* \"#utility.yul\":1731:1796   */\n      swap1\n      pop\n        /* \"#utility.yul\":1676:1802   */\n      swap2\n      swap1\n      pop\n      jump\t// out\n        /* \"#utility.yul\":1808:1904   */\n    tag_451:\n        /* \"#utility.yul\":1845:1852   */\n      0x00\n        /* \"#utility.yul\":1874:1898   */\n      tag_560\n        /* \"#utility.yul\":1892:1897   */\n      dup3\n        /* \"#utility.yul\":1874:1898   */\n      tag_450\n      jump\t// in\n    tag_560:\n        /* \"#utility.yul\":1863:1898   */\n      swap1\n      pop\n        /* \"#utility.yul\":1808:1904   */\n      swap2\n      swap1\n      pop\n      jump\t// out\n        /* \"#utility.yul\":1910:2032   */\n    tag_452:\n        /* \"#utility.yul\":1983:2007   */\n      tag_562\n        /* \"#utility.yul\":2001:2006   */\n      dup2\n        /* \"#utility.yul\":1983:2007   */\n      tag_451\n      jump\t// in\n    tag_562:\n        /* \"#utility.yul\":1976:1981   */\n      dup2\n        /* \"#utility.yul\":1973:2008   */\n      eq\n        /* \"#utility.yul\":1963:2026   */\n      tag_563\n      jumpi\n        /* \"#utility.yul\":2022:2023   */\n      0x00\n        /* \"#utility.yul\":2019:2020   */\n      dup1\n        /* \"#utility.yul\":2012:2024   */\n      revert\n        /* \"#utility.yul\":1963:2026   */\n    tag_563:\n        /* \"#utility.yul\":1910:2032   */\n      pop\n      jump\t// out\n        /* \"#utility.yul\":2038:2177   */\n    tag_453:\n        /* \"#utility.yul\":2084:2089   */\n      0x00\n        /* \"#utility.yul\":2122:2128   */\n      dup2\n        /* \"#utility.yul\":2109:2129   */\n      calldataload\n        /* \"#utility.yul\":2100:2129   */\n      swap1\n      pop\n        /* \"#utility.yul\":2138:2171   */\n      tag_565\n        /* \"#utility.yul\":2165:2170   */\n      dup2\n        /* \"#utility.yul\":2138:2171   */\n      tag_452\n      jump\t// in\n    tag_565:\n        /* \"#utility.yul\":2038:2177   */\n      swap3\n      swap2\n      pop\n      pop\n      jump\t// out\n        /* \"#utility.yul\":2183:2260   */\n    tag_454:\n        /* \"#utility.yul\":2220:2227   */\n      0x00\n        /* \"#utility.yul\":2249:2254   */\n      dup2\n        /* \"#utility.yul\":2238:2254   */\n      swap1\n      pop\n        /* \"#utility.yul\":2183:2260   */\n      swap2\n      swap1\n      pop\n      jump\t// out\n        /* \"#utility.yul\":2266:2388   */\n    tag_455:\n        /* \"#utility.yul\":2339:2363   */\n      tag_568\n        /* \"#utility.yul\":2357:2362   */\n      dup2\n        /* \"#utility.yul\":2339:2363   */\n      tag_454\n      jump\t// in\n    tag_568:\n        /* \"#utility.yul\":2332:2337   */\n      dup2\n        /* \"#utility.yul\":2329:2364   */\n      eq\n        /* \"#utility.yul\":2319:2382   */\n      tag_569\n      jumpi\n        /* \"#utility.yul\":2378:2379   */\n      0x00\n        /* \"#utility.yul\":2375:2376   */\n      dup1\n        /* \"#utility.yul\":2368:2380   */\n      revert\n        /* \"#utility.yul\":2319:2382   */\n    tag_569:\n        /* \"#utility.yul\":2266:2388   */\n      pop\n      jump\t// out\n        /* \"#utility.yul\":2394:2533   */\n    tag_456:\n        /* \"#utility.yul\":2440:2445   */\n      0x00\n        /* \"#utility.yul\":2478:2484   */\n      dup2\n        /* \"#utility.yul\":2465:2485   */\n      calldataload\n        /* \"#utility.yul\":2456:2485   */\n      swap1\n      pop\n        /* \"#utility.yul\":2494:2527   */\n      tag_571\n        /* \"#utility.yul\":2521:2526   */\n      dup2\n        /* \"#utility.yul\":2494:2527   */\n      tag_455\n      jump\t// in\n    tag_571:\n        /* \"#utility.yul\":2394:2533   */\n      swap3\n      swap2\n      pop\n      pop\n      jump\t// out\n        /* \"#utility.yul\":2539:3013   */\n    tag_35:\n        /* \"#utility.yul\":2607:2613   */\n      0x00\n        /* \"#utility.yul\":2615:2621   */\n      dup1\n        /* \"#utility.yul\":2664:2666   */\n      0x40\n        /* \"#utility.yul\":2652:2661   */\n      dup4\n        /* \"#utility.yul\":2643:2650   */\n      dup6\n        /* \"#utility.yul\":2639:2662   */\n      sub\n        /* \"#utility.yul\":2635:2667   */\n      slt\n        /* \"#utility.yul\":2632:2751   */\n      iszero\n      tag_573\n      jumpi\n        /* \"#utility.yul\":2670:2749   */\n      tag_574\n      tag_448\n      jump\t// in\n    tag_574:\n        /* \"#utility.yul\":2632:2751   */\n    tag_573:\n        /* \"#utility.yul\":2790:2791   */\n      0x00\n        /* \"#utility.yul\":2815:2868   */\n      tag_575\n        /* \"#utility.yul\":2860:2867   */\n      dup6\n        /* \"#utility.yul\":2851:2857   */\n      dup3\n        /* \"#utility.yul\":2840:2849   */\n      dup7\n        /* \"#utility.yul\":2836:2858   */\n      add\n        /* \"#utility.yul\":2815:2868   */\n      tag_453\n      jump\t// in\n    tag_575:\n        /* \"#utility.yul\":2805:2868   */\n      swap3\n      pop\n        /* \"#utility.yul\":2761:2878   */\n      pop\n        /* \"#utility.yul\":2917:2919   */\n      0x20\n        /* \"#utility.yul\":2943:2996   */\n      tag_576\n        /* \"#utility.yul\":2988:2995   */\n      dup6\n        /* \"#utility.yul\":2979:2985   */\n      dup3\n        /* \"#utility.yul\":2968:2977   */\n      dup7\n        /* \"#utility.yul\":2964:2986   */\n      add\n        /* \"#utility.yul\":2943:2996   */\n      tag_456\n      jump\t// in\n    tag_576:\n        /* \"#utility.yul\":2933:2996   */\n      swap2\n      pop\n        /* \"#utility.yul\":2888:3006   */\n      pop\n        /* \"#utility.yul\":2539:3013   */\n      swap3\n      pop\n      swap3\n      swap1\n      pop\n      jump\t// out\n        /* \"#utility.yul\":3019:3109   */\n    tag_457:\n        /* \"#utility.yul\":3053:3060   */\n      0x00\n        /* \"#utility.yul\":3096:3101   */\n      dup2\n        /* \"#utility.yul\":3089:3102   */\n      iszero\n        /* \"#utility.yul\":3082:3103   */\n      iszero\n        /* \"#utility.yul\":3071:3103   */\n      swap1\n      pop\n        /* \"#utility.yul\":3019:3109   */\n      swap2\n      swap1\n      pop\n      jump\t// out\n        /* \"#utility.yul\":3115:3224   */\n    tag_458:\n        /* \"#utility.yul\":3196:3217   */\n      tag_579\n        /* \"#utility.yul\":3211:3216   */\n      dup2\n        /* \"#utility.yul\":3196:3217   */\n      tag_457\n      jump\t// in\n    tag_579:\n        /* \"#utility.yul\":3191:3194   */\n      dup3\n        /* \"#utility.yul\":3184:3218   */\n      mstore\n        /* \"#utility.yul\":3115:3224   */\n      pop\n      pop\n      jump\t// out\n        /* \"#utility.yul\":3230:3440   */\n    tag_38:\n        /* \"#utility.yul\":3317:3321   */\n      0x00\n        /* \"#utility.yul\":3355:3357   */\n      0x20\n        /* \"#utility.yul\":3344:3353   */\n      dup3\n        /* \"#utility.yul\":3340:3358   */\n      add\n        /* \"#utility.yul\":3332:3358   */\n      swap1\n      pop\n        /* \"#utility.yul\":3368:3433   */\n      tag_581\n        /* \"#utility.yul\":3430:3431   */\n      0x00\n        /* \"#utility.yul\":3419:3428   */\n      dup4\n        /* \"#utility.yul\":3415:3432   */\n      add\n        /* \"#utility.yul\":3406:3412   */\n      dup5\n        /* \"#utility.yul\":3368:3433   */\n      tag_458\n      jump\t// in\n    tag_581:\n        /* \"#utility.yul\":3230:3440   */\n      swap3\n      swap2\n      pop\n      pop\n      jump\t// out\n        /* \"#utility.yul\":3446:3564   */\n    tag_459:\n        /* \"#utility.yul\":3533:3557   */\n      tag_583\n        /* \"#utility.yul\":3551:3556   */\n      dup2\n        /* \"#utility.yul\":3533:3557   */\n      tag_454\n      jump\t// in\n    tag_583:\n        /* \"#utility.yul\":3528:3531   */\n      dup3\n        /* \"#utility.yul\":3521:3558   */\n      mstore\n        /* \"#utility.yul\":3446:3564   */\n      pop\n      pop\n      jump\t// out\n        /* \"#utility.yul\":3570:3792   */\n    tag_43:\n        /* \"#utility.yul\":3663:3667   */\n      0x00\n        /* \"#utility.yul\":3701:3703   */\n      0x20\n        /* \"#utility.yul\":3690:3699   */\n      dup3\n        /* \"#utility.yul\":3686:3704   */\n      add\n        /* \"#utility.yul\":3678:3704   */\n      swap1\n      pop\n        /* \"#utility.yul\":3714:3785   */\n      tag_585\n        /* \"#utility.yul\":3782:3783   */\n      0x00\n        /* \"#utility.yul\":3771:3780   */\n      dup4\n        /* \"#utility.yul\":3767:3784   */\n      add\n        /* \"#utility.yul\":3758:3764   */\n      dup5\n        /* \"#utility.yul\":3714:3785   */\n      tag_459\n      jump\t// in\n    tag_585:\n        /* \"#utility.yul\":3570:3792   */\n      swap3\n      swap2\n      pop\n      pop\n      jump\t// out\n        /* \"#utility.yul\":3798:4417   */\n    tag_47:\n        /* \"#utility.yul\":3875:3881   */\n      0x00\n        /* \"#utility.yul\":3883:3889   */\n      dup1\n        /* \"#utility.yul\":3891:3897   */\n      0x00\n        /* \"#utility.yul\":3940:3942   */\n      0x60\n        /* \"#utility.yul\":3928:3937   */\n      dup5\n        /* \"#utility.yul\":3919:3926   */\n      dup7\n        /* \"#utility.yul\":3915:3938   */\n      sub\n        /* \"#utility.yul\":3911:3943   */\n      slt\n        /* \"#utility.yul\":3908:4027   */\n      iszero\n      tag_587\n      jumpi\n        /* \"#utility.yul\":3946:4025   */\n      tag_588\n      tag_448\n      jump\t// in\n    tag_588:\n        /* \"#utility.yul\":3908:4027   */\n    tag_587:\n        /* \"#utility.yul\":4066:4067   */\n      0x00\n        /* \"#utility.yul\":4091:4144   */\n      tag_589\n        /* \"#utility.yul\":4136:4143   */\n      dup7\n        /* \"#utility.yul\":4127:4133   */\n      dup3\n        /* \"#utility.yul\":4116:4125   */\n      dup8\n        /* \"#utility.yul\":4112:4134   */\n      add\n        /* \"#utility.yul\":4091:4144   */\n      tag_453\n      jump\t// in\n    tag_589:\n        /* \"#utility.yul\":4081:4144   */\n      swap4\n      pop\n        /* \"#utility.yul\":4037:4154   */\n      pop\n        /* \"#utility.yul\":4193:4195   */\n      0x20\n        /* \"#utility.yul\":4219:4272   */\n      tag_590\n        /* \"#utility.yul\":4264:4271   */\n      dup7\n        /* \"#utility.yul\":4255:4261   */\n      dup3\n        /* \"#utility.yul\":4244:4253   */\n      dup8\n        /* \"#utility.yul\":4240:4262   */\n      add\n        /* \"#utility.yul\":4219:4272   */\n      tag_453\n      jump\t// in\n    tag_590:\n        /* \"#utility.yul\":4209:4272   */\n      swap3\n      pop\n        /* \"#utility.yul\":4164:4282   */\n      pop\n        /* \"#utility.yul\":4321:4323   */\n      0x40\n        /* \"#utility.yul\":4347:4400   */\n      tag_591\n        /* \"#utility.yul\":4392:4399   */\n      dup7\n        /* \"#utility.yul\":4383:4389   */\n      dup3\n        /* \"#utility.yul\":4372:4381   */\n      dup8\n        /* \"#utility.yul\":4368:4390   */\n      add\n        /* \"#utility.yul\":4347:4400   */\n      tag_456\n      jump\t// in\n    tag_591:\n        /* \"#utility.yul\":4337:4400   */\n      swap2\n      pop\n        /* \"#utility.yul\":4292:4410   */\n      pop\n        /* \"#utility.yul\":3798:4417   */\n      swap3\n      pop\n      swap3\n      pop\n      swap3\n      jump\t// out\n        /* \"#utility.yul\":4423:4509   */\n    tag_460:\n        /* \"#utility.yul\":4458:4465   */\n      0x00\n        /* \"#utility.yul\":4498:4502   */\n      0xff\n        /* \"#utility.yul\":4491:4496   */\n      dup3\n        /* \"#utility.yul\":4487:4503   */\n      and\n        /* \"#utility.yul\":4476:4503   */\n      swap1\n      pop\n        /* \"#utility.yul\":4423:4509   */\n      swap2\n      swap1\n      pop\n      jump\t// out\n        /* \"#utility.yul\":4515:4627   */\n    tag_461:\n        /* \"#utility.yul\":4598:4620   */\n      tag_594\n        /* \"#utility.yul\":4614:4619   */\n      dup2\n        /* \"#utility.yul\":4598:4620   */\n      tag_460\n      jump\t// in\n    tag_594:\n        /* \"#utility.yul\":4593:4596   */\n      dup3\n        /* \"#utility.yul\":4586:4621   */\n      mstore\n        /* \"#utility.yul\":4515:4627   */\n      pop\n      pop\n      jump\t// out\n        /* \"#utility.yul\":4633:4847   */\n    tag_54:\n        /* \"#utility.yul\":4722:4726   */\n      0x00\n        /* \"#utility.yul\":4760:4762   */\n      0x20\n        /* \"#utility.yul\":4749:4758   */\n      dup3\n        /* \"#utility.yul\":4745:4763   */\n      add\n        /* \"#utility.yul\":4737:4763   */\n      swap1\n      pop\n        /* \"#utility.yul\":4773:4840   */\n      tag_596\n        /* \"#utility.yul\":4837:4838   */\n      0x00\n        /* \"#utility.yul\":4826:4835   */\n      dup4\n        /* \"#utility.yul\":4822:4839   */\n      add\n        /* \"#utility.yul\":4813:4819   */\n      dup5\n        /* \"#utility.yul\":4773:4840   */\n      tag_461\n      jump\t// in\n    tag_596:\n        /* \"#utility.yul\":4633:4847   */\n      swap3\n      swap2\n      pop\n      pop\n      jump\t// out\n        /* \"#utility.yul\":4853:5182   */\n    tag_58:\n        /* \"#utility.yul\":4912:4918   */\n      0x00\n        /* \"#utility.yul\":4961:4963   */\n      0x20\n        /* \"#utility.yul\":4949:4958   */\n      dup3\n        /* \"#utility.yul\":4940:4947   */\n      dup5\n        /* \"#utility.yul\":4936:4959   */\n      sub\n        /* \"#utility.yul\":4932:4964   */\n      slt\n        /* \"#utility.yul\":4929:5048   */\n      iszero\n      tag_598\n      jumpi\n        /* \"#utility.yul\":4967:5046   */\n      tag_599\n      tag_448\n      jump\t// in\n    tag_599:\n        /* \"#utility.yul\":4929:5048   */\n    tag_598:\n        /* \"#utility.yul\":5087:5088   */\n      0x00\n        /* \"#utility.yul\":5112:5165   */\n      tag_600\n        /* \"#utility.yul\":5157:5164   */\n      dup5\n        /* \"#utility.yul\":5148:5154   */\n      dup3\n        /* \"#utility.yul\":5137:5146   */\n      dup6\n        /* \"#utility.yul\":5133:5155   */\n      add\n        /* \"#utility.yul\":5112:5165   */\n      tag_453\n      jump\t// in\n    tag_600:\n        /* \"#utility.yul\":5102:5165   */\n      swap2\n      pop\n        /* \"#utility.yul\":5058:5175   */\n      pop\n        /* \"#utility.yul\":4853:5182   */\n      swap3\n      swap2\n      pop\n      pop\n      jump\t// out\n        /* \"#utility.yul\":5188:5305   */\n    tag_462:\n        /* \"#utility.yul\":5297:5298   */\n      0x00\n        /* \"#utility.yul\":5294:5295   */\n      dup1\n        /* \"#utility.yul\":5287:5299   */\n      revert\n        /* \"#utility.yul\":5311:5428   */\n    tag_463:\n        /* \"#utility.yul\":5420:5421   */\n      0x00\n        /* \"#utility.yul\":5417:5418   */\n      dup1\n        /* \"#utility.yul\":5410:5422   */\n      revert\n        /* \"#utility.yul\":5434:5614   */\n    tag_163:\n        /* \"#utility.yul\":5482:5559   */\n      0x4e487b7100000000000000000000000000000000000000000000000000000000\n        /* \"#utility.yul\":5479:5480   */\n      0x00\n        /* \"#utility.yul\":5472:5560   */\n      mstore\n        /* \"#utility.yul\":5579:5583   */\n      0x41\n        /* \"#utility.yul\":5576:5577   */\n      0x04\n        /* \"#utility.yul\":5569:5584   */\n      mstore\n        /* \"#utility.yul\":5603:5607   */\n      0x24\n        /* \"#utility.yul\":5600:5601   */\n      0x00\n        /* \"#utility.yul\":5593:5608   */\n      revert\n        /* \"#utility.yul\":5620:5901   */\n    tag_464:\n        /* \"#utility.yul\":5703:5730   */\n      tag_605\n        /* \"#utility.yul\":5725:5729   */\n      dup3\n        /* \"#utility.yul\":5703:5730   */\n      tag_445\n      jump\t// in\n    tag_605:\n        /* \"#utility.yul\":5695:5701   */\n      dup2\n        /* \"#utility.yul\":5691:5731   */\n      add\n        /* \"#utility.yul\":5833:5839   */\n      dup2\n        /* \"#utility.yul\":5821:5831   */\n      dup2\n        /* \"#utility.yul\":5818:5840   */\n      lt\n        /* \"#utility.yul\":5797:5815   */\n      0xffffffffffffffff\n        /* \"#utility.yul\":5785:5795   */\n      dup3\n        /* \"#utility.yul\":5782:5816   */\n      gt\n        /* \"#utility.yul\":5779:5841   */\n      or\n        /* \"#utility.yul\":5776:5864   */\n      iszero\n      tag_606\n      jumpi\n        /* \"#utility.yul\":5844:5862   */\n      tag_607\n      tag_163\n      jump\t// in\n    tag_607:\n        /* \"#utility.yul\":5776:5864   */\n    tag_606:\n        /* \"#utility.yul\":5884:5894   */\n      dup1\n        /* \"#utility.yul\":5880:5882   */\n      0x40\n        /* \"#utility.yul\":5873:5895   */\n      mstore\n        /* \"#utility.yul\":5663:5901   */\n      pop\n        /* \"#utility.yul\":5620:5901   */\n      pop\n      pop\n      jump\t// out\n        /* \"#utility.yul\":5907:6036   */\n    tag_465:\n        /* \"#utility.yul\":5941:5947   */\n      0x00\n        /* \"#utility.yul\":5968:5988   */\n      tag_609\n      tag_447\n      jump\t// in\n    tag_609:\n        /* \"#utility.yul\":5958:5988   */\n      swap1\n      pop\n        /* \"#utility.yul\":5997:6030   */\n      tag_610\n        /* \"#utility.yul\":6025:6029   */\n      dup3\n        /* \"#utility.yul\":6017:6023   */\n      dup3\n        /* \"#utility.yul\":5997:6030   */\n      tag_464\n      jump\t// in\n    tag_610:\n        /* \"#utility.yul\":5907:6036   */\n      swap2\n      swap1\n      pop\n      jump\t// out\n        /* \"#utility.yul\":6042:6349   */\n    tag_466:\n        /* \"#utility.yul\":6103:6107   */\n      0x00\n        /* \"#utility.yul\":6193:6211   */\n      0xffffffffffffffff\n        /* \"#utility.yul\":6185:6191   */\n      dup3\n        /* \"#utility.yul\":6182:6212   */\n      gt\n        /* \"#utility.yul\":6179:6235   */\n      iszero\n      tag_612\n      jumpi\n        /* \"#utility.yul\":6215:6233   */\n      tag_613\n      tag_163\n      jump\t// in\n    tag_613:\n        /* \"#utility.yul\":6179:6235   */\n    tag_612:\n        /* \"#utility.yul\":6253:6282   */\n      tag_614\n        /* \"#utility.yul\":6275:6281   */\n      dup3\n        /* \"#utility.yul\":6253:6282   */\n      tag_445\n      jump\t// in\n    tag_614:\n        /* \"#utility.yul\":6245:6282   */\n      swap1\n      pop\n        /* \"#utility.yul\":6337:6341   */\n      0x20\n        /* \"#utility.yul\":6331:6335   */\n      dup2\n        /* \"#utility.yul\":6327:6342   */\n      add\n        /* \"#utility.yul\":6319:6342   */\n      swap1\n      pop\n        /* \"#utility.yul\":6042:6349   */\n      swap2\n      swap1\n      pop\n      jump\t// out\n        /* \"#utility.yul\":6355:6501   */\n    tag_467:\n        /* \"#utility.yul\":6452:6458   */\n      dup3\n        /* \"#utility.yul\":6447:6450   */\n      dup2\n        /* \"#utility.yul\":6442:6445   */\n      dup4\n        /* \"#utility.yul\":6429:6459   */\n      calldatacopy\n        /* \"#utility.yul\":6493:6494   */\n      0x00\n        /* \"#utility.yul\":6484:6490   */\n      dup4\n        /* \"#utility.yul\":6479:6482   */\n      dup4\n        /* \"#utility.yul\":6475:6491   */\n      add\n        /* \"#utility.yul\":6468:6495   */\n      mstore\n        /* \"#utility.yul\":6355:6501   */\n      pop\n      pop\n      pop\n      jump\t// out\n        /* \"#utility.yul\":6507:6930   */\n    tag_468:\n        /* \"#utility.yul\":6584:6589   */\n      0x00\n        /* \"#utility.yul\":6609:6674   */\n      tag_617\n        /* \"#utility.yul\":6625:6673   */\n      tag_618\n        /* \"#utility.yul\":6666:6672   */\n      dup5\n        /* \"#utility.yul\":6625:6673   */\n      tag_466\n      jump\t// in\n    tag_618:\n        /* \"#utility.yul\":6609:6674   */\n      tag_465\n      jump\t// in\n    tag_617:\n        /* \"#utility.yul\":6600:6674   */\n      swap1\n      pop\n        /* \"#utility.yul\":6697:6703   */\n      dup3\n        /* \"#utility.yul\":6690:6695   */\n      dup2\n        /* \"#utility.yul\":6683:6704   */\n      mstore\n        /* \"#utility.yul\":6735:6739   */\n      0x20\n        /* \"#utility.yul\":6728:6733   */\n      dup2\n        /* \"#utility.yul\":6724:6740   */\n      add\n        /* \"#utility.yul\":6773:6776   */\n      dup5\n        /* \"#utility.yul\":6764:6770   */\n      dup5\n        /* \"#utility.yul\":6759:6762   */\n      dup5\n        /* \"#utility.yul\":6755:6771   */\n      add\n        /* \"#utility.yul\":6752:6777   */\n      gt\n        /* \"#utility.yul\":6749:6861   */\n      iszero\n      tag_619\n      jumpi\n        /* \"#utility.yul\":6780:6859   */\n      tag_620\n      tag_463\n      jump\t// in\n    tag_620:\n        /* \"#utility.yul\":6749:6861   */\n    tag_619:\n        /* \"#utility.yul\":6870:6924   */\n      tag_621\n        /* \"#utility.yul\":6917:6923   */\n      dup5\n        /* \"#utility.yul\":6912:6915   */\n      dup3\n        /* \"#utility.yul\":6907:6910   */\n      dup6\n        /* \"#utility.yul\":6870:6924   */\n      tag_467\n      jump\t// in\n    tag_621:\n        /* \"#utility.yul\":6590:6930   */\n      pop\n        /* \"#utility.yul\":6507:6930   */\n      swap4\n      swap3\n      pop\n      pop\n      pop\n      jump\t// out\n        /* \"#utility.yul\":6949:7287   */\n    tag_469:\n        /* \"#utility.yul\":7004:7009   */\n      0x00\n        /* \"#utility.yul\":7053:7056   */\n      dup3\n        /* \"#utility.yul\":7046:7050   */\n      0x1f\n        /* \"#utility.yul\":7038:7044   */\n      dup4\n        /* \"#utility.yul\":7034:7051   */\n      add\n        /* \"#utility.yul\":7030:7057   */\n      slt\n        /* \"#utility.yul\":7020:7142   */\n      tag_623\n      jumpi\n        /* \"#utility.yul\":7061:7140   */\n      tag_624\n      tag_462\n      jump\t// in\n    tag_624:\n        /* \"#utility.yul\":7020:7142   */\n    tag_623:\n        /* \"#utility.yul\":7178:7184   */\n      dup2\n        /* \"#utility.yul\":7165:7185   */\n      calldataload\n        /* \"#utility.yul\":7203:7281   */\n      tag_625\n        /* \"#utility.yul\":7277:7280   */\n      dup5\n        /* \"#utility.yul\":7269:7275   */\n      dup3\n        /* \"#utility.yul\":7262:7266   */\n      0x20\n        /* \"#utility.yul\":7254:7260   */\n      dup7\n        /* \"#utility.yul\":7250:7267   */\n      add\n        /* \"#utility.yul\":7203:7281   */\n      tag_468\n      jump\t// in\n    tag_625:\n        /* \"#utility.yul\":7194:7281   */\n      swap2\n      pop\n        /* \"#utility.yul\":7010:7287   */\n      pop\n        /* \"#utility.yul\":6949:7287   */\n      swap3\n      swap2\n      pop\n      pop\n      jump\t// out\n        /* \"#utility.yul\":7293:7945   */\n    tag_74:\n        /* \"#utility.yul\":7370:7376   */\n      0x00\n        /* \"#utility.yul\":7378:7384   */\n      dup1\n        /* \"#utility.yul\":7427:7429   */\n      0x40\n        /* \"#utility.yul\":7415:7424   */\n      dup4\n        /* \"#utility.yul\":7406:7413   */\n      dup6\n        /* \"#utility.yul\":7402:7425   */\n      sub\n        /* \"#utility.yul\":7398:7430   */\n      slt\n        /* \"#utility.yul\":7395:7514   */\n      iszero\n      tag_627\n      jumpi\n        /* \"#utility.yul\":7433:7512   */\n      tag_628\n      tag_448\n      jump\t// in\n    tag_628:\n        /* \"#utility.yul\":7395:7514   */\n    tag_627:\n        /* \"#utility.yul\":7553:7554   */\n      0x00\n        /* \"#utility.yul\":7578:7631   */\n      tag_629\n        /* \"#utility.yul\":7623:7630   */\n      dup6\n        /* \"#utility.yul\":7614:7620   */\n      dup3\n        /* \"#utility.yul\":7603:7612   */\n      dup7\n        /* \"#utility.yul\":7599:7621   */\n      add\n        /* \"#utility.yul\":7578:7631   */\n      tag_453\n      jump\t// in\n    tag_629:\n        /* \"#utility.yul\":7568:7631   */\n      swap3\n      pop\n        /* \"#utility.yul\":7524:7641   */\n      pop\n        /* \"#utility.yul\":7708:7710   */\n      0x20\n        /* \"#utility.yul\":7697:7706   */\n      dup4\n        /* \"#utility.yul\":7693:7711   */\n      add\n        /* \"#utility.yul\":7680:7712   */\n      calldataload\n        /* \"#utility.yul\":7739:7757   */\n      0xffffffffffffffff\n        /* \"#utility.yul\":7731:7737   */\n      dup2\n        /* \"#utility.yul\":7728:7758   */\n      gt\n        /* \"#utility.yul\":7725:7842   */\n      iszero\n      tag_630\n      jumpi\n        /* \"#utility.yul\":7761:7840   */\n      tag_631\n      tag_449\n      jump\t// in\n    tag_631:\n        /* \"#utility.yul\":7725:7842   */\n    tag_630:\n        /* \"#utility.yul\":7866:7928   */\n      tag_632\n        /* \"#utility.yul\":7920:7927   */\n      dup6\n        /* \"#utility.yul\":7911:7917   */\n      dup3\n        /* \"#utility.yul\":7900:7909   */\n      dup7\n        /* \"#utility.yul\":7896:7918   */\n      add\n        /* \"#utility.yul\":7866:7928   */\n      tag_469\n      jump\t// in\n    tag_632:\n        /* \"#utility.yul\":7856:7928   */\n      swap2\n      pop\n        /* \"#utility.yul\":7651:7938   */\n      pop\n        /* \"#utility.yul\":7293:7945   */\n      swap3\n      pop\n      swap3\n      swap1\n      pop\n      jump\t// out\n        /* \"#utility.yul\":7951:8028   */\n    tag_470:\n        /* \"#utility.yul\":7988:7995   */\n      0x00\n        /* \"#utility.yul\":8017:8022   */\n      dup2\n        /* \"#utility.yul\":8006:8022   */\n      swap1\n      pop\n        /* \"#utility.yul\":7951:8028   */\n      swap2\n      swap1\n      pop\n      jump\t// out\n        /* \"#utility.yul\":8034:8152   */\n    tag_471:\n        /* \"#utility.yul\":8121:8145   */\n      tag_635\n        /* \"#utility.yul\":8139:8144   */\n      dup2\n        /* \"#utility.yul\":8121:8145   */\n      tag_470\n      jump\t// in\n    tag_635:\n        /* \"#utility.yul\":8116:8119   */\n      dup3\n        /* \"#utility.yul\":8109:8146   */\n      mstore\n        /* \"#utility.yul\":8034:8152   */\n      pop\n      pop\n      jump\t// out\n        /* \"#utility.yul\":8158:8380   */\n    tag_80:\n        /* \"#utility.yul\":8251:8255   */\n      0x00\n        /* \"#utility.yul\":8289:8291   */\n      0x20\n        /* \"#utility.yul\":8278:8287   */\n      dup3\n        /* \"#utility.yul\":8274:8292   */\n      add\n        /* \"#utility.yul\":8266:8292   */\n      swap1\n      pop\n        /* \"#utility.yul\":8302:8373   */\n      tag_637\n        /* \"#utility.yul\":8370:8371   */\n      0x00\n        /* \"#utility.yul\":8359:8368   */\n      dup4\n        /* \"#utility.yul\":8355:8372   */\n      add\n        /* \"#utility.yul\":8346:8352   */\n      dup5\n        /* \"#utility.yul\":8302:8373   */\n      tag_471\n      jump\t// in\n    tag_637:\n        /* \"#utility.yul\":8158:8380   */\n      swap3\n      swap2\n      pop\n      pop\n      jump\t// out\n        /* \"#utility.yul\":8386:8504   */\n    tag_472:\n        /* \"#utility.yul\":8473:8497   */\n      tag_639\n        /* \"#utility.yul\":8491:8496   */\n      dup2\n        /* \"#utility.yul\":8473:8497   */\n      tag_451\n      jump\t// in\n    tag_639:\n        /* \"#utility.yul\":8468:8471   */\n      dup3\n        /* \"#utility.yul\":8461:8498   */\n      mstore\n        /* \"#utility.yul\":8386:8504   */\n      pop\n      pop\n      jump\t// out\n        /* \"#utility.yul\":8510:8732   */\n    tag_103:\n        /* \"#utility.yul\":8603:8607   */\n      0x00\n        /* \"#utility.yul\":8641:8643   */\n      0x20\n        /* \"#utility.yul\":8630:8639   */\n      dup3\n        /* \"#utility.yul\":8626:8644   */\n      add\n        /* \"#utility.yul\":8618:8644   */\n      swap1\n      pop\n        /* \"#utility.yul\":8654:8725   */\n      tag_641\n        /* \"#utility.yul\":8722:8723   */\n      0x00\n        /* \"#utility.yul\":8711:8720   */\n      dup4\n        /* \"#utility.yul\":8707:8724   */\n      add\n        /* \"#utility.yul\":8698:8704   */\n      dup5\n        /* \"#utility.yul\":8654:8725   */\n      tag_472\n      jump\t// in\n    tag_641:\n        /* \"#utility.yul\":8510:8732   */\n      swap3\n      swap2\n      pop\n      pop\n      jump\t// out\n        /* \"#utility.yul\":8738:9212   */\n    tag_121:\n        /* \"#utility.yul\":8806:8812   */\n      0x00\n        /* \"#utility.yul\":8814:8820   */\n      dup1\n        /* \"#utility.yul\":8863:8865   */\n      0x40\n        /* \"#utility.yul\":8851:8860   */\n      dup4\n        /* \"#utility.yul\":8842:8849   */\n      dup6\n        /* \"#utility.yul\":8838:8861   */\n      sub\n        /* \"#utility.yul\":8834:8866   */\n      slt\n        /* \"#utility.yul\":8831:8950   */\n      iszero\n      tag_643\n      jumpi\n        /* \"#utility.yul\":8869:8948   */\n      tag_644\n      tag_448\n      jump\t// in\n    tag_644:\n        /* \"#utility.yul\":8831:8950   */\n    tag_643:\n        /* \"#utility.yul\":8989:8990   */\n      0x00\n        /* \"#utility.yul\":9014:9067   */\n      tag_645\n        /* \"#utility.yul\":9059:9066   */\n      dup6\n        /* \"#utility.yul\":9050:9056   */\n      dup3\n        /* \"#utility.yul\":9039:9048   */\n      dup7\n        /* \"#utility.yul\":9035:9057   */\n      add\n        /* \"#utility.yul\":9014:9067   */\n      tag_453\n      jump\t// in\n    tag_645:\n        /* \"#utility.yul\":9004:9067   */\n      swap3\n      pop\n        /* \"#utility.yul\":8960:9077   */\n      pop\n        /* \"#utility.yul\":9116:9118   */\n      0x20\n        /* \"#utility.yul\":9142:9195   */\n      tag_646\n        /* \"#utility.yul\":9187:9194   */\n      dup6\n        /* \"#utility.yul\":9178:9184   */\n      dup3\n        /* \"#utility.yul\":9167:9176   */\n      dup7\n        /* \"#utility.yul\":9163:9185   */\n      add\n        /* \"#utility.yul\":9142:9195   */\n      tag_453\n      jump\t// in\n    tag_646:\n        /* \"#utility.yul\":9132:9195   */\n      swap2\n      pop\n        /* \"#utility.yul\":9087:9205   */\n      pop\n        /* \"#utility.yul\":8738:9212   */\n      swap3\n      pop\n      swap3\n      swap1\n      pop\n      jump\t// out\n        /* \"#utility.yul\":9218:9398   */\n    tag_473:\n        /* \"#utility.yul\":9266:9343   */\n      0x4e487b7100000000000000000000000000000000000000000000000000000000\n        /* \"#utility.yul\":9263:9264   */\n      0x00\n        /* \"#utility.yul\":9256:9344   */\n      mstore\n        /* \"#utility.yul\":9363:9367   */\n      0x22\n        /* \"#utility.yul\":9360:9361   */\n      0x04\n        /* \"#utility.yul\":9353:9368   */\n      mstore\n        /* \"#utility.yul\":9387:9391   */\n      0x24\n        /* \"#utility.yul\":9384:9385   */\n      0x00\n        /* \"#utility.yul\":9377:9392   */\n      revert\n        /* \"#utility.yul\":9404:9724   */\n    tag_130:\n        /* \"#utility.yul\":9448:9454   */\n      0x00\n        /* \"#utility.yul\":9485:9486   */\n      0x02\n        /* \"#utility.yul\":9479:9483   */\n      dup3\n        /* \"#utility.yul\":9475:9487   */\n      div\n        /* \"#utility.yul\":9465:9487   */\n      swap1\n      pop\n        /* \"#utility.yul\":9532:9533   */\n      0x01\n        /* \"#utility.yul\":9526:9530   */\n      dup3\n        /* \"#utility.yul\":9522:9534   */\n      and\n        /* \"#utility.yul\":9553:9571   */\n      dup1\n        /* \"#utility.yul\":9543:9624   */\n      tag_649\n      jumpi\n        /* \"#utility.yul\":9609:9613   */\n      0x7f\n        /* \"#utility.yul\":9601:9607   */\n      dup3\n        /* \"#utility.yul\":9597:9614   */\n      and\n        /* \"#utility.yul\":9587:9614   */\n      swap2\n      pop\n        /* \"#utility.yul\":9543:9624   */\n    tag_649:\n        /* \"#utility.yul\":9671:9673   */\n      0x20\n        /* \"#utility.yul\":9663:9669   */\n      dup3\n        /* \"#utility.yul\":9660:9674   */\n      lt\n        /* \"#utility.yul\":9640:9658   */\n      dup2\n        /* \"#utility.yul\":9637:9675   */\n      sub\n        /* \"#utility.yul\":9634:9718   */\n      tag_650\n      jumpi\n        /* \"#utility.yul\":9690:9708   */\n      tag_651\n      tag_473\n      jump\t// in\n    tag_651:\n        /* \"#utility.yul\":9634:9718   */\n    tag_650:\n        /* \"#utility.yul\":9455:9724   */\n      pop\n        /* \"#utility.yul\":9404:9724   */\n      swap2\n      swap1\n      pop\n      jump\t// out\n        /* \"#utility.yul\":9730:9961   */\n    tag_474:\n        /* \"#utility.yul\":9870:9904   */\n      0x46756e6374696f6e206d7573742062652063616c6c6564207468726f75676820\n        /* \"#utility.yul\":9866:9867   */\n      0x00\n        /* \"#utility.yul\":9858:9864   */\n      dup3\n        /* \"#utility.yul\":9854:9868   */\n      add\n        /* \"#utility.yul\":9847:9905   */\n      mstore\n        /* \"#utility.yul\":9939:9953   */\n      0x64656c656761746563616c6c0000000000000000000000000000000000000000\n        /* \"#utility.yul\":9934:9936   */\n      0x20\n        /* \"#utility.yul\":9926:9932   */\n      dup3\n        /* \"#utility.yul\":9922:9937   */\n      add\n        /* \"#utility.yul\":9915:9954   */\n      mstore\n        /* \"#utility.yul\":9730:9961   */\n      pop\n      jump\t// out\n        /* \"#utility.yul\":9967:10333   */\n    tag_475:\n        /* \"#utility.yul\":10109:10112   */\n      0x00\n        /* \"#utility.yul\":10130:10197   */\n      tag_654\n        /* \"#utility.yul\":10194:10196   */\n      0x2c\n        /* \"#utility.yul\":10189:10192   */\n      dup4\n        /* \"#utility.yul\":10130:10197   */\n      tag_443\n      jump\t// in\n    tag_654:\n        /* \"#utility.yul\":10123:10197   */\n      swap2\n      pop\n        /* \"#utility.yul\":10206:10299   */\n      tag_655\n        /* \"#utility.yul\":10295:10298   */\n      dup3\n        /* \"#utility.yul\":10206:10299   */\n      tag_474\n      jump\t// in\n    tag_655:\n        /* \"#utility.yul\":10324:10326   */\n      0x40\n        /* \"#utility.yul\":10319:10322   */\n      dup3\n        /* \"#utility.yul\":10315:10327   */\n      add\n        /* \"#utility.yul\":10308:10327   */\n      swap1\n      pop\n        /* \"#utility.yul\":9967:10333   */\n      swap2\n      swap1\n      pop\n      jump\t// out\n        /* \"#utility.yul\":10339:10758   */\n    tag_151:\n        /* \"#utility.yul\":10505:10509   */\n      0x00\n        /* \"#utility.yul\":10543:10545   */\n      0x20\n        /* \"#utility.yul\":10532:10541   */\n      dup3\n        /* \"#utility.yul\":10528:10546   */\n      add\n        /* \"#utility.yul\":10520:10546   */\n      swap1\n      pop\n        /* \"#utility.yul\":10592:10601   */\n      dup2\n        /* \"#utility.yul\":10586:10590   */\n      dup2\n        /* \"#utility.yul\":10582:10602   */\n      sub\n        /* \"#utility.yul\":10578:10579   */\n      0x00\n        /* \"#utility.yul\":10567:10576   */\n      dup4\n        /* \"#utility.yul\":10563:10580   */\n      add\n        /* \"#utility.yul\":10556:10603   */\n      mstore\n        /* \"#utility.yul\":10620:10751   */\n      tag_657\n        /* \"#utility.yul\":10746:10750   */\n      dup2\n        /* \"#utility.yul\":10620:10751   */\n      tag_475\n      jump\t// in\n    tag_657:\n        /* \"#utility.yul\":10612:10751   */\n      swap1\n      pop\n        /* \"#utility.yul\":10339:10758   */\n      swap2\n      swap1\n      pop\n      jump\t// out\n        /* \"#utility.yul\":10764:10995   */\n    tag_476:\n        /* \"#utility.yul\":10904:10938   */\n      0x46756e6374696f6e206d7573742062652063616c6c6564207468726f75676820\n        /* \"#utility.yul\":10900:10901   */\n      0x00\n        /* \"#utility.yul\":10892:10898   */\n      dup3\n        /* \"#utility.yul\":10888:10902   */\n      add\n        /* \"#utility.yul\":10881:10939   */\n      mstore\n        /* \"#utility.yul\":10973:10987   */\n      0x6163746976652070726f78790000000000000000000000000000000000000000\n        /* \"#utility.yul\":10968:10970   */\n      0x20\n        /* \"#utility.yul\":10960:10966   */\n      dup3\n        /* \"#utility.yul\":10956:10971   */\n      add\n        /* \"#utility.yul\":10949:10988   */\n      mstore\n        /* \"#utility.yul\":10764:10995   */\n      pop\n      jump\t// out\n        /* \"#utility.yul\":11001:11367   */\n    tag_477:\n        /* \"#utility.yul\":11143:11146   */\n      0x00\n        /* \"#utility.yul\":11164:11231   */\n      tag_660\n        /* \"#utility.yul\":11228:11230   */\n      0x2c\n        /* \"#utility.yul\":11223:11226   */\n      dup4\n        /* \"#utility.yul\":11164:11231   */\n      tag_443\n      jump\t// in\n    tag_660:\n        /* \"#utility.yul\":11157:11231   */\n      swap2\n      pop\n        /* \"#utility.yul\":11240:11333   */\n      tag_661\n        /* \"#utility.yul\":11329:11332   */\n      dup3\n        /* \"#utility.yul\":11240:11333   */\n      tag_476\n      jump\t// in\n    tag_661:\n        /* \"#utility.yul\":11358:11360   */\n      0x40\n        /* \"#utility.yul\":11353:11356   */\n      dup3\n        /* \"#utility.yul\":11349:11361   */\n      add\n        /* \"#utility.yul\":11342:11361   */\n      swap1\n      pop\n        /* \"#utility.yul\":11001:11367   */\n      swap2\n      swap1\n      pop\n      jump\t// out\n        /* \"#utility.yul\":11373:11792   */\n    tag_156:\n        /* \"#utility.yul\":11539:11543   */\n      0x00\n        /* \"#utility.yul\":11577:11579   */\n      0x20\n        /* \"#utility.yul\":11566:11575   */\n      dup3\n        /* \"#utility.yul\":11562:11580   */\n      add\n        /* \"#utility.yul\":11554:11580   */\n      swap1\n      pop\n        /* \"#utility.yul\":11626:11635   */\n      dup2\n        /* \"#utility.yul\":11620:11624   */\n      dup2\n        /* \"#utility.yul\":11616:11636   */\n      sub\n        /* \"#utility.yul\":11612:11613   */\n      0x00\n        /* \"#utility.yul\":11601:11610   */\n      dup4\n        /* \"#utility.yul\":11597:11614   */\n      add\n        /* \"#utility.yul\":11590:11637   */\n      mstore\n        /* \"#utility.yul\":11654:11785   */\n      tag_663\n        /* \"#utility.yul\":11780:11784   */\n      dup2\n        /* \"#utility.yul\":11654:11785   */\n      tag_477\n      jump\t// in\n    tag_663:\n        /* \"#utility.yul\":11646:11785   */\n      swap1\n      pop\n        /* \"#utility.yul\":11373:11792   */\n      swap2\n      swap1\n      pop\n      jump\t// out\n        /* \"#utility.yul\":11798:11978   */\n    tag_478:\n        /* \"#utility.yul\":11846:11923   */\n      0x4e487b7100000000000000000000000000000000000000000000000000000000\n        /* \"#utility.yul\":11843:11844   */\n      0x00\n        /* \"#utility.yul\":11836:11924   */\n      mstore\n        /* \"#utility.yul\":11943:11947   */\n      0x11\n        /* \"#utility.yul\":11940:11941   */\n      0x04\n        /* \"#utility.yul\":11933:11948   */\n      mstore\n        /* \"#utility.yul\":11967:11971   */\n      0x24\n        /* \"#utility.yul\":11964:11965   */\n      0x00\n        /* \"#utility.yul\":11957:11972   */\n      revert\n        /* \"#utility.yul\":11984:12175   */\n    tag_171:\n        /* \"#utility.yul\":12024:12027   */\n      0x00\n        /* \"#utility.yul\":12043:12063   */\n      tag_666\n        /* \"#utility.yul\":12061:12062   */\n      dup3\n        /* \"#utility.yul\":12043:12063   */\n      tag_454\n      jump\t// in\n    tag_666:\n        /* \"#utility.yul\":12038:12063   */\n      swap2\n      pop\n        /* \"#utility.yul\":12077:12097   */\n      tag_667\n        /* \"#utility.yul\":12095:12096   */\n      dup4\n        /* \"#utility.yul\":12077:12097   */\n      tag_454\n      jump\t// in\n    tag_667:\n        /* \"#utility.yul\":12072:12097   */\n      swap3\n      pop\n        /* \"#utility.yul\":12120:12121   */\n      dup3\n        /* \"#utility.yul\":12117:12118   */\n      dup3\n        /* \"#utility.yul\":12113:12122   */\n      add\n        /* \"#utility.yul\":12106:12122   */\n      swap1\n      pop\n        /* \"#utility.yul\":12141:12144   */\n      dup1\n        /* \"#utility.yul\":12138:12139   */\n      dup3\n        /* \"#utility.yul\":12135:12145   */\n      gt\n        /* \"#utility.yul\":12132:12168   */\n      iszero\n      tag_668\n      jumpi\n        /* \"#utility.yul\":12148:12166   */\n      tag_669\n      tag_478\n      jump\t// in\n    tag_669:\n        /* \"#utility.yul\":12132:12168   */\n    tag_668:\n        /* \"#utility.yul\":11984:12175   */\n      swap3\n      swap2\n      pop\n      pop\n      jump\t// out\n        /* \"#utility.yul\":12181:12424   */\n    tag_479:\n        /* \"#utility.yul\":12321:12355   */\n      0x555550535570677261646561626c653a206d757374206e6f742062652063616c\n        /* \"#utility.yul\":12317:12318   */\n      0x00\n        /* \"#utility.yul\":12309:12315   */\n      dup3\n        /* \"#utility.yul\":12305:12319   */\n      add\n        /* \"#utility.yul\":12298:12356   */\n      mstore\n        /* \"#utility.yul\":12390:12416   */\n      0x6c6564207468726f7567682064656c656761746563616c6c0000000000000000\n        /* \"#utility.yul\":12385:12387   */\n      0x20\n        /* \"#utility.yul\":12377:12383   */\n      dup3\n        /* \"#utility.yul\":12373:12388   */\n      add\n        /* \"#utility.yul\":12366:12417   */\n      mstore\n        /* \"#utility.yul\":12181:12424   */\n      pop\n      jump\t// out\n        /* \"#utility.yul\":12430:12796   */\n    tag_480:\n        /* \"#utility.yul\":12572:12575   */\n      0x00\n        /* \"#utility.yul\":12593:12660   */\n      tag_672\n        /* \"#utility.yul\":12657:12659   */\n      0x38\n        /* \"#utility.yul\":12652:12655   */\n      dup4\n        /* \"#utility.yul\":12593:12660   */\n      tag_443\n      jump\t// in\n    tag_672:\n        /* \"#utility.yul\":12586:12660   */\n      swap2\n      pop\n        /* \"#utility.yul\":12669:12762   */\n      tag_673\n        /* \"#utility.yul\":12758:12761   */\n      dup3\n        /* \"#utility.yul\":12669:12762   */\n      tag_479\n      jump\t// in\n    tag_673:\n        /* \"#utility.yul\":12787:12789   */\n      0x40\n        /* \"#utility.yul\":12782:12785   */\n      dup3\n        /* \"#utility.yul\":12778:12790   */\n      add\n        /* \"#utility.yul\":12771:12790   */\n      swap1\n      pop\n        /* \"#utility.yul\":12430:12796   */\n      swap2\n      swap1\n      pop\n      jump\t// out\n        /* \"#utility.yul\":12802:13221   */\n    tag_195:\n        /* \"#utility.yul\":12968:12972   */\n      0x00\n        /* \"#utility.yul\":13006:13008   */\n      0x20\n        /* \"#utility.yul\":12995:13004   */\n      dup3\n        /* \"#utility.yul\":12991:13009   */\n      add\n        /* \"#utility.yul\":12983:13009   */\n      swap1\n      pop\n        /* \"#utility.yul\":13055:13064   */\n      dup2\n        /* \"#utility.yul\":13049:13053   */\n      dup2\n        /* \"#utility.yul\":13045:13065   */\n      sub\n        /* \"#utility.yul\":13041:13042   */\n      0x00\n        /* \"#utility.yul\":13030:13039   */\n      dup4\n        /* \"#utility.yul\":13026:13043   */\n      add\n        /* \"#utility.yul\":13019:13066   */\n      mstore\n        /* \"#utility.yul\":13083:13214   */\n      tag_675\n        /* \"#utility.yul\":13209:13213   */\n      dup2\n        /* \"#utility.yul\":13083:13214   */\n      tag_480\n      jump\t// in\n    tag_675:\n        /* \"#utility.yul\":13075:13214   */\n      swap1\n      pop\n        /* \"#utility.yul\":12802:13221   */\n      swap2\n      swap1\n      pop\n      jump\t// out\n        /* \"#utility.yul\":13227:13460   */\n    tag_481:\n        /* \"#utility.yul\":13367:13401   */\n      0x496e697469616c697a61626c653a20636f6e747261637420697320616c726561\n        /* \"#utility.yul\":13363:13364   */\n      0x00\n        /* \"#utility.yul\":13355:13361   */\n      dup3\n        /* \"#utility.yul\":13351:13365   */\n      add\n        /* \"#utility.yul\":13344:13402   */\n      mstore\n        /* \"#utility.yul\":13436:13452   */\n      0x647920696e697469616c697a6564000000000000000000000000000000000000\n        /* \"#utility.yul\":13431:13433   */\n      0x20\n        /* \"#utility.yul\":13423:13429   */\n      dup3\n        /* \"#utility.yul\":13419:13434   */\n      add\n        /* \"#utility.yul\":13412:13453   */\n      mstore\n        /* \"#utility.yul\":13227:13460   */\n      pop\n      jump\t// out\n        /* \"#utility.yul\":13466:13832   */\n    tag_482:\n        /* \"#utility.yul\":13608:13611   */\n      0x00\n        /* \"#utility.yul\":13629:13696   */\n      tag_678\n        /* \"#utility.yul\":13693:13695   */\n      0x2e\n        /* \"#utility.yul\":13688:13691   */\n      dup4\n        /* \"#utility.yul\":13629:13696   */\n      tag_443\n      jump\t// in\n    tag_678:\n        /* \"#utility.yul\":13622:13696   */\n      swap2\n      pop\n        /* \"#utility.yul\":13705:13798   */\n      tag_679\n        /* \"#utility.yul\":13794:13797   */\n      dup3\n        /* \"#utility.yul\":13705:13798   */\n      tag_481\n      jump\t// in\n    tag_679:\n        /* \"#utility.yul\":13823:13825   */\n      0x40\n        /* \"#utility.yul\":13818:13821   */\n      dup3\n        /* \"#utility.yul\":13814:13826   */\n      add\n        /* \"#utility.yul\":13807:13826   */\n      swap1\n      pop\n        /* \"#utility.yul\":13466:13832   */\n      swap2\n      swap1\n      pop\n      jump\t// out\n        /* \"#utility.yul\":13838:14257   */\n    tag_212:\n        /* \"#utility.yul\":14004:14008   */\n      0x00\n        /* \"#utility.yul\":14042:14044   */\n      0x20\n        /* \"#utility.yul\":14031:14040   */\n      dup3\n        /* \"#utility.yul\":14027:14045   */\n      add\n        /* \"#utility.yul\":14019:14045   */\n      swap1\n      pop\n        /* \"#utility.yul\":14091:14100   */\n      dup2\n        /* \"#utility.yul\":14085:14089   */\n      dup2\n        /* \"#utility.yul\":14081:14101   */\n      sub\n        /* \"#utility.yul\":14077:14078   */\n      0x00\n        /* \"#utility.yul\":14066:14075   */\n      dup4\n        /* \"#utility.yul\":14062:14079   */\n      add\n        /* \"#utility.yul\":14055:14102   */\n      mstore\n        /* \"#utility.yul\":14119:14250   */\n      tag_681\n        /* \"#utility.yul\":14245:14249   */\n      dup2\n        /* \"#utility.yul\":14119:14250   */\n      tag_482\n      jump\t// in\n    tag_681:\n        /* \"#utility.yul\":14111:14250   */\n      swap1\n      pop\n        /* \"#utility.yul\":13838:14257   */\n      swap2\n      swap1\n      pop\n      jump\t// out\n        /* \"#utility.yul\":14263:14348   */\n    tag_483:\n        /* \"#utility.yul\":14308:14315   */\n      0x00\n        /* \"#utility.yul\":14337:14342   */\n      dup2\n        /* \"#utility.yul\":14326:14342   */\n      swap1\n      pop\n        /* \"#utility.yul\":14263:14348   */\n      swap2\n      swap1\n      pop\n      jump\t// out\n        /* \"#utility.yul\":14354:14414   */\n    tag_484:\n        /* \"#utility.yul\":14382:14385   */\n      0x00\n        /* \"#utility.yul\":14403:14408   */\n      dup2\n        /* \"#utility.yul\":14396:14408   */\n      swap1\n      pop\n        /* \"#utility.yul\":14354:14414   */\n      swap2\n      swap1\n      pop\n      jump\t// out\n        /* \"#utility.yul\":14420:14574   */\n    tag_485:\n        /* \"#utility.yul\":14476:14485   */\n      0x00\n        /* \"#utility.yul\":14509:14568   */\n      tag_685\n        /* \"#utility.yul\":14525:14567   */\n      tag_686\n        /* \"#utility.yul\":14534:14566   */\n      tag_687\n        /* \"#utility.yul\":14560:14565   */\n      dup5\n        /* \"#utility.yul\":14534:14566   */\n      tag_483\n      jump\t// in\n    tag_687:\n        /* \"#utility.yul\":14525:14567   */\n      tag_484\n      jump\t// in\n    tag_686:\n        /* \"#utility.yul\":14509:14568   */\n      tag_460\n      jump\t// in\n    tag_685:\n        /* \"#utility.yul\":14496:14568   */\n      swap1\n      pop\n        /* \"#utility.yul\":14420:14574   */\n      swap2\n      swap1\n      pop\n      jump\t// out\n        /* \"#utility.yul\":14580:14723   */\n    tag_486:\n        /* \"#utility.yul\":14673:14716   */\n      tag_689\n        /* \"#utility.yul\":14710:14715   */\n      dup2\n        /* \"#utility.yul\":14673:14716   */\n      tag_485\n      jump\t// in\n    tag_689:\n        /* \"#utility.yul\":14668:14671   */\n      dup3\n        /* \"#utility.yul\":14661:14717   */\n      mstore\n        /* \"#utility.yul\":14580:14723   */\n      pop\n      pop\n      jump\t// out\n        /* \"#utility.yul\":14729:14963   */\n    tag_225:\n        /* \"#utility.yul\":14828:14832   */\n      0x00\n        /* \"#utility.yul\":14866:14868   */\n      0x20\n        /* \"#utility.yul\":14855:14864   */\n      dup3\n        /* \"#utility.yul\":14851:14869   */\n      add\n        /* \"#utility.yul\":14843:14869   */\n      swap1\n      pop\n        /* \"#utility.yul\":14879:14956   */\n      tag_691\n        /* \"#utility.yul\":14953:14954   */\n      0x00\n        /* \"#utility.yul\":14942:14951   */\n      dup4\n        /* \"#utility.yul\":14938:14955   */\n      add\n        /* \"#utility.yul\":14929:14935   */\n      dup5\n        /* \"#utility.yul\":14879:14956   */\n      tag_486\n      jump\t// in\n    tag_691:\n        /* \"#utility.yul\":14729:14963   */\n      swap3\n      swap2\n      pop\n      pop\n      jump\t// out\n        /* \"#utility.yul\":14969:15193   */\n    tag_487:\n        /* \"#utility.yul\":15109:15143   */\n      0x45524332303a2064656372656173656420616c6c6f77616e63652062656c6f77\n        /* \"#utility.yul\":15105:15106   */\n      0x00\n        /* \"#utility.yul\":15097:15103   */\n      dup3\n        /* \"#utility.yul\":15093:15107   */\n      add\n        /* \"#utility.yul\":15086:15144   */\n      mstore\n        /* \"#utility.yul\":15178:15185   */\n      0x207a65726f000000000000000000000000000000000000000000000000000000\n        /* \"#utility.yul\":15173:15175   */\n      0x20\n        /* \"#utility.yul\":15165:15171   */\n      dup3\n        /* \"#utility.yul\":15161:15176   */\n      add\n        /* \"#utility.yul\":15154:15186   */\n      mstore\n        /* \"#utility.yul\":14969:15193   */\n      pop\n      jump\t// out\n        /* \"#utility.yul\":15199:15565   */\n    tag_488:\n        /* \"#utility.yul\":15341:15344   */\n      0x00\n        /* \"#utility.yul\":15362:15429   */\n      tag_694\n        /* \"#utility.yul\":15426:15428   */\n      0x25\n        /* \"#utility.yul\":15421:15424   */\n      dup4\n        /* \"#utility.yul\":15362:15429   */\n      tag_443\n      jump\t// in\n    tag_694:\n        /* \"#utility.yul\":15355:15429   */\n      swap2\n      pop\n        /* \"#utility.yul\":15438:15531   */\n      tag_695\n        /* \"#utility.yul\":15527:15530   */\n      dup3\n        /* \"#utility.yul\":15438:15531   */\n      tag_487\n      jump\t// in\n    tag_695:\n        /* \"#utility.yul\":15556:15558   */\n      0x40\n        /* \"#utility.yul\":15551:15554   */\n      dup3\n        /* \"#utility.yul\":15547:15559   */\n      add\n        /* \"#utility.yul\":15540:15559   */\n      swap1\n      pop\n        /* \"#utility.yul\":15199:15565   */\n      swap2\n      swap1\n      pop\n      jump\t// out\n        /* \"#utility.yul\":15571:15990   */\n    tag_243:\n        /* \"#utility.yul\":15737:15741   */\n      0x00\n        /* \"#utility.yul\":15775:15777   */\n      0x20\n        /* \"#utility.yul\":15764:15773   */\n      dup3\n        /* \"#utility.yul\":15760:15778   */\n      add\n        /* \"#utility.yul\":15752:15778   */\n      swap1\n      pop\n        /* \"#utility.yul\":15824:15833   */\n      dup2\n        /* \"#utility.yul\":15818:15822   */\n      dup2\n        /* \"#utility.yul\":15814:15834   */\n      sub\n        /* \"#utility.yul\":15810:15811   */\n      0x00\n        /* \"#utility.yul\":15799:15808   */\n      dup4\n        /* \"#utility.yul\":15795:15812   */\n      add\n        /* \"#utility.yul\":15788:15835   */\n      mstore\n        /* \"#utility.yul\":15852:15983   */\n      tag_697\n        /* \"#utility.yul\":15978:15982   */\n      dup2\n        /* \"#utility.yul\":15852:15983   */\n      tag_488\n      jump\t// in\n    tag_697:\n        /* \"#utility.yul\":15844:15983   */\n      swap1\n      pop\n        /* \"#utility.yul\":15571:15990   */\n      swap2\n      swap1\n      pop\n      jump\t// out\n        /* \"#utility.yul\":15996:16221   */\n    tag_489:\n        /* \"#utility.yul\":16136:16170   */\n      0x4f776e61626c653a206e6577206f776e657220697320746865207a65726f2061\n        /* \"#utility.yul\":16132:16133   */\n      0x00\n        /* \"#utility.yul\":16124:16130   */\n      dup3\n        /* \"#utility.yul\":16120:16134   */\n      add\n        /* \"#utility.yul\":16113:16171   */\n      mstore\n        /* \"#utility.yul\":16205:16213   */\n      0x6464726573730000000000000000000000000000000000000000000000000000\n        /* \"#utility.yul\":16200:16202   */\n      0x20\n        /* \"#utility.yul\":16192:16198   */\n      dup3\n        /* \"#utility.yul\":16188:16203   */\n      add\n        /* \"#utility.yul\":16181:16214   */\n      mstore\n        /* \"#utility.yul\":15996:16221   */\n      pop\n      jump\t// out\n        /* \"#utility.yul\":16227:16593   */\n    tag_490:\n        /* \"#utility.yul\":16369:16372   */\n      0x00\n        /* \"#utility.yul\":16390:16457   */\n      tag_700\n        /* \"#utility.yul\":16454:16456   */\n      0x26\n        /* \"#utility.yul\":16449:16452   */\n      dup4\n        /* \"#utility.yul\":16390:16457   */\n      tag_443\n      jump\t// in\n    tag_700:\n        /* \"#utility.yul\":16383:16457   */\n      swap2\n      pop\n        /* \"#utility.yul\":16466:16559   */\n      tag_701\n        /* \"#utility.yul\":16555:16558   */\n      dup3\n        /* \"#utility.yul\":16466:16559   */\n      tag_489\n      jump\t// in\n    tag_701:\n        /* \"#utility.yul\":16584:16586   */\n      0x40\n        /* \"#utility.yul\":16579:16582   */\n      dup3\n        /* \"#utility.yul\":16575:16587   */\n      add\n        /* \"#utility.yul\":16568:16587   */\n      swap1\n      pop\n        /* \"#utility.yul\":16227:16593   */\n      swap2\n      swap1\n      pop\n      jump\t// out\n        /* \"#utility.yul\":16599:17018   */\n    tag_254:\n        /* \"#utility.yul\":16765:16769   */\n      0x00\n        /* \"#utility.yul\":16803:16805   */\n      0x20\n        /* \"#utility.yul\":16792:16801   */\n      dup3\n        /* \"#utility.yul\":16788:16806   */\n      add\n        /* \"#utility.yul\":16780:16806   */\n      swap1\n      pop\n        /* \"#utility.yul\":16852:16861   */\n      dup2\n        /* \"#utility.yul\":16846:16850   */\n      dup2\n        /* \"#utility.yul\":16842:16862   */\n      sub\n        /* \"#utility.yul\":16838:16839   */\n      0x00\n        /* \"#utility.yul\":16827:16836   */\n      dup4\n        /* \"#utility.yul\":16823:16840   */\n      add\n        /* \"#utility.yul\":16816:16863   */\n      mstore\n        /* \"#utility.yul\":16880:17011   */\n      tag_703\n        /* \"#utility.yul\":17006:17010   */\n      dup2\n        /* \"#utility.yul\":16880:17011   */\n      tag_490\n      jump\t// in\n    tag_703:\n        /* \"#utility.yul\":16872:17011   */\n      swap1\n      pop\n        /* \"#utility.yul\":16599:17018   */\n      swap2\n      swap1\n      pop\n      jump\t// out\n        /* \"#utility.yul\":17024:17247   */\n    tag_491:\n        /* \"#utility.yul\":17164:17198   */\n      0x45524332303a20617070726f76652066726f6d20746865207a65726f20616464\n        /* \"#utility.yul\":17160:17161   */\n      0x00\n        /* \"#utility.yul\":17152:17158   */\n      dup3\n        /* \"#utility.yul\":17148:17162   */\n      add\n        /* \"#utility.yul\":17141:17199   */\n      mstore\n        /* \"#utility.yul\":17233:17239   */\n      0x7265737300000000000000000000000000000000000000000000000000000000\n        /* \"#utility.yul\":17228:17230   */\n      0x20\n        /* \"#utility.yul\":17220:17226   */\n      dup3\n        /* \"#utility.yul\":17216:17231   */\n      add\n        /* \"#utility.yul\":17209:17240   */\n      mstore\n        /* \"#utility.yul\":17024:17247   */\n      pop\n      jump\t// out\n        /* \"#utility.yul\":17253:17619   */\n    tag_492:\n        /* \"#utility.yul\":17395:17398   */\n      0x00\n        /* \"#utility.yul\":17416:17483   */\n      tag_706\n        /* \"#utility.yul\":17480:17482   */\n      0x24\n        /* \"#utility.yul\":17475:17478   */\n      dup4\n        /* \"#utility.yul\":17416:17483   */\n      tag_443\n      jump\t// in\n    tag_706:\n        /* \"#utility.yul\":17409:17483   */\n      swap2\n      pop\n        /* \"#utility.yul\":17492:17585   */\n      tag_707\n        /* \"#utility.yul\":17581:17584   */\n      dup3\n        /* \"#utility.yul\":17492:17585   */\n      tag_491\n      jump\t// in\n    tag_707:\n        /* \"#utility.yul\":17610:17612   */\n      0x40\n        /* \"#utility.yul\":17605:17608   */\n      dup3\n        /* \"#utility.yul\":17601:17613   */\n      add\n        /* \"#utility.yul\":17594:17613   */\n      swap1\n      pop\n        /* \"#utility.yul\":17253:17619   */\n      swap2\n      swap1\n      pop\n      jump\t// out\n        /* \"#utility.yul\":17625:18044   */\n    tag_260:\n        /* \"#utility.yul\":17791:17795   */\n      0x00\n        /* \"#utility.yul\":17829:17831   */\n      0x20\n        /* \"#utility.yul\":17818:17827   */\n      dup3\n        /* \"#utility.yul\":17814:17832   */\n      add\n        /* \"#utility.yul\":17806:17832   */\n      swap1\n      pop\n        /* \"#utility.yul\":17878:17887   */\n      dup2\n        /* \"#utility.yul\":17872:17876   */\n      dup2\n        /* \"#utility.yul\":17868:17888   */\n      sub\n        /* \"#utility.yul\":17864:17865   */\n      0x00\n        /* \"#utility.yul\":17853:17862   */\n      dup4\n        /* \"#utility.yul\":17849:17866   */\n      add\n        /* \"#utility.yul\":17842:17889   */\n      mstore\n        /* \"#utility.yul\":17906:18037   */\n      tag_709\n        /* \"#utility.yul\":18032:18036   */\n      dup2\n        /* \"#utility.yul\":17906:18037   */\n      tag_492\n      jump\t// in\n    tag_709:\n        /* \"#utility.yul\":17898:18037   */\n      swap1\n      pop\n        /* \"#utility.yul\":17625:18044   */\n      swap2\n      swap1\n      pop\n      jump\t// out\n        /* \"#utility.yul\":18050:18271   */\n    tag_493:\n        /* \"#utility.yul\":18190:18224   */\n      0x45524332303a20617070726f766520746f20746865207a65726f206164647265\n        /* \"#utility.yul\":18186:18187   */\n      0x00\n        /* \"#utility.yul\":18178:18184   */\n      dup3\n        /* \"#utility.yul\":18174:18188   */\n      add\n        /* \"#utility.yul\":18167:18225   */\n      mstore\n        /* \"#utility.yul\":18259:18263   */\n      0x7373000000000000000000000000000000000000000000000000000000000000\n        /* \"#utility.yul\":18254:18256   */\n      0x20\n        /* \"#utility.yul\":18246:18252   */\n      dup3\n        /* \"#utility.yul\":18242:18257   */\n      add\n        /* \"#utility.yul\":18235:18264   */\n      mstore\n        /* \"#utility.yul\":18050:18271   */\n      pop\n      jump\t// out\n        /* \"#utility.yul\":18277:18643   */\n    tag_494:\n        /* \"#utility.yul\":18419:18422   */\n      0x00\n        /* \"#utility.yul\":18440:18507   */\n      tag_712\n        /* \"#utility.yul\":18504:18506   */\n      0x22\n        /* \"#utility.yul\":18499:18502   */\n      dup4\n        /* \"#utility.yul\":18440:18507   */\n      tag_443\n      jump\t// in\n    tag_712:\n        /* \"#utility.yul\":18433:18507   */\n      swap2\n      pop\n        /* \"#utility.yul\":18516:18609   */\n      tag_713\n        /* \"#utility.yul\":18605:18608   */\n      dup3\n        /* \"#utility.yul\":18516:18609   */\n      tag_493\n      jump\t// in\n    tag_713:\n        /* \"#utility.yul\":18634:18636   */\n      0x40\n        /* \"#utility.yul\":18629:18632   */\n      dup3\n        /* \"#utility.yul\":18625:18637   */\n      add\n        /* \"#utility.yul\":18618:18637   */\n      swap1\n      pop\n        /* \"#utility.yul\":18277:18643   */\n      swap2\n      swap1\n      pop\n      jump\t// out\n        /* \"#utility.yul\":18649:19068   */\n    tag_263:\n        /* \"#utility.yul\":18815:18819   */\n      0x00\n        /* \"#utility.yul\":18853:18855   */\n      0x20\n        /* \"#utility.yul\":18842:18851   */\n      dup3\n        /* \"#utility.yul\":18838:18856   */\n      add\n        /* \"#utility.yul\":18830:18856   */\n      swap1\n      pop\n        /* \"#utility.yul\":18902:18911   */\n      dup2\n        /* \"#utility.yul\":18896:18900   */\n      dup2\n        /* \"#utility.yul\":18892:18912   */\n      sub\n        /* \"#utility.yul\":18888:18889   */\n      0x00\n        /* \"#utility.yul\":18877:18886   */\n      dup4\n        /* \"#utility.yul\":18873:18890   */\n      add\n        /* \"#utility.yul\":18866:18913   */\n      mstore\n        /* \"#utility.yul\":18930:19061   */\n      tag_715\n        /* \"#utility.yul\":19056:19060   */\n      dup2\n        /* \"#utility.yul\":18930:19061   */\n      tag_494\n      jump\t// in\n    tag_715:\n        /* \"#utility.yul\":18922:19061   */\n      swap1\n      pop\n        /* \"#utility.yul\":18649:19068   */\n      swap2\n      swap1\n      pop\n      jump\t// out\n        /* \"#utility.yul\":19074:19253   */\n    tag_495:\n        /* \"#utility.yul\":19214:19245   */\n      0x45524332303a20696e73756666696369656e7420616c6c6f77616e6365000000\n        /* \"#utility.yul\":19210:19211   */\n      0x00\n        /* \"#utility.yul\":19202:19208   */\n      dup3\n        /* \"#utility.yul\":19198:19212   */\n      add\n        /* \"#utility.yul\":19191:19246   */\n      mstore\n        /* \"#utility.yul\":19074:19253   */\n      pop\n      jump\t// out\n        /* \"#utility.yul\":19259:19625   */\n    tag_496:\n        /* \"#utility.yul\":19401:19404   */\n      0x00\n        /* \"#utility.yul\":19422:19489   */\n      tag_718\n        /* \"#utility.yul\":19486:19488   */\n      0x1d\n        /* \"#utility.yul\":19481:19484   */\n      dup4\n        /* \"#utility.yul\":19422:19489   */\n      tag_443\n      jump\t// in\n    tag_718:\n        /* \"#utility.yul\":19415:19489   */\n      swap2\n      pop\n        /* \"#utility.yul\":19498:19591   */\n      tag_719\n        /* \"#utility.yul\":19587:19590   */\n      dup3\n        /* \"#utility.yul\":19498:19591   */\n      tag_495\n      jump\t// in\n    tag_719:\n        /* \"#utility.yul\":19616:19618   */\n      0x20\n        /* \"#utility.yul\":19611:19614   */\n      dup3\n        /* \"#utility.yul\":19607:19619   */\n      add\n        /* \"#utility.yul\":19600:19619   */\n      swap1\n      pop\n        /* \"#utility.yul\":19259:19625   */\n      swap2\n      swap1\n      pop\n      jump\t// out\n        /* \"#utility.yul\":19631:20050   */\n    tag_270:\n        /* \"#utility.yul\":19797:19801   */\n      0x00\n        /* \"#utility.yul\":19835:19837   */\n      0x20\n        /* \"#utility.yul\":19824:19833   */\n      dup3\n        /* \"#utility.yul\":19820:19838   */\n      add\n        /* \"#utility.yul\":19812:19838   */\n      swap1\n      pop\n        /* \"#utility.yul\":19884:19893   */\n      dup2\n        /* \"#utility.yul\":19878:19882   */\n      dup2\n        /* \"#utility.yul\":19874:19894   */\n      sub\n        /* \"#utility.yul\":19870:19871   */\n      0x00\n        /* \"#utility.yul\":19859:19868   */\n      dup4\n        /* \"#utility.yul\":19855:19872   */\n      add\n        /* \"#utility.yul\":19848:19895   */\n      mstore\n        /* \"#utility.yul\":19912:20043   */\n      tag_721\n        /* \"#utility.yul\":20038:20042   */\n      dup2\n        /* \"#utility.yul\":19912:20043   */\n      tag_496\n      jump\t// in\n    tag_721:\n        /* \"#utility.yul\":19904:20043   */\n      swap1\n      pop\n        /* \"#utility.yul\":19631:20050   */\n      swap2\n      swap1\n      pop\n      jump\t// out\n        /* \"#utility.yul\":20056:20280   */\n    tag_497:\n        /* \"#utility.yul\":20196:20230   */\n      0x45524332303a207472616e736665722066726f6d20746865207a65726f206164\n        /* \"#utility.yul\":20192:20193   */\n      0x00\n        /* \"#utility.yul\":20184:20190   */\n      dup3\n        /* \"#utility.yul\":20180:20194   */\n      add\n        /* \"#utility.yul\":20173:20231   */\n      mstore\n        /* \"#utility.yul\":20265:20272   */\n      0x6472657373000000000000000000000000000000000000000000000000000000\n        /* \"#utility.yul\":20260:20262   */\n      0x20\n        /* \"#utility.yul\":20252:20258   */\n      dup3\n        /* \"#utility.yul\":20248:20263   */\n      add\n        /* \"#utility.yul\":20241:20273   */\n      mstore\n        /* \"#utility.yul\":20056:20280   */\n      pop\n      jump\t// out\n        /* \"#utility.yul\":20286:20652   */\n    tag_498:\n        /* \"#utility.yul\":20428:20431   */\n      0x00\n        /* \"#utility.yul\":20449:20516   */\n      tag_724\n        /* \"#utility.yul\":20513:20515   */\n      0x25\n        /* \"#utility.yul\":20508:20511   */\n      dup4\n        /* \"#utility.yul\":20449:20516   */\n      tag_443\n      jump\t// in\n    tag_724:\n        /* \"#utility.yul\":20442:20516   */\n      swap2\n      pop\n        /* \"#utility.yul\":20525:20618   */\n      tag_725\n        /* \"#utility.yul\":20614:20617   */\n      dup3\n        /* \"#utility.yul\":20525:20618   */\n      tag_497\n      jump\t// in\n    tag_725:\n        /* \"#utility.yul\":20643:20645   */\n      0x40\n        /* \"#utility.yul\":20638:20641   */\n      dup3\n        /* \"#utility.yul\":20634:20646   */\n      add\n        /* \"#utility.yul\":20627:20646   */\n      swap1\n      pop\n        /* \"#utility.yul\":20286:20652   */\n      swap2\n      swap1\n      pop\n      jump\t// out\n        /* \"#utility.yul\":20658:21077   */\n    tag_275:\n        /* \"#utility.yul\":20824:20828   */\n      0x00\n        /* \"#utility.yul\":20862:20864   */\n      0x20\n        /* \"#utility.yul\":20851:20860   */\n      dup3\n        /* \"#utility.yul\":20847:20865   */\n      add\n        /* \"#utility.yul\":20839:20865   */\n      swap1\n      pop\n        /* \"#utility.yul\":20911:20920   */\n      dup2\n        /* \"#utility.yul\":20905:20909   */\n      dup2\n        /* \"#utility.yul\":20901:20921   */\n      sub\n        /* \"#utility.yul\":20897:20898   */\n      0x00\n        /* \"#utility.yul\":20886:20895   */\n      dup4\n        /* \"#utility.yul\":20882:20899   */\n      add\n        /* \"#utility.yul\":20875:20922   */\n      mstore\n        /* \"#utility.yul\":20939:21070   */\n      tag_727\n        /* \"#utility.yul\":21065:21069   */\n      dup2\n        /* \"#utility.yul\":20939:21070   */\n      tag_498\n      jump\t// in\n    tag_727:\n        /* \"#utility.yul\":20931:21070   */\n      swap1\n      pop\n        /* \"#utility.yul\":20658:21077   */\n      swap2\n      swap1\n      pop\n      jump\t// out\n        /* \"#utility.yul\":21083:21305   */\n    tag_499:\n        /* \"#utility.yul\":21223:21257   */\n      0x45524332303a207472616e7366657220746f20746865207a65726f2061646472\n        /* \"#utility.yul\":21219:21220   */\n      0x00\n        /* \"#utility.yul\":21211:21217   */\n      dup3\n        /* \"#utility.yul\":21207:21221   */\n      add\n        /* \"#utility.yul\":21200:21258   */\n      mstore\n        /* \"#utility.yul\":21292:21297   */\n      0x6573730000000000000000000000000000000000000000000000000000000000\n        /* \"#utility.yul\":21287:21289   */\n      0x20\n        /* \"#utility.yul\":21279:21285   */\n      dup3\n        /* \"#utility.yul\":21275:21290   */\n      add\n        /* \"#utility.yul\":21268:21298   */\n      mstore\n        /* \"#utility.yul\":21083:21305   */\n      pop\n      jump\t// out\n        /* \"#utility.yul\":21311:21677   */\n    tag_500:\n        /* \"#utility.yul\":21453:21456   */\n      0x00\n        /* \"#utility.yul\":21474:21541   */\n      tag_730\n        /* \"#utility.yul\":21538:21540   */\n      0x23\n        /* \"#utility.yul\":21533:21536   */\n      dup4\n        /* \"#utility.yul\":21474:21541   */\n      tag_443\n      jump\t// in\n    tag_730:\n        /* \"#utility.yul\":21467:21541   */\n      swap2\n      pop\n        /* \"#utility.yul\":21550:21643   */\n      tag_731\n        /* \"#utility.yul\":21639:21642   */\n      dup3\n        /* \"#utility.yul\":21550:21643   */\n      tag_499\n      jump\t// in\n    tag_731:\n        /* \"#utility.yul\":21668:21670   */\n      0x40\n        /* \"#utility.yul\":21663:21666   */\n      dup3\n        /* \"#utility.yul\":21659:21671   */\n      add\n        /* \"#utility.yul\":21652:21671   */\n      swap1\n      pop\n        /* \"#utility.yul\":21311:21677   */\n      swap2\n      swap1\n      pop\n      jump\t// out\n        /* \"#utility.yul\":21683:22102   */\n    tag_278:\n        /* \"#utility.yul\":21849:21853   */\n      0x00\n        /* \"#utility.yul\":21887:21889   */\n      0x20\n        /* \"#utility.yul\":21876:21885   */\n      dup3\n        /* \"#utility.yul\":21872:21890   */\n      add\n        /* \"#utility.yul\":21864:21890   */\n      swap1\n      pop\n        /* \"#utility.yul\":21936:21945   */\n      dup2\n        /* \"#utility.yul\":21930:21934   */\n      dup2\n        /* \"#utility.yul\":21926:21946   */\n      sub\n        /* \"#utility.yul\":21922:21923   */\n      0x00\n        /* \"#utility.yul\":21911:21920   */\n      dup4\n        /* \"#utility.yul\":21907:21924   */\n      add\n        /* \"#utility.yul\":21900:21947   */\n      mstore\n        /* \"#utility.yul\":21964:22095   */\n      tag_733\n        /* \"#utility.yul\":22090:22094   */\n      dup2\n        /* \"#utility.yul\":21964:22095   */\n      tag_500\n      jump\t// in\n    tag_733:\n        /* \"#utility.yul\":21956:22095   */\n      swap1\n      pop\n        /* \"#utility.yul\":21683:22102   */\n      swap2\n      swap1\n      pop\n      jump\t// out\n        /* \"#utility.yul\":22108:22333   */\n    tag_501:\n        /* \"#utility.yul\":22248:22282   */\n      0x45524332303a207472616e7366657220616d6f756e7420657863656564732062\n        /* \"#utility.yul\":22244:22245   */\n      0x00\n        /* \"#utility.yul\":22236:22242   */\n      dup3\n        /* \"#utility.yul\":22232:22246   */\n      add\n        /* \"#utility.yul\":22225:22283   */\n      mstore\n        /* \"#utility.yul\":22317:22325   */\n      0x616c616e63650000000000000000000000000000000000000000000000000000\n        /* \"#utility.yul\":22312:22314   */\n      0x20\n        /* \"#utility.yul\":22304:22310   */\n      dup3\n        /* \"#utility.yul\":22300:22315   */\n      add\n        /* \"#utility.yul\":22293:22326   */\n      mstore\n        /* \"#utility.yul\":22108:22333   */\n      pop\n      jump\t// out\n        /* \"#utility.yul\":22339:22705   */\n    tag_502:\n        /* \"#utility.yul\":22481:22484   */\n      0x00\n        /* \"#utility.yul\":22502:22569   */\n      tag_736\n        /* \"#utility.yul\":22566:22568   */\n      0x26\n        /* \"#utility.yul\":22561:22564   */\n      dup4\n        /* \"#utility.yul\":22502:22569   */\n      tag_443\n      jump\t// in\n    tag_736:\n        /* \"#utility.yul\":22495:22569   */\n      swap2\n      pop\n        /* \"#utility.yul\":22578:22671   */\n      tag_737\n        /* \"#utility.yul\":22667:22670   */\n      dup3\n        /* \"#utility.yul\":22578:22671   */\n      tag_501\n      jump\t// in\n    tag_737:\n        /* \"#utility.yul\":22696:22698   */\n      0x40\n        /* \"#utility.yul\":22691:22694   */\n      dup3\n        /* \"#utility.yul\":22687:22699   */\n      add\n        /* \"#utility.yul\":22680:22699   */\n      swap1\n      pop\n        /* \"#utility.yul\":22339:22705   */\n      swap2\n      swap1\n      pop\n      jump\t// out\n        /* \"#utility.yul\":22711:23130   */\n    tag_283:\n        /* \"#utility.yul\":22877:22881   */\n      0x00\n        /* \"#utility.yul\":22915:22917   */\n      0x20\n        /* \"#utility.yul\":22904:22913   */\n      dup3\n        /* \"#utility.yul\":22900:22918   */\n      add\n        /* \"#utility.yul\":22892:22918   */\n      swap1\n      pop\n        /* \"#utility.yul\":22964:22973   */\n      dup2\n        /* \"#utility.yul\":22958:22962   */\n      dup2\n        /* \"#utility.yul\":22954:22974   */\n      sub\n        /* \"#utility.yul\":22950:22951   */\n      0x00\n        /* \"#utility.yul\":22939:22948   */\n      dup4\n        /* \"#utility.yul\":22935:22952   */\n      add\n        /* \"#utility.yul\":22928:22975   */\n      mstore\n        /* \"#utility.yul\":22992:23123   */\n      tag_739\n        /* \"#utility.yul\":23118:23122   */\n      dup2\n        /* \"#utility.yul\":22992:23123   */\n      tag_502\n      jump\t// in\n    tag_739:\n        /* \"#utility.yul\":22984:23123   */\n      swap1\n      pop\n        /* \"#utility.yul\":22711:23130   */\n      swap2\n      swap1\n      pop\n      jump\t// out\n        /* \"#utility.yul\":23136:23258   */\n    tag_503:\n        /* \"#utility.yul\":23209:23233   */\n      tag_741\n        /* \"#utility.yul\":23227:23232   */\n      dup2\n        /* \"#utility.yul\":23209:23233   */\n      tag_470\n      jump\t// in\n    tag_741:\n        /* \"#utility.yul\":23202:23207   */\n      dup2\n        /* \"#utility.yul\":23199:23234   */\n      eq\n        /* \"#utility.yul\":23189:23252   */\n      tag_742\n      jumpi\n        /* \"#utility.yul\":23248:23249   */\n      0x00\n        /* \"#utility.yul\":23245:23246   */\n      dup1\n        /* \"#utility.yul\":23238:23250   */\n      revert\n        /* \"#utility.yul\":23189:23252   */\n    tag_742:\n        /* \"#utility.yul\":23136:23258   */\n      pop\n      jump\t// out\n        /* \"#utility.yul\":23264:23407   */\n    tag_504:\n        /* \"#utility.yul\":23321:23326   */\n      0x00\n        /* \"#utility.yul\":23352:23358   */\n      dup2\n        /* \"#utility.yul\":23346:23359   */\n      mload\n        /* \"#utility.yul\":23337:23359   */\n      swap1\n      pop\n        /* \"#utility.yul\":23368:23401   */\n      tag_744\n        /* \"#utility.yul\":23395:23400   */\n      dup2\n        /* \"#utility.yul\":23368:23401   */\n      tag_503\n      jump\t// in\n    tag_744:\n        /* \"#utility.yul\":23264:23407   */\n      swap3\n      swap2\n      pop\n      pop\n      jump\t// out\n        /* \"#utility.yul\":23413:23764   */\n    tag_302:\n        /* \"#utility.yul\":23483:23489   */\n      0x00\n        /* \"#utility.yul\":23532:23534   */\n      0x20\n        /* \"#utility.yul\":23520:23529   */\n      dup3\n        /* \"#utility.yul\":23511:23518   */\n      dup5\n        /* \"#utility.yul\":23507:23530   */\n      sub\n        /* \"#utility.yul\":23503:23535   */\n      slt\n        /* \"#utility.yul\":23500:23619   */\n      iszero\n      tag_746\n      jumpi\n        /* \"#utility.yul\":23538:23617   */\n      tag_747\n      tag_448\n      jump\t// in\n    tag_747:\n        /* \"#utility.yul\":23500:23619   */\n    tag_746:\n        /* \"#utility.yul\":23658:23659   */\n      0x00\n        /* \"#utility.yul\":23683:23747   */\n      tag_748\n        /* \"#utility.yul\":23739:23746   */\n      dup5\n        /* \"#utility.yul\":23730:23736   */\n      dup3\n        /* \"#utility.yul\":23719:23728   */\n      dup6\n        /* \"#utility.yul\":23715:23737   */\n      add\n        /* \"#utility.yul\":23683:23747   */\n      tag_504\n      jump\t// in\n    tag_748:\n        /* \"#utility.yul\":23673:23747   */\n      swap2\n      pop\n        /* \"#utility.yul\":23629:23757   */\n      pop\n        /* \"#utility.yul\":23413:23764   */\n      swap3\n      swap2\n      pop\n      pop\n      jump\t// out\n        /* \"#utility.yul\":23770:24003   */\n    tag_505:\n        /* \"#utility.yul\":23910:23944   */\n      0x45524331393637557067726164653a206e657720696d706c656d656e74617469\n        /* \"#utility.yul\":23906:23907   */\n      0x00\n        /* \"#utility.yul\":23898:23904   */\n      dup3\n        /* \"#utility.yul\":23894:23908   */\n      add\n        /* \"#utility.yul\":23887:23945   */\n      mstore\n        /* \"#utility.yul\":23979:23995   */\n      0x6f6e206973206e6f742055555053000000000000000000000000000000000000\n        /* \"#utility.yul\":23974:23976   */\n      0x20\n        /* \"#utility.yul\":23966:23972   */\n      dup3\n        /* \"#utility.yul\":23962:23977   */\n      add\n        /* \"#utility.yul\":23955:23996   */\n      mstore\n        /* \"#utility.yul\":23770:24003   */\n      pop\n      jump\t// out\n        /* \"#utility.yul\":24009:24375   */\n    tag_506:\n        /* \"#utility.yul\":24151:24154   */\n      0x00\n        /* \"#utility.yul\":24172:24239   */\n      tag_751\n        /* \"#utility.yul\":24236:24238   */\n      0x2e\n        /* \"#utility.yul\":24231:24234   */\n      dup4\n        /* \"#utility.yul\":24172:24239   */\n      tag_443\n      jump\t// in\n    tag_751:\n        /* \"#utility.yul\":24165:24239   */\n      swap2\n      pop\n        /* \"#utility.yul\":24248:24341   */\n      tag_752\n        /* \"#utility.yul\":24337:24340   */\n      dup3\n        /* \"#utility.yul\":24248:24341   */\n      tag_505\n      jump\t// in\n    tag_752:\n        /* \"#utility.yul\":24366:24368   */\n      0x40\n        /* \"#utility.yul\":24361:24364   */\n      dup3\n        /* \"#utility.yul\":24357:24369   */\n      add\n        /* \"#utility.yul\":24350:24369   */\n      swap1\n      pop\n        /* \"#utility.yul\":24009:24375   */\n      swap2\n      swap1\n      pop\n      jump\t// out\n        /* \"#utility.yul\":24381:24800   */\n    tag_308:\n        /* \"#utility.yul\":24547:24551   */\n      0x00\n        /* \"#utility.yul\":24585:24587   */\n      0x20\n        /* \"#utility.yul\":24574:24583   */\n      dup3\n        /* \"#utility.yul\":24570:24588   */\n      add\n        /* \"#utility.yul\":24562:24588   */\n      swap1\n      pop\n        /* \"#utility.yul\":24634:24643   */\n      dup2\n        /* \"#utility.yul\":24628:24632   */\n      dup2\n        /* \"#utility.yul\":24624:24644   */\n      sub\n        /* \"#utility.yul\":24620:24621   */\n      0x00\n        /* \"#utility.yul\":24609:24618   */\n      dup4\n        /* \"#utility.yul\":24605:24622   */\n      add\n        /* \"#utility.yul\":24598:24645   */\n      mstore\n        /* \"#utility.yul\":24662:24793   */\n      tag_754\n        /* \"#utility.yul\":24788:24792   */\n      dup2\n        /* \"#utility.yul\":24662:24793   */\n      tag_506\n      jump\t// in\n    tag_754:\n        /* \"#utility.yul\":24654:24793   */\n      swap1\n      pop\n        /* \"#utility.yul\":24381:24800   */\n      swap2\n      swap1\n      pop\n      jump\t// out\n        /* \"#utility.yul\":24806:25034   */\n    tag_507:\n        /* \"#utility.yul\":24946:24980   */\n      0x45524331393637557067726164653a20756e737570706f727465642070726f78\n        /* \"#utility.yul\":24942:24943   */\n      0x00\n        /* \"#utility.yul\":24934:24940   */\n      dup3\n        /* \"#utility.yul\":24930:24944   */\n      add\n        /* \"#utility.yul\":24923:24981   */\n      mstore\n        /* \"#utility.yul\":25015:25026   */\n      0x6961626c65555549440000000000000000000000000000000000000000000000\n        /* \"#utility.yul\":25010:25012   */\n      0x20\n        /* \"#utility.yul\":25002:25008   */\n      dup3\n        /* \"#utility.yul\":24998:25013   */\n      add\n        /* \"#utility.yul\":24991:25027   */\n      mstore\n        /* \"#utility.yul\":24806:25034   */\n      pop\n      jump\t// out\n        /* \"#utility.yul\":25040:25406   */\n    tag_508:\n        /* \"#utility.yul\":25182:25185   */\n      0x00\n        /* \"#utility.yul\":25203:25270   */\n      tag_757\n        /* \"#utility.yul\":25267:25269   */\n      0x29\n        /* \"#utility.yul\":25262:25265   */\n      dup4\n        /* \"#utility.yul\":25203:25270   */\n      tag_443\n      jump\t// in\n    tag_757:\n        /* \"#utility.yul\":25196:25270   */\n      swap2\n      pop\n        /* \"#utility.yul\":25279:25372   */\n      tag_758\n        /* \"#utility.yul\":25368:25371   */\n      dup3\n        /* \"#utility.yul\":25279:25372   */\n      tag_507\n      jump\t// in\n    tag_758:\n        /* \"#utility.yul\":25397:25399   */\n      0x40\n        /* \"#utility.yul\":25392:25395   */\n      dup3\n        /* \"#utility.yul\":25388:25400   */\n      add\n        /* \"#utility.yul\":25381:25400   */\n      swap1\n      pop\n        /* \"#utility.yul\":25040:25406   */\n      swap2\n      swap1\n      pop\n      jump\t// out\n        /* \"#utility.yul\":25412:25831   */\n    tag_312:\n        /* \"#utility.yul\":25578:25582   */\n      0x00\n        /* \"#utility.yul\":25616:25618   */\n      0x20\n        /* \"#utility.yul\":25605:25614   */\n      dup3\n        /* \"#utility.yul\":25601:25619   */\n      add\n        /* \"#utility.yul\":25593:25619   */\n      swap1\n      pop\n        /* \"#utility.yul\":25665:25674   */\n      dup2\n        /* \"#utility.yul\":25659:25663   */\n      dup2\n        /* \"#utility.yul\":25655:25675   */\n      sub\n        /* \"#utility.yul\":25651:25652   */\n      0x00\n        /* \"#utility.yul\":25640:25649   */\n      dup4\n        /* \"#utility.yul\":25636:25653   */\n      add\n        /* \"#utility.yul\":25629:25676   */\n      mstore\n        /* \"#utility.yul\":25693:25824   */\n      tag_760\n        /* \"#utility.yul\":25819:25823   */\n      dup2\n        /* \"#utility.yul\":25693:25824   */\n      tag_508\n      jump\t// in\n    tag_760:\n        /* \"#utility.yul\":25685:25824   */\n      swap1\n      pop\n        /* \"#utility.yul\":25412:25831   */\n      swap2\n      swap1\n      pop\n      jump\t// out\n        /* \"#utility.yul\":25837:26019   */\n    tag_509:\n        /* \"#utility.yul\":25977:26011   */\n      0x4f776e61626c653a2063616c6c6572206973206e6f7420746865206f776e6572\n        /* \"#utility.yul\":25973:25974   */\n      0x00\n        /* \"#utility.yul\":25965:25971   */\n      dup3\n        /* \"#utility.yul\":25961:25975   */\n      add\n        /* \"#utility.yul\":25954:26012   */\n      mstore\n        /* \"#utility.yul\":25837:26019   */\n      pop\n      jump\t// out\n        /* \"#utility.yul\":26025:26391   */\n    tag_510:\n        /* \"#utility.yul\":26167:26170   */\n      0x00\n        /* \"#utility.yul\":26188:26255   */\n      tag_763\n        /* \"#utility.yul\":26252:26254   */\n      0x20\n        /* \"#utility.yul\":26247:26250   */\n      dup4\n        /* \"#utility.yul\":26188:26255   */\n      tag_443\n      jump\t// in\n    tag_763:\n        /* \"#utility.yul\":26181:26255   */\n      swap2\n      pop\n        /* \"#utility.yul\":26264:26357   */\n      tag_764\n        /* \"#utility.yul\":26353:26356   */\n      dup3\n        /* \"#utility.yul\":26264:26357   */\n      tag_509\n      jump\t// in\n    tag_764:\n        /* \"#utility.yul\":26382:26384   */\n      0x20\n        /* \"#utility.yul\":26377:26380   */\n      dup3\n        /* \"#utility.yul\":26373:26385   */\n      add\n        /* \"#utility.yul\":26366:26385   */\n      swap1\n      pop\n        /* \"#utility.yul\":26025:26391   */\n      swap2\n      swap1\n      pop\n      jump\t// out\n        /* \"#utility.yul\":26397:26816   */\n    tag_320:\n        /* \"#utility.yul\":26563:26567   */\n      0x00\n        /* \"#utility.yul\":26601:26603   */\n      0x20\n        /* \"#utility.yul\":26590:26599   */\n      dup3\n        /* \"#utility.yul\":26586:26604   */\n      add\n        /* \"#utility.yul\":26578:26604   */\n      swap1\n      pop\n        /* \"#utility.yul\":26650:26659   */\n      dup2\n        /* \"#utility.yul\":26644:26648   */\n      dup2\n        /* \"#utility.yul\":26640:26660   */\n      sub\n        /* \"#utility.yul\":26636:26637   */\n      0x00\n        /* \"#utility.yul\":26625:26634   */\n      dup4\n        /* \"#utility.yul\":26621:26638   */\n      add\n        /* \"#utility.yul\":26614:26661   */\n      mstore\n        /* \"#utility.yul\":26678:26809   */\n      tag_766\n        /* \"#utility.yul\":26804:26808   */\n      dup2\n        /* \"#utility.yul\":26678:26809   */\n      tag_510\n      jump\t// in\n    tag_766:\n        /* \"#utility.yul\":26670:26809   */\n      swap1\n      pop\n        /* \"#utility.yul\":26397:26816   */\n      swap2\n      swap1\n      pop\n      jump\t// out\n        /* \"#utility.yul\":26822:27003   */\n    tag_511:\n        /* \"#utility.yul\":26962:26995   */\n      0x45524332303a206d696e7420746f20746865207a65726f206164647265737300\n        /* \"#utility.yul\":26958:26959   */\n      0x00\n        /* \"#utility.yul\":26950:26956   */\n      dup3\n        /* \"#utility.yul\":26946:26960   */\n      add\n        /* \"#utility.yul\":26939:26996   */\n      mstore\n        /* \"#utility.yul\":26822:27003   */\n      pop\n      jump\t// out\n        /* \"#utility.yul\":27009:27375   */\n    tag_512:\n        /* \"#utility.yul\":27151:27154   */\n      0x00\n        /* \"#utility.yul\":27172:27239   */\n      tag_769\n        /* \"#utility.yul\":27236:27238   */\n      0x1f\n        /* \"#utility.yul\":27231:27234   */\n      dup4\n        /* \"#utility.yul\":27172:27239   */\n      tag_443\n      jump\t// in\n    tag_769:\n        /* \"#utility.yul\":27165:27239   */\n      swap2\n      pop\n        /* \"#utility.yul\":27248:27341   */\n      tag_770\n        /* \"#utility.yul\":27337:27340   */\n      dup3\n        /* \"#utility.yul\":27248:27341   */\n      tag_511\n      jump\t// in\n    tag_770:\n        /* \"#utility.yul\":27366:27368   */\n      0x20\n        /* \"#utility.yul\":27361:27364   */\n      dup3\n        /* \"#utility.yul\":27357:27369   */\n      add\n        /* \"#utility.yul\":27350:27369   */\n      swap1\n      pop\n        /* \"#utility.yul\":27009:27375   */\n      swap2\n      swap1\n      pop\n      jump\t// out\n        /* \"#utility.yul\":27381:27800   */\n    tag_330:\n        /* \"#utility.yul\":27547:27551   */\n      0x00\n        /* \"#utility.yul\":27585:27587   */\n      0x20\n        /* \"#utility.yul\":27574:27583   */\n      dup3\n        /* \"#utility.yul\":27570:27588   */\n      add\n        /* \"#utility.yul\":27562:27588   */\n      swap1\n      pop\n        /* \"#utility.yul\":27634:27643   */\n      dup2\n        /* \"#utility.yul\":27628:27632   */\n      dup2\n        /* \"#utility.yul\":27624:27644   */\n      sub\n        /* \"#utility.yul\":27620:27621   */\n      0x00\n        /* \"#utility.yul\":27609:27618   */\n      dup4\n        /* \"#utility.yul\":27605:27622   */\n      add\n        /* \"#utility.yul\":27598:27645   */\n      mstore\n        /* \"#utility.yul\":27662:27793   */\n      tag_772\n        /* \"#utility.yul\":27788:27792   */\n      dup2\n        /* \"#utility.yul\":27662:27793   */\n      tag_512\n      jump\t// in\n    tag_772:\n        /* \"#utility.yul\":27654:27793   */\n      swap1\n      pop\n        /* \"#utility.yul\":27381:27800   */\n      swap2\n      swap1\n      pop\n      jump\t// out\n        /* \"#utility.yul\":27806:28036   */\n    tag_513:\n        /* \"#utility.yul\":27946:27980   */\n      0x496e697469616c697a61626c653a20636f6e7472616374206973206e6f742069\n        /* \"#utility.yul\":27942:27943   */\n      0x00\n        /* \"#utility.yul\":27934:27940   */\n      dup3\n        /* \"#utility.yul\":27930:27944   */\n      add\n        /* \"#utility.yul\":27923:27981   */\n      mstore\n        /* \"#utility.yul\":28015:28028   */\n      0x6e697469616c697a696e67000000000000000000000000000000000000000000\n        /* \"#utility.yul\":28010:28012   */\n      0x20\n        /* \"#utility.yul\":28002:28008   */\n      dup3\n        /* \"#utility.yul\":27998:28013   */\n      add\n        /* \"#utility.yul\":27991:28029   */\n      mstore\n        /* \"#utility.yul\":27806:28036   */\n      pop\n      jump\t// out\n        /* \"#utility.yul\":28042:28408   */\n    tag_514:\n        /* \"#utility.yul\":28184:28187   */\n      0x00\n        /* \"#utility.yul\":28205:28272   */\n      tag_775\n        /* \"#utility.yul\":28269:28271   */\n      0x2b\n        /* \"#utility.yul\":28264:28267   */\n      dup4\n        /* \"#utility.yul\":28205:28272   */\n      tag_443\n      jump\t// in\n    tag_775:\n        /* \"#utility.yul\":28198:28272   */\n      swap2\n      pop\n        /* \"#utility.yul\":28281:28374   */\n      tag_776\n        /* \"#utility.yul\":28370:28373   */\n      dup3\n        /* \"#utility.yul\":28281:28374   */\n      tag_513\n      jump\t// in\n    tag_776:\n        /* \"#utility.yul\":28399:28401   */\n      0x40\n        /* \"#utility.yul\":28394:28397   */\n      dup3\n        /* \"#utility.yul\":28390:28402   */\n      add\n        /* \"#utility.yul\":28383:28402   */\n      swap1\n      pop\n        /* \"#utility.yul\":28042:28408   */\n      swap2\n      swap1\n      pop\n      jump\t// out\n        /* \"#utility.yul\":28414:28833   */\n    tag_340:\n        /* \"#utility.yul\":28580:28584   */\n      0x00\n        /* \"#utility.yul\":28618:28620   */\n      0x20\n        /* \"#utility.yul\":28607:28616   */\n      dup3\n        /* \"#utility.yul\":28603:28621   */\n      add\n        /* \"#utility.yul\":28595:28621   */\n      swap1\n      pop\n        /* \"#utility.yul\":28667:28676   */\n      dup2\n        /* \"#utility.yul\":28661:28665   */\n      dup2\n        /* \"#utility.yul\":28657:28677   */\n      sub\n        /* \"#utility.yul\":28653:28654   */\n      0x00\n        /* \"#utility.yul\":28642:28651   */\n      dup4\n        /* \"#utility.yul\":28638:28655   */\n      add\n        /* \"#utility.yul\":28631:28678   */\n      mstore\n        /* \"#utility.yul\":28695:28826   */\n      tag_778\n        /* \"#utility.yul\":28821:28825   */\n      dup2\n        /* \"#utility.yul\":28695:28826   */\n      tag_514\n      jump\t// in\n    tag_778:\n        /* \"#utility.yul\":28687:28826   */\n      swap1\n      pop\n        /* \"#utility.yul\":28414:28833   */\n      swap2\n      swap1\n      pop\n      jump\t// out\n        /* \"#utility.yul\":28839:29071   */\n    tag_515:\n        /* \"#utility.yul\":28979:29013   */\n      0x455243313936373a206e657720696d706c656d656e746174696f6e206973206e\n        /* \"#utility.yul\":28975:28976   */\n      0x00\n        /* \"#utility.yul\":28967:28973   */\n      dup3\n        /* \"#utility.yul\":28963:28977   */\n      add\n        /* \"#utility.yul\":28956:29014   */\n      mstore\n        /* \"#utility.yul\":29048:29063   */\n      0x6f74206120636f6e747261637400000000000000000000000000000000000000\n        /* \"#utility.yul\":29043:29045   */\n      0x20\n        /* \"#utility.yul\":29035:29041   */\n      dup3\n        /* \"#utility.yul\":29031:29046   */\n      add\n        /* \"#utility.yul\":29024:29064   */\n      mstore\n        /* \"#utility.yul\":28839:29071   */\n      pop\n      jump\t// out\n        /* \"#utility.yul\":29077:29443   */\n    tag_516:\n        /* \"#utility.yul\":29219:29222   */\n      0x00\n        /* \"#utility.yul\":29240:29307   */\n      tag_781\n        /* \"#utility.yul\":29304:29306   */\n      0x2d\n        /* \"#utility.yul\":29299:29302   */\n      dup4\n        /* \"#utility.yul\":29240:29307   */\n      tag_443\n      jump\t// in\n    tag_781:\n        /* \"#utility.yul\":29233:29307   */\n      swap2\n      pop\n        /* \"#utility.yul\":29316:29409   */\n      tag_782\n        /* \"#utility.yul\":29405:29408   */\n      dup3\n        /* \"#utility.yul\":29316:29409   */\n      tag_515\n      jump\t// in\n    tag_782:\n        /* \"#utility.yul\":29434:29436   */\n      0x40\n        /* \"#utility.yul\":29429:29432   */\n      dup3\n        /* \"#utility.yul\":29425:29437   */\n      add\n        /* \"#utility.yul\":29418:29437   */\n      swap1\n      pop\n        /* \"#utility.yul\":29077:29443   */\n      swap2\n      swap1\n      pop\n      jump\t// out\n        /* \"#utility.yul\":29449:29868   */\n    tag_378:\n        /* \"#utility.yul\":29615:29619   */\n      0x00\n        /* \"#utility.yul\":29653:29655   */\n      0x20\n        /* \"#utility.yul\":29642:29651   */\n      dup3\n        /* \"#utility.yul\":29638:29656   */\n      add\n        /* \"#utility.yul\":29630:29656   */\n      swap1\n      pop\n        /* \"#utility.yul\":29702:29711   */\n      dup2\n        /* \"#utility.yul\":29696:29700   */\n      dup2\n        /* \"#utility.yul\":29692:29712   */\n      sub\n        /* \"#utility.yul\":29688:29689   */\n      0x00\n        /* \"#utility.yul\":29677:29686   */\n      dup4\n        /* \"#utility.yul\":29673:29690   */\n      add\n        /* \"#utility.yul\":29666:29713   */\n      mstore\n        /* \"#utility.yul\":29730:29861   */\n      tag_784\n        /* \"#utility.yul\":29856:29860   */\n      dup2\n        /* \"#utility.yul\":29730:29861   */\n      tag_516\n      jump\t// in\n    tag_784:\n        /* \"#utility.yul\":29722:29861   */\n      swap1\n      pop\n        /* \"#utility.yul\":29449:29868   */\n      swap2\n      swap1\n      pop\n      jump\t// out\n        /* \"#utility.yul\":29874:30044   */\n    tag_517:\n        /* \"#utility.yul\":30014:30036   */\n      0x5061757361626c653a206e6f7420706175736564000000000000000000000000\n        /* \"#utility.yul\":30010:30011   */\n      0x00\n        /* \"#utility.yul\":30002:30008   */\n      dup3\n        /* \"#utility.yul\":29998:30012   */\n      add\n        /* \"#utility.yul\":29991:30037   */\n      mstore\n        /* \"#utility.yul\":29874:30044   */\n      pop\n      jump\t// out\n        /* \"#utility.yul\":30050:30416   */\n    tag_518:\n        /* \"#utility.yul\":30192:30195   */\n      0x00\n        /* \"#utility.yul\":30213:30280   */\n      tag_787\n        /* \"#utility.yul\":30277:30279   */\n      0x14\n        /* \"#utility.yul\":30272:30275   */\n      dup4\n        /* \"#utility.yul\":30213:30280   */\n      tag_443\n      jump\t// in\n    tag_787:\n        /* \"#utility.yul\":30206:30280   */\n      swap2\n      pop\n        /* \"#utility.yul\":30289:30382   */\n      tag_788\n        /* \"#utility.yul\":30378:30381   */\n      dup3\n        /* \"#utility.yul\":30289:30382   */\n      tag_517\n      jump\t// in\n    tag_788:\n        /* \"#utility.yul\":30407:30409   */\n      0x20\n        /* \"#utility.yul\":30402:30405   */\n      dup3\n        /* \"#utility.yul\":30398:30410   */\n      add\n        /* \"#utility.yul\":30391:30410   */\n      swap1\n      pop\n        /* \"#utility.yul\":30050:30416   */\n      swap2\n      swap1\n      pop\n      jump\t// out\n        /* \"#utility.yul\":30422:30841   */\n    tag_391:\n        /* \"#utility.yul\":30588:30592   */\n      0x00\n        /* \"#utility.yul\":30626:30628   */\n      0x20\n        /* \"#utility.yul\":30615:30624   */\n      dup3\n        /* \"#utility.yul\":30611:30629   */\n      add\n        /* \"#utility.yul\":30603:30629   */\n      swap1\n      pop\n        /* \"#utility.yul\":30675:30684   */\n      dup2\n        /* \"#utility.yul\":30669:30673   */\n      dup2\n        /* \"#utility.yul\":30665:30685   */\n      sub\n        /* \"#utility.yul\":30661:30662   */\n      0x00\n        /* \"#utility.yul\":30650:30659   */\n      dup4\n        /* \"#utility.yul\":30646:30663   */\n      add\n        /* \"#utility.yul\":30639:30686   */\n      mstore\n        /* \"#utility.yul\":30703:30834   */\n      tag_790\n        /* \"#utility.yul\":30829:30833   */\n      dup2\n        /* \"#utility.yul\":30703:30834   */\n      tag_518\n      jump\t// in\n    tag_790:\n        /* \"#utility.yul\":30695:30834   */\n      swap1\n      pop\n        /* \"#utility.yul\":30422:30841   */\n      swap2\n      swap1\n      pop\n      jump\t// out\n        /* \"#utility.yul\":30847:30988   */\n    tag_519:\n        /* \"#utility.yul\":30896:30900   */\n      0x00\n        /* \"#utility.yul\":30919:30922   */\n      dup2\n        /* \"#utility.yul\":30911:30922   */\n      swap1\n      pop\n        /* \"#utility.yul\":30942:30945   */\n      dup2\n        /* \"#utility.yul\":30939:30940   */\n      0x00\n        /* \"#utility.yul\":30932:30946   */\n      mstore\n        /* \"#utility.yul\":30976:30980   */\n      0x20\n        /* \"#utility.yul\":30973:30974   */\n      0x00\n        /* \"#utility.yul\":30963:30981   */\n      keccak256\n        /* \"#utility.yul\":30955:30981   */\n      swap1\n      pop\n        /* \"#utility.yul\":30847:30988   */\n      swap2\n      swap1\n      pop\n      jump\t// out\n        /* \"#utility.yul\":30994:31087   */\n    tag_520:\n        /* \"#utility.yul\":31031:31037   */\n      0x00\n        /* \"#utility.yul\":31078:31080   */\n      0x20\n        /* \"#utility.yul\":31073:31075   */\n      0x1f\n        /* \"#utility.yul\":31066:31071   */\n      dup4\n        /* \"#utility.yul\":31062:31076   */\n      add\n        /* \"#utility.yul\":31058:31081   */\n      div\n        /* \"#utility.yul\":31048:31081   */\n      swap1\n      pop\n        /* \"#utility.yul\":30994:31087   */\n      swap2\n      swap1\n      pop\n      jump\t// out\n        /* \"#utility.yul\":31093:31200   */\n    tag_521:\n        /* \"#utility.yul\":31137:31145   */\n      0x00\n        /* \"#utility.yul\":31187:31192   */\n      dup3\n        /* \"#utility.yul\":31181:31185   */\n      dup3\n        /* \"#utility.yul\":31177:31193   */\n      shl\n        /* \"#utility.yul\":31156:31193   */\n      swap1\n      pop\n        /* \"#utility.yul\":31093:31200   */\n      swap3\n      swap2\n      pop\n      pop\n      jump\t// out\n        /* \"#utility.yul\":31206:31599   */\n    tag_522:\n        /* \"#utility.yul\":31275:31281   */\n      0x00\n        /* \"#utility.yul\":31325:31326   */\n      0x08\n        /* \"#utility.yul\":31313:31323   */\n      dup4\n        /* \"#utility.yul\":31309:31327   */\n      mul\n        /* \"#utility.yul\":31348:31445   */\n      tag_795\n        /* \"#utility.yul\":31378:31444   */\n      0xffffffffffffffffffffffffffffffffffffffffffffffffffffffffffffffff\n        /* \"#utility.yul\":31367:31376   */\n      dup3\n        /* \"#utility.yul\":31348:31445   */\n      tag_521\n      jump\t// in\n    tag_795:\n        /* \"#utility.yul\":31466:31505   */\n      tag_796\n        /* \"#utility.yul\":31496:31504   */\n      dup7\n        /* \"#utility.yul\":31485:31494   */\n      dup4\n        /* \"#utility.yul\":31466:31505   */\n      tag_521\n      jump\t// in\n    tag_796:\n        /* \"#utility.yul\":31454:31505   */\n      swap6\n      pop\n        /* \"#utility.yul\":31538:31542   */\n      dup1\n        /* \"#utility.yul\":31534:31543   */\n      not\n        /* \"#utility.yul\":31527:31532   */\n      dup5\n        /* \"#utility.yul\":31523:31544   */\n      and\n        /* \"#utility.yul\":31514:31544   */\n      swap4\n      pop\n        /* \"#utility.yul\":31587:31591   */\n      dup1\n        /* \"#utility.yul\":31577:31585   */\n      dup7\n        /* \"#utility.yul\":31573:31592   */\n      and\n        /* \"#utility.yul\":31566:31571   */\n      dup5\n        /* \"#utility.yul\":31563:31593   */\n      or\n        /* \"#utility.yul\":31553:31593   */\n      swap3\n      pop\n        /* \"#utility.yul\":31282:31599   */\n      pop\n      pop\n        /* \"#utility.yul\":31206:31599   */\n      swap4\n      swap3\n      pop\n      pop\n      pop\n      jump\t// out\n        /* \"#utility.yul\":31605:31747   */\n    tag_523:\n        /* \"#utility.yul\":31655:31664   */\n      0x00\n        /* \"#utility.yul\":31688:31741   */\n      tag_798\n        /* \"#utility.yul\":31706:31740   */\n      tag_799\n        /* \"#utility.yul\":31715:31739   */\n      tag_800\n        /* \"#utility.yul\":31733:31738   */\n      dup5\n        /* \"#utility.yul\":31715:31739   */\n      tag_454\n      jump\t// in\n    tag_800:\n        /* \"#utility.yul\":31706:31740   */\n      tag_484\n      jump\t// in\n    tag_799:\n        /* \"#utility.yul\":31688:31741   */\n      tag_454\n      jump\t// in\n    tag_798:\n        /* \"#utility.yul\":31675:31741   */\n      swap1\n      pop\n        /* \"#utility.yul\":31605:31747   */\n      swap2\n      swap1\n      pop\n      jump\t// out\n        /* \"#utility.yul\":31753:31828   */\n    tag_524:\n        /* \"#utility.yul\":31796:31799   */\n      0x00\n        /* \"#utility.yul\":31817:31822   */\n      dup2\n        /* \"#utility.yul\":31810:31822   */\n      swap1\n      pop\n        /* \"#utility.yul\":31753:31828   */\n      swap2\n      swap1\n      pop\n      jump\t// out\n        /* \"#utility.yul\":31834:32103   */\n    tag_525:\n        /* \"#utility.yul\":31944:31983   */\n      tag_803\n        /* \"#utility.yul\":31975:31982   */\n      dup4\n        /* \"#utility.yul\":31944:31983   */\n      tag_523\n      jump\t// in\n    tag_803:\n        /* \"#utility.yul\":32005:32096   */\n      tag_804\n        /* \"#utility.yul\":32054:32095   */\n      tag_805\n        /* \"#utility.yul\":32078:32094   */\n      dup3\n        /* \"#utility.yul\":32054:32095   */\n      tag_524\n      jump\t// in\n    tag_805:\n        /* \"#utility.yul\":32046:32052   */\n      dup5\n        /* \"#utility.yul\":32039:32043   */\n      dup5\n        /* \"#utility.yul\":32033:32044   */\n      sload\n        /* \"#utility.yul\":32005:32096   */\n      tag_522\n      jump\t// in\n    tag_804:\n        /* \"#utility.yul\":31999:32003   */\n      dup3\n        /* \"#utility.yul\":31992:32097   */\n      sstore\n        /* \"#utility.yul\":31910:32103   */\n      pop\n        /* \"#utility.yul\":31834:32103   */\n      pop\n      pop\n      pop\n      jump\t// out\n        /* \"#utility.yul\":32109:32182   */\n    tag_526:\n        /* \"#utility.yul\":32154:32157   */\n      0x00\n        /* \"#utility.yul\":32109:32182   */\n      swap1\n      jump\t// out\n        /* \"#utility.yul\":32188:32377   */\n    tag_527:\n        /* \"#utility.yul\":32265:32297   */\n      tag_808\n      tag_526\n      jump\t// in\n    tag_808:\n        /* \"#utility.yul\":32306:32371   */\n      tag_809\n        /* \"#utility.yul\":32364:32370   */\n      dup2\n        /* \"#utility.yul\":32356:32362   */\n      dup5\n        /* \"#utility.yul\":32350:32354   */\n      dup5\n        /* \"#utility.yul\":32306:32371   */\n      tag_525\n      jump\t// in\n    tag_809:\n        /* \"#utility.yul\":32241:32377   */\n      pop\n        /* \"#utility.yul\":32188:32377   */\n      pop\n      pop\n      jump\t// out\n        /* \"#utility.yul\":32383:32569   */\n    tag_528:\n        /* \"#utility.yul\":32443:32563   */\n    tag_811:\n        /* \"#utility.yul\":32460:32463   */\n      dup2\n        /* \"#utility.yul\":32453:32458   */\n      dup2\n        /* \"#utility.yul\":32450:32464   */\n      lt\n        /* \"#utility.yul\":32443:32563   */\n      iszero\n      tag_813\n      jumpi\n        /* \"#utility.yul\":32514:32553   */\n      tag_814\n        /* \"#utility.yul\":32551:32552   */\n      0x00\n        /* \"#utility.yul\":32544:32549   */\n      dup3\n        /* \"#utility.yul\":32514:32553   */\n      tag_527\n      jump\t// in\n    tag_814:\n        /* \"#utility.yul\":32487:32488   */\n      0x01\n        /* \"#utility.yul\":32480:32485   */\n      dup2\n        /* \"#utility.yul\":32476:32489   */\n      add\n        /* \"#utility.yul\":32467:32489   */\n      swap1\n      pop\n        /* \"#utility.yul\":32443:32563   */\n      jump(tag_811)\n    tag_813:\n        /* \"#utility.yul\":32383:32569   */\n      pop\n      pop\n      jump\t// out\n        /* \"#utility.yul\":32575:33118   */\n    tag_529:\n        /* \"#utility.yul\":32676:32678   */\n      0x1f\n        /* \"#utility.yul\":32671:32674   */\n      dup3\n        /* \"#utility.yul\":32668:32679   */\n      gt\n        /* \"#utility.yul\":32665:33111   */\n      iszero\n      tag_816\n      jumpi\n        /* \"#utility.yul\":32710:32748   */\n      tag_817\n        /* \"#utility.yul\":32742:32747   */\n      dup2\n        /* \"#utility.yul\":32710:32748   */\n      tag_519\n      jump\t// in\n    tag_817:\n        /* \"#utility.yul\":32794:32823   */\n      tag_818\n        /* \"#utility.yul\":32812:32822   */\n      dup5\n        /* \"#utility.yul\":32794:32823   */\n      tag_520\n      jump\t// in\n    tag_818:\n        /* \"#utility.yul\":32784:32792   */\n      dup2\n        /* \"#utility.yul\":32780:32824   */\n      add\n        /* \"#utility.yul\":32977:32979   */\n      0x20\n        /* \"#utility.yul\":32965:32975   */\n      dup6\n        /* \"#utility.yul\":32962:32980   */\n      lt\n        /* \"#utility.yul\":32959:33008   */\n      iszero\n      tag_819\n      jumpi\n        /* \"#utility.yul\":32998:33006   */\n      dup2\n        /* \"#utility.yul\":32983:33006   */\n      swap1\n      pop\n        /* \"#utility.yul\":32959:33008   */\n    tag_819:\n        /* \"#utility.yul\":33021:33101   */\n      tag_820\n        /* \"#utility.yul\":33077:33099   */\n      tag_821\n        /* \"#utility.yul\":33095:33098   */\n      dup6\n        /* \"#utility.yul\":33077:33099   */\n      tag_520\n      jump\t// in\n    tag_821:\n        /* \"#utility.yul\":33067:33075   */\n      dup4\n        /* \"#utility.yul\":33063:33100   */\n      add\n        /* \"#utility.yul\":33050:33061   */\n      dup3\n        /* \"#utility.yul\":33021:33101   */\n      tag_528\n      jump\t// in\n    tag_820:\n        /* \"#utility.yul\":32680:33111   */\n      pop\n      pop\n        /* \"#utility.yul\":32665:33111   */\n    tag_816:\n        /* \"#utility.yul\":32575:33118   */\n      pop\n      pop\n      pop\n      jump\t// out\n        /* \"#utility.yul\":33124:33241   */\n    tag_530:\n        /* \"#utility.yul\":33178:33186   */\n      0x00\n        /* \"#utility.yul\":33228:33233   */\n      dup3\n        /* \"#utility.yul\":33222:33226   */\n      dup3\n        /* \"#utility.yul\":33218:33234   */\n      shr\n        /* \"#utility.yul\":33197:33234   */\n      swap1\n      pop\n        /* \"#utility.yul\":33124:33241   */\n      swap3\n      swap2\n      pop\n      pop\n      jump\t// out\n        /* \"#utility.yul\":33247:33416   */\n    tag_531:\n        /* \"#utility.yul\":33291:33297   */\n      0x00\n        /* \"#utility.yul\":33324:33375   */\n      tag_824\n        /* \"#utility.yul\":33372:33373   */\n      0x00\n        /* \"#utility.yul\":33368:33374   */\n      not\n        /* \"#utility.yul\":33360:33365   */\n      dup5\n        /* \"#utility.yul\":33357:33358   */\n      0x08\n        /* \"#utility.yul\":33353:33366   */\n      mul\n        /* \"#utility.yul\":33324:33375   */\n      tag_530\n      jump\t// in\n    tag_824:\n        /* \"#utility.yul\":33320:33376   */\n      not\n        /* \"#utility.yul\":33405:33409   */\n      dup1\n        /* \"#utility.yul\":33399:33403   */\n      dup4\n        /* \"#utility.yul\":33395:33410   */\n      and\n        /* \"#utility.yul\":33385:33410   */\n      swap2\n      pop\n        /* \"#utility.yul\":33298:33416   */\n      pop\n        /* \"#utility.yul\":33247:33416   */\n      swap3\n      swap2\n      pop\n      pop\n      jump\t// out\n        /* \"#utility.yul\":33421:33716   */\n    tag_532:\n        /* \"#utility.yul\":33497:33501   */\n      0x00\n        /* \"#utility.yul\":33643:33672   */\n      tag_826\n        /* \"#utility.yul\":33668:33671   */\n      dup4\n        /* \"#utility.yul\":33662:33666   */\n      dup4\n        /* \"#utility.yul\":33643:33672   */\n      tag_531\n      jump\t// in\n    tag_826:\n        /* \"#utility.yul\":33635:33672   */\n      swap2\n      pop\n        /* \"#utility.yul\":33705:33708   */\n      dup3\n        /* \"#utility.yul\":33702:33703   */\n      0x02\n        /* \"#utility.yul\":33698:33709   */\n      mul\n        /* \"#utility.yul\":33692:33696   */\n      dup3\n        /* \"#utility.yul\":33689:33710   */\n      or\n        /* \"#utility.yul\":33681:33710   */\n      swap1\n      pop\n        /* \"#utility.yul\":33421:33716   */\n      swap3\n      swap2\n      pop\n      pop\n      jump\t// out\n        /* \"#utility.yul\":33721:35116   */\n    tag_397:\n        /* \"#utility.yul\":33838:33875   */\n      tag_828\n        /* \"#utility.yul\":33871:33874   */\n      dup3\n        /* \"#utility.yul\":33838:33875   */\n      tag_442\n      jump\t// in\n    tag_828:\n        /* \"#utility.yul\":33940:33958   */\n      0xffffffffffffffff\n        /* \"#utility.yul\":33932:33938   */\n      dup2\n        /* \"#utility.yul\":33929:33959   */\n      gt\n        /* \"#utility.yul\":33926:33982   */\n      iszero\n      tag_829\n      jumpi\n        /* \"#utility.yul\":33962:33980   */\n      tag_830\n      tag_163\n      jump\t// in\n    tag_830:\n        /* \"#utility.yul\":33926:33982   */\n    tag_829:\n        /* \"#utility.yul\":34006:34044   */\n      tag_831\n        /* \"#utility.yul\":34038:34042   */\n      dup3\n        /* \"#utility.yul\":34032:34043   */\n      sload\n        /* \"#utility.yul\":34006:34044   */\n      tag_130\n      jump\t// in\n    tag_831:\n        /* \"#utility.yul\":34091:34158   */\n      tag_832\n        /* \"#utility.yul\":34151:34157   */\n      dup3\n        /* \"#utility.yul\":34143:34149   */\n      dup3\n        /* \"#utility.yul\":34137:34141   */\n      dup6\n        /* \"#utility.yul\":34091:34158   */\n      tag_529\n      jump\t// in\n    tag_832:\n        /* \"#utility.yul\":34185:34186   */\n      0x00\n        /* \"#utility.yul\":34209:34213   */\n      0x20\n        /* \"#utility.yul\":34196:34213   */\n      swap1\n      pop\n        /* \"#utility.yul\":34241:34243   */\n      0x1f\n        /* \"#utility.yul\":34233:34239   */\n      dup4\n        /* \"#utility.yul\":34230:34244   */\n      gt\n        /* \"#utility.yul\":34258:34259   */\n      0x01\n        /* \"#utility.yul\":34253:34871   */\n      dup2\n      eq\n      tag_834\n      jumpi\n        /* \"#utility.yul\":34915:34916   */\n      0x00\n        /* \"#utility.yul\":34932:34938   */\n      dup5\n        /* \"#utility.yul\":34929:35006   */\n      iszero\n      tag_835\n      jumpi\n        /* \"#utility.yul\":34981:34990   */\n      dup3\n        /* \"#utility.yul\":34976:34979   */\n      dup8\n        /* \"#utility.yul\":34972:34991   */\n      add\n        /* \"#utility.yul\":34966:34992   */\n      mload\n        /* \"#utility.yul\":34957:34992   */\n      swap1\n      pop\n        /* \"#utility.yul\":34929:35006   */\n    tag_835:\n        /* \"#utility.yul\":35032:35099   */\n      tag_836\n        /* \"#utility.yul\":35092:35098   */\n      dup6\n        /* \"#utility.yul\":35085:35090   */\n      dup3\n        /* \"#utility.yul\":35032:35099   */\n      tag_532\n      jump\t// in\n    tag_836:\n        /* \"#utility.yul\":35026:35030   */\n      dup7\n        /* \"#utility.yul\":35019:35100   */\n      sstore\n        /* \"#utility.yul\":34888:35110   */\n      pop\n        /* \"#utility.yul\":34223:35110   */\n      jump(tag_833)\n        /* \"#utility.yul\":34253:34871   */\n    tag_834:\n        /* \"#utility.yul\":34305:34309   */\n      0x1f\n        /* \"#utility.yul\":34301:34310   */\n      not\n        /* \"#utility.yul\":34293:34299   */\n      dup5\n        /* \"#utility.yul\":34289:34311   */\n      and\n        /* \"#utility.yul\":34339:34376   */\n      tag_837\n        /* \"#utility.yul\":34371:34375   */\n      dup7\n        /* \"#utility.yul\":34339:34376   */\n      tag_519\n      jump\t// in\n    tag_837:\n        /* \"#utility.yul\":34398:34399   */\n      0x00\n        /* \"#utility.yul\":34412:34620   */\n    tag_838:\n        /* \"#utility.yul\":34426:34433   */\n      dup3\n        /* \"#utility.yul\":34423:34424   */\n      dup2\n        /* \"#utility.yul\":34420:34434   */\n      lt\n        /* \"#utility.yul\":34412:34620   */\n      iszero\n      tag_840\n      jumpi\n        /* \"#utility.yul\":34505:34514   */\n      dup5\n        /* \"#utility.yul\":34500:34503   */\n      dup10\n        /* \"#utility.yul\":34496:34515   */\n      add\n        /* \"#utility.yul\":34490:34516   */\n      mload\n        /* \"#utility.yul\":34482:34488   */\n      dup3\n        /* \"#utility.yul\":34475:34517   */\n      sstore\n        /* \"#utility.yul\":34556:34557   */\n      0x01\n        /* \"#utility.yul\":34548:34554   */\n      dup3\n        /* \"#utility.yul\":34544:34558   */\n      add\n        /* \"#utility.yul\":34534:34558   */\n      swap2\n      pop\n        /* \"#utility.yul\":34603:34605   */\n      0x20\n        /* \"#utility.yul\":34592:34601   */\n      dup6\n        /* \"#utility.yul\":34588:34606   */\n      add\n        /* \"#utility.yul\":34575:34606   */\n      swap5\n      pop\n        /* \"#utility.yul\":34449:34453   */\n      0x20\n        /* \"#utility.yul\":34446:34447   */\n      dup2\n        /* \"#utility.yul\":34442:34454   */\n      add\n        /* \"#utility.yul\":34437:34454   */\n      swap1\n      pop\n        /* \"#utility.yul\":34412:34620   */\n      jump(tag_838)\n    tag_840:\n        /* \"#utility.yul\":34648:34654   */\n      dup7\n        /* \"#utility.yul\":34639:34646   */\n      dup4\n        /* \"#utility.yul\":34636:34655   */\n      lt\n        /* \"#utility.yul\":34633:34812   */\n      iszero\n      tag_841\n      jumpi\n        /* \"#utility.yul\":34706:34715   */\n      dup5\n        /* \"#utility.yul\":34701:34704   */\n      dup10\n        /* \"#utility.yul\":34697:34716   */\n      add\n        /* \"#utility.yul\":34691:34717   */\n      mload\n        /* \"#utility.yul\":34749:34797   */\n      tag_842\n        /* \"#utility.yul\":34791:34795   */\n      0x1f\n        /* \"#utility.yul\":34783:34789   */\n      dup10\n        /* \"#utility.yul\":34779:34796   */\n      and\n        /* \"#utility.yul\":34768:34777   */\n      dup3\n        /* \"#utility.yul\":34749:34797   */\n      tag_531\n      jump\t// in\n    tag_842:\n        /* \"#utility.yul\":34741:34747   */\n      dup4\n        /* \"#utility.yul\":34734:34798   */\n      sstore\n        /* \"#utility.yul\":34656:34812   */\n      pop\n        /* \"#utility.yul\":34633:34812   */\n    tag_841:\n        /* \"#utility.yul\":34858:34859   */\n      0x01\n        /* \"#utility.yul\":34854:34855   */\n      0x02\n        /* \"#utility.yul\":34846:34852   */\n      dup9\n        /* \"#utility.yul\":34842:34856   */\n      mul\n        /* \"#utility.yul\":34838:34860   */\n      add\n        /* \"#utility.yul\":34832:34836   */\n      dup9\n        /* \"#utility.yul\":34825:34861   */\n      sstore\n        /* \"#utility.yul\":34260:34871   */\n      pop\n      pop\n      pop\n        /* \"#utility.yul\":34223:35110   */\n    tag_833:\n      pop\n        /* \"#utility.yul\":33813:35116   */\n      pop\n      pop\n      pop\n        /* \"#utility.yul\":33721:35116   */\n      pop\n      pop\n      jump\t// out\n        /* \"#utility.yul\":35122:35288   */\n    tag_533:\n        /* \"#utility.yul\":35262:35280   */\n      0x5061757361626c653a2070617573656400000000000000000000000000000000\n        /* \"#utility.yul\":35258:35259   */\n      0x00\n        /* \"#utility.yul\":35250:35256   */\n      dup3\n        /* \"#utility.yul\":35246:35260   */\n      add\n        /* \"#utility.yul\":35239:35281   */\n      mstore\n        /* \"#utility.yul\":35122:35288   */\n      pop\n      jump\t// out\n        /* \"#utility.yul\":35294:35660   */\n    tag_534:\n        /* \"#utility.yul\":35436:35439   */\n      0x00\n        /* \"#utility.yul\":35457:35524   */\n      tag_845\n        /* \"#utility.yul\":35521:35523   */\n      0x10\n        /* \"#utility.yul\":35516:35519   */\n      dup4\n        /* \"#utility.yul\":35457:35524   */\n      tag_443\n      jump\t// in\n    tag_845:\n        /* \"#utility.yul\":35450:35524   */\n      swap2\n      pop\n        /* \"#utility.yul\":35533:35626   */\n      tag_846\n        /* \"#utility.yul\":35622:35625   */\n      dup3\n        /* \"#utility.yul\":35533:35626   */\n      tag_533\n      jump\t// in\n    tag_846:\n        /* \"#utility.yul\":35651:35653   */\n      0x20\n        /* \"#utility.yul\":35646:35649   */\n      dup3\n        /* \"#utility.yul\":35642:35654   */\n      add\n        /* \"#utility.yul\":35635:35654   */\n      swap1\n      pop\n        /* \"#utility.yul\":35294:35660   */\n      swap2\n      swap1\n      pop\n      jump\t// out\n        /* \"#utility.yul\":35666:36085   */\n    tag_413:\n        /* \"#utility.yul\":35832:35836   */\n      0x00\n        /* \"#utility.yul\":35870:35872   */\n      0x20\n        /* \"#utility.yul\":35859:35868   */\n      dup3\n        /* \"#utility.yul\":35855:35873   */\n      add\n        /* \"#utility.yul\":35847:35873   */\n      swap1\n      pop\n        /* \"#utility.yul\":35919:35928   */\n      dup2\n        /* \"#utility.yul\":35913:35917   */\n      dup2\n        /* \"#utility.yul\":35909:35929   */\n      sub\n        /* \"#utility.yul\":35905:35906   */\n      0x00\n        /* \"#utility.yul\":35894:35903   */\n      dup4\n        /* \"#utility.yul\":35890:35907   */\n      add\n        /* \"#utility.yul\":35883:35930   */\n      mstore\n        /* \"#utility.yul\":35947:36078   */\n      tag_848\n        /* \"#utility.yul\":36073:36077   */\n      dup2\n        /* \"#utility.yul\":35947:36078   */\n      tag_534\n      jump\t// in\n    tag_848:\n        /* \"#utility.yul\":35939:36078   */\n      swap1\n      pop\n        /* \"#utility.yul\":35666:36085   */\n      swap2\n      swap1\n      pop\n      jump\t// out\n        /* \"#utility.yul\":36091:36189   */\n    tag_535:\n        /* \"#utility.yul\":36142:36148   */\n      0x00\n        /* \"#utility.yul\":36176:36181   */\n      dup2\n        /* \"#utility.yul\":36170:36182   */\n      mload\n        /* \"#utility.yul\":36160:36182   */\n      swap1\n      pop\n        /* \"#utility.yul\":36091:36189   */\n      swap2\n      swap1\n      pop\n      jump\t// out\n        /* \"#utility.yul\":36195:36342   */\n    tag_536:\n        /* \"#utility.yul\":36296:36307   */\n      0x00\n        /* \"#utility.yul\":36333:36336   */\n      dup2\n        /* \"#utility.yul\":36318:36336   */\n      swap1\n      pop\n        /* \"#utility.yul\":36195:36342   */\n      swap3\n      swap2\n      pop\n      pop\n      jump\t// out\n        /* \"#utility.yul\":36348:36734   */\n    tag_537:\n        /* \"#utility.yul\":36452:36455   */\n      0x00\n        /* \"#utility.yul\":36480:36518   */\n      tag_852\n        /* \"#utility.yul\":36512:36517   */\n      dup3\n        /* \"#utility.yul\":36480:36518   */\n      tag_535\n      jump\t// in\n    tag_852:\n        /* \"#utility.yul\":36534:36622   */\n      tag_853\n        /* \"#utility.yul\":36615:36621   */\n      dup2\n        /* \"#utility.yul\":36610:36613   */\n      dup6\n        /* \"#utility.yul\":36534:36622   */\n      tag_536\n      jump\t// in\n    tag_853:\n        /* \"#utility.yul\":36527:36622   */\n      swap4\n      pop\n        /* \"#utility.yul\":36631:36696   */\n      tag_854\n        /* \"#utility.yul\":36689:36695   */\n      dup2\n        /* \"#utility.yul\":36684:36687   */\n      dup6\n        /* \"#utility.yul\":36677:36681   */\n      0x20\n        /* \"#utility.yul\":36670:36675   */\n      dup7\n        /* \"#utility.yul\":36666:36682   */\n      add\n        /* \"#utility.yul\":36631:36696   */\n      tag_444\n      jump\t// in\n    tag_854:\n        /* \"#utility.yul\":36721:36727   */\n      dup1\n        /* \"#utility.yul\":36716:36719   */\n      dup5\n        /* \"#utility.yul\":36712:36728   */\n      add\n        /* \"#utility.yul\":36705:36728   */\n      swap2\n      pop\n        /* \"#utility.yul\":36456:36734   */\n      pop\n        /* \"#utility.yul\":36348:36734   */\n      swap3\n      swap2\n      pop\n      pop\n      jump\t// out\n        /* \"#utility.yul\":36740:37011   */\n    tag_422:\n        /* \"#utility.yul\":36870:36873   */\n      0x00\n        /* \"#utility.yul\":36892:36985   */\n      tag_856\n        /* \"#utility.yul\":36981:36984   */\n      dup3\n        /* \"#utility.yul\":36972:36978   */\n      dup5\n        /* \"#utility.yul\":36892:36985   */\n      tag_537\n      jump\t// in\n    tag_856:\n        /* \"#utility.yul\":36885:36985   */\n      swap2\n      pop\n        /* \"#utility.yul\":37002:37005   */\n      dup2\n        /* \"#utility.yul\":36995:37005   */\n      swap1\n      pop\n        /* \"#utility.yul\":36740:37011   */\n      swap3\n      swap2\n      pop\n      pop\n      jump\t// out\n        /* \"#utility.yul\":37017:37196   */\n    tag_538:\n        /* \"#utility.yul\":37157:37188   */\n      0x416464726573733a2063616c6c20746f206e6f6e2d636f6e7472616374000000\n        /* \"#utility.yul\":37153:37154   */\n      0x00\n        /* \"#utility.yul\":37145:37151   */\n      dup3\n        /* \"#utility.yul\":37141:37155   */\n      add\n        /* \"#utility.yul\":37134:37189   */\n      mstore\n        /* \"#utility.yul\":37017:37196   */\n      pop\n      jump\t// out\n        /* \"#utility.yul\":37202:37568   */\n    tag_539:\n        /* \"#utility.yul\":37344:37347   */\n      0x00\n        /* \"#utility.yul\":37365:37432   */\n      tag_859\n        /* \"#utility.yul\":37429:37431   */\n      0x1d\n        /* \"#utility.yul\":37424:37427   */\n      dup4\n        /* \"#utility.yul\":37365:37432   */\n      tag_443\n      jump\t// in\n    tag_859:\n        /* \"#utility.yul\":37358:37432   */\n      swap2\n      pop\n        /* \"#utility.yul\":37441:37534   */\n      tag_860\n        /* \"#utility.yul\":37530:37533   */\n      dup3\n        /* \"#utility.yul\":37441:37534   */\n      tag_538\n      jump\t// in\n    tag_860:\n        /* \"#utility.yul\":37559:37561   */\n      0x20\n        /* \"#utility.yul\":37554:37557   */\n      dup3\n        /* \"#utility.yul\":37550:37562   */\n      add\n        /* \"#utility.yul\":37543:37562   */\n      swap1\n      pop\n        /* \"#utility.yul\":37202:37568   */\n      swap2\n      swap1\n      pop\n      jump\t// out\n        /* \"#utility.yul\":37574:37993   */\n    tag_434:\n        /* \"#utility.yul\":37740:37744   */\n      0x00\n        /* \"#utility.yul\":37778:37780   */\n      0x20\n        /* \"#utility.yul\":37767:37776   */\n      dup3\n        /* \"#utility.yul\":37763:37781   */\n      add\n        /* \"#utility.yul\":37755:37781   */\n      swap1\n      pop\n        /* \"#utility.yul\":37827:37836   */\n      dup2\n        /* \"#utility.yul\":37821:37825   */\n      dup2\n        /* \"#utility.yul\":37817:37837   */\n      sub\n        /* \"#utility.yul\":37813:37814   */\n      0x00\n        /* \"#utility.yul\":37802:37811   */\n      dup4\n        /* \"#utility.yul\":37798:37815   */\n      add\n        /* \"#utility.yul\":37791:37838   */\n      mstore\n        /* \"#utility.yul\":37855:37986   */\n      tag_862\n        /* \"#utility.yul\":37981:37985   */\n      dup2\n        /* \"#utility.yul\":37855:37986   */\n      tag_539\n      jump\t// in\n    tag_862:\n        /* \"#utility.yul\":37847:37986   */\n      swap1\n      pop\n        /* \"#utility.yul\":37574:37993   */\n      swap2\n      swap1\n      pop\n      jump\t// out\n    stop\n    data_9fdcd12e4b726339b32a442b0a448365d5d85c96b2d2cff917b4f66c63110398 416464726573733a206c6f772d6c6576656c2064656c65676174652063616c6c206661696c6564\n\n    auxdata: 0xa26469706673582212202d45db17d540ab788205625abc537cfb7436cf799911f5be530c0d576aa8e9b864736f6c63430008120033\n}\n",
				"bytecode": {
					"linkReferences": {},
					"object": "60a06040523073ffffffffffffffffffffffffffffffffffffffff1660809073ffffffffffffffffffffffffffffffffffffffff168152503480156200004457600080fd5b50620000556200005b60201b60201c565b62000205565b600060019054906101000a900460ff1615620000ae576040517f08c379a0000000000000000000000000000000000000000000000000000000008152600401620000a590620001a8565b60405180910390fd5b60ff801660008054906101000a900460ff1660ff16146200011f5760ff6000806101000a81548160ff021916908360ff1602179055507f7f26b83ff96e1f2b6a682f133852f6798a09c465da95921460cefb384740249860ff604051620001169190620001e8565b60405180910390a15b565b600082825260208201905092915050565b7f496e697469616c697a61626c653a20636f6e747261637420697320696e69746960008201527f616c697a696e6700000000000000000000000000000000000000000000000000602082015250565b60006200019060278362000121565b91506200019d8262000132565b604082019050919050565b60006020820190508181036000830152620001c38162000181565b9050919050565b600060ff82169050919050565b620001e281620001ca565b82525050565b6000602082019050620001ff6000830184620001d7565b92915050565b6080516133606200023d600039600081816105fe0152818161068c015281816107e501528181610873015261092301526133606000f3fe6080604052600436106101355760003560e01c80635c975abb116100ab5780638da5cb5b1161006f5780638da5cb5b146103cf57806395d89b41146103fa578063a457c2d714610425578063a9059cbb14610462578063dd62ed3e1461049f578063f2fde38b146104dc57610135565b80635c975abb1461032257806370a082311461034d578063715018a61461038a5780638129fc1c146103a15780638456cb59146103b857610135565b80633659cfe6116100fd5780633659cfe614610235578063395093511461025e5780633f4ba83a1461029b57806340c10f19146102b25780634f1ef286146102db57806352d1902d146102f757610135565b806306fdde031461013a578063095ea7b31461016557806318160ddd146101a257806323b872dd146101cd578063313ce5671461020a575b600080fd5b34801561014657600080fd5b5061014f610505565b60405161015c9190611f4f565b60405180910390f35b34801561017157600080fd5b5061018c60048036038101906101879190612019565b610597565b6040516101999190612074565b60405180910390f35b3480156101ae57600080fd5b506101b76105ba565b6040516101c4919061209e565b60405180910390f35b3480156101d957600080fd5b506101f460048036038101906101ef91906120b9565b6105c4565b6040516102019190612074565b60405180910390f35b34801561021657600080fd5b5061021f6105f3565b60405161022c9190612128565b60405180910390f35b34801561024157600080fd5b5061025c60048036038101906102579190612143565b6105fc565b005b34801561026a57600080fd5b5061028560048036038101906102809190612019565b610784565b6040516102929190612074565b60405180910390f35b3480156102a757600080fd5b506102b06107bb565b005b3480156102be57600080fd5b506102d960048036038101906102d49190612019565b6107cd565b005b6102f560048036038101906102f091906122a5565b6107e3565b005b34801561030357600080fd5b5061030c61091f565b604051610319919061231a565b60405180910390f35b34801561032e57600080fd5b506103376109d8565b6040516103449190612074565b60405180910390f35b34801561035957600080fd5b50610374600480360381019061036f9190612143565b6109ef565b604051610381919061209e565b60405180910390f35b34801561039657600080fd5b5061039f610a38565b005b3480156103ad57600080fd5b506103b6610a4c565b005b3480156103c457600080fd5b506103cd610c0e565b005b3480156103db57600080fd5b506103e4610c20565b6040516103f19190612344565b60405180910390f35b34801561040657600080fd5b5061040f610c4a565b60405161041c9190611f4f565b60405180910390f35b34801561043157600080fd5b5061044c60048036038101906104479190612019565b610cdc565b6040516104599190612074565b60405180910390f35b34801561046e57600080fd5b5061048960048036038101906104849190612019565b610d53565b6040516104969190612074565b60405180910390f35b3480156104ab57600080fd5b506104c660048036038101906104c1919061235f565b610d76565b6040516104d3919061209e565b60405180910390f35b3480156104e857600080fd5b5061050360048036038101906104fe9190612143565b610dfd565b005b606060368054610514906123ce565b80601f0160208091040260200160405190810160405280929190818152602001828054610540906123ce565b801561058d5780601f106105625761010080835404028352916020019161058d565b820191906000526020600020905b81548152906001019060200180831161057057829003601f168201915b5050505050905090565b6000806105a2610e80565b90506105af818585610e88565b600191505092915050565b6000603554905090565b6000806105cf610e80565b90506105dc858285611051565b6105e78585856110dd565b60019150509392505050565b60006012905090565b7f000000000000000000000000000000000000000000000000000000000000000073ffffffffffffffffffffffffffffffffffffffff163073ffffffffffffffffffffffffffffffffffffffff160361068a576040517f08c379a000000000000000000000000000000000000000000000000000000000815260040161068190612471565b60405180910390fd5b7f000000000000000000000000000000000000000000000000000000000000000073ffffffffffffffffffffffffffffffffffffffff166106c9611356565b73ffffffffffffffffffffffffffffffffffffffff161461071f576040517f08c379a000000000000000000000000000000000000000000000000000000000815260040161071690612503565b60405180910390fd5b610728816113ad565b61078181600067ffffffffffffffff8111156107475761074661217a565b5b6040519080825280601f01601f1916602001820160405280156107795781602001600182028036833780820191505090505b5060006113b8565b50565b60008061078f610e80565b90506107b08185856107a18589610d76565b6107ab9190612552565b610e88565b600191505092915050565b6107c3611526565b6107cb6115a4565b565b6107d5611526565b6107df8282611607565b5050565b7f000000000000000000000000000000000000000000000000000000000000000073ffffffffffffffffffffffffffffffffffffffff163073ffffffffffffffffffffffffffffffffffffffff1603610871576040517f08c379a000000000000000000000000000000000000000000000000000000000815260040161086890612471565b60405180910390fd5b7f000000000000000000000000000000000000000000000000000000000000000073ffffffffffffffffffffffffffffffffffffffff166108b0611356565b73ffffffffffffffffffffffffffffffffffffffff1614610906576040517f08c379a00000000000000000000000000000000000000000000000000000000081526004016108fd90612503565b60405180910390fd5b61090f826113ad565b61091b828260016113b8565b5050565b60007f000000000000000000000000000000000000000000000000000000000000000073ffffffffffffffffffffffffffffffffffffffff163073ffffffffffffffffffffffffffffffffffffffff16146109af576040517f08c379a00000000000000000000000000000000000000000000000000000000081526004016109a6906125f8565b60405180910390fd5b7f360894a13ba1a3210667c828492db98dca3e2076cc3735a920a3ca505d382bbc60001b905090565b6000606560009054906101000a900460ff16905090565b6000603360008373ffffffffffffffffffffffffffffffffffffffff1673ffffffffffffffffffffffffffffffffffffffff168152602001908152602001600020549050919050565b610a40611526565b610a4a600061175e565b565b60008060019054906101000a900460ff16159050808015610a7d5750600160008054906101000a900460ff1660ff16105b80610aaa5750610a8c30611824565b158015610aa95750600160008054906101000a900460ff1660ff16145b5b610ae9576040517f08c379a0000000000000000000000000000000000000000000000000000000008152600401610ae09061268a565b60405180910390fd5b60016000806101000a81548160ff021916908360ff1602179055508015610b26576001600060016101000a81548160ff0219169083151502179055505b610b9a6040518060400160405280600481526020017f57495453000000000000000000000000000000000000000000000000000000008152506040518060400160405280600481526020017f5749545300000000000000000000000000000000000000000000000000000000815250611847565b610ba26118a4565b610baa6118fd565b610bb2611956565b8015610c0b5760008060016101000a81548160ff0219169083151502179055507f7f26b83ff96e1f2b6a682f133852f6798a09c465da95921460cefb38474024986001604051610c0291906126ef565b60405180910390a15b50565b610c16611526565b610c1e6119a7565b565b6000609760009054906101000a900473ffffffffffffffffffffffffffffffffffffffff16905090565b606060378054610c59906123ce565b80601f0160208091040260200160405190810160405280929190818152602001828054610c85906123ce565b8015610cd25780601f10610ca757610100808354040283529160200191610cd2565b820191906000526020600020905b815481529060010190602001808311610cb557829003601f168201915b5050505050905090565b600080610ce7610e80565b90506000610cf58286610d76565b905083811015610d3a576040517f08c379a0000000000000000000000000000000000000000000000000000000008152600401610d319061277c565b60405180910390fd5b610d478286868403610e88565b60019250505092915050565b600080610d5e610e80565b9050610d6b8185856110dd565b600191505092915050565b6000603460008473ffffffffffffffffffffffffffffffffffffffff1673ffffffffffffffffffffffffffffffffffffffff16815260200190815260200160002060008373ffffffffffffffffffffffffffffffffffffffff1673ffffffffffffffffffffffffffffffffffffffff16815260200190815260200160002054905092915050565b610e05611526565b600073ffffffffffffffffffffffffffffffffffffffff168173ffffffffffffffffffffffffffffffffffffffff1603610e74576040517f08c379a0000000000000000000000000000000000000000000000000000000008152600401610e6b9061280e565b60405180910390fd5b610e7d8161175e565b50565b600033905090565b600073ffffffffffffffffffffffffffffffffffffffff168373ffffffffffffffffffffffffffffffffffffffff1603610ef7576040517f08c379a0000000000000000000000000000000000000000000000000000000008152600401610eee906128a0565b60405180910390fd5b600073ffffffffffffffffffffffffffffffffffffffff168273ffffffffffffffffffffffffffffffffffffffff1603610f66576040517f08c379a0000000000000000000000000000000000000000000000000000000008152600401610f5d90612932565b60405180910390fd5b80603460008573ffffffffffffffffffffffffffffffffffffffff1673ffffffffffffffffffffffffffffffffffffffff16815260200190815260200160002060008473ffffffffffffffffffffffffffffffffffffffff1673ffffffffffffffffffffffffffffffffffffffff168152602001908152602001600020819055508173ffffffffffffffffffffffffffffffffffffffff168373ffffffffffffffffffffffffffffffffffffffff167f8c5be1e5ebec7d5bd14f71427d1e84f3dd0314c0f7b2291e5b200ac8c7c3b92583604051611044919061209e565b60405180910390a3505050565b600061105d8484610d76565b90507fffffffffffffffffffffffffffffffffffffffffffffffffffffffffffffffff81146110d757818110156110c9576040517f08c379a00000000000000000000000000000000000000000000000000000000081526004016110c09061299e565b60405180910390fd5b6110d68484848403610e88565b5b50505050565b600073ffffffffffffffffffffffffffffffffffffffff168373ffffffffffffffffffffffffffffffffffffffff160361114c576040517f08c379a000000000000000000000000000000000000000000000000000000000815260040161114390612a30565b60405180910390fd5b600073ffffffffffffffffffffffffffffffffffffffff168273ffffffffffffffffffffffffffffffffffffffff16036111bb576040517f08c379a00000000000000000000000000000000000000000000000000000000081526004016111b290612ac2565b60405180910390fd5b6111c6838383611a0a565b6000603360008573ffffffffffffffffffffffffffffffffffffffff1673ffffffffffffffffffffffffffffffffffffffff1681526020019081526020016000205490508181101561124d576040517f08c379a000000000000000000000000000000000000000000000000000000000815260040161124490612b54565b60405180910390fd5b818103603360008673ffffffffffffffffffffffffffffffffffffffff1673ffffffffffffffffffffffffffffffffffffffff1681526020019081526020016000208190555081603360008573ffffffffffffffffffffffffffffffffffffffff1673ffffffffffffffffffffffffffffffffffffffff168152602001908152602001600020600082825401925050819055508273ffffffffffffffffffffffffffffffffffffffff168473ffffffffffffffffffffffffffffffffffffffff167fddf252ad1be2c89b69c2b068fc378daa952ba7f163c4a11628f55a4df523b3ef8460405161133d919061209e565b60405180910390a3611350848484611a22565b50505050565b60006113847f360894a13ba1a3210667c828492db98dca3e2076cc3735a920a3ca505d382bbc60001b611a27565b60000160009054906101000a900473ffffffffffffffffffffffffffffffffffffffff16905090565b6113b5611526565b50565b6113e47f4910fdfa16fed3260ed0e7147f7cc6da11a60208b5b9406d12a635614ffd914360001b611a31565b60000160009054906101000a900460ff16156114085761140383611a3b565b611521565b8273ffffffffffffffffffffffffffffffffffffffff166352d1902d6040518163ffffffff1660e01b8152600401602060405180830381865afa92505050801561147057506040513d601f19601f8201168201806040525081019061146d9190612ba0565b60015b6114af576040517f08c379a00000000000000000000000000000000000000000000000000000000081526004016114a690612c3f565b60405180910390fd5b7f360894a13ba1a3210667c828492db98dca3e2076cc3735a920a3ca505d382bbc60001b8114611514576040517f08c379a000000000000000000000000000000000000000000000000000000000815260040161150b90612cd1565b60405180910390fd5b50611520838383611af4565b5b505050565b61152e610e80565b73ffffffffffffffffffffffffffffffffffffffff1661154c610c20565b73ffffffffffffffffffffffffffffffffffffffff16146115a2576040517f08c379a000000000000000000000000000000000000000000000000000000000815260040161159990612d3d565b60405180910390fd5b565b6115ac611b20565b6000606560006101000a81548160ff0219169083151502179055507f5db9ee0a495bf2e6ff9c91a7834c1ba4fdd244a5e8aa4e537bd38aeae4b073aa6115f0610e80565b6040516115fd9190612344565b60405180910390a1565b600073ffffffffffffffffffffffffffffffffffffffff168273ffffffffffffffffffffffffffffffffffffffff1603611676576040517f08c379a000000000000000000000000000000000000000000000000000000000815260040161166d90612da9565b60405180910390fd5b61168260008383611a0a565b80603560008282546116949190612552565b9250508190555080603360008473ffffffffffffffffffffffffffffffffffffffff1673ffffffffffffffffffffffffffffffffffffffff168152602001908152602001600020600082825401925050819055508173ffffffffffffffffffffffffffffffffffffffff16600073ffffffffffffffffffffffffffffffffffffffff167fddf252ad1be2c89b69c2b068fc378daa952ba7f163c4a11628f55a4df523b3ef83604051611746919061209e565b60405180910390a361175a60008383611a22565b5050565b6000609760009054906101000a900473ffffffffffffffffffffffffffffffffffffffff16905081609760006101000a81548173ffffffffffffffffffffffffffffffffffffffff021916908373ffffffffffffffffffffffffffffffffffffffff1602179055508173ffffffffffffffffffffffffffffffffffffffff168173ffffffffffffffffffffffffffffffffffffffff167f8be0079c531659141344cd1fd0a4f28419497f9722a3daafe3b4186f6b6457e060405160405180910390a35050565b6000808273ffffffffffffffffffffffffffffffffffffffff163b119050919050565b600060019054906101000a900460ff16611896576040517f08c379a000000000000000000000000000000000000000000000000000000000815260040161188d90612e3b565b60405180910390fd5b6118a08282611b69565b5050565b600060019054906101000a900460ff166118f3576040517f08c379a00000000000000000000000000000000000000000000000000000000081526004016118ea90612e3b565b60405180910390fd5b6118fb611bdc565b565b600060019054906101000a900460ff1661194c576040517f08c379a000000000000000000000000000000000000000000000000000000000815260040161194390612e3b565b60405180910390fd5b611954611c48565b565b600060019054906101000a900460ff166119a5576040517f08c379a000000000000000000000000000000000000000000000000000000000815260040161199c90612e3b565b60405180910390fd5b565b6119af611ca9565b6001606560006101000a81548160ff0219169083151502179055507f62e78cea01bee320cd4e420270b5ea74000d11b0c9f74754ebdbfc544b05a2586119f3610e80565b604051611a009190612344565b60405180910390a1565b611a12611ca9565b611a1d838383611cf3565b505050565b505050565b6000819050919050565b6000819050919050565b611a4481611824565b611a83576040517f08c379a0000000000000000000000000000000000000000000000000000000008152600401611a7a90612ecd565b60405180910390fd5b80611ab07f360894a13ba1a3210667c828492db98dca3e2076cc3735a920a3ca505d382bbc60001b611a27565b60000160006101000a81548173ffffffffffffffffffffffffffffffffffffffff021916908373ffffffffffffffffffffffffffffffffffffffff16021790555050565b611afd83611cf8565b600082511180611b0a5750805b15611b1b57611b198383611d47565b505b505050565b611b286109d8565b611b67576040517f08c379a0000000000000000000000000000000000000000000000000000000008152600401611b5e90612f39565b60405180910390fd5b565b600060019054906101000a900460ff16611bb8576040517f08c379a0000000000000000000000000000000000000000000000000000000008152600401611baf90612e3b565b60405180910390fd5b8160369081611bc791906130fb565b508060379081611bd791906130fb565b505050565b600060019054906101000a900460ff16611c2b576040517f08c379a0000000000000000000000000000000000000000000000000000000008152600401611c2290612e3b565b60405180910390fd5b6000606560006101000a81548160ff021916908315150217905550565b600060019054906101000a900460ff16611c97576040517f08c379a0000000000000000000000000000000000000000000000000000000008152600401611c8e90612e3b565b60405180910390fd5b611ca7611ca2610e80565b61175e565b565b611cb16109d8565b15611cf1576040517f08c379a0000000000000000000000000000000000000000000000000000000008152600401611ce890613219565b60405180910390fd5b565b505050565b611d0181611a3b565b8073ffffffffffffffffffffffffffffffffffffffff167fbc7cd75a20ee27fd9adebab32041f755214dbc6bffa90cc0225b39da2e5c2d3b60405160405180910390a250565b6060611d6c838360405180606001604052806027815260200161330460279139611d74565b905092915050565b60606000808573ffffffffffffffffffffffffffffffffffffffff1685604051611d9e9190613280565b600060405180830381855af49150503d8060008114611dd9576040519150601f19603f3d011682016040523d82523d6000602084013e611dde565b606091505b5091509150611def86838387611dfa565b925050509392505050565b60608315611e5c576000835103611e5457611e1485611824565b611e53576040517f08c379a0000000000000000000000000000000000000000000000000000000008152600401611e4a906132e3565b60405180910390fd5b5b829050611e67565b611e668383611e6f565b5b949350505050565b600082511115611e825781518083602001fd5b806040517f08c379a0000000000000000000000000000000000000000000000000000000008152600401611eb69190611f4f565b60405180910390fd5b600081519050919050565b600082825260208201905092915050565b60005b83811015611ef9578082015181840152602081019050611ede565b60008484015250505050565b6000601f19601f8301169050919050565b6000611f2182611ebf565b611f2b8185611eca565b9350611f3b818560208601611edb565b611f4481611f05565b840191505092915050565b60006020820190508181036000830152611f698184611f16565b905092915050565b6000604051905090565b600080fd5b600080fd5b600073ffffffffffffffffffffffffffffffffffffffff82169050919050565b6000611fb082611f85565b9050919050565b611fc081611fa5565b8114611fcb57600080fd5b50565b600081359050611fdd81611fb7565b92915050565b6000819050919050565b611ff681611fe3565b811461200157600080fd5b50565b60008135905061201381611fed565b92915050565b600080604083850312156120305761202f611f7b565b5b600061203e85828601611fce565b925050602061204f85828601612004565b9150509250929050565b60008115159050919050565b61206e81612059565b82525050565b60006020820190506120896000830184612065565b92915050565b61209881611fe3565b82525050565b60006020820190506120b3600083018461208f565b92915050565b6000806000606084860312156120d2576120d1611f7b565b5b60006120e086828701611fce565b93505060206120f186828701611fce565b925050604061210286828701612004565b9150509250925092565b600060ff82169050919050565b6121228161210c565b82525050565b600060208201905061213d6000830184612119565b92915050565b60006020828403121561215957612158611f7b565b5b600061216784828501611fce565b91505092915050565b600080fd5b600080fd5b7f4e487b7100000000000000000000000000000000000000000000000000000000600052604160045260246000fd5b6121b282611f05565b810181811067ffffffffffffffff821117156121d1576121d061217a565b5b80604052505050565b60006121e4611f71565b90506121f082826121a9565b919050565b600067ffffffffffffffff8211156122105761220f61217a565b5b61221982611f05565b9050602081019050919050565b82818337600083830152505050565b6000612248612243846121f5565b6121da565b90508281526020810184848401111561226457612263612175565b5b61226f848285612226565b509392505050565b600082601f83011261228c5761228b612170565b5b813561229c848260208601612235565b91505092915050565b600080604083850312156122bc576122bb611f7b565b5b60006122ca85828601611fce565b925050602083013567ffffffffffffffff8111156122eb576122ea611f80565b5b6122f785828601612277565b9150509250929050565b6000819050919050565b61231481612301565b82525050565b600060208201905061232f600083018461230b565b92915050565b61233e81611fa5565b82525050565b60006020820190506123596000830184612335565b92915050565b6000806040838503121561237657612375611f7b565b5b600061238485828601611fce565b925050602061239585828601611fce565b9150509250929050565b7f4e487b7100000000000000000000000000000000000000000000000000000000600052602260045260246000fd5b600060028204905060018216806123e657607f821691505b6020821081036123f9576123f861239f565b5b50919050565b7f46756e6374696f6e206d7573742062652063616c6c6564207468726f7567682060008201527f64656c656761746563616c6c0000000000000000000000000000000000000000602082015250565b600061245b602c83611eca565b9150612466826123ff565b604082019050919050565b6000602082019050818103600083015261248a8161244e565b9050919050565b7f46756e6374696f6e206d7573742062652063616c6c6564207468726f7567682060008201527f6163746976652070726f78790000000000000000000000000000000000000000602082015250565b60006124ed602c83611eca565b91506124f882612491565b604082019050919050565b6000602082019050818103600083015261251c816124e0565b9050919050565b7f4e487b7100000000000000000000000000000000000000000000000000000000600052601160045260246000fd5b600061255d82611fe3565b915061256883611fe3565b92508282019050808211156125805761257f612523565b5b92915050565b7f555550535570677261646561626c653a206d757374206e6f742062652063616c60008201527f6c6564207468726f7567682064656c656761746563616c6c0000000000000000602082015250565b60006125e2603883611eca565b91506125ed82612586565b604082019050919050565b60006020820190508181036000830152612611816125d5565b9050919050565b7f496e697469616c697a61626c653a20636f6e747261637420697320616c72656160008201527f647920696e697469616c697a6564000000000000000000000000000000000000602082015250565b6000612674602e83611eca565b915061267f82612618565b604082019050919050565b600060208201905081810360008301526126a381612667565b9050919050565b6000819050919050565b6000819050919050565b60006126d96126d46126cf846126aa565b6126b4565b61210c565b9050919050565b6126e9816126be565b82525050565b600060208201905061270460008301846126e0565b92915050565b7f45524332303a2064656372656173656420616c6c6f77616e63652062656c6f7760008201527f207a65726f000000000000000000000000000000000000000000000000000000602082015250565b6000612766602583611eca565b91506127718261270a565b604082019050919050565b6000602082019050818103600083015261279581612759565b9050919050565b7f4f776e61626c653a206e6577206f776e657220697320746865207a65726f206160008201527f6464726573730000000000000000000000000000000000000000000000000000602082015250565b60006127f8602683611eca565b91506128038261279c565b604082019050919050565b60006020820190508181036000830152612827816127eb565b9050919050565b7f45524332303a20617070726f76652066726f6d20746865207a65726f2061646460008201527f7265737300000000000000000000000000000000000000000000000000000000602082015250565b600061288a602483611eca565b91506128958261282e565b604082019050919050565b600060208201905081810360008301526128b98161287d565b9050919050565b7f45524332303a20617070726f766520746f20746865207a65726f20616464726560008201527f7373000000000000000000000000000000000000000000000000000000000000602082015250565b600061291c602283611eca565b9150612927826128c0565b604082019050919050565b6000602082019050818103600083015261294b8161290f565b9050919050565b7f45524332303a20696e73756666696369656e7420616c6c6f77616e6365000000600082015250565b6000612988601d83611eca565b915061299382612952565b602082019050919050565b600060208201905081810360008301526129b78161297b565b9050919050565b7f45524332303a207472616e736665722066726f6d20746865207a65726f20616460008201527f6472657373000000000000000000000000000000000000000000000000000000602082015250565b6000612a1a602583611eca565b9150612a25826129be565b604082019050919050565b60006020820190508181036000830152612a4981612a0d565b9050919050565b7f45524332303a207472616e7366657220746f20746865207a65726f206164647260008201527f6573730000000000000000000000000000000000000000000000000000000000602082015250565b6000612aac602383611eca565b9150612ab782612a50565b604082019050919050565b60006020820190508181036000830152612adb81612a9f565b9050919050565b7f45524332303a207472616e7366657220616d6f756e742065786365656473206260008201527f616c616e63650000000000000000000000000000000000000000000000000000602082015250565b6000612b3e602683611eca565b9150612b4982612ae2565b604082019050919050565b60006020820190508181036000830152612b6d81612b31565b9050919050565b612b7d81612301565b8114612b8857600080fd5b50565b600081519050612b9a81612b74565b92915050565b600060208284031215612bb657612bb5611f7b565b5b6000612bc484828501612b8b565b91505092915050565b7f45524331393637557067726164653a206e657720696d706c656d656e7461746960008201527f6f6e206973206e6f742055555053000000000000000000000000000000000000602082015250565b6000612c29602e83611eca565b9150612c3482612bcd565b604082019050919050565b60006020820190508181036000830152612c5881612c1c565b9050919050565b7f45524331393637557067726164653a20756e737570706f727465642070726f7860008201527f6961626c65555549440000000000000000000000000000000000000000000000602082015250565b6000612cbb602983611eca565b9150612cc682612c5f565b604082019050919050565b60006020820190508181036000830152612cea81612cae565b9050919050565b7f4f776e61626c653a2063616c6c6572206973206e6f7420746865206f776e6572600082015250565b6000612d27602083611eca565b9150612d3282612cf1565b602082019050919050565b60006020820190508181036000830152612d5681612d1a565b9050919050565b7f45524332303a206d696e7420746f20746865207a65726f206164647265737300600082015250565b6000612d93601f83611eca565b9150612d9e82612d5d565b602082019050919050565b60006020820190508181036000830152612dc281612d86565b9050919050565b7f496e697469616c697a61626c653a20636f6e7472616374206973206e6f74206960008201527f6e697469616c697a696e67000000000000000000000000000000000000000000602082015250565b6000612e25602b83611eca565b9150612e3082612dc9565b604082019050919050565b60006020820190508181036000830152612e5481612e18565b9050919050565b7f455243313936373a206e657720696d706c656d656e746174696f6e206973206e60008201527f6f74206120636f6e747261637400000000000000000000000000000000000000602082015250565b6000612eb7602d83611eca565b9150612ec282612e5b565b604082019050919050565b60006020820190508181036000830152612ee681612eaa565b9050919050565b7f5061757361626c653a206e6f7420706175736564000000000000000000000000600082015250565b6000612f23601483611eca565b9150612f2e82612eed565b602082019050919050565b60006020820190508181036000830152612f5281612f16565b9050919050565b60008190508160005260206000209050919050565b60006020601f8301049050919050565b600082821b905092915050565b600060088302612fbb7fffffffffffffffffffffffffffffffffffffffffffffffffffffffffffffffff82612f7e565b612fc58683612f7e565b95508019841693508086168417925050509392505050565b6000612ff8612ff3612fee84611fe3565b6126b4565b611fe3565b9050919050565b6000819050919050565b61301283612fdd565b61302661301e82612fff565b848454612f8b565b825550505050565b600090565b61303b61302e565b613046818484613009565b505050565b5b8181101561306a5761305f600082613033565b60018101905061304c565b5050565b601f8211156130af5761308081612f59565b61308984612f6e565b81016020851015613098578190505b6130ac6130a485612f6e565b83018261304b565b50505b505050565b600082821c905092915050565b60006130d2600019846008026130b4565b1980831691505092915050565b60006130eb83836130c1565b9150826002028217905092915050565b61310482611ebf565b67ffffffffffffffff81111561311d5761311c61217a565b5b61312782546123ce565b61313282828561306e565b600060209050601f8311600181146131655760008415613153578287015190505b61315d85826130df565b8655506131c5565b601f19841661317386612f59565b60005b8281101561319b57848901518255600182019150602085019450602081019050613176565b868310156131b857848901516131b4601f8916826130c1565b8355505b6001600288020188555050505b505050505050565b7f5061757361626c653a2070617573656400000000000000000000000000000000600082015250565b6000613203601083611eca565b915061320e826131cd565b602082019050919050565b60006020820190508181036000830152613232816131f6565b9050919050565b600081519050919050565b600081905092915050565b600061325a82613239565b6132648185613244565b9350613274818560208601611edb565b80840191505092915050565b600061328c828461324f565b915081905092915050565b7f416464726573733a2063616c6c20746f206e6f6e2d636f6e7472616374000000600082015250565b60006132cd601d83611eca565b91506132d882613297565b602082019050919050565b600060208201905081810360008301526132fc816132c0565b905091905056fe416464726573733a206c6f772d6c6576656c2064656c65676174652063616c6c206661696c6564a26469706673582212202d45db17d540ab788205625abc537cfb7436cf799911f5be530c0d576aa8e9b864736f6c63430008120033",
					"opcodes": "PUSH1 0xA0 PUSH1 0x40 MSTORE ADDRESS PUSH20 0xFFFFFFFFFFFFFFFFFFFFFFFFFFFFFFFFFFFFFFFF AND PUSH1 0x80 SWAP1 PUSH20 0xFFFFFFFFFFFFFFFFFFFFFFFFFFFFFFFFFFFFFFFF AND DUP2 MSTORE POP CALLVALUE DUP1 ISZERO PUSH3 0x44 JUMPI PUSH1 0x0 DUP1 REVERT JUMPDEST POP PUSH3 0x55 PUSH3 0x5B PUSH1 0x20 SHL PUSH1 0x20 SHR JUMP JUMPDEST PUSH3 0x205 JUMP JUMPDEST PUSH1 0x0 PUSH1 0x1 SWAP1 SLOAD SWAP1 PUSH2 0x100 EXP SWAP1 DIV PUSH1 0xFF AND ISZERO PUSH3 0xAE JUMPI PUSH1 0x40 MLOAD PUSH32 0x8C379A000000000000000000000000000000000000000000000000000000000 DUP2 MSTORE PUSH1 0x4 ADD PUSH3 0xA5 SWAP1 PUSH3 0x1A8 JUMP JUMPDEST PUSH1 0x40 MLOAD DUP1 SWAP2 SUB SWAP1 REVERT JUMPDEST PUSH1 0xFF DUP1 AND PUSH1 0x0 DUP1 SLOAD SWAP1 PUSH2 0x100 EXP SWAP1 DIV PUSH1 0xFF AND PUSH1 0xFF AND EQ PUSH3 0x11F JUMPI PUSH1 0xFF PUSH1 0x0 DUP1 PUSH2 0x100 EXP DUP2 SLOAD DUP2 PUSH1 0xFF MUL NOT AND SWAP1 DUP4 PUSH1 0xFF AND MUL OR SWAP1 SSTORE POP PUSH32 0x7F26B83FF96E1F2B6A682F133852F6798A09C465DA95921460CEFB3847402498 PUSH1 0xFF PUSH1 0x40 MLOAD PUSH3 0x116 SWAP2 SWAP1 PUSH3 0x1E8 JUMP JUMPDEST PUSH1 0x40 MLOAD DUP1 SWAP2 SUB SWAP1 LOG1 JUMPDEST JUMP JUMPDEST PUSH1 0x0 DUP3 DUP3 MSTORE PUSH1 0x20 DUP3 ADD SWAP1 POP SWAP3 SWAP2 POP POP JUMP JUMPDEST PUSH32 0x496E697469616C697A61626C653A20636F6E747261637420697320696E697469 PUSH1 0x0 DUP3 ADD MSTORE PUSH32 0x616C697A696E6700000000000000000000000000000000000000000000000000 PUSH1 0x20 DUP3 ADD MSTORE POP JUMP JUMPDEST PUSH1 0x0 PUSH3 0x190 PUSH1 0x27 DUP4 PUSH3 0x121 JUMP JUMPDEST SWAP2 POP PUSH3 0x19D DUP3 PUSH3 0x132 JUMP JUMPDEST PUSH1 0x40 DUP3 ADD SWAP1 POP SWAP2 SWAP1 POP JUMP JUMPDEST PUSH1 0x0 PUSH1 0x20 DUP3 ADD SWAP1 POP DUP2 DUP2 SUB PUSH1 0x0 DUP4 ADD MSTORE PUSH3 0x1C3 DUP2 PUSH3 0x181 JUMP JUMPDEST SWAP1 POP SWAP2 SWAP1 POP JUMP JUMPDEST PUSH1 0x0 PUSH1 0xFF DUP3 AND SWAP1 POP SWAP2 SWAP1 POP JUMP JUMPDEST PUSH3 0x1E2 DUP2 PUSH3 0x1CA JUMP JUMPDEST DUP3 MSTORE POP POP JUMP JUMPDEST PUSH1 0x0 PUSH1 0x20 DUP3 ADD SWAP1 POP PUSH3 0x1FF PUSH1 0x0 DUP4 ADD DUP5 PUSH3 0x1D7 JUMP JUMPDEST SWAP3 SWAP2 POP POP JUMP JUMPDEST PUSH1 0x80 MLOAD PUSH2 0x3360 PUSH3 0x23D PUSH1 0x0 CODECOPY PUSH1 0x0 DUP2 DUP2 PUSH2 0x5FE ADD MSTORE DUP2 DUP2 PUSH2 0x68C ADD MSTORE DUP2 DUP2 PUSH2 0x7E5 ADD MSTORE DUP2 DUP2 PUSH2 0x873 ADD MSTORE PUSH2 0x923 ADD MSTORE PUSH2 0x3360 PUSH1 0x0 RETURN INVALID PUSH1 0x80 PUSH1 0x40 MSTORE PUSH1 0x4 CALLDATASIZE LT PUSH2 0x135 JUMPI PUSH1 0x0 CALLDATALOAD PUSH1 0xE0 SHR DUP1 PUSH4 0x5C975ABB GT PUSH2 0xAB JUMPI DUP1 PUSH4 0x8DA5CB5B GT PUSH2 0x6F JUMPI DUP1 PUSH4 0x8DA5CB5B EQ PUSH2 0x3CF JUMPI DUP1 PUSH4 0x95D89B41 EQ PUSH2 0x3FA JUMPI DUP1 PUSH4 0xA457C2D7 EQ PUSH2 0x425 JUMPI DUP1 PUSH4 0xA9059CBB EQ PUSH2 0x462 JUMPI DUP1 PUSH4 0xDD62ED3E EQ PUSH2 0x49F JUMPI DUP1 PUSH4 0xF2FDE38B EQ PUSH2 0x4DC JUMPI PUSH2 0x135 JUMP JUMPDEST DUP1 PUSH4 0x5C975ABB EQ PUSH2 0x322 JUMPI DUP1 PUSH4 0x70A08231 EQ PUSH2 0x34D JUMPI DUP1 PUSH4 0x715018A6 EQ PUSH2 0x38A JUMPI DUP1 PUSH4 0x8129FC1C EQ PUSH2 0x3A1 JUMPI DUP1 PUSH4 0x8456CB59 EQ PUSH2 0x3B8 JUMPI PUSH2 0x135 JUMP JUMPDEST DUP1 PUSH4 0x3659CFE6 GT PUSH2 0xFD JUMPI DUP1 PUSH4 0x3659CFE6 EQ PUSH2 0x235 JUMPI DUP1 PUSH4 0x39509351 EQ PUSH2 0x25E JUMPI DUP1 PUSH4 0x3F4BA83A EQ PUSH2 0x29B JUMPI DUP1 PUSH4 0x40C10F19 EQ PUSH2 0x2B2 JUMPI DUP1 PUSH4 0x4F1EF286 EQ PUSH2 0x2DB JUMPI DUP1 PUSH4 0x52D1902D EQ PUSH2 0x2F7 JUMPI PUSH2 0x135 JUMP JUMPDEST DUP1 PUSH4 0x6FDDE03 EQ PUSH2 0x13A JUMPI DUP1 PUSH4 0x95EA7B3 EQ PUSH2 0x165 JUMPI DUP1 PUSH4 0x18160DDD EQ PUSH2 0x1A2 JUMPI DUP1 PUSH4 0x23B872DD EQ PUSH2 0x1CD JUMPI DUP1 PUSH4 0x313CE567 EQ PUSH2 0x20A JUMPI JUMPDEST PUSH1 0x0 DUP1 REVERT JUMPDEST CALLVALUE DUP1 ISZERO PUSH2 0x146 JUMPI PUSH1 0x0 DUP1 REVERT JUMPDEST POP PUSH2 0x14F PUSH2 0x505 JUMP JUMPDEST PUSH1 0x40 MLOAD PUSH2 0x15C SWAP2 SWAP1 PUSH2 0x1F4F JUMP JUMPDEST PUSH1 0x40 MLOAD DUP1 SWAP2 SUB SWAP1 RETURN JUMPDEST CALLVALUE DUP1 ISZERO PUSH2 0x171 JUMPI PUSH1 0x0 DUP1 REVERT JUMPDEST POP PUSH2 0x18C PUSH1 0x4 DUP1 CALLDATASIZE SUB DUP2 ADD SWAP1 PUSH2 0x187 SWAP2 SWAP1 PUSH2 0x2019 JUMP JUMPDEST PUSH2 0x597 JUMP JUMPDEST PUSH1 0x40 MLOAD PUSH2 0x199 SWAP2 SWAP1 PUSH2 0x2074 JUMP JUMPDEST PUSH1 0x40 MLOAD DUP1 SWAP2 SUB SWAP1 RETURN JUMPDEST CALLVALUE DUP1 ISZERO PUSH2 0x1AE JUMPI PUSH1 0x0 DUP1 REVERT JUMPDEST POP PUSH2 0x1B7 PUSH2 0x5BA JUMP JUMPDEST PUSH1 0x40 MLOAD PUSH2 0x1C4 SWAP2 SWAP1 PUSH2 0x209E JUMP JUMPDEST PUSH1 0x40 MLOAD DUP1 SWAP2 SUB SWAP1 RETURN JUMPDEST CALLVALUE DUP1 ISZERO PUSH2 0x1D9 JUMPI PUSH1 0x0 DUP1 REVERT JUMPDEST POP PUSH2 0x1F4 PUSH1 0x4 DUP1 CALLDATASIZE SUB DUP2 ADD SWAP1 PUSH2 0x1EF SWAP2 SWAP1 PUSH2 0x20B9 JUMP JUMPDEST PUSH2 0x5C4 JUMP JUMPDEST PUSH1 0x40 MLOAD PUSH2 0x201 SWAP2 SWAP1 PUSH2 0x2074 JUMP JUMPDEST PUSH1 0x40 MLOAD DUP1 SWAP2 SUB SWAP1 RETURN JUMPDEST CALLVALUE DUP1 ISZERO PUSH2 0x216 JUMPI PUSH1 0x0 DUP1 REVERT JUMPDEST POP PUSH2 0x21F PUSH2 0x5F3 JUMP JUMPDEST PUSH1 0x40 MLOAD PUSH2 0x22C SWAP2 SWAP1 PUSH2 0x2128 JUMP JUMPDEST PUSH1 0x40 MLOAD DUP1 SWAP2 SUB SWAP1 RETURN JUMPDEST CALLVALUE DUP1 ISZERO PUSH2 0x241 JUMPI PUSH1 0x0 DUP1 REVERT JUMPDEST POP PUSH2 0x25C PUSH1 0x4 DUP1 CALLDATASIZE SUB DUP2 ADD SWAP1 PUSH2 0x257 SWAP2 SWAP1 PUSH2 0x2143 JUMP JUMPDEST PUSH2 0x5FC JUMP JUMPDEST STOP JUMPDEST CALLVALUE DUP1 ISZERO PUSH2 0x26A JUMPI PUSH1 0x0 DUP1 REVERT JUMPDEST POP PUSH2 0x285 PUSH1 0x4 DUP1 CALLDATASIZE SUB DUP2 ADD SWAP1 PUSH2 0x280 SWAP2 SWAP1 PUSH2 0x2019 JUMP JUMPDEST PUSH2 0x784 JUMP JUMPDEST PUSH1 0x40 MLOAD PUSH2 0x292 SWAP2 SWAP1 PUSH2 0x2074 JUMP JUMPDEST PUSH1 0x40 MLOAD DUP1 SWAP2 SUB SWAP1 RETURN JUMPDEST CALLVALUE DUP1 ISZERO PUSH2 0x2A7 JUMPI PUSH1 0x0 DUP1 REVERT JUMPDEST POP PUSH2 0x2B0 PUSH2 0x7BB JUMP JUMPDEST STOP JUMPDEST CALLVALUE DUP1 ISZERO PUSH2 0x2BE JUMPI PUSH1 0x0 DUP1 REVERT JUMPDEST POP PUSH2 0x2D9 PUSH1 0x4 DUP1 CALLDATASIZE SUB DUP2 ADD SWAP1 PUSH2 0x2D4 SWAP2 SWAP1 PUSH2 0x2019 JUMP JUMPDEST PUSH2 0x7CD JUMP JUMPDEST STOP JUMPDEST PUSH2 0x2F5 PUSH1 0x4 DUP1 CALLDATASIZE SUB DUP2 ADD SWAP1 PUSH2 0x2F0 SWAP2 SWAP1 PUSH2 0x22A5 JUMP JUMPDEST PUSH2 0x7E3 JUMP JUMPDEST STOP JUMPDEST CALLVALUE DUP1 ISZERO PUSH2 0x303 JUMPI PUSH1 0x0 DUP1 REVERT JUMPDEST POP PUSH2 0x30C PUSH2 0x91F JUMP JUMPDEST PUSH1 0x40 MLOAD PUSH2 0x319 SWAP2 SWAP1 PUSH2 0x231A JUMP JUMPDEST PUSH1 0x40 MLOAD DUP1 SWAP2 SUB SWAP1 RETURN JUMPDEST CALLVALUE DUP1 ISZERO PUSH2 0x32E JUMPI PUSH1 0x0 DUP1 REVERT JUMPDEST POP PUSH2 0x337 PUSH2 0x9D8 JUMP JUMPDEST PUSH1 0x40 MLOAD PUSH2 0x344 SWAP2 SWAP1 PUSH2 0x2074 JUMP JUMPDEST PUSH1 0x40 MLOAD DUP1 SWAP2 SUB SWAP1 RETURN JUMPDEST CALLVALUE DUP1 ISZERO PUSH2 0x359 JUMPI PUSH1 0x0 DUP1 REVERT JUMPDEST POP PUSH2 0x374 PUSH1 0x4 DUP1 CALLDATASIZE SUB DUP2 ADD SWAP1 PUSH2 0x36F SWAP2 SWAP1 PUSH2 0x2143 JUMP JUMPDEST PUSH2 0x9EF JUMP JUMPDEST PUSH1 0x40 MLOAD PUSH2 0x381 SWAP2 SWAP1 PUSH2 0x209E JUMP JUMPDEST PUSH1 0x40 MLOAD DUP1 SWAP2 SUB SWAP1 RETURN JUMPDEST CALLVALUE DUP1 ISZERO PUSH2 0x396 JUMPI PUSH1 0x0 DUP1 REVERT JUMPDEST POP PUSH2 0x39F PUSH2 0xA38 JUMP JUMPDEST STOP JUMPDEST CALLVALUE DUP1 ISZERO PUSH2 0x3AD JUMPI PUSH1 0x0 DUP1 REVERT JUMPDEST POP PUSH2 0x3B6 PUSH2 0xA4C JUMP JUMPDEST STOP JUMPDEST CALLVALUE DUP1 ISZERO PUSH2 0x3C4 JUMPI PUSH1 0x0 DUP1 REVERT JUMPDEST POP PUSH2 0x3CD PUSH2 0xC0E JUMP JUMPDEST STOP JUMPDEST CALLVALUE DUP1 ISZERO PUSH2 0x3DB JUMPI PUSH1 0x0 DUP1 REVERT JUMPDEST POP PUSH2 0x3E4 PUSH2 0xC20 JUMP JUMPDEST PUSH1 0x40 MLOAD PUSH2 0x3F1 SWAP2 SWAP1 PUSH2 0x2344 JUMP JUMPDEST PUSH1 0x40 MLOAD DUP1 SWAP2 SUB SWAP1 RETURN JUMPDEST CALLVALUE DUP1 ISZERO PUSH2 0x406 JUMPI PUSH1 0x0 DUP1 REVERT JUMPDEST POP PUSH2 0x40F PUSH2 0xC4A JUMP JUMPDEST PUSH1 0x40 MLOAD PUSH2 0x41C SWAP2 SWAP1 PUSH2 0x1F4F JUMP JUMPDEST PUSH1 0x40 MLOAD DUP1 SWAP2 SUB SWAP1 RETURN JUMPDEST CALLVALUE DUP1 ISZERO PUSH2 0x431 JUMPI PUSH1 0x0 DUP1 REVERT JUMPDEST POP PUSH2 0x44C PUSH1 0x4 DUP1 CALLDATASIZE SUB DUP2 ADD SWAP1 PUSH2 0x447 SWAP2 SWAP1 PUSH2 0x2019 JUMP JUMPDEST PUSH2 0xCDC JUMP JUMPDEST PUSH1 0x40 MLOAD PUSH2 0x459 SWAP2 SWAP1 PUSH2 0x2074 JUMP JUMPDEST PUSH1 0x40 MLOAD DUP1 SWAP2 SUB SWAP1 RETURN JUMPDEST CALLVALUE DUP1 ISZERO PUSH2 0x46E JUMPI PUSH1 0x0 DUP1 REVERT JUMPDEST POP PUSH2 0x489 PUSH1 0x4 DUP1 CALLDATASIZE SUB DUP2 ADD SWAP1 PUSH2 0x484 SWAP2 SWAP1 PUSH2 0x2019 JUMP JUMPDEST PUSH2 0xD53 JUMP JUMPDEST PUSH1 0x40 MLOAD PUSH2 0x496 SWAP2 SWAP1 PUSH2 0x2074 JUMP JUMPDEST PUSH1 0x40 MLOAD DUP1 SWAP2 SUB SWAP1 RETURN JUMPDEST CALLVALUE DUP1 ISZERO PUSH2 0x4AB JUMPI PUSH1 0x0 DUP1 REVERT JUMPDEST POP PUSH2 0x4C6 PUSH1 0x4 DUP1 CALLDATASIZE SUB DUP2 ADD SWAP1 PUSH2 0x4C1 SWAP2 SWAP1 PUSH2 0x235F JUMP JUMPDEST PUSH2 0xD76 JUMP JUMPDEST PUSH1 0x40 MLOAD PUSH2 0x4D3 SWAP2 SWAP1 PUSH2 0x209E JUMP JUMPDEST PUSH1 0x40 MLOAD DUP1 SWAP2 SUB SWAP1 RETURN JUMPDEST CALLVALUE DUP1 ISZERO PUSH2 0x4E8 JUMPI PUSH1 0x0 DUP1 REVERT JUMPDEST POP PUSH2 0x503 PUSH1 0x4 DUP1 CALLDATASIZE SUB DUP2 ADD SWAP1 PUSH2 0x4FE SWAP2 SWAP1 PUSH2 0x2143 JUMP JUMPDEST PUSH2 0xDFD JUMP JUMPDEST STOP JUMPDEST PUSH1 0x60 PUSH1 0x36 DUP1 SLOAD PUSH2 0x514 SWAP1 PUSH2 0x23CE JUMP JUMPDEST DUP1 PUSH1 0x1F ADD PUSH1 0x20 DUP1 SWAP2 DIV MUL PUSH1 0x20 ADD PUSH1 0x40 MLOAD SWAP1 DUP2 ADD PUSH1 0x40 MSTORE DUP1 SWAP3 SWAP2 SWAP1 DUP2 DUP2 MSTORE PUSH1 0x20 ADD DUP3 DUP1 SLOAD PUSH2 0x540 SWAP1 PUSH2 0x23CE JUMP JUMPDEST DUP1 ISZERO PUSH2 0x58D JUMPI DUP1 PUSH1 0x1F LT PUSH2 0x562 JUMPI PUSH2 0x100 DUP1 DUP4 SLOAD DIV MUL DUP4 MSTORE SWAP2 PUSH1 0x20 ADD SWAP2 PUSH2 0x58D JUMP JUMPDEST DUP3 ADD SWAP2 SWAP1 PUSH1 0x0 MSTORE PUSH1 0x20 PUSH1 0x0 KECCAK256 SWAP1 JUMPDEST DUP2 SLOAD DUP2 MSTORE SWAP1 PUSH1 0x1 ADD SWAP1 PUSH1 0x20 ADD DUP1 DUP4 GT PUSH2 0x570 JUMPI DUP3 SWAP1 SUB PUSH1 0x1F AND DUP3 ADD SWAP2 JUMPDEST POP POP POP POP POP SWAP1 POP SWAP1 JUMP JUMPDEST PUSH1 0x0 DUP1 PUSH2 0x5A2 PUSH2 0xE80 JUMP JUMPDEST SWAP1 POP PUSH2 0x5AF DUP2 DUP6 DUP6 PUSH2 0xE88 JUMP JUMPDEST PUSH1 0x1 SWAP2 POP POP SWAP3 SWAP2 POP POP JUMP JUMPDEST PUSH1 0x0 PUSH1 0x35 SLOAD SWAP1 POP SWAP1 JUMP JUMPDEST PUSH1 0x0 DUP1 PUSH2 0x5CF PUSH2 0xE80 JUMP JUMPDEST SWAP1 POP PUSH2 0x5DC DUP6 DUP3 DUP6 PUSH2 0x1051 JUMP JUMPDEST PUSH2 0x5E7 DUP6 DUP6 DUP6 PUSH2 0x10DD JUMP JUMPDEST PUSH1 0x1 SWAP2 POP POP SWAP4 SWAP3 POP POP POP JUMP JUMPDEST PUSH1 0x0 PUSH1 0x12 SWAP1 POP SWAP1 JUMP JUMPDEST PUSH32 0x0 PUSH20 0xFFFFFFFFFFFFFFFFFFFFFFFFFFFFFFFFFFFFFFFF AND ADDRESS PUSH20 0xFFFFFFFFFFFFFFFFFFFFFFFFFFFFFFFFFFFFFFFF AND SUB PUSH2 0x68A JUMPI PUSH1 0x40 MLOAD PUSH32 0x8C379A000000000000000000000000000000000000000000000000000000000 DUP2 MSTORE PUSH1 0x4 ADD PUSH2 0x681 SWAP1 PUSH2 0x2471 JUMP JUMPDEST PUSH1 0x40 MLOAD DUP1 SWAP2 SUB SWAP1 REVERT JUMPDEST PUSH32 0x0 PUSH20 0xFFFFFFFFFFFFFFFFFFFFFFFFFFFFFFFFFFFFFFFF AND PUSH2 0x6C9 PUSH2 0x1356 JUMP JUMPDEST PUSH20 0xFFFFFFFFFFFFFFFFFFFFFFFFFFFFFFFFFFFFFFFF AND EQ PUSH2 0x71F JUMPI PUSH1 0x40 MLOAD PUSH32 0x8C379A000000000000000000000000000000000000000000000000000000000 DUP2 MSTORE PUSH1 0x4 ADD PUSH2 0x716 SWAP1 PUSH2 0x2503 JUMP JUMPDEST PUSH1 0x40 MLOAD DUP1 SWAP2 SUB SWAP1 REVERT JUMPDEST PUSH2 0x728 DUP2 PUSH2 0x13AD JUMP JUMPDEST PUSH2 0x781 DUP2 PUSH1 0x0 PUSH8 0xFFFFFFFFFFFFFFFF DUP2 GT ISZERO PUSH2 0x747 JUMPI PUSH2 0x746 PUSH2 0x217A JUMP JUMPDEST JUMPDEST PUSH1 0x40 MLOAD SWAP1 DUP1 DUP3 MSTORE DUP1 PUSH1 0x1F ADD PUSH1 0x1F NOT AND PUSH1 0x20 ADD DUP3 ADD PUSH1 0x40 MSTORE DUP1 ISZERO PUSH2 0x779 JUMPI DUP2 PUSH1 0x20 ADD PUSH1 0x1 DUP3 MUL DUP1 CALLDATASIZE DUP4 CALLDATACOPY DUP1 DUP3 ADD SWAP2 POP POP SWAP1 POP JUMPDEST POP PUSH1 0x0 PUSH2 0x13B8 JUMP JUMPDEST POP JUMP JUMPDEST PUSH1 0x0 DUP1 PUSH2 0x78F PUSH2 0xE80 JUMP JUMPDEST SWAP1 POP PUSH2 0x7B0 DUP2 DUP6 DUP6 PUSH2 0x7A1 DUP6 DUP10 PUSH2 0xD76 JUMP JUMPDEST PUSH2 0x7AB SWAP2 SWAP1 PUSH2 0x2552 JUMP JUMPDEST PUSH2 0xE88 JUMP JUMPDEST PUSH1 0x1 SWAP2 POP POP SWAP3 SWAP2 POP POP JUMP JUMPDEST PUSH2 0x7C3 PUSH2 0x1526 JUMP JUMPDEST PUSH2 0x7CB PUSH2 0x15A4 JUMP JUMPDEST JUMP JUMPDEST PUSH2 0x7D5 PUSH2 0x1526 JUMP JUMPDEST PUSH2 0x7DF DUP3 DUP3 PUSH2 0x1607 JUMP JUMPDEST POP POP JUMP JUMPDEST PUSH32 0x0 PUSH20 0xFFFFFFFFFFFFFFFFFFFFFFFFFFFFFFFFFFFFFFFF AND ADDRESS PUSH20 0xFFFFFFFFFFFFFFFFFFFFFFFFFFFFFFFFFFFFFFFF AND SUB PUSH2 0x871 JUMPI PUSH1 0x40 MLOAD PUSH32 0x8C379A000000000000000000000000000000000000000000000000000000000 DUP2 MSTORE PUSH1 0x4 ADD PUSH2 0x868 SWAP1 PUSH2 0x2471 JUMP JUMPDEST PUSH1 0x40 MLOAD DUP1 SWAP2 SUB SWAP1 REVERT JUMPDEST PUSH32 0x0 PUSH20 0xFFFFFFFFFFFFFFFFFFFFFFFFFFFFFFFFFFFFFFFF AND PUSH2 0x8B0 PUSH2 0x1356 JUMP JUMPDEST PUSH20 0xFFFFFFFFFFFFFFFFFFFFFFFFFFFFFFFFFFFFFFFF AND EQ PUSH2 0x906 JUMPI PUSH1 0x40 MLOAD PUSH32 0x8C379A000000000000000000000000000000000000000000000000000000000 DUP2 MSTORE PUSH1 0x4 ADD PUSH2 0x8FD SWAP1 PUSH2 0x2503 JUMP JUMPDEST PUSH1 0x40 MLOAD DUP1 SWAP2 SUB SWAP1 REVERT JUMPDEST PUSH2 0x90F DUP3 PUSH2 0x13AD JUMP JUMPDEST PUSH2 0x91B DUP3 DUP3 PUSH1 0x1 PUSH2 0x13B8 JUMP JUMPDEST POP POP JUMP JUMPDEST PUSH1 0x0 PUSH32 0x0 PUSH20 0xFFFFFFFFFFFFFFFFFFFFFFFFFFFFFFFFFFFFFFFF AND ADDRESS PUSH20 0xFFFFFFFFFFFFFFFFFFFFFFFFFFFFFFFFFFFFFFFF AND EQ PUSH2 0x9AF JUMPI PUSH1 0x40 MLOAD PUSH32 0x8C379A000000000000000000000000000000000000000000000000000000000 DUP2 MSTORE PUSH1 0x4 ADD PUSH2 0x9A6 SWAP1 PUSH2 0x25F8 JUMP JUMPDEST PUSH1 0x40 MLOAD DUP1 SWAP2 SUB SWAP1 REVERT JUMPDEST PUSH32 0x360894A13BA1A3210667C828492DB98DCA3E2076CC3735A920A3CA505D382BBC PUSH1 0x0 SHL SWAP1 POP SWAP1 JUMP JUMPDEST PUSH1 0x0 PUSH1 0x65 PUSH1 0x0 SWAP1 SLOAD SWAP1 PUSH2 0x100 EXP SWAP1 DIV PUSH1 0xFF AND SWAP1 POP SWAP1 JUMP JUMPDEST PUSH1 0x0 PUSH1 0x33 PUSH1 0x0 DUP4 PUSH20 0xFFFFFFFFFFFFFFFFFFFFFFFFFFFFFFFFFFFFFFFF AND PUSH20 0xFFFFFFFFFFFFFFFFFFFFFFFFFFFFFFFFFFFFFFFF AND DUP2 MSTORE PUSH1 0x20 ADD SWAP1 DUP2 MSTORE PUSH1 0x20 ADD PUSH1 0x0 KECCAK256 SLOAD SWAP1 POP SWAP2 SWAP1 POP JUMP JUMPDEST PUSH2 0xA40 PUSH2 0x1526 JUMP JUMPDEST PUSH2 0xA4A PUSH1 0x0 PUSH2 0x175E JUMP JUMPDEST JUMP JUMPDEST PUSH1 0x0 DUP1 PUSH1 0x1 SWAP1 SLOAD SWAP1 PUSH2 0x100 EXP SWAP1 DIV PUSH1 0xFF AND ISZERO SWAP1 POP DUP1 DUP1 ISZERO PUSH2 0xA7D JUMPI POP PUSH1 0x1 PUSH1 0x0 DUP1 SLOAD SWAP1 PUSH2 0x100 EXP SWAP1 DIV PUSH1 0xFF AND PUSH1 0xFF AND LT JUMPDEST DUP1 PUSH2 0xAAA JUMPI POP PUSH2 0xA8C ADDRESS PUSH2 0x1824 JUMP JUMPDEST ISZERO DUP1 ISZERO PUSH2 0xAA9 JUMPI POP PUSH1 0x1 PUSH1 0x0 DUP1 SLOAD SWAP1 PUSH2 0x100 EXP SWAP1 DIV PUSH1 0xFF AND PUSH1 0xFF AND EQ JUMPDEST JUMPDEST PUSH2 0xAE9 JUMPI PUSH1 0x40 MLOAD PUSH32 0x8C379A000000000000000000000000000000000000000000000000000000000 DUP2 MSTORE PUSH1 0x4 ADD PUSH2 0xAE0 SWAP1 PUSH2 0x268A JUMP JUMPDEST PUSH1 0x40 MLOAD DUP1 SWAP2 SUB SWAP1 REVERT JUMPDEST PUSH1 0x1 PUSH1 0x0 DUP1 PUSH2 0x100 EXP DUP2 SLOAD DUP2 PUSH1 0xFF MUL NOT AND SWAP1 DUP4 PUSH1 0xFF AND MUL OR SWAP1 SSTORE POP DUP1 ISZERO PUSH2 0xB26 JUMPI PUSH1 0x1 PUSH1 0x0 PUSH1 0x1 PUSH2 0x100 EXP DUP2 SLOAD DUP2 PUSH1 0xFF MUL NOT AND SWAP1 DUP4 ISZERO ISZERO MUL OR SWAP1 SSTORE POP JUMPDEST PUSH2 0xB9A PUSH1 0x40 MLOAD DUP1 PUSH1 0x40 ADD PUSH1 0x40 MSTORE DUP1 PUSH1 0x4 DUP2 MSTORE PUSH1 0x20 ADD PUSH32 0x5749545300000000000000000000000000000000000000000000000000000000 DUP2 MSTORE POP PUSH1 0x40 MLOAD DUP1 PUSH1 0x40 ADD PUSH1 0x40 MSTORE DUP1 PUSH1 0x4 DUP2 MSTORE PUSH1 0x20 ADD PUSH32 0x5749545300000000000000000000000000000000000000000000000000000000 DUP2 MSTORE POP PUSH2 0x1847 JUMP JUMPDEST PUSH2 0xBA2 PUSH2 0x18A4 JUMP JUMPDEST PUSH2 0xBAA PUSH2 0x18FD JUMP JUMPDEST PUSH2 0xBB2 PUSH2 0x1956 JUMP JUMPDEST DUP1 ISZERO PUSH2 0xC0B JUMPI PUSH1 0x0 DUP1 PUSH1 0x1 PUSH2 0x100 EXP DUP2 SLOAD DUP2 PUSH1 0xFF MUL NOT AND SWAP1 DUP4 ISZERO ISZERO MUL OR SWAP1 SSTORE POP PUSH32 0x7F26B83FF96E1F2B6A682F133852F6798A09C465DA95921460CEFB3847402498 PUSH1 0x1 PUSH1 0x40 MLOAD PUSH2 0xC02 SWAP2 SWAP1 PUSH2 0x26EF JUMP JUMPDEST PUSH1 0x40 MLOAD DUP1 SWAP2 SUB SWAP1 LOG1 JUMPDEST POP JUMP JUMPDEST PUSH2 0xC16 PUSH2 0x1526 JUMP JUMPDEST PUSH2 0xC1E PUSH2 0x19A7 JUMP JUMPDEST JUMP JUMPDEST PUSH1 0x0 PUSH1 0x97 PUSH1 0x0 SWAP1 SLOAD SWAP1 PUSH2 0x100 EXP SWAP1 DIV PUSH20 0xFFFFFFFFFFFFFFFFFFFFFFFFFFFFFFFFFFFFFFFF AND SWAP1 POP SWAP1 JUMP JUMPDEST PUSH1 0x60 PUSH1 0x37 DUP1 SLOAD PUSH2 0xC59 SWAP1 PUSH2 0x23CE JUMP JUMPDEST DUP1 PUSH1 0x1F ADD PUSH1 0x20 DUP1 SWAP2 DIV MUL PUSH1 0x20 ADD PUSH1 0x40 MLOAD SWAP1 DUP2 ADD PUSH1 0x40 MSTORE DUP1 SWAP3 SWAP2 SWAP1 DUP2 DUP2 MSTORE PUSH1 0x20 ADD DUP3 DUP1 SLOAD PUSH2 0xC85 SWAP1 PUSH2 0x23CE JUMP JUMPDEST DUP1 ISZERO PUSH2 0xCD2 JUMPI DUP1 PUSH1 0x1F LT PUSH2 0xCA7 JUMPI PUSH2 0x100 DUP1 DUP4 SLOAD DIV MUL DUP4 MSTORE SWAP2 PUSH1 0x20 ADD SWAP2 PUSH2 0xCD2 JUMP JUMPDEST DUP3 ADD SWAP2 SWAP1 PUSH1 0x0 MSTORE PUSH1 0x20 PUSH1 0x0 KECCAK256 SWAP1 JUMPDEST DUP2 SLOAD DUP2 MSTORE SWAP1 PUSH1 0x1 ADD SWAP1 PUSH1 0x20 ADD DUP1 DUP4 GT PUSH2 0xCB5 JUMPI DUP3 SWAP1 SUB PUSH1 0x1F AND DUP3 ADD SWAP2 JUMPDEST POP POP POP POP POP SWAP1 POP SWAP1 JUMP JUMPDEST PUSH1 0x0 DUP1 PUSH2 0xCE7 PUSH2 0xE80 JUMP JUMPDEST SWAP1 POP PUSH1 0x0 PUSH2 0xCF5 DUP3 DUP7 PUSH2 0xD76 JUMP JUMPDEST SWAP1 POP DUP4 DUP2 LT ISZERO PUSH2 0xD3A JUMPI PUSH1 0x40 MLOAD PUSH32 0x8C379A000000000000000000000000000000000000000000000000000000000 DUP2 MSTORE PUSH1 0x4 ADD PUSH2 0xD31 SWAP1 PUSH2 0x277C JUMP JUMPDEST PUSH1 0x40 MLOAD DUP1 SWAP2 SUB SWAP1 REVERT JUMPDEST PUSH2 0xD47 DUP3 DUP7 DUP7 DUP5 SUB PUSH2 0xE88 JUMP JUMPDEST PUSH1 0x1 SWAP3 POP POP POP SWAP3 SWAP2 POP POP JUMP JUMPDEST PUSH1 0x0 DUP1 PUSH2 0xD5E PUSH2 0xE80 JUMP JUMPDEST SWAP1 POP PUSH2 0xD6B DUP2 DUP6 DUP6 PUSH2 0x10DD JUMP JUMPDEST PUSH1 0x1 SWAP2 POP POP SWAP3 SWAP2 POP POP JUMP JUMPDEST PUSH1 0x0 PUSH1 0x34 PUSH1 0x0 DUP5 PUSH20 0xFFFFFFFFFFFFFFFFFFFFFFFFFFFFFFFFFFFFFFFF AND PUSH20 0xFFFFFFFFFFFFFFFFFFFFFFFFFFFFFFFFFFFFFFFF AND DUP2 MSTORE PUSH1 0x20 ADD SWAP1 DUP2 MSTORE PUSH1 0x20 ADD PUSH1 0x0 KECCAK256 PUSH1 0x0 DUP4 PUSH20 0xFFFFFFFFFFFFFFFFFFFFFFFFFFFFFFFFFFFFFFFF AND PUSH20 0xFFFFFFFFFFFFFFFFFFFFFFFFFFFFFFFFFFFFFFFF AND DUP2 MSTORE PUSH1 0x20 ADD SWAP1 DUP2 MSTORE PUSH1 0x20 ADD PUSH1 0x0 KECCAK256 SLOAD SWAP1 POP SWAP3 SWAP2 POP POP JUMP JUMPDEST PUSH2 0xE05 PUSH2 0x1526 JUMP JUMPDEST PUSH1 0x0 PUSH20 0xFFFFFFFFFFFFFFFFFFFFFFFFFFFFFFFFFFFFFFFF AND DUP2 PUSH20 0xFFFFFFFFFFFFFFFFFFFFFFFFFFFFFFFFFFFFFFFF AND SUB PUSH2 0xE74 JUMPI PUSH1 0x40 MLOAD PUSH32 0x8C379A000000000000000000000000000000000000000000000000000000000 DUP2 MSTORE PUSH1 0x4 ADD PUSH2 0xE6B SWAP1 PUSH2 0x280E JUMP JUMPDEST PUSH1 0x40 MLOAD DUP1 SWAP2 SUB SWAP1 REVERT JUMPDEST PUSH2 0xE7D DUP2 PUSH2 0x175E JUMP JUMPDEST POP JUMP JUMPDEST PUSH1 0x0 CALLER SWAP1 POP SWAP1 JUMP JUMPDEST PUSH1 0x0 PUSH20 0xFFFFFFFFFFFFFFFFFFFFFFFFFFFFFFFFFFFFFFFF AND DUP4 PUSH20 0xFFFFFFFFFFFFFFFFFFFFFFFFFFFFFFFFFFFFFFFF AND SUB PUSH2 0xEF7 JUMPI PUSH1 0x40 MLOAD PUSH32 0x8C379A000000000000000000000000000000000000000000000000000000000 DUP2 MSTORE PUSH1 0x4 ADD PUSH2 0xEEE SWAP1 PUSH2 0x28A0 JUMP JUMPDEST PUSH1 0x40 MLOAD DUP1 SWAP2 SUB SWAP1 REVERT JUMPDEST PUSH1 0x0 PUSH20 0xFFFFFFFFFFFFFFFFFFFFFFFFFFFFFFFFFFFFFFFF AND DUP3 PUSH20 0xFFFFFFFFFFFFFFFFFFFFFFFFFFFFFFFFFFFFFFFF AND SUB PUSH2 0xF66 JUMPI PUSH1 0x40 MLOAD PUSH32 0x8C379A000000000000000000000000000000000000000000000000000000000 DUP2 MSTORE PUSH1 0x4 ADD PUSH2 0xF5D SWAP1 PUSH2 0x2932 JUMP JUMPDEST PUSH1 0x40 MLOAD DUP1 SWAP2 SUB SWAP1 REVERT JUMPDEST DUP1 PUSH1 0x34 PUSH1 0x0 DUP6 PUSH20 0xFFFFFFFFFFFFFFFFFFFFFFFFFFFFFFFFFFFFFFFF AND PUSH20 0xFFFFFFFFFFFFFFFFFFFFFFFFFFFFFFFFFFFFFFFF AND DUP2 MSTORE PUSH1 0x20 ADD SWAP1 DUP2 MSTORE PUSH1 0x20 ADD PUSH1 0x0 KECCAK256 PUSH1 0x0 DUP5 PUSH20 0xFFFFFFFFFFFFFFFFFFFFFFFFFFFFFFFFFFFFFFFF AND PUSH20 0xFFFFFFFFFFFFFFFFFFFFFFFFFFFFFFFFFFFFFFFF AND DUP2 MSTORE PUSH1 0x20 ADD SWAP1 DUP2 MSTORE PUSH1 0x20 ADD PUSH1 0x0 KECCAK256 DUP2 SWAP1 SSTORE POP DUP2 PUSH20 0xFFFFFFFFFFFFFFFFFFFFFFFFFFFFFFFFFFFFFFFF AND DUP4 PUSH20 0xFFFFFFFFFFFFFFFFFFFFFFFFFFFFFFFFFFFFFFFF AND PUSH32 0x8C5BE1E5EBEC7D5BD14F71427D1E84F3DD0314C0F7B2291E5B200AC8C7C3B925 DUP4 PUSH1 0x40 MLOAD PUSH2 0x1044 SWAP2 SWAP1 PUSH2 0x209E JUMP JUMPDEST PUSH1 0x40 MLOAD DUP1 SWAP2 SUB SWAP1 LOG3 POP POP POP JUMP JUMPDEST PUSH1 0x0 PUSH2 0x105D DUP5 DUP5 PUSH2 0xD76 JUMP JUMPDEST SWAP1 POP PUSH32 0xFFFFFFFFFFFFFFFFFFFFFFFFFFFFFFFFFFFFFFFFFFFFFFFFFFFFFFFFFFFFFFFF DUP2 EQ PUSH2 0x10D7 JUMPI DUP2 DUP2 LT ISZERO PUSH2 0x10C9 JUMPI PUSH1 0x40 MLOAD PUSH32 0x8C379A000000000000000000000000000000000000000000000000000000000 DUP2 MSTORE PUSH1 0x4 ADD PUSH2 0x10C0 SWAP1 PUSH2 0x299E JUMP JUMPDEST PUSH1 0x40 MLOAD DUP1 SWAP2 SUB SWAP1 REVERT JUMPDEST PUSH2 0x10D6 DUP5 DUP5 DUP5 DUP5 SUB PUSH2 0xE88 JUMP JUMPDEST JUMPDEST POP POP POP POP JUMP JUMPDEST PUSH1 0x0 PUSH20 0xFFFFFFFFFFFFFFFFFFFFFFFFFFFFFFFFFFFFFFFF AND DUP4 PUSH20 0xFFFFFFFFFFFFFFFFFFFFFFFFFFFFFFFFFFFFFFFF AND SUB PUSH2 0x114C JUMPI PUSH1 0x40 MLOAD PUSH32 0x8C379A000000000000000000000000000000000000000000000000000000000 DUP2 MSTORE PUSH1 0x4 ADD PUSH2 0x1143 SWAP1 PUSH2 0x2A30 JUMP JUMPDEST PUSH1 0x40 MLOAD DUP1 SWAP2 SUB SWAP1 REVERT JUMPDEST PUSH1 0x0 PUSH20 0xFFFFFFFFFFFFFFFFFFFFFFFFFFFFFFFFFFFFFFFF AND DUP3 PUSH20 0xFFFFFFFFFFFFFFFFFFFFFFFFFFFFFFFFFFFFFFFF AND SUB PUSH2 0x11BB JUMPI PUSH1 0x40 MLOAD PUSH32 0x8C379A000000000000000000000000000000000000000000000000000000000 DUP2 MSTORE PUSH1 0x4 ADD PUSH2 0x11B2 SWAP1 PUSH2 0x2AC2 JUMP JUMPDEST PUSH1 0x40 MLOAD DUP1 SWAP2 SUB SWAP1 REVERT JUMPDEST PUSH2 0x11C6 DUP4 DUP4 DUP4 PUSH2 0x1A0A JUMP JUMPDEST PUSH1 0x0 PUSH1 0x33 PUSH1 0x0 DUP6 PUSH20 0xFFFFFFFFFFFFFFFFFFFFFFFFFFFFFFFFFFFFFFFF AND PUSH20 0xFFFFFFFFFFFFFFFFFFFFFFFFFFFFFFFFFFFFFFFF AND DUP2 MSTORE PUSH1 0x20 ADD SWAP1 DUP2 MSTORE PUSH1 0x20 ADD PUSH1 0x0 KECCAK256 SLOAD SWAP1 POP DUP2 DUP2 LT ISZERO PUSH2 0x124D JUMPI PUSH1 0x40 MLOAD PUSH32 0x8C379A000000000000000000000000000000000000000000000000000000000 DUP2 MSTORE PUSH1 0x4 ADD PUSH2 0x1244 SWAP1 PUSH2 0x2B54 JUMP JUMPDEST PUSH1 0x40 MLOAD DUP1 SWAP2 SUB SWAP1 REVERT JUMPDEST DUP2 DUP2 SUB PUSH1 0x33 PUSH1 0x0 DUP7 PUSH20 0xFFFFFFFFFFFFFFFFFFFFFFFFFFFFFFFFFFFFFFFF AND PUSH20 0xFFFFFFFFFFFFFFFFFFFFFFFFFFFFFFFFFFFFFFFF AND DUP2 MSTORE PUSH1 0x20 ADD SWAP1 DUP2 MSTORE PUSH1 0x20 ADD PUSH1 0x0 KECCAK256 DUP2 SWAP1 SSTORE POP DUP2 PUSH1 0x33 PUSH1 0x0 DUP6 PUSH20 0xFFFFFFFFFFFFFFFFFFFFFFFFFFFFFFFFFFFFFFFF AND PUSH20 0xFFFFFFFFFFFFFFFFFFFFFFFFFFFFFFFFFFFFFFFF AND DUP2 MSTORE PUSH1 0x20 ADD SWAP1 DUP2 MSTORE PUSH1 0x20 ADD PUSH1 0x0 KECCAK256 PUSH1 0x0 DUP3 DUP3 SLOAD ADD SWAP3 POP POP DUP2 SWAP1 SSTORE POP DUP3 PUSH20 0xFFFFFFFFFFFFFFFFFFFFFFFFFFFFFFFFFFFFFFFF AND DUP5 PUSH20 0xFFFFFFFFFFFFFFFFFFFFFFFFFFFFFFFFFFFFFFFF AND PUSH32 0xDDF252AD1BE2C89B69C2B068FC378DAA952BA7F163C4A11628F55A4DF523B3EF DUP5 PUSH1 0x40 MLOAD PUSH2 0x133D SWAP2 SWAP1 PUSH2 0x209E JUMP JUMPDEST PUSH1 0x40 MLOAD DUP1 SWAP2 SUB SWAP1 LOG3 PUSH2 0x1350 DUP5 DUP5 DUP5 PUSH2 0x1A22 JUMP JUMPDEST POP POP POP POP JUMP JUMPDEST PUSH1 0x0 PUSH2 0x1384 PUSH32 0x360894A13BA1A3210667C828492DB98DCA3E2076CC3735A920A3CA505D382BBC PUSH1 0x0 SHL PUSH2 0x1A27 JUMP JUMPDEST PUSH1 0x0 ADD PUSH1 0x0 SWAP1 SLOAD SWAP1 PUSH2 0x100 EXP SWAP1 DIV PUSH20 0xFFFFFFFFFFFFFFFFFFFFFFFFFFFFFFFFFFFFFFFF AND SWAP1 POP SWAP1 JUMP JUMPDEST PUSH2 0x13B5 PUSH2 0x1526 JUMP JUMPDEST POP JUMP JUMPDEST PUSH2 0x13E4 PUSH32 0x4910FDFA16FED3260ED0E7147F7CC6DA11A60208B5B9406D12A635614FFD9143 PUSH1 0x0 SHL PUSH2 0x1A31 JUMP JUMPDEST PUSH1 0x0 ADD PUSH1 0x0 SWAP1 SLOAD SWAP1 PUSH2 0x100 EXP SWAP1 DIV PUSH1 0xFF AND ISZERO PUSH2 0x1408 JUMPI PUSH2 0x1403 DUP4 PUSH2 0x1A3B JUMP JUMPDEST PUSH2 0x1521 JUMP JUMPDEST DUP3 PUSH20 0xFFFFFFFFFFFFFFFFFFFFFFFFFFFFFFFFFFFFFFFF AND PUSH4 0x52D1902D PUSH1 0x40 MLOAD DUP2 PUSH4 0xFFFFFFFF AND PUSH1 0xE0 SHL DUP2 MSTORE PUSH1 0x4 ADD PUSH1 0x20 PUSH1 0x40 MLOAD DUP1 DUP4 SUB DUP2 DUP7 GAS STATICCALL SWAP3 POP POP POP DUP1 ISZERO PUSH2 0x1470 JUMPI POP PUSH1 0x40 MLOAD RETURNDATASIZE PUSH1 0x1F NOT PUSH1 0x1F DUP3 ADD AND DUP3 ADD DUP1 PUSH1 0x40 MSTORE POP DUP2 ADD SWAP1 PUSH2 0x146D SWAP2 SWAP1 PUSH2 0x2BA0 JUMP JUMPDEST PUSH1 0x1 JUMPDEST PUSH2 0x14AF JUMPI PUSH1 0x40 MLOAD PUSH32 0x8C379A000000000000000000000000000000000000000000000000000000000 DUP2 MSTORE PUSH1 0x4 ADD PUSH2 0x14A6 SWAP1 PUSH2 0x2C3F JUMP JUMPDEST PUSH1 0x40 MLOAD DUP1 SWAP2 SUB SWAP1 REVERT JUMPDEST PUSH32 0x360894A13BA1A3210667C828492DB98DCA3E2076CC3735A920A3CA505D382BBC PUSH1 0x0 SHL DUP2 EQ PUSH2 0x1514 JUMPI PUSH1 0x40 MLOAD PUSH32 0x8C379A000000000000000000000000000000000000000000000000000000000 DUP2 MSTORE PUSH1 0x4 ADD PUSH2 0x150B SWAP1 PUSH2 0x2CD1 JUMP JUMPDEST PUSH1 0x40 MLOAD DUP1 SWAP2 SUB SWAP1 REVERT JUMPDEST POP PUSH2 0x1520 DUP4 DUP4 DUP4 PUSH2 0x1AF4 JUMP JUMPDEST JUMPDEST POP POP POP JUMP JUMPDEST PUSH2 0x152E PUSH2 0xE80 JUMP JUMPDEST PUSH20 0xFFFFFFFFFFFFFFFFFFFFFFFFFFFFFFFFFFFFFFFF AND PUSH2 0x154C PUSH2 0xC20 JUMP JUMPDEST PUSH20 0xFFFFFFFFFFFFFFFFFFFFFFFFFFFFFFFFFFFFFFFF AND EQ PUSH2 0x15A2 JUMPI PUSH1 0x40 MLOAD PUSH32 0x8C379A000000000000000000000000000000000000000000000000000000000 DUP2 MSTORE PUSH1 0x4 ADD PUSH2 0x1599 SWAP1 PUSH2 0x2D3D JUMP JUMPDEST PUSH1 0x40 MLOAD DUP1 SWAP2 SUB SWAP1 REVERT JUMPDEST JUMP JUMPDEST PUSH2 0x15AC PUSH2 0x1B20 JUMP JUMPDEST PUSH1 0x0 PUSH1 0x65 PUSH1 0x0 PUSH2 0x100 EXP DUP2 SLOAD DUP2 PUSH1 0xFF MUL NOT AND SWAP1 DUP4 ISZERO ISZERO MUL OR SWAP1 SSTORE POP PUSH32 0x5DB9EE0A495BF2E6FF9C91A7834C1BA4FDD244A5E8AA4E537BD38AEAE4B073AA PUSH2 0x15F0 PUSH2 0xE80 JUMP JUMPDEST PUSH1 0x40 MLOAD PUSH2 0x15FD SWAP2 SWAP1 PUSH2 0x2344 JUMP JUMPDEST PUSH1 0x40 MLOAD DUP1 SWAP2 SUB SWAP1 LOG1 JUMP JUMPDEST PUSH1 0x0 PUSH20 0xFFFFFFFFFFFFFFFFFFFFFFFFFFFFFFFFFFFFFFFF AND DUP3 PUSH20 0xFFFFFFFFFFFFFFFFFFFFFFFFFFFFFFFFFFFFFFFF AND SUB PUSH2 0x1676 JUMPI PUSH1 0x40 MLOAD PUSH32 0x8C379A000000000000000000000000000000000000000000000000000000000 DUP2 MSTORE PUSH1 0x4 ADD PUSH2 0x166D SWAP1 PUSH2 0x2DA9 JUMP JUMPDEST PUSH1 0x40 MLOAD DUP1 SWAP2 SUB SWAP1 REVERT JUMPDEST PUSH2 0x1682 PUSH1 0x0 DUP4 DUP4 PUSH2 0x1A0A JUMP JUMPDEST DUP1 PUSH1 0x35 PUSH1 0x0 DUP3 DUP3 SLOAD PUSH2 0x1694 SWAP2 SWAP1 PUSH2 0x2552 JUMP JUMPDEST SWAP3 POP POP DUP2 SWAP1 SSTORE POP DUP1 PUSH1 0x33 PUSH1 0x0 DUP5 PUSH20 0xFFFFFFFFFFFFFFFFFFFFFFFFFFFFFFFFFFFFFFFF AND PUSH20 0xFFFFFFFFFFFFFFFFFFFFFFFFFFFFFFFFFFFFFFFF AND DUP2 MSTORE PUSH1 0x20 ADD SWAP1 DUP2 MSTORE PUSH1 0x20 ADD PUSH1 0x0 KECCAK256 PUSH1 0x0 DUP3 DUP3 SLOAD ADD SWAP3 POP POP DUP2 SWAP1 SSTORE POP DUP2 PUSH20 0xFFFFFFFFFFFFFFFFFFFFFFFFFFFFFFFFFFFFFFFF AND PUSH1 0x0 PUSH20 0xFFFFFFFFFFFFFFFFFFFFFFFFFFFFFFFFFFFFFFFF AND PUSH32 0xDDF252AD1BE2C89B69C2B068FC378DAA952BA7F163C4A11628F55A4DF523B3EF DUP4 PUSH1 0x40 MLOAD PUSH2 0x1746 SWAP2 SWAP1 PUSH2 0x209E JUMP JUMPDEST PUSH1 0x40 MLOAD DUP1 SWAP2 SUB SWAP1 LOG3 PUSH2 0x175A PUSH1 0x0 DUP4 DUP4 PUSH2 0x1A22 JUMP JUMPDEST POP POP JUMP JUMPDEST PUSH1 0x0 PUSH1 0x97 PUSH1 0x0 SWAP1 SLOAD SWAP1 PUSH2 0x100 EXP SWAP1 DIV PUSH20 0xFFFFFFFFFFFFFFFFFFFFFFFFFFFFFFFFFFFFFFFF AND SWAP1 POP DUP2 PUSH1 0x97 PUSH1 0x0 PUSH2 0x100 EXP DUP2 SLOAD DUP2 PUSH20 0xFFFFFFFFFFFFFFFFFFFFFFFFFFFFFFFFFFFFFFFF MUL NOT AND SWAP1 DUP4 PUSH20 0xFFFFFFFFFFFFFFFFFFFFFFFFFFFFFFFFFFFFFFFF AND MUL OR SWAP1 SSTORE POP DUP2 PUSH20 0xFFFFFFFFFFFFFFFFFFFFFFFFFFFFFFFFFFFFFFFF AND DUP2 PUSH20 0xFFFFFFFFFFFFFFFFFFFFFFFFFFFFFFFFFFFFFFFF AND PUSH32 0x8BE0079C531659141344CD1FD0A4F28419497F9722A3DAAFE3B4186F6B6457E0 PUSH1 0x40 MLOAD PUSH1 0x40 MLOAD DUP1 SWAP2 SUB SWAP1 LOG3 POP POP JUMP JUMPDEST PUSH1 0x0 DUP1 DUP3 PUSH20 0xFFFFFFFFFFFFFFFFFFFFFFFFFFFFFFFFFFFFFFFF AND EXTCODESIZE GT SWAP1 POP SWAP2 SWAP1 POP JUMP JUMPDEST PUSH1 0x0 PUSH1 0x1 SWAP1 SLOAD SWAP1 PUSH2 0x100 EXP SWAP1 DIV PUSH1 0xFF AND PUSH2 0x1896 JUMPI PUSH1 0x40 MLOAD PUSH32 0x8C379A000000000000000000000000000000000000000000000000000000000 DUP2 MSTORE PUSH1 0x4 ADD PUSH2 0x188D SWAP1 PUSH2 0x2E3B JUMP JUMPDEST PUSH1 0x40 MLOAD DUP1 SWAP2 SUB SWAP1 REVERT JUMPDEST PUSH2 0x18A0 DUP3 DUP3 PUSH2 0x1B69 JUMP JUMPDEST POP POP JUMP JUMPDEST PUSH1 0x0 PUSH1 0x1 SWAP1 SLOAD SWAP1 PUSH2 0x100 EXP SWAP1 DIV PUSH1 0xFF AND PUSH2 0x18F3 JUMPI PUSH1 0x40 MLOAD PUSH32 0x8C379A000000000000000000000000000000000000000000000000000000000 DUP2 MSTORE PUSH1 0x4 ADD PUSH2 0x18EA SWAP1 PUSH2 0x2E3B JUMP JUMPDEST PUSH1 0x40 MLOAD DUP1 SWAP2 SUB SWAP1 REVERT JUMPDEST PUSH2 0x18FB PUSH2 0x1BDC JUMP JUMPDEST JUMP JUMPDEST PUSH1 0x0 PUSH1 0x1 SWAP1 SLOAD SWAP1 PUSH2 0x100 EXP SWAP1 DIV PUSH1 0xFF AND PUSH2 0x194C JUMPI PUSH1 0x40 MLOAD PUSH32 0x8C379A000000000000000000000000000000000000000000000000000000000 DUP2 MSTORE PUSH1 0x4 ADD PUSH2 0x1943 SWAP1 PUSH2 0x2E3B JUMP JUMPDEST PUSH1 0x40 MLOAD DUP1 SWAP2 SUB SWAP1 REVERT JUMPDEST PUSH2 0x1954 PUSH2 0x1C48 JUMP JUMPDEST JUMP JUMPDEST PUSH1 0x0 PUSH1 0x1 SWAP1 SLOAD SWAP1 PUSH2 0x100 EXP SWAP1 DIV PUSH1 0xFF AND PUSH2 0x19A5 JUMPI PUSH1 0x40 MLOAD PUSH32 0x8C379A000000000000000000000000000000000000000000000000000000000 DUP2 MSTORE PUSH1 0x4 ADD PUSH2 0x199C SWAP1 PUSH2 0x2E3B JUMP JUMPDEST PUSH1 0x40 MLOAD DUP1 SWAP2 SUB SWAP1 REVERT JUMPDEST JUMP JUMPDEST PUSH2 0x19AF PUSH2 0x1CA9 JUMP JUMPDEST PUSH1 0x1 PUSH1 0x65 PUSH1 0x0 PUSH2 0x100 EXP DUP2 SLOAD DUP2 PUSH1 0xFF MUL NOT AND SWAP1 DUP4 ISZERO ISZERO MUL OR SWAP1 SSTORE POP PUSH32 0x62E78CEA01BEE320CD4E420270B5EA74000D11B0C9F74754EBDBFC544B05A258 PUSH2 0x19F3 PUSH2 0xE80 JUMP JUMPDEST PUSH1 0x40 MLOAD PUSH2 0x1A00 SWAP2 SWAP1 PUSH2 0x2344 JUMP JUMPDEST PUSH1 0x40 MLOAD DUP1 SWAP2 SUB SWAP1 LOG1 JUMP JUMPDEST PUSH2 0x1A12 PUSH2 0x1CA9 JUMP JUMPDEST PUSH2 0x1A1D DUP4 DUP4 DUP4 PUSH2 0x1CF3 JUMP JUMPDEST POP POP POP JUMP JUMPDEST POP POP POP JUMP JUMPDEST PUSH1 0x0 DUP2 SWAP1 POP SWAP2 SWAP1 POP JUMP JUMPDEST PUSH1 0x0 DUP2 SWAP1 POP SWAP2 SWAP1 POP JUMP JUMPDEST PUSH2 0x1A44 DUP2 PUSH2 0x1824 JUMP JUMPDEST PUSH2 0x1A83 JUMPI PUSH1 0x40 MLOAD PUSH32 0x8C379A000000000000000000000000000000000000000000000000000000000 DUP2 MSTORE PUSH1 0x4 ADD PUSH2 0x1A7A SWAP1 PUSH2 0x2ECD JUMP JUMPDEST PUSH1 0x40 MLOAD DUP1 SWAP2 SUB SWAP1 REVERT JUMPDEST DUP1 PUSH2 0x1AB0 PUSH32 0x360894A13BA1A3210667C828492DB98DCA3E2076CC3735A920A3CA505D382BBC PUSH1 0x0 SHL PUSH2 0x1A27 JUMP JUMPDEST PUSH1 0x0 ADD PUSH1 0x0 PUSH2 0x100 EXP DUP2 SLOAD DUP2 PUSH20 0xFFFFFFFFFFFFFFFFFFFFFFFFFFFFFFFFFFFFFFFF MUL NOT AND SWAP1 DUP4 PUSH20 0xFFFFFFFFFFFFFFFFFFFFFFFFFFFFFFFFFFFFFFFF AND MUL OR SWAP1 SSTORE POP POP JUMP JUMPDEST PUSH2 0x1AFD DUP4 PUSH2 0x1CF8 JUMP JUMPDEST PUSH1 0x0 DUP3 MLOAD GT DUP1 PUSH2 0x1B0A JUMPI POP DUP1 JUMPDEST ISZERO PUSH2 0x1B1B JUMPI PUSH2 0x1B19 DUP4 DUP4 PUSH2 0x1D47 JUMP JUMPDEST POP JUMPDEST POP POP POP JUMP JUMPDEST PUSH2 0x1B28 PUSH2 0x9D8 JUMP JUMPDEST PUSH2 0x1B67 JUMPI PUSH1 0x40 MLOAD PUSH32 0x8C379A000000000000000000000000000000000000000000000000000000000 DUP2 MSTORE PUSH1 0x4 ADD PUSH2 0x1B5E SWAP1 PUSH2 0x2F39 JUMP JUMPDEST PUSH1 0x40 MLOAD DUP1 SWAP2 SUB SWAP1 REVERT JUMPDEST JUMP JUMPDEST PUSH1 0x0 PUSH1 0x1 SWAP1 SLOAD SWAP1 PUSH2 0x100 EXP SWAP1 DIV PUSH1 0xFF AND PUSH2 0x1BB8 JUMPI PUSH1 0x40 MLOAD PUSH32 0x8C379A000000000000000000000000000000000000000000000000000000000 DUP2 MSTORE PUSH1 0x4 ADD PUSH2 0x1BAF SWAP1 PUSH2 0x2E3B JUMP JUMPDEST PUSH1 0x40 MLOAD DUP1 SWAP2 SUB SWAP1 REVERT JUMPDEST DUP2 PUSH1 0x36 SWAP1 DUP2 PUSH2 0x1BC7 SWAP2 SWAP1 PUSH2 0x30FB JUMP JUMPDEST POP DUP1 PUSH1 0x37 SWAP1 DUP2 PUSH2 0x1BD7 SWAP2 SWAP1 PUSH2 0x30FB JUMP JUMPDEST POP POP POP JUMP JUMPDEST PUSH1 0x0 PUSH1 0x1 SWAP1 SLOAD SWAP1 PUSH2 0x100 EXP SWAP1 DIV PUSH1 0xFF AND PUSH2 0x1C2B JUMPI PUSH1 0x40 MLOAD PUSH32 0x8C379A000000000000000000000000000000000000000000000000000000000 DUP2 MSTORE PUSH1 0x4 ADD PUSH2 0x1C22 SWAP1 PUSH2 0x2E3B JUMP JUMPDEST PUSH1 0x40 MLOAD DUP1 SWAP2 SUB SWAP1 REVERT JUMPDEST PUSH1 0x0 PUSH1 0x65 PUSH1 0x0 PUSH2 0x100 EXP DUP2 SLOAD DUP2 PUSH1 0xFF MUL NOT AND SWAP1 DUP4 ISZERO ISZERO MUL OR SWAP1 SSTORE POP JUMP JUMPDEST PUSH1 0x0 PUSH1 0x1 SWAP1 SLOAD SWAP1 PUSH2 0x100 EXP SWAP1 DIV PUSH1 0xFF AND PUSH2 0x1C97 JUMPI PUSH1 0x40 MLOAD PUSH32 0x8C379A000000000000000000000000000000000000000000000000000000000 DUP2 MSTORE PUSH1 0x4 ADD PUSH2 0x1C8E SWAP1 PUSH2 0x2E3B JUMP JUMPDEST PUSH1 0x40 MLOAD DUP1 SWAP2 SUB SWAP1 REVERT JUMPDEST PUSH2 0x1CA7 PUSH2 0x1CA2 PUSH2 0xE80 JUMP JUMPDEST PUSH2 0x175E JUMP JUMPDEST JUMP JUMPDEST PUSH2 0x1CB1 PUSH2 0x9D8 JUMP JUMPDEST ISZERO PUSH2 0x1CF1 JUMPI PUSH1 0x40 MLOAD PUSH32 0x8C379A000000000000000000000000000000000000000000000000000000000 DUP2 MSTORE PUSH1 0x4 ADD PUSH2 0x1CE8 SWAP1 PUSH2 0x3219 JUMP JUMPDEST PUSH1 0x40 MLOAD DUP1 SWAP2 SUB SWAP1 REVERT JUMPDEST JUMP JUMPDEST POP POP POP JUMP JUMPDEST PUSH2 0x1D01 DUP2 PUSH2 0x1A3B JUMP JUMPDEST DUP1 PUSH20 0xFFFFFFFFFFFFFFFFFFFFFFFFFFFFFFFFFFFFFFFF AND PUSH32 0xBC7CD75A20EE27FD9ADEBAB32041F755214DBC6BFFA90CC0225B39DA2E5C2D3B PUSH1 0x40 MLOAD PUSH1 0x40 MLOAD DUP1 SWAP2 SUB SWAP1 LOG2 POP JUMP JUMPDEST PUSH1 0x60 PUSH2 0x1D6C DUP4 DUP4 PUSH1 0x40 MLOAD DUP1 PUSH1 0x60 ADD PUSH1 0x40 MSTORE DUP1 PUSH1 0x27 DUP2 MSTORE PUSH1 0x20 ADD PUSH2 0x3304 PUSH1 0x27 SWAP2 CODECOPY PUSH2 0x1D74 JUMP JUMPDEST SWAP1 POP SWAP3 SWAP2 POP POP JUMP JUMPDEST PUSH1 0x60 PUSH1 0x0 DUP1 DUP6 PUSH20 0xFFFFFFFFFFFFFFFFFFFFFFFFFFFFFFFFFFFFFFFF AND DUP6 PUSH1 0x40 MLOAD PUSH2 0x1D9E SWAP2 SWAP1 PUSH2 0x3280 JUMP JUMPDEST PUSH1 0x0 PUSH1 0x40 MLOAD DUP1 DUP4 SUB DUP2 DUP6 GAS DELEGATECALL SWAP2 POP POP RETURNDATASIZE DUP1 PUSH1 0x0 DUP2 EQ PUSH2 0x1DD9 JUMPI PUSH1 0x40 MLOAD SWAP2 POP PUSH1 0x1F NOT PUSH1 0x3F RETURNDATASIZE ADD AND DUP3 ADD PUSH1 0x40 MSTORE RETURNDATASIZE DUP3 MSTORE RETURNDATASIZE PUSH1 0x0 PUSH1 0x20 DUP5 ADD RETURNDATACOPY PUSH2 0x1DDE JUMP JUMPDEST PUSH1 0x60 SWAP2 POP JUMPDEST POP SWAP2 POP SWAP2 POP PUSH2 0x1DEF DUP7 DUP4 DUP4 DUP8 PUSH2 0x1DFA JUMP JUMPDEST SWAP3 POP POP POP SWAP4 SWAP3 POP POP POP JUMP JUMPDEST PUSH1 0x60 DUP4 ISZERO PUSH2 0x1E5C JUMPI PUSH1 0x0 DUP4 MLOAD SUB PUSH2 0x1E54 JUMPI PUSH2 0x1E14 DUP6 PUSH2 0x1824 JUMP JUMPDEST PUSH2 0x1E53 JUMPI PUSH1 0x40 MLOAD PUSH32 0x8C379A000000000000000000000000000000000000000000000000000000000 DUP2 MSTORE PUSH1 0x4 ADD PUSH2 0x1E4A SWAP1 PUSH2 0x32E3 JUMP JUMPDEST PUSH1 0x40 MLOAD DUP1 SWAP2 SUB SWAP1 REVERT JUMPDEST JUMPDEST DUP3 SWAP1 POP PUSH2 0x1E67 JUMP JUMPDEST PUSH2 0x1E66 DUP4 DUP4 PUSH2 0x1E6F JUMP JUMPDEST JUMPDEST SWAP5 SWAP4 POP POP POP POP JUMP JUMPDEST PUSH1 0x0 DUP3 MLOAD GT ISZERO PUSH2 0x1E82 JUMPI DUP2 MLOAD DUP1 DUP4 PUSH1 0x20 ADD REVERT JUMPDEST DUP1 PUSH1 0x40 MLOAD PUSH32 0x8C379A000000000000000000000000000000000000000000000000000000000 DUP2 MSTORE PUSH1 0x4 ADD PUSH2 0x1EB6 SWAP2 SWAP1 PUSH2 0x1F4F JUMP JUMPDEST PUSH1 0x40 MLOAD DUP1 SWAP2 SUB SWAP1 REVERT JUMPDEST PUSH1 0x0 DUP2 MLOAD SWAP1 POP SWAP2 SWAP1 POP JUMP JUMPDEST PUSH1 0x0 DUP3 DUP3 MSTORE PUSH1 0x20 DUP3 ADD SWAP1 POP SWAP3 SWAP2 POP POP JUMP JUMPDEST PUSH1 0x0 JUMPDEST DUP4 DUP2 LT ISZERO PUSH2 0x1EF9 JUMPI DUP1 DUP3 ADD MLOAD DUP2 DUP5 ADD MSTORE PUSH1 0x20 DUP2 ADD SWAP1 POP PUSH2 0x1EDE JUMP JUMPDEST PUSH1 0x0 DUP5 DUP5 ADD MSTORE POP POP POP POP JUMP JUMPDEST PUSH1 0x0 PUSH1 0x1F NOT PUSH1 0x1F DUP4 ADD AND SWAP1 POP SWAP2 SWAP1 POP JUMP JUMPDEST PUSH1 0x0 PUSH2 0x1F21 DUP3 PUSH2 0x1EBF JUMP JUMPDEST PUSH2 0x1F2B DUP2 DUP6 PUSH2 0x1ECA JUMP JUMPDEST SWAP4 POP PUSH2 0x1F3B DUP2 DUP6 PUSH1 0x20 DUP7 ADD PUSH2 0x1EDB JUMP JUMPDEST PUSH2 0x1F44 DUP2 PUSH2 0x1F05 JUMP JUMPDEST DUP5 ADD SWAP2 POP POP SWAP3 SWAP2 POP POP JUMP JUMPDEST PUSH1 0x0 PUSH1 0x20 DUP3 ADD SWAP1 POP DUP2 DUP2 SUB PUSH1 0x0 DUP4 ADD MSTORE PUSH2 0x1F69 DUP2 DUP5 PUSH2 0x1F16 JUMP JUMPDEST SWAP1 POP SWAP3 SWAP2 POP POP JUMP JUMPDEST PUSH1 0x0 PUSH1 0x40 MLOAD SWAP1 POP SWAP1 JUMP JUMPDEST PUSH1 0x0 DUP1 REVERT JUMPDEST PUSH1 0x0 DUP1 REVERT JUMPDEST PUSH1 0x0 PUSH20 0xFFFFFFFFFFFFFFFFFFFFFFFFFFFFFFFFFFFFFFFF DUP3 AND SWAP1 POP SWAP2 SWAP1 POP JUMP JUMPDEST PUSH1 0x0 PUSH2 0x1FB0 DUP3 PUSH2 0x1F85 JUMP JUMPDEST SWAP1 POP SWAP2 SWAP1 POP JUMP JUMPDEST PUSH2 0x1FC0 DUP2 PUSH2 0x1FA5 JUMP JUMPDEST DUP2 EQ PUSH2 0x1FCB JUMPI PUSH1 0x0 DUP1 REVERT JUMPDEST POP JUMP JUMPDEST PUSH1 0x0 DUP2 CALLDATALOAD SWAP1 POP PUSH2 0x1FDD DUP2 PUSH2 0x1FB7 JUMP JUMPDEST SWAP3 SWAP2 POP POP JUMP JUMPDEST PUSH1 0x0 DUP2 SWAP1 POP SWAP2 SWAP1 POP JUMP JUMPDEST PUSH2 0x1FF6 DUP2 PUSH2 0x1FE3 JUMP JUMPDEST DUP2 EQ PUSH2 0x2001 JUMPI PUSH1 0x0 DUP1 REVERT JUMPDEST POP JUMP JUMPDEST PUSH1 0x0 DUP2 CALLDATALOAD SWAP1 POP PUSH2 0x2013 DUP2 PUSH2 0x1FED JUMP JUMPDEST SWAP3 SWAP2 POP POP JUMP JUMPDEST PUSH1 0x0 DUP1 PUSH1 0x40 DUP4 DUP6 SUB SLT ISZERO PUSH2 0x2030 JUMPI PUSH2 0x202F PUSH2 0x1F7B JUMP JUMPDEST JUMPDEST PUSH1 0x0 PUSH2 0x203E DUP6 DUP3 DUP7 ADD PUSH2 0x1FCE JUMP JUMPDEST SWAP3 POP POP PUSH1 0x20 PUSH2 0x204F DUP6 DUP3 DUP7 ADD PUSH2 0x2004 JUMP JUMPDEST SWAP2 POP POP SWAP3 POP SWAP3 SWAP1 POP JUMP JUMPDEST PUSH1 0x0 DUP2 ISZERO ISZERO SWAP1 POP SWAP2 SWAP1 POP JUMP JUMPDEST PUSH2 0x206E DUP2 PUSH2 0x2059 JUMP JUMPDEST DUP3 MSTORE POP POP JUMP JUMPDEST PUSH1 0x0 PUSH1 0x20 DUP3 ADD SWAP1 POP PUSH2 0x2089 PUSH1 0x0 DUP4 ADD DUP5 PUSH2 0x2065 JUMP JUMPDEST SWAP3 SWAP2 POP POP JUMP JUMPDEST PUSH2 0x2098 DUP2 PUSH2 0x1FE3 JUMP JUMPDEST DUP3 MSTORE POP POP JUMP JUMPDEST PUSH1 0x0 PUSH1 0x20 DUP3 ADD SWAP1 POP PUSH2 0x20B3 PUSH1 0x0 DUP4 ADD DUP5 PUSH2 0x208F JUMP JUMPDEST SWAP3 SWAP2 POP POP JUMP JUMPDEST PUSH1 0x0 DUP1 PUSH1 0x0 PUSH1 0x60 DUP5 DUP7 SUB SLT ISZERO PUSH2 0x20D2 JUMPI PUSH2 0x20D1 PUSH2 0x1F7B JUMP JUMPDEST JUMPDEST PUSH1 0x0 PUSH2 0x20E0 DUP7 DUP3 DUP8 ADD PUSH2 0x1FCE JUMP JUMPDEST SWAP4 POP POP PUSH1 0x20 PUSH2 0x20F1 DUP7 DUP3 DUP8 ADD PUSH2 0x1FCE JUMP JUMPDEST SWAP3 POP POP PUSH1 0x40 PUSH2 0x2102 DUP7 DUP3 DUP8 ADD PUSH2 0x2004 JUMP JUMPDEST SWAP2 POP POP SWAP3 POP SWAP3 POP SWAP3 JUMP JUMPDEST PUSH1 0x0 PUSH1 0xFF DUP3 AND SWAP1 POP SWAP2 SWAP1 POP JUMP JUMPDEST PUSH2 0x2122 DUP2 PUSH2 0x210C JUMP JUMPDEST DUP3 MSTORE POP POP JUMP JUMPDEST PUSH1 0x0 PUSH1 0x20 DUP3 ADD SWAP1 POP PUSH2 0x213D PUSH1 0x0 DUP4 ADD DUP5 PUSH2 0x2119 JUMP JUMPDEST SWAP3 SWAP2 POP POP JUMP JUMPDEST PUSH1 0x0 PUSH1 0x20 DUP3 DUP5 SUB SLT ISZERO PUSH2 0x2159 JUMPI PUSH2 0x2158 PUSH2 0x1F7B JUMP JUMPDEST JUMPDEST PUSH1 0x0 PUSH2 0x2167 DUP5 DUP3 DUP6 ADD PUSH2 0x1FCE JUMP JUMPDEST SWAP2 POP POP SWAP3 SWAP2 POP POP JUMP JUMPDEST PUSH1 0x0 DUP1 REVERT JUMPDEST PUSH1 0x0 DUP1 REVERT JUMPDEST PUSH32 0x4E487B7100000000000000000000000000000000000000000000000000000000 PUSH1 0x0 MSTORE PUSH1 0x41 PUSH1 0x4 MSTORE PUSH1 0x24 PUSH1 0x0 REVERT JUMPDEST PUSH2 0x21B2 DUP3 PUSH2 0x1F05 JUMP JUMPDEST DUP2 ADD DUP2 DUP2 LT PUSH8 0xFFFFFFFFFFFFFFFF DUP3 GT OR ISZERO PUSH2 0x21D1 JUMPI PUSH2 0x21D0 PUSH2 0x217A JUMP JUMPDEST JUMPDEST DUP1 PUSH1 0x40 MSTORE POP POP POP JUMP JUMPDEST PUSH1 0x0 PUSH2 0x21E4 PUSH2 0x1F71 JUMP JUMPDEST SWAP1 POP PUSH2 0x21F0 DUP3 DUP3 PUSH2 0x21A9 JUMP JUMPDEST SWAP2 SWAP1 POP JUMP JUMPDEST PUSH1 0x0 PUSH8 0xFFFFFFFFFFFFFFFF DUP3 GT ISZERO PUSH2 0x2210 JUMPI PUSH2 0x220F PUSH2 0x217A JUMP JUMPDEST JUMPDEST PUSH2 0x2219 DUP3 PUSH2 0x1F05 JUMP JUMPDEST SWAP1 POP PUSH1 0x20 DUP2 ADD SWAP1 POP SWAP2 SWAP1 POP JUMP JUMPDEST DUP3 DUP2 DUP4 CALLDATACOPY PUSH1 0x0 DUP4 DUP4 ADD MSTORE POP POP POP JUMP JUMPDEST PUSH1 0x0 PUSH2 0x2248 PUSH2 0x2243 DUP5 PUSH2 0x21F5 JUMP JUMPDEST PUSH2 0x21DA JUMP JUMPDEST SWAP1 POP DUP3 DUP2 MSTORE PUSH1 0x20 DUP2 ADD DUP5 DUP5 DUP5 ADD GT ISZERO PUSH2 0x2264 JUMPI PUSH2 0x2263 PUSH2 0x2175 JUMP JUMPDEST JUMPDEST PUSH2 0x226F DUP5 DUP3 DUP6 PUSH2 0x2226 JUMP JUMPDEST POP SWAP4 SWAP3 POP POP POP JUMP JUMPDEST PUSH1 0x0 DUP3 PUSH1 0x1F DUP4 ADD SLT PUSH2 0x228C JUMPI PUSH2 0x228B PUSH2 0x2170 JUMP JUMPDEST JUMPDEST DUP2 CALLDATALOAD PUSH2 0x229C DUP5 DUP3 PUSH1 0x20 DUP7 ADD PUSH2 0x2235 JUMP JUMPDEST SWAP2 POP POP SWAP3 SWAP2 POP POP JUMP JUMPDEST PUSH1 0x0 DUP1 PUSH1 0x40 DUP4 DUP6 SUB SLT ISZERO PUSH2 0x22BC JUMPI PUSH2 0x22BB PUSH2 0x1F7B JUMP JUMPDEST JUMPDEST PUSH1 0x0 PUSH2 0x22CA DUP6 DUP3 DUP7 ADD PUSH2 0x1FCE JUMP JUMPDEST SWAP3 POP POP PUSH1 0x20 DUP4 ADD CALLDATALOAD PUSH8 0xFFFFFFFFFFFFFFFF DUP2 GT ISZERO PUSH2 0x22EB JUMPI PUSH2 0x22EA PUSH2 0x1F80 JUMP JUMPDEST JUMPDEST PUSH2 0x22F7 DUP6 DUP3 DUP7 ADD PUSH2 0x2277 JUMP JUMPDEST SWAP2 POP POP SWAP3 POP SWAP3 SWAP1 POP JUMP JUMPDEST PUSH1 0x0 DUP2 SWAP1 POP SWAP2 SWAP1 POP JUMP JUMPDEST PUSH2 0x2314 DUP2 PUSH2 0x2301 JUMP JUMPDEST DUP3 MSTORE POP POP JUMP JUMPDEST PUSH1 0x0 PUSH1 0x20 DUP3 ADD SWAP1 POP PUSH2 0x232F PUSH1 0x0 DUP4 ADD DUP5 PUSH2 0x230B JUMP JUMPDEST SWAP3 SWAP2 POP POP JUMP JUMPDEST PUSH2 0x233E DUP2 PUSH2 0x1FA5 JUMP JUMPDEST DUP3 MSTORE POP POP JUMP JUMPDEST PUSH1 0x0 PUSH1 0x20 DUP3 ADD SWAP1 POP PUSH2 0x2359 PUSH1 0x0 DUP4 ADD DUP5 PUSH2 0x2335 JUMP JUMPDEST SWAP3 SWAP2 POP POP JUMP JUMPDEST PUSH1 0x0 DUP1 PUSH1 0x40 DUP4 DUP6 SUB SLT ISZERO PUSH2 0x2376 JUMPI PUSH2 0x2375 PUSH2 0x1F7B JUMP JUMPDEST JUMPDEST PUSH1 0x0 PUSH2 0x2384 DUP6 DUP3 DUP7 ADD PUSH2 0x1FCE JUMP JUMPDEST SWAP3 POP POP PUSH1 0x20 PUSH2 0x2395 DUP6 DUP3 DUP7 ADD PUSH2 0x1FCE JUMP JUMPDEST SWAP2 POP POP SWAP3 POP SWAP3 SWAP1 POP JUMP JUMPDEST PUSH32 0x4E487B7100000000000000000000000000000000000000000000000000000000 PUSH1 0x0 MSTORE PUSH1 0x22 PUSH1 0x4 MSTORE PUSH1 0x24 PUSH1 0x0 REVERT JUMPDEST PUSH1 0x0 PUSH1 0x2 DUP3 DIV SWAP1 POP PUSH1 0x1 DUP3 AND DUP1 PUSH2 0x23E6 JUMPI PUSH1 0x7F DUP3 AND SWAP2 POP JUMPDEST PUSH1 0x20 DUP3 LT DUP2 SUB PUSH2 0x23F9 JUMPI PUSH2 0x23F8 PUSH2 0x239F JUMP JUMPDEST JUMPDEST POP SWAP2 SWAP1 POP JUMP JUMPDEST PUSH32 0x46756E6374696F6E206D7573742062652063616C6C6564207468726F75676820 PUSH1 0x0 DUP3 ADD MSTORE PUSH32 0x64656C656761746563616C6C0000000000000000000000000000000000000000 PUSH1 0x20 DUP3 ADD MSTORE POP JUMP JUMPDEST PUSH1 0x0 PUSH2 0x245B PUSH1 0x2C DUP4 PUSH2 0x1ECA JUMP JUMPDEST SWAP2 POP PUSH2 0x2466 DUP3 PUSH2 0x23FF JUMP JUMPDEST PUSH1 0x40 DUP3 ADD SWAP1 POP SWAP2 SWAP1 POP JUMP JUMPDEST PUSH1 0x0 PUSH1 0x20 DUP3 ADD SWAP1 POP DUP2 DUP2 SUB PUSH1 0x0 DUP4 ADD MSTORE PUSH2 0x248A DUP2 PUSH2 0x244E JUMP JUMPDEST SWAP1 POP SWAP2 SWAP1 POP JUMP JUMPDEST PUSH32 0x46756E6374696F6E206D7573742062652063616C6C6564207468726F75676820 PUSH1 0x0 DUP3 ADD MSTORE PUSH32 0x6163746976652070726F78790000000000000000000000000000000000000000 PUSH1 0x20 DUP3 ADD MSTORE POP JUMP JUMPDEST PUSH1 0x0 PUSH2 0x24ED PUSH1 0x2C DUP4 PUSH2 0x1ECA JUMP JUMPDEST SWAP2 POP PUSH2 0x24F8 DUP3 PUSH2 0x2491 JUMP JUMPDEST PUSH1 0x40 DUP3 ADD SWAP1 POP SWAP2 SWAP1 POP JUMP JUMPDEST PUSH1 0x0 PUSH1 0x20 DUP3 ADD SWAP1 POP DUP2 DUP2 SUB PUSH1 0x0 DUP4 ADD MSTORE PUSH2 0x251C DUP2 PUSH2 0x24E0 JUMP JUMPDEST SWAP1 POP SWAP2 SWAP1 POP JUMP JUMPDEST PUSH32 0x4E487B7100000000000000000000000000000000000000000000000000000000 PUSH1 0x0 MSTORE PUSH1 0x11 PUSH1 0x4 MSTORE PUSH1 0x24 PUSH1 0x0 REVERT JUMPDEST PUSH1 0x0 PUSH2 0x255D DUP3 PUSH2 0x1FE3 JUMP JUMPDEST SWAP2 POP PUSH2 0x2568 DUP4 PUSH2 0x1FE3 JUMP JUMPDEST SWAP3 POP DUP3 DUP3 ADD SWAP1 POP DUP1 DUP3 GT ISZERO PUSH2 0x2580 JUMPI PUSH2 0x257F PUSH2 0x2523 JUMP JUMPDEST JUMPDEST SWAP3 SWAP2 POP POP JUMP JUMPDEST PUSH32 0x555550535570677261646561626C653A206D757374206E6F742062652063616C PUSH1 0x0 DUP3 ADD MSTORE PUSH32 0x6C6564207468726F7567682064656C656761746563616C6C0000000000000000 PUSH1 0x20 DUP3 ADD MSTORE POP JUMP JUMPDEST PUSH1 0x0 PUSH2 0x25E2 PUSH1 0x38 DUP4 PUSH2 0x1ECA JUMP JUMPDEST SWAP2 POP PUSH2 0x25ED DUP3 PUSH2 0x2586 JUMP JUMPDEST PUSH1 0x40 DUP3 ADD SWAP1 POP SWAP2 SWAP1 POP JUMP JUMPDEST PUSH1 0x0 PUSH1 0x20 DUP3 ADD SWAP1 POP DUP2 DUP2 SUB PUSH1 0x0 DUP4 ADD MSTORE PUSH2 0x2611 DUP2 PUSH2 0x25D5 JUMP JUMPDEST SWAP1 POP SWAP2 SWAP1 POP JUMP JUMPDEST PUSH32 0x496E697469616C697A61626C653A20636F6E747261637420697320616C726561 PUSH1 0x0 DUP3 ADD MSTORE PUSH32 0x647920696E697469616C697A6564000000000000000000000000000000000000 PUSH1 0x20 DUP3 ADD MSTORE POP JUMP JUMPDEST PUSH1 0x0 PUSH2 0x2674 PUSH1 0x2E DUP4 PUSH2 0x1ECA JUMP JUMPDEST SWAP2 POP PUSH2 0x267F DUP3 PUSH2 0x2618 JUMP JUMPDEST PUSH1 0x40 DUP3 ADD SWAP1 POP SWAP2 SWAP1 POP JUMP JUMPDEST PUSH1 0x0 PUSH1 0x20 DUP3 ADD SWAP1 POP DUP2 DUP2 SUB PUSH1 0x0 DUP4 ADD MSTORE PUSH2 0x26A3 DUP2 PUSH2 0x2667 JUMP JUMPDEST SWAP1 POP SWAP2 SWAP1 POP JUMP JUMPDEST PUSH1 0x0 DUP2 SWAP1 POP SWAP2 SWAP1 POP JUMP JUMPDEST PUSH1 0x0 DUP2 SWAP1 POP SWAP2 SWAP1 POP JUMP JUMPDEST PUSH1 0x0 PUSH2 0x26D9 PUSH2 0x26D4 PUSH2 0x26CF DUP5 PUSH2 0x26AA JUMP JUMPDEST PUSH2 0x26B4 JUMP JUMPDEST PUSH2 0x210C JUMP JUMPDEST SWAP1 POP SWAP2 SWAP1 POP JUMP JUMPDEST PUSH2 0x26E9 DUP2 PUSH2 0x26BE JUMP JUMPDEST DUP3 MSTORE POP POP JUMP JUMPDEST PUSH1 0x0 PUSH1 0x20 DUP3 ADD SWAP1 POP PUSH2 0x2704 PUSH1 0x0 DUP4 ADD DUP5 PUSH2 0x26E0 JUMP JUMPDEST SWAP3 SWAP2 POP POP JUMP JUMPDEST PUSH32 0x45524332303A2064656372656173656420616C6C6F77616E63652062656C6F77 PUSH1 0x0 DUP3 ADD MSTORE PUSH32 0x207A65726F000000000000000000000000000000000000000000000000000000 PUSH1 0x20 DUP3 ADD MSTORE POP JUMP JUMPDEST PUSH1 0x0 PUSH2 0x2766 PUSH1 0x25 DUP4 PUSH2 0x1ECA JUMP JUMPDEST SWAP2 POP PUSH2 0x2771 DUP3 PUSH2 0x270A JUMP JUMPDEST PUSH1 0x40 DUP3 ADD SWAP1 POP SWAP2 SWAP1 POP JUMP JUMPDEST PUSH1 0x0 PUSH1 0x20 DUP3 ADD SWAP1 POP DUP2 DUP2 SUB PUSH1 0x0 DUP4 ADD MSTORE PUSH2 0x2795 DUP2 PUSH2 0x2759 JUMP JUMPDEST SWAP1 POP SWAP2 SWAP1 POP JUMP JUMPDEST PUSH32 0x4F776E61626C653A206E6577206F776E657220697320746865207A65726F2061 PUSH1 0x0 DUP3 ADD MSTORE PUSH32 0x6464726573730000000000000000000000000000000000000000000000000000 PUSH1 0x20 DUP3 ADD MSTORE POP JUMP JUMPDEST PUSH1 0x0 PUSH2 0x27F8 PUSH1 0x26 DUP4 PUSH2 0x1ECA JUMP JUMPDEST SWAP2 POP PUSH2 0x2803 DUP3 PUSH2 0x279C JUMP JUMPDEST PUSH1 0x40 DUP3 ADD SWAP1 POP SWAP2 SWAP1 POP JUMP JUMPDEST PUSH1 0x0 PUSH1 0x20 DUP3 ADD SWAP1 POP DUP2 DUP2 SUB PUSH1 0x0 DUP4 ADD MSTORE PUSH2 0x2827 DUP2 PUSH2 0x27EB JUMP JUMPDEST SWAP1 POP SWAP2 SWAP1 POP JUMP JUMPDEST PUSH32 0x45524332303A20617070726F76652066726F6D20746865207A65726F20616464 PUSH1 0x0 DUP3 ADD MSTORE PUSH32 0x7265737300000000000000000000000000000000000000000000000000000000 PUSH1 0x20 DUP3 ADD MSTORE POP JUMP JUMPDEST PUSH1 0x0 PUSH2 0x288A PUSH1 0x24 DUP4 PUSH2 0x1ECA JUMP JUMPDEST SWAP2 POP PUSH2 0x2895 DUP3 PUSH2 0x282E JUMP JUMPDEST PUSH1 0x40 DUP3 ADD SWAP1 POP SWAP2 SWAP1 POP JUMP JUMPDEST PUSH1 0x0 PUSH1 0x20 DUP3 ADD SWAP1 POP DUP2 DUP2 SUB PUSH1 0x0 DUP4 ADD MSTORE PUSH2 0x28B9 DUP2 PUSH2 0x287D JUMP JUMPDEST SWAP1 POP SWAP2 SWAP1 POP JUMP JUMPDEST PUSH32 0x45524332303A20617070726F766520746F20746865207A65726F206164647265 PUSH1 0x0 DUP3 ADD MSTORE PUSH32 0x7373000000000000000000000000000000000000000000000000000000000000 PUSH1 0x20 DUP3 ADD MSTORE POP JUMP JUMPDEST PUSH1 0x0 PUSH2 0x291C PUSH1 0x22 DUP4 PUSH2 0x1ECA JUMP JUMPDEST SWAP2 POP PUSH2 0x2927 DUP3 PUSH2 0x28C0 JUMP JUMPDEST PUSH1 0x40 DUP3 ADD SWAP1 POP SWAP2 SWAP1 POP JUMP JUMPDEST PUSH1 0x0 PUSH1 0x20 DUP3 ADD SWAP1 POP DUP2 DUP2 SUB PUSH1 0x0 DUP4 ADD MSTORE PUSH2 0x294B DUP2 PUSH2 0x290F JUMP JUMPDEST SWAP1 POP SWAP2 SWAP1 POP JUMP JUMPDEST PUSH32 0x45524332303A20696E73756666696369656E7420616C6C6F77616E6365000000 PUSH1 0x0 DUP3 ADD MSTORE POP JUMP JUMPDEST PUSH1 0x0 PUSH2 0x2988 PUSH1 0x1D DUP4 PUSH2 0x1ECA JUMP JUMPDEST SWAP2 POP PUSH2 0x2993 DUP3 PUSH2 0x2952 JUMP JUMPDEST PUSH1 0x20 DUP3 ADD SWAP1 POP SWAP2 SWAP1 POP JUMP JUMPDEST PUSH1 0x0 PUSH1 0x20 DUP3 ADD SWAP1 POP DUP2 DUP2 SUB PUSH1 0x0 DUP4 ADD MSTORE PUSH2 0x29B7 DUP2 PUSH2 0x297B JUMP JUMPDEST SWAP1 POP SWAP2 SWAP1 POP JUMP JUMPDEST PUSH32 0x45524332303A207472616E736665722066726F6D20746865207A65726F206164 PUSH1 0x0 DUP3 ADD MSTORE PUSH32 0x6472657373000000000000000000000000000000000000000000000000000000 PUSH1 0x20 DUP3 ADD MSTORE POP JUMP JUMPDEST PUSH1 0x0 PUSH2 0x2A1A PUSH1 0x25 DUP4 PUSH2 0x1ECA JUMP JUMPDEST SWAP2 POP PUSH2 0x2A25 DUP3 PUSH2 0x29BE JUMP JUMPDEST PUSH1 0x40 DUP3 ADD SWAP1 POP SWAP2 SWAP1 POP JUMP JUMPDEST PUSH1 0x0 PUSH1 0x20 DUP3 ADD SWAP1 POP DUP2 DUP2 SUB PUSH1 0x0 DUP4 ADD MSTORE PUSH2 0x2A49 DUP2 PUSH2 0x2A0D JUMP JUMPDEST SWAP1 POP SWAP2 SWAP1 POP JUMP JUMPDEST PUSH32 0x45524332303A207472616E7366657220746F20746865207A65726F2061646472 PUSH1 0x0 DUP3 ADD MSTORE PUSH32 0x6573730000000000000000000000000000000000000000000000000000000000 PUSH1 0x20 DUP3 ADD MSTORE POP JUMP JUMPDEST PUSH1 0x0 PUSH2 0x2AAC PUSH1 0x23 DUP4 PUSH2 0x1ECA JUMP JUMPDEST SWAP2 POP PUSH2 0x2AB7 DUP3 PUSH2 0x2A50 JUMP JUMPDEST PUSH1 0x40 DUP3 ADD SWAP1 POP SWAP2 SWAP1 POP JUMP JUMPDEST PUSH1 0x0 PUSH1 0x20 DUP3 ADD SWAP1 POP DUP2 DUP2 SUB PUSH1 0x0 DUP4 ADD MSTORE PUSH2 0x2ADB DUP2 PUSH2 0x2A9F JUMP JUMPDEST SWAP1 POP SWAP2 SWAP1 POP JUMP JUMPDEST PUSH32 0x45524332303A207472616E7366657220616D6F756E7420657863656564732062 PUSH1 0x0 DUP3 ADD MSTORE PUSH32 0x616C616E63650000000000000000000000000000000000000000000000000000 PUSH1 0x20 DUP3 ADD MSTORE POP JUMP JUMPDEST PUSH1 0x0 PUSH2 0x2B3E PUSH1 0x26 DUP4 PUSH2 0x1ECA JUMP JUMPDEST SWAP2 POP PUSH2 0x2B49 DUP3 PUSH2 0x2AE2 JUMP JUMPDEST PUSH1 0x40 DUP3 ADD SWAP1 POP SWAP2 SWAP1 POP JUMP JUMPDEST PUSH1 0x0 PUSH1 0x20 DUP3 ADD SWAP1 POP DUP2 DUP2 SUB PUSH1 0x0 DUP4 ADD MSTORE PUSH2 0x2B6D DUP2 PUSH2 0x2B31 JUMP JUMPDEST SWAP1 POP SWAP2 SWAP1 POP JUMP JUMPDEST PUSH2 0x2B7D DUP2 PUSH2 0x2301 JUMP JUMPDEST DUP2 EQ PUSH2 0x2B88 JUMPI PUSH1 0x0 DUP1 REVERT JUMPDEST POP JUMP JUMPDEST PUSH1 0x0 DUP2 MLOAD SWAP1 POP PUSH2 0x2B9A DUP2 PUSH2 0x2B74 JUMP JUMPDEST SWAP3 SWAP2 POP POP JUMP JUMPDEST PUSH1 0x0 PUSH1 0x20 DUP3 DUP5 SUB SLT ISZERO PUSH2 0x2BB6 JUMPI PUSH2 0x2BB5 PUSH2 0x1F7B JUMP JUMPDEST JUMPDEST PUSH1 0x0 PUSH2 0x2BC4 DUP5 DUP3 DUP6 ADD PUSH2 0x2B8B JUMP JUMPDEST SWAP2 POP POP SWAP3 SWAP2 POP POP JUMP JUMPDEST PUSH32 0x45524331393637557067726164653A206E657720696D706C656D656E74617469 PUSH1 0x0 DUP3 ADD MSTORE PUSH32 0x6F6E206973206E6F742055555053000000000000000000000000000000000000 PUSH1 0x20 DUP3 ADD MSTORE POP JUMP JUMPDEST PUSH1 0x0 PUSH2 0x2C29 PUSH1 0x2E DUP4 PUSH2 0x1ECA JUMP JUMPDEST SWAP2 POP PUSH2 0x2C34 DUP3 PUSH2 0x2BCD JUMP JUMPDEST PUSH1 0x40 DUP3 ADD SWAP1 POP SWAP2 SWAP1 POP JUMP JUMPDEST PUSH1 0x0 PUSH1 0x20 DUP3 ADD SWAP1 POP DUP2 DUP2 SUB PUSH1 0x0 DUP4 ADD MSTORE PUSH2 0x2C58 DUP2 PUSH2 0x2C1C JUMP JUMPDEST SWAP1 POP SWAP2 SWAP1 POP JUMP JUMPDEST PUSH32 0x45524331393637557067726164653A20756E737570706F727465642070726F78 PUSH1 0x0 DUP3 ADD MSTORE PUSH32 0x6961626C65555549440000000000000000000000000000000000000000000000 PUSH1 0x20 DUP3 ADD MSTORE POP JUMP JUMPDEST PUSH1 0x0 PUSH2 0x2CBB PUSH1 0x29 DUP4 PUSH2 0x1ECA JUMP JUMPDEST SWAP2 POP PUSH2 0x2CC6 DUP3 PUSH2 0x2C5F JUMP JUMPDEST PUSH1 0x40 DUP3 ADD SWAP1 POP SWAP2 SWAP1 POP JUMP JUMPDEST PUSH1 0x0 PUSH1 0x20 DUP3 ADD SWAP1 POP DUP2 DUP2 SUB PUSH1 0x0 DUP4 ADD MSTORE PUSH2 0x2CEA DUP2 PUSH2 0x2CAE JUMP JUMPDEST SWAP1 POP SWAP2 SWAP1 POP JUMP JUMPDEST PUSH32 0x4F776E61626C653A2063616C6C6572206973206E6F7420746865206F776E6572 PUSH1 0x0 DUP3 ADD MSTORE POP JUMP JUMPDEST PUSH1 0x0 PUSH2 0x2D27 PUSH1 0x20 DUP4 PUSH2 0x1ECA JUMP JUMPDEST SWAP2 POP PUSH2 0x2D32 DUP3 PUSH2 0x2CF1 JUMP JUMPDEST PUSH1 0x20 DUP3 ADD SWAP1 POP SWAP2 SWAP1 POP JUMP JUMPDEST PUSH1 0x0 PUSH1 0x20 DUP3 ADD SWAP1 POP DUP2 DUP2 SUB PUSH1 0x0 DUP4 ADD MSTORE PUSH2 0x2D56 DUP2 PUSH2 0x2D1A JUMP JUMPDEST SWAP1 POP SWAP2 SWAP1 POP JUMP JUMPDEST PUSH32 0x45524332303A206D696E7420746F20746865207A65726F206164647265737300 PUSH1 0x0 DUP3 ADD MSTORE POP JUMP JUMPDEST PUSH1 0x0 PUSH2 0x2D93 PUSH1 0x1F DUP4 PUSH2 0x1ECA JUMP JUMPDEST SWAP2 POP PUSH2 0x2D9E DUP3 PUSH2 0x2D5D JUMP JUMPDEST PUSH1 0x20 DUP3 ADD SWAP1 POP SWAP2 SWAP1 POP JUMP JUMPDEST PUSH1 0x0 PUSH1 0x20 DUP3 ADD SWAP1 POP DUP2 DUP2 SUB PUSH1 0x0 DUP4 ADD MSTORE PUSH2 0x2DC2 DUP2 PUSH2 0x2D86 JUMP JUMPDEST SWAP1 POP SWAP2 SWAP1 POP JUMP JUMPDEST PUSH32 0x496E697469616C697A61626C653A20636F6E7472616374206973206E6F742069 PUSH1 0x0 DUP3 ADD MSTORE PUSH32 0x6E697469616C697A696E67000000000000000000000000000000000000000000 PUSH1 0x20 DUP3 ADD MSTORE POP JUMP JUMPDEST PUSH1 0x0 PUSH2 0x2E25 PUSH1 0x2B DUP4 PUSH2 0x1ECA JUMP JUMPDEST SWAP2 POP PUSH2 0x2E30 DUP3 PUSH2 0x2DC9 JUMP JUMPDEST PUSH1 0x40 DUP3 ADD SWAP1 POP SWAP2 SWAP1 POP JUMP JUMPDEST PUSH1 0x0 PUSH1 0x20 DUP3 ADD SWAP1 POP DUP2 DUP2 SUB PUSH1 0x0 DUP4 ADD MSTORE PUSH2 0x2E54 DUP2 PUSH2 0x2E18 JUMP JUMPDEST SWAP1 POP SWAP2 SWAP1 POP JUMP JUMPDEST PUSH32 0x455243313936373A206E657720696D706C656D656E746174696F6E206973206E PUSH1 0x0 DUP3 ADD MSTORE PUSH32 0x6F74206120636F6E747261637400000000000000000000000000000000000000 PUSH1 0x20 DUP3 ADD MSTORE POP JUMP JUMPDEST PUSH1 0x0 PUSH2 0x2EB7 PUSH1 0x2D DUP4 PUSH2 0x1ECA JUMP JUMPDEST SWAP2 POP PUSH2 0x2EC2 DUP3 PUSH2 0x2E5B JUMP JUMPDEST PUSH1 0x40 DUP3 ADD SWAP1 POP SWAP2 SWAP1 POP JUMP JUMPDEST PUSH1 0x0 PUSH1 0x20 DUP3 ADD SWAP1 POP DUP2 DUP2 SUB PUSH1 0x0 DUP4 ADD MSTORE PUSH2 0x2EE6 DUP2 PUSH2 0x2EAA JUMP JUMPDEST SWAP1 POP SWAP2 SWAP1 POP JUMP JUMPDEST PUSH32 0x5061757361626C653A206E6F7420706175736564000000000000000000000000 PUSH1 0x0 DUP3 ADD MSTORE POP JUMP JUMPDEST PUSH1 0x0 PUSH2 0x2F23 PUSH1 0x14 DUP4 PUSH2 0x1ECA JUMP JUMPDEST SWAP2 POP PUSH2 0x2F2E DUP3 PUSH2 0x2EED JUMP JUMPDEST PUSH1 0x20 DUP3 ADD SWAP1 POP SWAP2 SWAP1 POP JUMP JUMPDEST PUSH1 0x0 PUSH1 0x20 DUP3 ADD SWAP1 POP DUP2 DUP2 SUB PUSH1 0x0 DUP4 ADD MSTORE PUSH2 0x2F52 DUP2 PUSH2 0x2F16 JUMP JUMPDEST SWAP1 POP SWAP2 SWAP1 POP JUMP JUMPDEST PUSH1 0x0 DUP2 SWAP1 POP DUP2 PUSH1 0x0 MSTORE PUSH1 0x20 PUSH1 0x0 KECCAK256 SWAP1 POP SWAP2 SWAP1 POP JUMP JUMPDEST PUSH1 0x0 PUSH1 0x20 PUSH1 0x1F DUP4 ADD DIV SWAP1 POP SWAP2 SWAP1 POP JUMP JUMPDEST PUSH1 0x0 DUP3 DUP3 SHL SWAP1 POP SWAP3 SWAP2 POP POP JUMP JUMPDEST PUSH1 0x0 PUSH1 0x8 DUP4 MUL PUSH2 0x2FBB PUSH32 0xFFFFFFFFFFFFFFFFFFFFFFFFFFFFFFFFFFFFFFFFFFFFFFFFFFFFFFFFFFFFFFFF DUP3 PUSH2 0x2F7E JUMP JUMPDEST PUSH2 0x2FC5 DUP7 DUP4 PUSH2 0x2F7E JUMP JUMPDEST SWAP6 POP DUP1 NOT DUP5 AND SWAP4 POP DUP1 DUP7 AND DUP5 OR SWAP3 POP POP POP SWAP4 SWAP3 POP POP POP JUMP JUMPDEST PUSH1 0x0 PUSH2 0x2FF8 PUSH2 0x2FF3 PUSH2 0x2FEE DUP5 PUSH2 0x1FE3 JUMP JUMPDEST PUSH2 0x26B4 JUMP JUMPDEST PUSH2 0x1FE3 JUMP JUMPDEST SWAP1 POP SWAP2 SWAP1 POP JUMP JUMPDEST PUSH1 0x0 DUP2 SWAP1 POP SWAP2 SWAP1 POP JUMP JUMPDEST PUSH2 0x3012 DUP4 PUSH2 0x2FDD JUMP JUMPDEST PUSH2 0x3026 PUSH2 0x301E DUP3 PUSH2 0x2FFF JUMP JUMPDEST DUP5 DUP5 SLOAD PUSH2 0x2F8B JUMP JUMPDEST DUP3 SSTORE POP POP POP POP JUMP JUMPDEST PUSH1 0x0 SWAP1 JUMP JUMPDEST PUSH2 0x303B PUSH2 0x302E JUMP JUMPDEST PUSH2 0x3046 DUP2 DUP5 DUP5 PUSH2 0x3009 JUMP JUMPDEST POP POP POP JUMP JUMPDEST JUMPDEST DUP2 DUP2 LT ISZERO PUSH2 0x306A JUMPI PUSH2 0x305F PUSH1 0x0 DUP3 PUSH2 0x3033 JUMP JUMPDEST PUSH1 0x1 DUP2 ADD SWAP1 POP PUSH2 0x304C JUMP JUMPDEST POP POP JUMP JUMPDEST PUSH1 0x1F DUP3 GT ISZERO PUSH2 0x30AF JUMPI PUSH2 0x3080 DUP2 PUSH2 0x2F59 JUMP JUMPDEST PUSH2 0x3089 DUP5 PUSH2 0x2F6E JUMP JUMPDEST DUP2 ADD PUSH1 0x20 DUP6 LT ISZERO PUSH2 0x3098 JUMPI DUP2 SWAP1 POP JUMPDEST PUSH2 0x30AC PUSH2 0x30A4 DUP6 PUSH2 0x2F6E JUMP JUMPDEST DUP4 ADD DUP3 PUSH2 0x304B JUMP JUMPDEST POP POP JUMPDEST POP POP POP JUMP JUMPDEST PUSH1 0x0 DUP3 DUP3 SHR SWAP1 POP SWAP3 SWAP2 POP POP JUMP JUMPDEST PUSH1 0x0 PUSH2 0x30D2 PUSH1 0x0 NOT DUP5 PUSH1 0x8 MUL PUSH2 0x30B4 JUMP JUMPDEST NOT DUP1 DUP4 AND SWAP2 POP POP SWAP3 SWAP2 POP POP JUMP JUMPDEST PUSH1 0x0 PUSH2 0x30EB DUP4 DUP4 PUSH2 0x30C1 JUMP JUMPDEST SWAP2 POP DUP3 PUSH1 0x2 MUL DUP3 OR SWAP1 POP SWAP3 SWAP2 POP POP JUMP JUMPDEST PUSH2 0x3104 DUP3 PUSH2 0x1EBF JUMP JUMPDEST PUSH8 0xFFFFFFFFFFFFFFFF DUP2 GT ISZERO PUSH2 0x311D JUMPI PUSH2 0x311C PUSH2 0x217A JUMP JUMPDEST JUMPDEST PUSH2 0x3127 DUP3 SLOAD PUSH2 0x23CE JUMP JUMPDEST PUSH2 0x3132 DUP3 DUP3 DUP6 PUSH2 0x306E JUMP JUMPDEST PUSH1 0x0 PUSH1 0x20 SWAP1 POP PUSH1 0x1F DUP4 GT PUSH1 0x1 DUP2 EQ PUSH2 0x3165 JUMPI PUSH1 0x0 DUP5 ISZERO PUSH2 0x3153 JUMPI DUP3 DUP8 ADD MLOAD SWAP1 POP JUMPDEST PUSH2 0x315D DUP6 DUP3 PUSH2 0x30DF JUMP JUMPDEST DUP7 SSTORE POP PUSH2 0x31C5 JUMP JUMPDEST PUSH1 0x1F NOT DUP5 AND PUSH2 0x3173 DUP7 PUSH2 0x2F59 JUMP JUMPDEST PUSH1 0x0 JUMPDEST DUP3 DUP2 LT ISZERO PUSH2 0x319B JUMPI DUP5 DUP10 ADD MLOAD DUP3 SSTORE PUSH1 0x1 DUP3 ADD SWAP2 POP PUSH1 0x20 DUP6 ADD SWAP5 POP PUSH1 0x20 DUP2 ADD SWAP1 POP PUSH2 0x3176 JUMP JUMPDEST DUP7 DUP4 LT ISZERO PUSH2 0x31B8 JUMPI DUP5 DUP10 ADD MLOAD PUSH2 0x31B4 PUSH1 0x1F DUP10 AND DUP3 PUSH2 0x30C1 JUMP JUMPDEST DUP4 SSTORE POP JUMPDEST PUSH1 0x1 PUSH1 0x2 DUP9 MUL ADD DUP9 SSTORE POP POP POP JUMPDEST POP POP POP POP POP POP JUMP JUMPDEST PUSH32 0x5061757361626C653A2070617573656400000000000000000000000000000000 PUSH1 0x0 DUP3 ADD MSTORE POP JUMP JUMPDEST PUSH1 0x0 PUSH2 0x3203 PUSH1 0x10 DUP4 PUSH2 0x1ECA JUMP JUMPDEST SWAP2 POP PUSH2 0x320E DUP3 PUSH2 0x31CD JUMP JUMPDEST PUSH1 0x20 DUP3 ADD SWAP1 POP SWAP2 SWAP1 POP JUMP JUMPDEST PUSH1 0x0 PUSH1 0x20 DUP3 ADD SWAP1 POP DUP2 DUP2 SUB PUSH1 0x0 DUP4 ADD MSTORE PUSH2 0x3232 DUP2 PUSH2 0x31F6 JUMP JUMPDEST SWAP1 POP SWAP2 SWAP1 POP JUMP JUMPDEST PUSH1 0x0 DUP2 MLOAD SWAP1 POP SWAP2 SWAP1 POP JUMP JUMPDEST PUSH1 0x0 DUP2 SWAP1 POP SWAP3 SWAP2 POP POP JUMP JUMPDEST PUSH1 0x0 PUSH2 0x325A DUP3 PUSH2 0x3239 JUMP JUMPDEST PUSH2 0x3264 DUP2 DUP6 PUSH2 0x3244 JUMP JUMPDEST SWAP4 POP PUSH2 0x3274 DUP2 DUP6 PUSH1 0x20 DUP7 ADD PUSH2 0x1EDB JUMP JUMPDEST DUP1 DUP5 ADD SWAP2 POP POP SWAP3 SWAP2 POP POP JUMP JUMPDEST PUSH1 0x0 PUSH2 0x328C DUP3 DUP5 PUSH2 0x324F JUMP JUMPDEST SWAP2 POP DUP2 SWAP1 POP SWAP3 SWAP2 POP POP JUMP JUMPDEST PUSH32 0x416464726573733A2063616C6C20746F206E6F6E2D636F6E7472616374000000 PUSH1 0x0 DUP3 ADD MSTORE POP JUMP JUMPDEST PUSH1 0x0 PUSH2 0x32CD PUSH1 0x1D DUP4 PUSH2 0x1ECA JUMP JUMPDEST SWAP2 POP PUSH2 0x32D8 DUP3 PUSH2 0x3297 JUMP JUMPDEST PUSH1 0x20 DUP3 ADD SWAP1 POP SWAP2 SWAP1 POP JUMP JUMPDEST PUSH1 0x0 PUSH1 0x20 DUP3 ADD SWAP1 POP DUP2 DUP2 SUB PUSH1 0x0 DUP4 ADD MSTORE PUSH2 0x32FC DUP2 PUSH2 0x32C0 JUMP JUMPDEST SWAP1 POP SWAP2 SWAP1 POP JUMP INVALID COINBASE PUSH5 0x6472657373 GASPRICE KECCAK256 PUSH13 0x6F772D6C6576656C2064656C65 PUSH8 0x6174652063616C6C KECCAK256 PUSH7 0x61696C6564A264 PUSH10 0x706673582212202D45DB OR 0xD5 BLOCKHASH 0xAB PUSH25 0x8205625ABC537CFB7436CF799911F5BE530C0D576AA8E9B864 PUSH20 0x6F6C634300081200330000000000000000000000 "
				},
				"gasEstimates": {
					"creation": {
						"codeDepositCost": "2630400",
						"executionCost": "infinite",
						"totalCost": "infinite"
					},
					"external": {
						"allowance(address,address)": "infinite",
						"approve(address,uint256)": "infinite",
						"balanceOf(address)": "2886",
						"decimals()": "455",
						"decreaseAllowance(address,uint256)": "infinite",
						"increaseAllowance(address,uint256)": "infinite",
						"initialize()": "infinite",
						"mint(address,uint256)": "infinite",
						"name()": "infinite",
						"owner()": "2544",
						"pause()": "infinite",
						"paused()": "2502",
						"proxiableUUID()": "infinite",
						"renounceOwnership()": "30465",
						"symbol()": "infinite",
						"totalSupply()": "2505",
						"transfer(address,uint256)": "infinite",
						"transferFrom(address,address,uint256)": "infinite",
						"transferOwnership(address)": "30876",
						"unpause()": "infinite",
						"upgradeTo(address)": "infinite",
						"upgradeToAndCall(address,bytes)": "infinite"
					},
					"internal": {
						"_authorizeUpgrade(address)": "infinite",
						"_beforeTokenTransfer(address,address,uint256)": "infinite"
					}
				},
				"methodIdentifiers": {
					"allowance(address,address)": "dd62ed3e",
					"approve(address,uint256)": "095ea7b3",
					"balanceOf(address)": "70a08231",
					"decimals()": "313ce567",
					"decreaseAllowance(address,uint256)": "a457c2d7",
					"increaseAllowance(address,uint256)": "39509351",
					"initialize()": "8129fc1c",
					"mint(address,uint256)": "40c10f19",
					"name()": "06fdde03",
					"owner()": "8da5cb5b",
					"pause()": "8456cb59",
					"paused()": "5c975abb",
					"proxiableUUID()": "52d1902d",
					"renounceOwnership()": "715018a6",
					"symbol()": "95d89b41",
					"totalSupply()": "18160ddd",
					"transfer(address,uint256)": "a9059cbb",
					"transferFrom(address,address,uint256)": "23b872dd",
					"transferOwnership(address)": "f2fde38b",
					"unpause()": "3f4ba83a",
					"upgradeTo(address)": "3659cfe6",
					"upgradeToAndCall(address,bytes)": "4f1ef286"
				}
			},
			"storageLayout": {
				"storage": [
					{
						"astId": 503,
						"contract": "contract-bed87a3bb7.sol:WITS",
						"label": "_initialized",
						"offset": 0,
						"slot": "0",
						"type": "t_uint8"
					},
					{
						"astId": 506,
						"contract": "contract-bed87a3bb7.sol:WITS",
						"label": "_initializing",
						"offset": 1,
						"slot": "0",
						"type": "t_bool"
					},
					{
						"astId": 2014,
						"contract": "contract-bed87a3bb7.sol:WITS",
						"label": "__gap",
						"offset": 0,
						"slot": "1",
						"type": "t_array(t_uint256)50_storage"
					},
					{
						"astId": 947,
						"contract": "contract-bed87a3bb7.sol:WITS",
						"label": "_balances",
						"offset": 0,
						"slot": "51",
						"type": "t_mapping(t_address,t_uint256)"
					},
					{
						"astId": 953,
						"contract": "contract-bed87a3bb7.sol:WITS",
						"label": "_allowances",
						"offset": 0,
						"slot": "52",
						"type": "t_mapping(t_address,t_mapping(t_address,t_uint256))"
					},
					{
						"astId": 955,
						"contract": "contract-bed87a3bb7.sol:WITS",
						"label": "_totalSupply",
						"offset": 0,
						"slot": "53",
						"type": "t_uint256"
					},
					{
						"astId": 957,
						"contract": "contract-bed87a3bb7.sol:WITS",
						"label": "_name",
						"offset": 0,
						"slot": "54",
						"type": "t_string_storage"
					},
					{
						"astId": 959,
						"contract": "contract-bed87a3bb7.sol:WITS",
						"label": "_symbol",
						"offset": 0,
						"slot": "55",
						"type": "t_string_storage"
					},
					{
						"astId": 1539,
						"contract": "contract-bed87a3bb7.sol:WITS",
						"label": "__gap",
						"offset": 0,
						"slot": "56",
						"type": "t_array(t_uint256)45_storage"
					},
					{
						"astId": 822,
						"contract": "contract-bed87a3bb7.sol:WITS",
						"label": "_paused",
						"offset": 0,
						"slot": "101",
						"type": "t_bool"
					},
					{
						"astId": 927,
						"contract": "contract-bed87a3bb7.sol:WITS",
						"label": "__gap",
						"offset": 0,
						"slot": "102",
						"type": "t_array(t_uint256)49_storage"
					},
					{
						"astId": 10,
						"contract": "contract-bed87a3bb7.sol:WITS",
						"label": "_owner",
						"offset": 0,
						"slot": "151",
						"type": "t_address"
					},
					{
						"astId": 130,
						"contract": "contract-bed87a3bb7.sol:WITS",
						"label": "__gap",
						"offset": 0,
						"slot": "152",
						"type": "t_array(t_uint256)49_storage"
					},
					{
						"astId": 485,
						"contract": "contract-bed87a3bb7.sol:WITS",
						"label": "__gap",
						"offset": 0,
						"slot": "201",
						"type": "t_array(t_uint256)50_storage"
					},
					{
						"astId": 800,
						"contract": "contract-bed87a3bb7.sol:WITS",
						"label": "__gap",
						"offset": 0,
						"slot": "251",
						"type": "t_array(t_uint256)50_storage"
					}
				],
				"types": {
					"t_address": {
						"encoding": "inplace",
						"label": "address",
						"numberOfBytes": "20"
					},
					"t_array(t_uint256)45_storage": {
						"base": "t_uint256",
						"encoding": "inplace",
						"label": "uint256[45]",
						"numberOfBytes": "1440"
					},
					"t_array(t_uint256)49_storage": {
						"base": "t_uint256",
						"encoding": "inplace",
						"label": "uint256[49]",
						"numberOfBytes": "1568"
					},
					"t_array(t_uint256)50_storage": {
						"base": "t_uint256",
						"encoding": "inplace",
						"label": "uint256[50]",
						"numberOfBytes": "1600"
					},
					"t_bool": {
						"encoding": "inplace",
						"label": "bool",
						"numberOfBytes": "1"
					},
					"t_mapping(t_address,t_mapping(t_address,t_uint256))": {
						"encoding": "mapping",
						"key": "t_address",
						"label": "mapping(address => mapping(address => uint256))",
						"numberOfBytes": "32",
						"value": "t_mapping(t_address,t_uint256)"
					},
					"t_mapping(t_address,t_uint256)": {
						"encoding": "mapping",
						"key": "t_address",
						"label": "mapping(address => uint256)",
						"numberOfBytes": "32",
						"value": "t_uint256"
					},
					"t_string_storage": {
						"encoding": "bytes",
						"label": "string",
						"numberOfBytes": "32"
					},
					"t_uint256": {
						"encoding": "inplace",
						"label": "uint256",
						"numberOfBytes": "32"
					},
					"t_uint8": {
						"encoding": "inplace",
						"label": "uint8",
						"numberOfBytes": "1"
					}
				}
			},
			"userdoc": {
				"kind": "user",
				"methods": {},
				"version": 1
			}
		}
	}
}